:020000040800F2
:1000000030DA0020ED030008F5030008F7030008CC
:10001000F9030008FB030008FD03000800000000CE
:10002000000000000000000000000000290300089C
:100030000104000800000000C1030008D10300080B
:100040000704000807040008070400080704000864
:100050000704000807040008070400080704000854
:100060000704000807040008070400080704000844
:100070000704000807040008070400080704000834
:100080000704000807040008070400080704000824
:100090000704000807040008070400080704000814
:1000A0000704000807040008070400080704000804
:1000B00007040008070400080704000807040008F4
:1000C00007040008070400080704000807040008E4
:1000D000070400080153000807040008070400088B
:1000E00007040008070400080704000807040008C4
:1000F00007040008070400080704000807040008B4
:1001000007040008070400080704000807040008A3
:100110000704000807040008070400080704000893
:100120000704000807040008070400080704000883
:100130000704000807040008070400080704000873
:100140000704000807040008070400080704000863
:100150000704000807040008070400080704000853
:100160000704000807040008070400080704000843
:100170000704000807040008070400080000000046
:100180000704000807040008070400080704000823
:100190000704000807040008070400080704000813
:1001A00007040008070400080704000800F002F82C
:1001B00000F0A6F80AA090E8000C82448344AAF15B
:1001C0000107DA4501D100F09BF8AFF2090EBAE859
:1001D0000F0013F0010F18BFFB1A43F0010318477B
:1001E00040FD010060FD0100103A24BF78C878C1CD
:1001F000FAD8520724BF30C830C144BF04680C602D
:10020000704700000023002400250026103A28BF74
:1002100078C1FBD8520728BF30C148BF0B60704778
:100220006E2902F09F80702902F0038266291DF07A
:10023000AE8165291DF0AB8167291DF0A881612978
:100240001DF0A78103681B0A28BF41F080016929BE
:1002500002F04C80642902F04980752902F0468042
:100260006F2902F09181782902F0CF81E92902F00B
:100270002B81E42902F02881F52902F02581EF295C
:1002800002F08E81F82902F0CE810368DB0928BFD5
:1002900041F08001632901F0CC80732901F0D18005
:1002A000E32903F06386F32903F068860020704792
:1002B0001FB51DF057F99DE8030000F069FD01F03E
:1002C00006FF0400002000211CF0D8FA401C6060EA
:1002D000002000211CF0BCFAE060002000211CF08E
:1002E000E3FA206101F098FA00F008FA1FBD10B59A
:1002F000002001F093FC01F007FB03F03BFC10BD74
:1003000001F0C0FE114603B418F060FC03BCFFF717
:10031000CFFF18F0C5FC03F0F6FB03B4FFF7E7FFCF
:1003200003BC00F0FDF900001EF0040F0CBFEFF35A
:100330000880EFF30980816911F8021C91BB01B5B7
:1003400090E80F10E047BDE800508CE80300244B14
:1003500093E80600914208BF704741B91EF0100FA4
:1003600010D12049086820F0010008600AE02CE95B
:10037000F00F1EF0100F08BF2CED108AC1F838C026
:1003800081F822E01A6092F82210906B61F0FF0E63
:100390001EF0100F08BFB0EC108AB0E8F00F80F329
:1003A00009887047104A13689942FAD801B552F883
:1003B00021C00FC8E047BDE80050CCF800007047EE
:1003C00001B519F063FABDE80140EFF3098CBEE70F
:1003D00001B519F0EDFCBDE80140EFF3098CB6E77B
:1003E0003000002034EF00E0BCFB010809488047E2
:1003F00009480047FEE7FEE7FEE7FEE7FEE7FEE707
:10040000FEE7FEE7FEE7FEE704480549054A064B1E
:1004100070470000D9510008AD010008E8B5002080
:1004200030DA002030D6002030D6002010B5002071
:1004300000F015FCFFF75BFFBDE81040012000F065
:100440006FB90B460146184600F0F2BB40EA0103C3
:1004500010B59B070FD1042A0DD310C808C9121F6D
:100460009C42F8D020BA19BA884201D9012010BDA7
:100470004FF0FF3010BD1AB1D30703D0521C07E074
:10048000002010BD10F8013B11F8014B1B1B07D1D8
:1004900010F8013B11F8014B1B1B01D1921EF1D149
:1004A000184610BD10B5431C02E010F8011B71B1D5
:1004B0008107FAD14FF0013202C88C1A8C4314EA3A
:1004C000C211F9D0C01A0A0603D0C01E10BDC01A4E
:1004D00010BD0A0401D0801E10BD0902FCD0401ED0
:1004E00010BDCBB22AB101788B4203D0401C521E02
:1004F000F9D100207047032A40F2308010F0030C3D
:1005000000F0158011F8013BBCF1020F624498BF66
:1005100011F801CB00F8013B38BF11F8013BA2F103
:10052000040298BF00F801CB38BF00F8013B11F07E
:10053000030300F02580083AC0F0088051F8043B1E
:10054000083A51F804CBA0E80810F5E7121D5CBF8B
:1005500051F8043B40F8043BAFF30080D20724BFBE
:1005600011F8013B11F801CB48BF11F8012B24BF52
:1005700000F8013B00F801CB48BF00F8012B7047A1
:1005800010B5203AC0F00B80B1E81850A0E8185020
:10059000B1E81850A0E81850203ABFF4F5AF5FEA70
:1005A000027C24BFB1E81850A0E8185044BF18C915
:1005B00018C0BDE810405FEA827C24BF51F8043BBC
:1005C00040F8043B08BF7047D20728BF31F8023B10
:1005D00048BF11F8012B28BF20F8023B48BF00F8A4
:1005E000012B70474FF000020429C0F0128010F078
:1005F000030C00F01B80CCF1040CBCF1020F18BFFF
:1006000000F8012BA8BF20F8022BA1EB0C0100F091
:100610000DB85FEAC17C24BF00F8012B00F8012B64
:1006200048BF00F8012B70474FF0000200B5134699
:1006300094469646203922BFA0E80C50A0E80C5002
:10064000B1F12001BFF4F7AF090728BFA0E80C50B3
:1006500048BF0CC05DF804EB890028BF40F8042BAC
:1006600008BF704748BF20F8022B11F0804F18BF19
:1006700000F8012B7047000030B44FF0013C50F8F7
:10068000042B51F8043BCCFA52F4D51A20D1FCB912
:1006900050F8042B51F8043BCCFA52F4D51A17D178
:1006A000B4B950F8042B51F8043BCCFA52F4D51AE3
:1006B0000ED16CB950F8042B51F8043BCCFA52F42B
:1006C000D51A05D1002CDAD030BC4FF000007047AD
:1006D00029BAB1FA81F111F01801D1F1200084405A
:1006E000F2D1CA40CB4012F0FF0213F0FF0330BC3E
:1006F000D01A7047704770477047000070B5064CBD
:100700007C44064D7D4404E020460168084480474F
:10071000241DAC42F8D170BDF8FA010008FB0100BD
:1007200001491820ABBEFEE72600020018F0FEB912
:100730000844401E491E884370470821001DF7E702
:100740002DE9F04117460E460446FFF7F6FFA0429A
:10075000054633D9002F1CBF06F10C0018F00CFA27
:1007600030467468F4B12168A94217D305F1080234
:1007700091423CBF6168416007D3626861194A6079
:100780002268521B0A6041602560002F1CBF06F1E1
:100790000C0018F010FA201DBDE8F08120466468B6
:1007A000002CE0D12946304600F0DEFA0028D7D1EF
:1007B000002F1CBF06F10C0018F0FDF90020BDE869
:1007C000F08110B5044600F0C1FA01682046BDE88A
:1007D00010400122B4E770B516460D46041F0028EC
:1007E00008BF70BD002E1CBF05F10C0018F0C4F945
:1007F0002B465868002818BFA04238BF0346F8D3DC
:100800001968CA18A24218BF5C6003D122681C464E
:100810001144196021680A19824218BF606004D12E
:1008200042686260006808442060002E1CBF05F129
:100830000C0018F0C0F970BD10B5044600F086FA3F
:1008400001682046BDE810400122C4E710B5FFF75B
:100850006DFF006810BD10B50446FFF767FF046028
:1008600010BD00000FB47CB50C0009AA009001D0A7
:100870002044401E084B7B4469460190089800F0D4
:10088000AEFD05461CB10020694600F0BBFD2846C0
:100890007CBC5DF814FB0000950B000070B50C46A5
:1008A0000546012A05D02878800600D5EA6900238C
:1008B00002E0012305E05B1C934202D2E05C0028C9
:1008C000F9D1A869E618C01AA861286A18442862F4
:1008D000284601F0D1FC04E0D5E9012114F8010B10
:1008E0009047B442F8D3284601F0DCFC70BD00000C
:1008F0002DE9F05F894604464FF0000ADFF874B135
:10090000FB44C0F820A02046E1688847002874D046
:10091000252806D0D4E901219047206A401C206296
:10092000F1E700265F462046E16888472028054613
:1009300007DB312D05D2781910F8200C08B10643D9
:10094000F1E7B00701D526F00406C4F81CA0002783
:10095000C4F818A02A2D09D028461BF098FE38B3F9
:1009600004EB8708303DC8F8185019E059F8041B0B
:10097000204604EB87029161E1688847012F054614
:1009800018D1E069002820DA26F020061DE0D8F80A
:10099000180000EB800005EB40003038C8F8180064
:1009A0002046E168884705461BF071FE0028EED11D
:1009B000012F0AD02E2D08D12046E16888477F1CE0
:1009C0000546022F46F02006C4DBA069002803DAA2
:1009D000404246F00106A061F00701D026F0100663
:1009E0006C2D0BD0682D09D04C2D39D06A2D35D007
:1009F000742D35D07A2D33D016E038E0E1682F46DB
:100A000020468847B842054609D16C2F26D04FF4BE
:100A10008060E168064320468847054604E06C2F65
:100A20001AD04FF4807006430DB3A5F14100192888
:100A300002D8203546F400664A46294620462660FC
:100A40004E46FFF7EDFB80B101280BD0F61D26F0D6
:100A5000070000F1080956E74020E4E78020D8E7C6
:100A60000020D6E706F104094DE7284652E7206A40
:100A7000BDE8F09F1CCE01000FB40B0010B54FF085
:100A800000048AB00FA900910E99CC60234C7C44DD
:100A9000234A7A44CDE9064200D004236FF0004295
:100AA000CDE901321F4A7A446B4608920246002083
:100AB0001CF0D1FD0AB010BC5DF814FBF0B5074680
:100AC0004FF0FF301E4615460C463B4685B06A4641
:100AD0000091CDE9010131460020049004A8FFF700
:100AE000CBFF04990346601825B109B1024600E026
:100AF00022462A6000290ED0002B02DD0099814297
:100B000009D03B466A463146001B0094CDE90104FA
:100B100004A8FFF7B1FF05B0F0BD00002B0A0000EC
:100B2000450A00004D04000000F0ECBC00F032BDAE
:100B300000F062BECA68431C0FD00D4B1A420CD1A4
:100B4000D3070AD081F825004B680B6300238B6024
:100B500012F0C06F0B6003D004E04FF0FF3070471D
:100B600042F00072034B1A40034B1A43CA607047AD
:100B700080200800BFFFDFFF0010480070B50C4662
:100B8000064601F14C05284617F0F6FF214630468F
:100B9000FFF7D0FF0446284618F00DF8204670BD38
:100BA0002DE9F041044600F14C07384617F0E4FF08
:100BB000E068810712D0800601D5A66A04E0A16929
:100BC000606808442169461A204600F0D1FD0022E1
:100BD00005463146204600F01BFD00E00025384662
:100BE00017F0E9FF2846BDE8F0812DE9F04118B182
:100BF000BDE8F041FFF7D4BF0B4E0025304617F09B
:100C0000BBFF0A4C6F1E07E02046FFF7C9FF00B18B
:100C10003D46206D20F00104002CF5D1304617F040
:100C2000CAFF2846DFE700000C000020C0000020BB
:100C30002DE9F041074615460E461020FFF7C1FD8D
:100C400004000AD06760C4E9026500F084F8016816
:100C5000216004600020BDE8F0810120FBE710B5B1
:100C600001F002F8BDE8104000F0F9BF920001F079
:100C700013B8920001F014B8002101E0001D491CD6
:100C80000268002AFAD10846704710B50B460446A0
:100C900091001A46FFF7CAFC204610BD431A28BF30
:100CA0009A427FF628AC10441144032A40F2268071
:100CB00010F0030F1EBF11F8013D521E00F8013D58
:100CC00010F0030F7FF4F6AF11F0030300F0FF877D
:100CD000083AC0F00B8051F8043D083A51F804CDB1
:100CE00040F8043D40F804CDFFF7F3BF121D5CBF90
:100CF00051F8043D40F8043DAFF30080D20724BF13
:100D000011F8013D11F801CD48BF11F8012C24BFA5
:100D100000F8013D00F801CD48BF00F8012C7047F4
:100D200002F0FF0343EA032242EA0242FFF75CBCFF
:100D300000487047BC0100207047000010B501F06A
:100D4000C6F9001D10BD00BF35BB010010B5FFF78F
:100D5000EFFF083010BD10B5FFF7EAFF383010BDC7
:100D6000704770477047704738B504460A46002000
:100D70006946AFF30080002808BF38BD02460099DD
:100D8000204601F0B0F9012038BD012002F0E4BE98
:100D9000F8B5AFF30080054600200C46102000BFD8
:100DA0000646A819A0420DD9324669460020AFF385
:100DB0000080070008BF02F0CFFE0098A04218BFD5
:100DC0000546C419FFF7C2FF05600746F01D20F075
:100DD00007004619284600F00AF8B44208BFF8BDDB
:100DE000A21B31463868BDE8F84001F07CB900210B
:100DF0000160C0E901100C3017F0CEBE1020704722
:100E00000844401E491E884370470821001DF7E72B
:100E10002DE9F0410F468046041FFFF797FF066853
:100E200007B3B8F1000F384622D0FFF7EEFFB84203
:100E300005463CBF0020BDE8F08106F10C0017F02C
:100E40009BFE2268AA4238BF314615D3511B0829A0
:100E500031D36019002240F8041B31462560FFF7AA
:100E6000BAFC28E04046FFF7E7FC0020BDE8F0812F
:100E7000BDE8F041FFF7A5BC4868002818BFA042B4
:100E800038BF0146F8D3131983421BD103681A44B3
:100E9000954217D8531B082B0AD343686219536035
:100EA000236800681844401B106025604A6002E017
:100EB00022604068486006F10C0017F07CFE201D9F
:100EC000BDE8F081002231463846FFF739FC0500C5
:100ED0000AD041462068021F2846FFF751FB002236
:100EE0003146201DFFF777FC06F10C0017F063FE7A
:100EF0002846BDE8F08110B50446FFF71FFF0068E3
:100F0000005D00F0010010BD10B501F053F900F0D4
:100F1000080010BD2DE9F0410F46134615460A465C
:100F200006460021084601F08DF90446401CFFF7F3
:100F300048FC306030B1611C2B463A46BDE8F041B8
:100F400001F080B94FF0FF30BDE8F0810FB47CB5FF
:100F50000C0009AA009001D02044401E084B7B449D
:100F600069460190089800F03AFA05461CB1002045
:100F7000694600F047FA28467CBC5DF814FB000087
:100F8000AD0400007CB51D4616460C00009001D053
:100F90002044401E074B7B442A4669460190304658
:100FA00000F01DFA05461CB10020694600F02AFA3F
:100FB00028467CBD750400002DE9FF4F0C461E46F7
:100FC0004FF0FF378BB0D2E90001DDF860800A9066
:100FD0008A46C1F30A5505B93D46002108464FF03F
:100FE0000000BAF1000F00F4400005DA00EB8000C9
:100FF0004FF4400101EA50004FEA9059B9F1010F56
:1010000000DDB9460A9850EA4A000ED044F6105066
:10101000A5F2FF3545432F14B8F1000F1ED07542DD
:10102000291E1EDDC9F100021CE0B8F1010F4FF0CE
:10103000000001D0302103E0F24305E02154401CC0
:10104000B042FBDB30460022002121540B99C1F84D
:101050000880C1E900200FB0BDE8F08FBD1B6D1CFA
:10106000DEE74A4600DA694206A802F013F906AB49
:1010700093E8070003AB83E8070050460A9919F08C
:101080006DFE8DE80700A0F500501F380090039812
:10109000002D0ADD42F21F014A460844002303A93D
:1010A000039068461AF018F909E0A0F500504A4686
:1010B0001F38002303A9039068461AF037F98DE81A
:1010C00007000004000C03D04FF0FF30410800E09F
:1010D0001046B8F1000F03D00022009215461EE022
:1010E000751E05D401F021F8303262556D1EF9D518
:1010F000B3460122084302D000227F1C04E020787E
:10110000302801D100227F1E002A099784D01DE0DB
:10111000112D07DA01F009F8303262556D1C50EAE2
:101120000102F5D1084302D00098C8B10EE00021B9
:10113000681E05E0235C625C63542254401E491C17
:101140008142F7DBAB46A81B401E0990002004F843
:101150000B000B98099AC0F80880C0E9002B7AE7C9
:1011600011264FF0000857E72DE9F04F8846044656
:10117000D21D22F0070191B0D1E90001CDE90A01A9
:101180001AF020FA02460B98C00F01D02D2007E07C
:101190002068810701D52B2002E0202101EAC00050
:1011A000032A099001D0072A05DB03464146204661
:1011B00001F0ECF80BE12078800601D5E06900E051
:1011C0000620B8F1650F814606D0B8F1660F18D039
:1011D000B8F1670F70D131E00020B9F1110F009024
:1011E00001DB112301E009F101030AAA01A90CA8FE
:1011F000FFF7E2FEDDE90C70002609F101058346E8
:1012000047E001204B4600904FF000470AAA01A991
:101210000CA8FFF7D1FEDDE90DB00C995D46002664
:1012200010B909F101000D18B9EB050003D4C0F1A4
:10123000FF3609F10105A5EB09002BE0B9F1010F1B
:1012400001DA4FF001090020B9F1110F0090484672
:1012500001DD112300E003460AAA01A90CA8FFF74B
:10126000ABFEDDE90C704D46002683462078000772
:101270000AD4AB4500DA5D4601A8012D04DD411911
:1012800011F8011C302907D04F4502DA17F1040F7D
:1012900004DA012082460FE06D1EEEE7002F02DC2B
:1012A000ED1B3E4403E0781CA84200DD7D1CB81B0A
:1012B00000F1010A4FF000472078000703D4AA4547
:1012C00001DB4FF0FF3A0021B7F1004F0DF1430869
:1012D0008DF8431024D002202B23002F01DA7F4207
:1012E0002D230A21021EA0F1010000DC5FB197FB53
:1012F000F1FC97FBF1F201FB1C7C17460CF1300C62
:1013000008F801CDEEE7A8F1010003702188090576
:1013100001D5452100E06521A0F1010800F8011C7C
:1013200009980FA9A1EB0807FF1D00B10120411981
:1013300001EBEA70A1693844081A401EA0612078C8
:10134000C00602D4204600F097FF099828B1D4E9DE
:1013500001219047206A401C20622078C00622D5D7
:10136000204600F089FF1EE0002E04DBB34502DDBD
:1013700001A8805D00E03020D4E901219047206A77
:10138000401C2062761CAAF101005FEA000A0AD123
:1013900000F09DFEC0680168405CD4E901219047DF
:1013A000206A401C2062281EA5F10105DCDC07E054
:1013B000D4E9012118F8010B9047206A401C2062F3
:1013C000381EA7F10107F3DC204600F06BFF032075
:1013D00011B041E601694A1C02610878704700B506
:1013E0008FB0CDE901310021059105497944CDE95E
:1013F000031011466846FFF77BFA0FB000BD0000EE
:10140000E5FFFFFF0A6802F8010B0A607047D1E9A7
:1014100000239A4202D2531C0B601070704710B523
:10142000436913B1AFF3008001E0FFF737FA012001
:1014300010BD127800F124010A7000224A700122C6
:10144000EDE711684FF0FF32E9E7000000B58DB01D
:10145000099000920B904FF0FF300A9000200C9002
:10146000054878440690054878446A46079009A8DC
:1014700001F03CFD0DB000BD570000006F00000002
:101480000FB400B58DB010A9099000910B904FF0EA
:10149000FF300A9000200C900648784406900648D9
:1014A00078446A4607900F9909A801F01FFD0DB016
:1014B0005DF814FB1F00000037000000426842B1D5
:1014C000016811F8013B23B1521EC0E90012184611
:1014D00070470121C160881E704742685AB1C368D5
:1014E000016843B983688B4205D0491E521CC0E98C
:1014F0000012002070474FF0FF3070470023036058
:10150000FFF7DCBA2DE9F04791460E4680460446C7
:10151000002514F8017B2FB1FFF710FC0068C05DB7
:10152000C007F6D12B2F02D02D2F1ED0641E4A46A5
:101530003146204601F0EAFC26B13268A24201D1D0
:10154000C6F800804FF002046A0518D50023D0EBDE
:10155000030563EB01025D1B934109DB0023D0EB24
:10156000030063EB0101BDE8F08745F48065DEE729
:10157000FFF7DCF8046000204FF00041F3E7021EA3
:1015800071F10002EFDAFFF7D1F804604FF0FF309D
:101590004108E8E72DE9F05F93460F468046044690
:1015A0000026FFF7C3F8D0F80090824614F8015BDC
:1015B0002DB1FFF7C3FB0068405DC007F6D12B2DAE
:1015C00002D02D2D1FD0641E0021CAF800105A46EB
:1015D0003946204601F09AFC024627B13868A042FD
:1015E00001D1C7F80080DAF8000002280ED0CAF84E
:1015F000009070050AD500200346D2EB000063EB93
:101600000101BDE8F09F46F48066DDE71046F8E78B
:101610002DE9F041044616460D464769007B8007D8
:101620002ED0384617F0DFFA50BB3EB3012E02D061
:10163000022E25D104E0204602F0A6F805441DE064
:10164000384617F0CEFAE168002841F01001E16059
:1016500005DA204600F058F80120BDE8F081C90302
:101660000BD56268E16A914200D81146A269114423
:101670002269891A814200DD08460544002D01DAFD
:101680000220EAE7E16A6068E268814206D29103DB
:10169000E06203D522F4003141F01002A669002770
:1016A000AE4213DCE16A814201D90B4600E00346F9
:1016B00003EB060C2369ACEB030CAC4506DD814261
:1016C00001D98C4600E084469C4505D1A76027607F
:1016D00042F02000A5620DE0AD1BE669AE1B814221
:1016E000A66000D90846C01A281A20605819606000
:1016F00022F0200003490840E060002084F8487090
:10170000ABE70000BFCFD7FFC16821F4001141F063
:101710008001C16000218160016070472DE9F047C0
:10172000814614460E464FF0FF383248D568576957
:10173000054209D03846A16917F094FA002811DB58
:101740002C48C0430540E5602B46324649463846A2
:1017500017F08BFAA16920F00042B21A1144002858
:10176000A16103D02046FFF7CFFF4046BDE8F087D8
:1017700070B504460569C06A6168884200D80846A9
:10178000E16821F42011E160C90312D5A84208D014
:101790002246411B2846FFF7C1FF10B14FF0FF3032
:1017A00070BD0020E562C4E90150E06820F480309B
:1017B000E060002070BD10B50446C06820F0200035
:1017C000E060A16AA06988420DD02046FFF7D0FFF3
:1017D000E06820F4405040F01000E060A06AA06192
:1017E0002069E062606044F24001E0688843E060A4
:1017F00010BD00001000020070B5044600F14C0559
:10180000284617F0B9F920461AF054FF0446284636
:1018100017F0D1F9204670BD10B565485421FEF788
:1018200003FF64485421FEF7FFFE63485421FEF78E
:10183000FBFE62485E49624A624B01605D4810608F
:101840005D4A1A60431C0B65511C0165012010653F
:1018500057484C3017F0A0F956484C3017F09CF917
:1018600055484C3017F098F9574817F095F95848F3
:101870004F4A56A1784402F05DF820B954487844A4
:101880000A3802F062F954484A4A52A1784402F0F8
:1018900051F820B9504878440A3802F056F94F48B8
:1018A000454A4CA1784402F045F820B94B487844A9
:1018B0000A3802F04AF940233D48DC000021224664
:1018C00001F0A9FF20B142487844543802F03DF9B4
:1018D000384822464023002101F09DFF20B13E48B8
:1018E0007844543802F031F933482246102300215D
:1018F00001F091FF002806D038487844BDE8104038
:10190000563802F022B910BD2B482DE9F041006D88
:101910002D4E20F00104304617F02EF9244D4C35A1
:10192000284617F029F9224801F04FFF284617F002
:1019300042F9284617F02DF91E4D4C35284617F070
:101940001BF91C4801F041FF284617F034F92846DE
:1019500017F01FF9184D4C35284617F00DF91648A9
:1019600001F033FF284617F026F9284617F011F941
:1019700014E0206D20F0010504F14C00074617F03B
:10198000FBF8204601F021FF384617F014F93846DD
:1019900017F0FFF82046FEF74FFF2C46002CE8D149
:1019A000304617F008F9084817F0F3F8BDE8F08161
:1019B000C000002014010020680100200000002069
:1019C00004000020080000200C000020720000002D
:1019D000B4E2010077000000A3E201007CE2010014
:1019E0002DE9FE430E461746804600210846AFF318
:1019F000008005460020009001905EB130784FF0E5
:101A0000FF3900B1AFB11DB1D5E90001CDE9000149
:101A100000240CE00020BDE8FE83315D6A46641CB2
:101A200002A802F02AF8411C03D0012803D0BC42CE
:101A3000F3D34846EFE71DB1DDE90001C5E9000138
:101A4000B8F1000F02D00299C8F8001002980028DF
:101A5000E1D02046DFE770B50C4605460AB11046D6
:101A600003E004210020AFF3008022462946BDE8B0
:101A700070400346002000F037B82DE9F84F91463A
:101A8000884607464FF000045FEA030A0D6819D143
:101A900007210020AFF30080824613E015F8011BF8
:101AA0005246684601F0E9FF0646401C11D0B61CBC
:101AB00008D017B1009847F824000098641C70B152
:101AC000C8F80050002FE9D04C45E7D32046BDE8C8
:101AD000F88FFEF72BFE042101603046F7E7002166
:101AE000601EC8F80010F2E701F070BF01F0A8BF57
:101AF0002DE9F84F9B461746894680460024DDF8BD
:101B000028A00D685FEA0A001CD10921AFF300800C
:101B1000824617E0F7B115F8011B524668467F1E52
:101B200001F0ABFF0646401C17D0B61C0AD0B8F136
:101B3000000F02D0009948F824100098641C90B15E
:101B4000C9F80050B8F1000FE4D05C45E2D320465C
:101B5000BDE8F88FC9F80050F9E7FEF7E7FD04216A
:101B600001603046F4E70021601EC9F80010EFE77D
:101B70002DE9FF4F91468846824683B00024109F8E
:101B80000E688FBB0A210020AFF3008007462BE0D0
:101B900017B1D7E900B102913A466846316801F0C1
:101BA0008EFF0546401C0BD0BAF1000F16D00698E8
:101BB000291981420CD9EFB10299C7E900B119E0A6
:101BC000FEF7B4FD04210160284607B0BDE8F08FA0
:101BD0000AEB04002A466946FEF78DFC30682C4467
:101BE00050B1361DC8F80060D8F8000010B1B9F146
:101BF0000109CDD22046E8E70021641EC8F8001094
:101C0000F8E710B5FFF79AF8006890F8011101297C
:101C100001D0012010BDD0F80B0110BD2DE9F0411D
:101C20000646FFF798F88046454613E016B1E0688F
:101C3000B0420ED120682860D4E90101D8F80070C4
:101C400088472046FEF7F8FDD8F80000B842EBD1EF
:101C500000E025462C68002CE8D1BDE8F081002882
:101C600001D0FEF75DBD704710B5002102A001F064
:101C700053FF012010BD0000534947414252543ADE
:101C80002041626E6F726D616C207465726D696E59
:101C90006174696F6E00000001B5FEF72CFC01BD98
:101CA00001B5FEF7FBFF01BD431A28BF9A427EF63D
:101CB00067AC1044114410F0030F1EBF11F8013D32
:101CC000521E00F8013D10F0030F7FF4F6AF103AFA
:101CD000C0F00A8010B531E9185020E91850103AC8
:101CE000BFF4F9AFBDE81040530724BF31E9081035
:101CF00020E9081044BF51F8043D40F8043D12F0BB
:101D0000030F08BF7047D20728BF31F8023D48BF14
:101D100011F8012C28BF20F8023D48BF00F8012C23
:101D20007047000070B5054601B90721541A241DFB
:101D3000B4F5B67F09DD286800F05DF9A04204DC47
:101D40002868401C2860012070BD002C05DA286836
:101D5000401E286000F04FF90444072094FBF0F087
:101D6000401C70BD2DE9F04F1F4615468B4682463C
:101D7000002689B000F0ABF9D0F810800024BBF148
:101D8000000F70D015F8010B10B125280DD10FE010
:101D900024B1641E06A850F82450F3E70021304611
:101DA0000AF8061009B0BDE8F08F0AF80600C7E08F
:101DB000E94615F8010B592870D023DC49286ED06C
:101DC00014DC44286DD008DC2528EED041283ED014
:101DD000422849D043282CD156E04528E9D046284E
:101DE00069D0472876D0482823D17AE04D380C288E
:101DF0001FD2DFE800F0881E061E1E9BA0A9B3B507
:101E0000C1CFD6E75A38212813D2DFE800F01112EB
:101E100012121212121A2637455012592612741233
:101E200012797E128012891296A212B3BDCB1100D4
:101E3000A8E725200AF80600761C5E4513D26D1E21
:101E4000A0E7D8F80010BA69D8F8240011E0D8F853
:101E50000410BA69D8F828000BE0D8F808103A69DD
:101E6000D8F82C0005E0B2E0D8F80C103A69D8F8A0
:101E7000300002FB001101EB0809AAE006A840F8B7
:101E80002450D8F818108AE07969642091FBF0F2A8
:101E90001332484668A192E0FA6889E08AE022E0BD
:101EA000FFE706A840F8245065A5641C6AE7FA68B5
:101EB00066A1484683E006A840F8245064A5F4E7EC
:101EC000384600F0ADF8642190FBF1F201FB1202FC
:101ED00058E0FFE7384600F0A3F802465FA16846E5
:101EE0006DE0BA6864E0B8680C210B3090FBF1F249
:101EF00001FB120205E0FA6959A14846521C5EE056
:101F00003A694DA1F9E77A6852E00A2116E0B8680B
:101F10000C2802DAD8F81010ADE7D8F81410AAE7A8
:101F200006A840F82450D8F8341038E006A840F845
:101F300024504DA5B9E73A683AE009210AF806109D
:101F4000761C5E45B2D342E006A840F8245048A56E
:101F5000ABE7BA6902B9072248A1AAE700210CE061
:101F6000786900F26C700890D7E9061208A8FFF7AC
:101F7000D9FE06E0BA69EFE70121D7E9062000F0B3
:101F80002EF802462CA1AAE706A840F82450D8F85B
:101F90001C1004E006A840F82450D8F8201001EBEB
:101FA000080582E77969642091FBF0F200FB1212C8
:101FB00021A17EE77A69484628A102F26C7200F0FE
:101FC0002BF906E00AF80600761C5E4501D30020D6
:101FD000E8E619F8010B00283FF4DFAEF2E7511AEA
:101FE00000D5C91D401A01D500207047072190FB7C
:101FF000F1F0401C704781070CD1642190FBF1F295
:1020000001FB120151B94FF4C87190FBF1F201FBD1
:10201000120018B1002000F26D1070470120FAE79D
:1020200008B5416901F26C710091D0E90612684669
:10203000FFF778FE009808BD252E326400000000EE
:10204000256D2F25642F25790000000025326400BE
:1020500025592D256D2D2564000000002564000004
:10206000252E33640000000025483A254D0000006D
:1020700025483A254D3A255300000000252E3164AD
:10208000000000007546FEF753FEAE4605006946A7
:10209000534620F00700854618B020B5FEF7B4F986
:1020A000BDE820404FF000064FF000074FF0000859
:1020B0004FF0000BAC46ACE8C009ACE8C009ACE896
:1020C000C009ACE8C00921F007018D46704710B582
:1020D000FEF72EFE203010BD801A0844401E491E17
:1020E00088431044704770B5144605468C464368D3
:1020F000002B18BF634538BF1846F8D30268104458
:10210000604508D06646604604220821FFF7E4FFD8
:10211000811B8446641A2946CCF80040BDE8704013
:1021200000220CF10400FEF756BB30B5B0F10A02F4
:1021300071F100034FEA900E4EEA817EB0EB0E0083
:1021400061EB91014FEA101E4EEA017E10EB0E008A
:1021500041EB11114FEA102E4EEA016E10EB0E000A
:1021600041EB11214FEA104E4EEA014E10EB0E00EA
:1021700041EB1141401841F100014FEAD00040EA23
:1021800041704FEAD1014FEA810444EA907410EBA8
:10219000800544EB01046D1944EB0404521BA34178
:1021A0004FF0000348BF0A3200D530BD401C41F15A
:1021B000000130BD10B50446FF2801D9002010BD34
:1021C000FEF7BCFD0068005D10F0980F03D0C1075A
:1021D00001D140F4806010F4846F01D040F40060BD
:1021E00010F0BA0F01D040F4807010F0BE0F01D093
:1021F00040F40070810604D5010602D440F080004E
:1022000001E020F02000C10701D0410601D5092CD2
:10221000D5D140F4805010BD0FB41CB5084B06AAB0
:102220007B44694600900598FFF7D9F804460020E2
:102230006946FFF7E7F820461CBC5DF814FB000078
:10224000E1F1FFFF7CB51D4616460C00009001D061
:102250002044401E074B7B442A4669460190304685
:10226000FFF7BDF805461CB100206946FFF7CAF824
:1022700028467CBDB5F1FFFF70B50446856900684E
:10228000C10601D5302600E02026C00707D070BD6A
:10229000D4E9012130469047206A401C20626D1E1F
:1022A000F6D570BD70B5044685690078C00707D1C2
:1022B00070BDD4E9012120209047206A401C206293
:1022C0006D1EF6D570BD09684A0501D540B270474C
:1022D000C905FCD500B2704709684A0501D5C0B2EE
:1022E0007047C905FCD580B2704700002DE9F04168
:1022F0000646002410687529314616A510D0FFF750
:10230000E2FF002802DA404213A507E031688A079D
:1023100001D512A502E0490704D511A5012401E069
:10232000FFF7DAFF00210A2206F1240709E0B0FBDB
:10233000F2FCB0FBF2F302FB1C003030785418467C
:10234000491C0028F3D123462A463046BDE8F04117
:1023500001F02BBC000000002D0000002B0000004D
:102360002000000011680268006A530501D508705A
:102370000AE0D30501D5088006E0130603D5C2178D
:10238000C1E9000200E00860012070472DE9F0413A
:102390001F46044603260168072A01F4006004DB97
:1023A00008B116A505E016A503E008B115A500E0E3
:1023B00015A521F010002060A069C01EA0610FB11A
:1023C000401EA0612046FFF757FF4FB1D4E901211D
:1023D00038469047206A401C2062C01C206206E0FC
:1023E000206AFAE7D4E9012115F8010B9047761E1F
:1023F000F8D22046FFF756FFBDE8F0814E414E006F
:102400006E616E00494E4600696E66002DE9FF5F01
:1024100015468A460446DFF8AC80F8440027D8E920
:1024200000103E46CDE9001010E05AF826106A462A
:1024300002A801F044FB411C07D02178890603D58E
:10244000E269391891420DD80744761C207880063D
:1024500002D5E069B84205DDAE42E6DB5AF8260057
:102460000028E2D1A069C01BA0612046FFF704FF4D
:10247000D8E90010CDE90010002017E05AF8281024
:102480006A4602A801F01BFBB0F1FF3F81460BD06A
:1024900000250DF1080B05E0D4E901211BF805002A
:1024A00090476D1C4D45F7D308F10100B0428046BE
:1024B000E4DB206A384420622046FFF7F3FEBDE8E3
:1024C000FF9F000022B301002DE9F0418046D21D9C
:1024D00022F007020025D2E90002F52915A614D042
:1024E000011E72F1000106DA0023D0EB030063EB5A
:1024F000020211A608E0D8F800108B0701D50FA63C
:1025000002E0490701D50EA601251146002408F175
:10251000240704E0FFF709FE30323A55641C50EA04
:102520000102F7D12B46324621464046BDE8F04134
:1025300001F03BBB000000002D0000002B0000005C
:102540002000000030B4002100F1240408E002F073
:102550000705D208303542EA4372DB086554491C4E
:1025600052EA0305F3D10468002310A2250708D519
:1025700004F020040C4304D0C46901230CA2641E9F
:10258000C46130BC01F011BB10B50446214610688F
:10259000FFF7A2FE02462046BDE810400023D1E727
:1025A000D21D22F00701D1E90023CBE70000000093
:1025B00030000000F0B40D460188090502D5214C19
:1025C0007C4402E01F4C7C440E34002100F12406C0
:1025D00008E002F00F071209E75D42EA03721B09E7
:1025E0007754491C52EA0307F3D1027800231207FB
:1025F00004D5702D06D009B1022311342246F0BC57
:1026000001F0D3BA01231034F8E770B504460D4643
:1026100021461068FFF760FE024629462046BDE8C5
:1026200070400023C6E7D21D22F00703D3E9002340
:10263000C0E70368126843F0200303600823C36106
:102640000023B7E784B101003A2800D2303820F0E7
:102650002002412A01D3A2F13700884201D34FF072
:10266000FF3070472DE9FF4F1C4691464FF0FF3574
:1026700081B000218A468846D4E90167A1690298A1
:102680006D1C8847216A834688470028F6D1BBF134
:10269000FF3F0CD0002F26F4C0661ADD700615D55A
:1026A000BBF12B0F0AD0BBF12D0F0FD104E04FF07F
:1026B000FF3005B0BDE8F08F46F48066A16902984E
:1026C0006D1C88477F1E8346002F02DDBBF1300F53
:1026D00003D0B9F1000F2AD025E0A1696D1C029842
:1026E0007F1E46F400768847002F834605DDBBF148
:1026F000780F06D0BBF1580F03D0B9F1000F10D0FE
:1027000011E0B9F1000F02D0B9F1100F0BD1A1699E
:102710006D1C02987F1E26F40076884783461020A1
:1027200000E0082081464FEAE970009017E00A2097
:10273000F8E74346AAFB0928DDF800C07F1E03FB2B
:10274000098046F4007605F101050AFB0C0112EB45
:102750000B0A029841EBEB78A16988478346002F6A
:1027600006DD49465846FFF76FFF5FEA000BE0D5EC
:10277000E16902988847B00502D46FF0010098E73C
:10278000F00718D1700610D55146700505D5002305
:10279000D1EB030163EB080200E042462068031D11
:1027A00023600068C0E9001205E02068011D216077
:1027B0000068C0E900A828467BE72DE9FF5F1D46B9
:1027C0004FF0FF3B91464FF000085F46D5E90146C8
:1027D000A96901987F1C8847296A82468847002892
:1027E000F6D1BAF1FF3F0CD0002E24F4C06419DDFD
:1027F000600614D5BAF12B0F09D0BAF12D0F0ED106
:1028000003E0584604B0BDE8F09F44F48064A96931
:1028100001987F1C8847761E8246002E02DDBAF1A1
:10282000300F03D0B9F1000F26D032E0A969761E2F
:1028300001987F1C44F400748847002E824605DD11
:10284000BAF1780F06D0BAF1580F03D0B9F1000FE2
:1028500010D01EE0B9F1000F02D0B9F1100F18D15D
:10286000A969761E01987F1C24F40074884782466B
:10287000102002E0082000E00A20814609E0A96952
:1028800008FB0908761E01987F1C44F400748847F1
:102890008246002E05DD49465046FFF7D5FE00284A
:1028A000EDDAE96901988847A00502D46FF00100CC
:1028B000A8E7E00725D1600613D5600502D5C8F169
:1028C000000000E0404629680A1D2A6009682205C8
:1028D00001D5087015E0220701D5088011E00860D5
:1028E0000FE02868011D29600068210502D580F8E5
:1028F000008006E0210702D5A0F8008001E0C0F8C2
:10290000008038467EE72DE9FF5F4FF000089946CA
:10291000144646469169D2E901A7DDF838B001981E
:102920008847054659EA0B0005D009E0A1690198DE
:10293000761C88470546216A284688470028F5D135
:10294000681C03D05FEACA7005D015E04FF0FF3075
:1029500004B0BDE8F09F2068011D2160D0F8008020
:102960000AE05FEACA7001D108F8015BA169761C30
:1029700001987F1E88470546002F1ADD681C18D075
:10298000B9F1000F0DD0E81705EBD060421120F02F
:102990001F0059F822102A1A012090400142E0D16C
:1029A00007E0BBF1000FDCD12846216A88470028E8
:1029B000D7D0E16901988847BBF1000F07D1002EFD
:1029C00005DD5FEACA7002D1002188F80010A06816
:1029D000B84203DDBBF1000F03D017B16FF0010067
:1029E000B6E73046B4E700002DE9FF4F06468BB04E
:1029F0000878FF2806D0491C2D2805D000244FF068
:102A0000000908E000200CE00124F8E709EB890345
:102A1000491C00EB43090878FF28F7D114B1C9F12C
:102A200000008146107800252C46AA4629462D280C
:102A300001D02B2804D1521C2D2813D0002082460F
:102A40008B461078FF280FD04FF0000C0A21521C43
:102A5000A5FB017804FB018105FB0C11C5194BEBAB
:102A60000104EEE70120EAE7002108464FF00000EC
:102A7000BAF1000F02D000EB80004008C0F381578C
:102A8000012F01DD4FF0FF370E9955EA040009EBE5
:102A900001080BD04FF0020918F5FA7F16DA4FEA59
:102AA000CA70002F706008DD012007E04FEACA708D
:102AB000C6E900B00FB0BDE8F08F00203060FDF730
:102AC00035FEC0F800901821084616E0B8F5FA7FE8
:102AD00018DD002F02DAF748784401E0F648784420
:102AE000D0E90010C6E9001040EACA707060FDF736
:102AF0001DFEC0F80090142108460FB0BDE8F04F4D
:102B00001AF042BD002108464FF00000B8F1000164
:102B1000099002DAC7F1000200E03A4601DAC8F192
:102B2000000106A800F0B6FB06AB93E8070003AB74
:102B300083E8070044F23E005BEA04010090584637
:102B400004D144F21E012C465D460091210C09047B
:102B5000014306D10099240444EA15442D04103998
:102B6000009104F07F41014306D10099240244EA18
:102B700015642D020839009104F07041014306D11B
:102B80000099240144EA15742D01091F009104F0F5
:102B90004041014306D10099A40044EA9574AD0078
:102BA000891E009104F00041084304D100986D197A
:102BB0006441401E00904FF001033A466846B8F168
:102BC000000FCDE9014503A902DD18F0C4FB01E0C7
:102BD00018F097FBBAF1000F04460D4601D084F0BF
:102BE0000044002108464FF00000099940F2FF77A9
:102BF000484010F00C0F07D124F00040284303D0C8
:102C0000C4F30A50B84212D1FDF790FDC0F800900D
:102C1000C4F30A50B8420AD1A8487844D0E9001059
:102C2000C6E9001004F000410843706042E7C6E9BD
:102C300000543FE72DE9FF4F1F464FF0000A4FF0C9
:102C4000FF38454691B0D7E90146CDF83CA0FFF7E3
:102C50003EFAC0680168405C1090B96912986D1C1A
:102C60008847396A814688470028F6D1B9F1FF3F85
:102C70000AD0002E24F4D06411DDB9F12B0F08D056
:102C8000B9F12D0F0BD102E0404615B013E744F423
:102C90008064B96912986D1C8847761E814660056C
:102CA00004A901D52D2000E02B20002E01F1010BFD
:102CB0000DF130088DF810003FDDB9F1690F08D033
:102CC000B9F1490F05D0B9F16E0F02D0B9F14E0F2D
:102CD0001CD13B4601A8009580E85002DDE91212A4
:102CE0006FF002001AF0BBFCC11CCED10EE0B96936
:102CF00012986D1C884781461398761E44F4007420
:102D000005600F98401C002E0F9016DDB9F1300FB2
:102D1000EDD0B9F1780F02D0B9F1580F0DD10F985D
:102D200001280AD13B46CDE90054DDE91212001F0B
:102D300002961AF092FCC11CA7D1109989453ED188
:102D400044F0800406E01399681CAAF1010A44F4D7
:102D500000740860B9696D1C1298761E8847302887
:102D60008146F0D02BE01099894505D1200603D487
:102D7000761E44F0800418E0484619F088FC08B339
:102D8000761E0DF123029345A9F1300044F400743E
:102D900006D20BF8010B200607D5AAF1010003E0CB
:102DA000200602D40AF101008246A00502D513993B
:102DB000681C0860B96912986D1C88478146002E0E
:102DC000D1DC53E0002E51DDB9F1650F02D0B9F12D
:102DD000450F4BD1A00549D5B9696D1C1298761ED7
:102DE00024F440748847002E81460CDD2B2804D043
:102DF000B9F12D0F07D144F48074B96912986D1C94
:102E00008847761E8146E00501D52D2100E02B2163
:102E100008F8011BCDF8008021E0761E0DF1390184
:102E2000884544F400740CD2A9F1300010F0FF0082
:102E300088F8000002D10099884509D908F10108F5
:102E400006E0E00501D51E4801E042F20F7082461F
:102E5000B96912986D1C8847814613980560002E49
:102E600004DD484619F013FC0028D6D1F969129800
:102E70008847FF2053468BF8000088F800000020A8
:102E80000A900B9004AA0CA90AA8FFF7ADFDA005B3
:102E900002D46FF00100F8E614F0240F12D0E0071E
:102EA0001CD13868DDE90A12031D3B600068C0E9E7
:102EB000001213E06CD401005ED4010022D30100A3
:102EC000F1D8FFFF0AA9684619F0CEFBE00705D14B
:102ED0003868009A011D3960006802602846D4E60F
:102EE000026811441378016018467047D1600549A3
:102EF00079445161044979441162002111611146FC
:102F000001F040B8EDFFFFFFFDDFFFFF2DE9F74FB8
:102F10004FF000091546CA46009C14F8010B3028F2
:102F200001D0ADB115E014F8010B4FF0010978287C
:102F300003D0582801D04DB10BE00DB1102D08D1B0
:102F40004FF0000914F8010B102502E0082500E0FD
:102F50000A2500274FEAE57B3E46B84616E0A5FB6A
:102F600007234FF0010905FB08000BFB0731030C99
:102F700005FB0616D7181FFA80F846F10006381E22
:102F800076F5803000D3CA4614F8010B2946FFF7C6
:102F90005BFB0028E3DA019838B1B9F1000F01D0EA
:102FA000641E00E0009C01980460BAF1000F08D094
:102FB000FDF7BCFB02210160C81E014603B0BDE85D
:102FC000F08F310441EA174148EA0740F6E72DE95E
:102FD000FF4F4FF000089A461446C146464683B05C
:102FE000D2E901B7CDF80080CDF80480916904984A
:102FF0008847109905465AEA010005D009E0A16901
:103000000498761C88470546216A28468847002888
:10301000F5D1681C03D05FEACB7005D029E04FF0F2
:10302000FF3007B0BDE8F08F2068011D2160D0F8A7
:1030300000801EE002A86A46E9B200F01EFD411CB5
:1030400007D0801C09D04FF000095FEACB7007D091
:1030500009E0E169049888473DE04FF0010903E089
:10306000029948F8041B7F1EA1690498761C8847C2
:103070000546002F1ADD681C18D0BAF1000F0DD0DC
:10308000E81705EBD060421120F01F005AF822101B
:103090002A1A012090400142CCD107E01098002864
:1030A000C8D12846216A88470028C3D0E16904981E
:1030B0008847B9F1000F0ED1109830B9002E04DD09
:1030C0005FEACB7001D1C8F80000A068B84202DD09
:1030D000109818B117B16FF00100A2E73046A0E7D1
:1030E0002DE9FF4F9B46144683B000273D46D2E9A9
:1030F0000196009701979169DDF848A004988847E8
:1031000080465BEA0A0005D009E0A16904986D1CBD
:1031100088478046216A404688470028F5D1B8F1A3
:10312000FF3F03D05FEAC97005D01AE04FF0FF30CF
:1031300007B0BDE8F08F2068011D2160076810E02E
:103140005FEAC97007D16A464146384600F0B7FCCD
:10315000411C31D00744A1696D1C0498761E884734
:103160008046002E15DDB8F1FF3F12D0BBF1000004
:1031700007D04346DDE9101201F0BEF80028DFD188
:1031800007E0BAF1000FDBD14046216A88470028EA
:10319000D6D0E16904988847BAF1000F05D1002D17
:1031A00003DD5FEAC97000D13870A068B04203DD6A
:1031B000BAF1000F03D016B16FF00100B8E728464E
:1031C000B6E72DE9FF5F9B46144600273D4691690F
:1031D000D2E90196DDF840A00198884780465BEA75
:1031E0000A0005D009E0A16901986D1C8847804656
:1031F000216A404688470028F5D1B8F1FF3F03D047
:103200005FEAC97005D014E04FF0FF3004B0BDE8AC
:10321000F09F2068011D216007680AE05FEAC9701D
:1032200001D147F8048BA1696D1C0198761E88476F
:103230008046002E15DDB8F1FF3F12D0BBF1000033
:1032400007D04346DDE90E1201F056F80028E5D11B
:1032500007E0BAF1000FE1D14046216A8847002813
:10326000DCD0E16901988847BAF1000F05D1002D43
:1032700003DD5FEAC97000D13860A068B04203DDA9
:10328000BAF1000F03D016B16FF00100BEE7284677
:10329000BCE700002DE9F047814616468AB0354864
:1032A00078440DC88DE80D0032487844801C03AC8A
:1032B0000DC884E80D0041F69B300844372190FB8F
:1032C000F1F290FBF1F5A5F1800501FB12041B3C26
:1032D00002D56442012000E00020DFF898A080467B
:1032E0000027FA44AAF1BE0A0EE0E0070AD03246EF
:1032F000684607EB470101230AEB810118F016F835
:103300008DE8070064107F1C002CEED1194F7F441C
:10331000AE3F19E0E80715D007EB04100DF1180ACD
:1033200090E80E008AE80E00C068F04201D19819BA
:1033300008903246012306A903A817F0F7FF03AB54
:1033400083E807006D10641C002DE3D14FF00103EA
:1033500032466946B8F1000F03A802D017F0BCFF4F
:1033600001E017F0E3FFC9E90001C9F808200AB03D
:10337000BDE8F08748A5010070B50D46014614462A
:10338000D36850692A4615F063FC002807DA411C0F
:1033900007D0E16820F0004041F48041E160281A44
:1033A00070BD2046FEF7B0F94FF0FF3070BDC16828
:1033B0000022026021F4805141F0400111F4C06FFD
:1033C000C16001D08260704702694168891AC26990
:1033D000891A816070472DE9F0470446C06840F4BF
:1033E0008000E060010312D520F40020E060810637
:1033F00006D4E26A61688A4200D80A46511A2160FE
:1034000040F40010E06094F82500BDE8F08720F457
:103410000010E060800602D52046FEF7CCF9E06897
:1034200042F281014FF0FF390140012903D02046CB
:10343000FEF76AF9B6E02168002600290ADAC943D6
:1034400040F480502160C4E902606068411C616002
:103450000078DAE744F2400108420CD020F4A040A2
:1034600040F040002660E06021696068401AE16930
:10347000401AA06096E0216991B9C00310D4E069B8
:10348000FDF79FF92061B0B1E06840F4006010F4EE
:10349000407FE06002D140F48070E06020696060AD
:1034A000E068D4F814A0C1061AD5C0030ED5204692
:1034B000FEF75EF914E004F1240020610120E061D0
:1034C000E06820F4407040F48060E6E721696068BD
:1034D000401AA1690144504615F0C4FB0028A6DB40
:1034E000E068C0032AD56168E06A884200D80846CF
:1034F0002169451AE069471B1BD02046D4F8188083
:10350000FEF736F908EB05015046C4F8188015F0AF
:10351000A9FB00288BDBE06840F40030E06000028B
:1035200002D5A0692844A061E1692069C91B45183A
:103530000DE02046FEF71CF9E769F5E725696168AB
:10354000D4E90607491BE56208446560A061E068AC
:1035500020F0100010F4C06FE06002D0204600F0B0
:1035600041FFE06840F48050C4E90260000205D5E4
:103570002069E06260606FF0010046E7224639464C
:103580002846FFF7F9FE411C0CD02918E16258B11A
:10359000401E2060681C6060E06840F40030E0601D
:1035A000287832E7484630E765602046FFF7FFFE9F
:1035B000F8E72DE9F04705460C46C86820F42010CE
:1035C00040F48000C860800602D50846FEF7F3F894
:1035D000E06841F282014FF0FF390140022903D037
:1035E0002046FEF791F8B5E000F42041B1F5004F18
:1035F0000FD1C00306D56168E06A884200D808464A
:10360000606006E02069E0626060606915F0E9FAD8
:10361000A061A0680022EEB200280DDAE1688B05F7
:103620000AD4C043A06041F490302260E06060683A
:10363000411C61600670A5E0E0689046226040F49D
:103640000050E060206968BB606915F0CCFA012782
:1036500004F12405A0B1A08910F4407F08D0E069EE
:10366000FDF7AFF8206118B1E06840F4006016E0A3
:10367000E7612561E06820F4407040F480600EE06E
:10368000E069FDF79EF800282061F1D0E06840F481
:10369000006010F4407FE06002D140F48070E06090
:1036A00020696060E06825696FF0010AC1051FD5D7
:1036B0006168E06A884200D80846411B04D022466F
:1036C0002846FEF72BF8F0BBE068010203D5E5625F
:1036D000C4E9015854E0691CE1626160E16940F4A9
:1036E0008030491EC4E9021030462E70BDE8F087D4
:1036F000010202D500F480320AE06068411C61607A
:103700000670E0680A2E40F48030E06006D00022A7
:10371000E16A6068814203D90B4602E00122F7E7C3
:103720000346A7895B1B7F0503D4E7699F4200DD41
:10373000E2B1814200D80146E5620F1AC4E901589E
:10374000002B09DD00E005E0224619462846FDF77A
:10375000E5FF08B14846C9E747B1A069E562656081
:10376000C01BA061E06840F01000E060E06800026B
:1037700008D56168A069E562491B08446560A061DD
:103780005046B3E73046B1E710B50146C26890072E
:1037900003D0900607D5886A0AE0FCF7C7FF01212D
:1037A0000160881E10BD8B69486818440B69C01AF7
:1037B00091F848301BB191F84910401A10BD11031F
:1037C000FCD50028FADD401E10BD2DE9F047044667
:1037D0004FF000094FF0FF37C568D4E90486A80709
:1037E00007D02046FDF7C4FF304615F0F1F9002858
:1037F00002DA3846BDE8F087280502D54046FDF7D5
:103800001BF84C212046FCF70FFF206D20F0010033
:1038100020654846EEE72DE9F04704461E469046EF
:103820000D46C7684C30814615F0A6F9B80714D08C
:10383000780212D44046B8F5807F09D0B0F5007FF9
:1038400006D0B8F5806F08D1012604F1240506E002
:10385000701E6FF07F41884201D3012409E0256189
:10386000E6616560E06820F4706040EA0800E060AE
:103870000024484615F09FF92046BDE8F087000077
:103880002DE9F04716468846070010D006F14C0097
:10389000814615F071F93046FFF797FF18F8010BD4
:1038A00061280DD0722805D0772841D105E000208D
:1038B000BDE8F0870125002405E00225042402E08C
:1038C000082448F2020518F8010B2B2806D06228BC
:1038D00009D018F8010C74280AD00BE045F0030554
:1038E00044F00204EFE745F0040544F00104EAE780
:1038F00044F010043846214615F07EF9411C17D0DB
:103900000021316171604FF40071F560F161706107
:10391000200704D5304602220021FDF779FE306DE4
:1039200040F001003065484615F045F93046BFE7E4
:103930000026F8E72DE9F04115460E460746214CD2
:10394000204615F019F92A4631463846FFF798FF08
:103950000546204615F02FF92846BDE8F0812DE9EF
:10396000F0410E468046174D284615F005F9164CD5
:10397000206DC10704D0410804D020F00104F7E70E
:10398000224612E05420FCF71CFF070017D0206DE0
:1039900047F001010843542120653846FCF744FEF6
:1039A00007F14C0015F0F8F83A4631464046FFF76B
:1039B00067FF0446284615F0FEF82046CDE70024B0
:1039C000F8E700000C000020C00000202DE9F843BB
:1039D0009946174680464FF000060C0002D18846F3
:1039E000012716A4B9F1000F23D105210020AFF360
:1039F000008081461DE014F8011B4A46684600F02D
:103A00003CF8761C0546401C0DD0AD1C11D0B8F119
:103A1000000F02D00099C8F800100098002800D0CC
:103A20003046BDE8F883FCF781FE0421016028469A
:103A3000F7E77F1EDFD26FF00100F2E70000000021
:103A40007CB50C46054622B906210020AFF3008064
:103A500002462146684600F032F80446401C07D072
:103A600025B1224669462846FCF745FD20467CBD27
:103A7000FCF75CFE04210160F8E72DE9F0411646F1
:103A80000C460546FDF75AF9036893F80101012831
:103A900005D0185D80B101202C60BDE8F081D3F81D
:103AA00003013246214603F20313C7182846BC46D9
:103AB000BDE8F041012360474FF0FF30EDE72DE90D
:103AC000F04116460C460546FDF738F9036893F8B1
:103AD0000101012807D0FF2C12D8185D80B1012008
:103AE0002C70BDE8F081D3F807013246214603F27D
:103AF0000713C7182846BC46BDE8F04101236047BC
:103B00004FF0FF30EDE710B50446AFF300802046DC
:103B1000BDE81040FCF701BC70B505460C460A2014
:103B200000E06D1C00F01FF835B128780028F8D1AE
:103B300002E0641C00F017F814B120780028F8D1D6
:103B4000BDE870400A2000F00EB810B500F078FC17
:103B5000BDE81040FEF783B810B500F08BFCBDE85F
:103B60001040FEF77CB808B569468DF800000320C8
:103B7000ABBE08BD10B5FDF7E9F80068BDE8104020
:103B800000F0A0BCB2F120030AD5C2F1200301FA73
:103B900002F120FA03F341EA030100FA02F0704750
:103BA00000FA03F14FF0000070472DE9F0470D4691
:103BB00099469246044600F124080168880604D517
:103BC000E06921F01001216000E00120A84201DD40
:103BD000471B00E00027A1697A1902EB0900081AC7
:103BE000A0612078C00602D42046FEF745FB0026DF
:103BF00008E0D4E901211AF806009047206A401C29
:103C0000761C20624E45F4DB2078C0060AD520469B
:103C1000FEF732FB06E0D4E9012130209047206A0C
:103C2000401C2062381EA7F10107F4DC07E0D4E94C
:103C3000012118F805009047206A401C2062281EC8
:103C4000A5F10105F3DC2046FEF72CFB20780006E9
:103C500002D50220BDE8F0870120FBE72DE9F04FF7
:103C600004460D46D21D22F0070089B0D0E9009726
:103C70004846394617F0A6FC0246F80F01D02D231E
:103C800007E02068810701D52B2302E0202101EA0B
:103C9000C0038DF820300BB1012000E00020032A82
:103CA000824601D0072A04DB29462046FEF76EFB38
:103CB0003FE12078800601D40D2500E0E569C7F3D7
:103CC0000A560D2D49DA00214FEA175B08464FF0DE
:103CD0000000002F00F4400007DA00EB80004FF4F2
:103CE000400100EBD07001EA60008115012901DD7F
:103CF0004FF0FF3100224FEA850CBCF1180F06D3BC
:103D00001346ACF118004FF08052C24003E04FF46C
:103D1000801323FA0CF30CF10C0CBCF1200F04D32C
:103D2000ACF1200C09FA0CF001E007FA0CF00029C4
:103D30004FF0004801DD18B90FE00ED140450CD31B
:103D400019EB02095F4121B9404502D19F4329EA9D
:103D50000209BBEB175F00D0761C2088000502D556
:103D60007B48784402E07A487844193808AA30231E
:103D700002F80A30037C0AF10101002E0AF1020A5E
:103D800053546A4602DC4FF0300101E04FF031013C
:103D90004FF001088DF8001002D0A6F2FF3603E0C4
:103DA00059EA470100D06B4E002D02DC217809074B
:103DB00004D54FF002082E218DF80110C4460021D1
:103DC0000BE0C7F303433F01C35C491C6D1E02F8BF
:103DD0000830052908F1010801DA002DF1DC002185
:103DE0000CE000EB1973491C1B786D1E082902F8C2
:103DF00008304FEA091908F1010801DA002DF0DC5A
:103E000021688B0602D516E0A8F10108E04505DD22
:103E100002EB080313F8013C302BF5D0B8F1000F8A
:103E200009DD02EB080313F8013C2E2B03D109072F
:103E300001D4A8F10108002D05DD3E2102F808108B
:103E40006D1E08F10108407C002E02F8080008F100
:103E5000010804DA2D20764202F8080002E02B2047
:103E600002F808000A214FF47A70864208F101082E
:103E70000BDB96FBF0F3303302F8083096FBF0F3DF
:103E800008F1010800FB136601E0642E0CDB6420DE
:103E900096FBF0F3303302F8083096FBF0F308F1AC
:103EA000010800FB136601E00A2E06DB96FBF1F029
:103EB000303002F8080008F1010896FBF1F001FB30
:103EC0001060303002F80800A16908F1010808EB21
:103ED000050202EB0A00081AA0612078C00602D48D
:103EE0002046FEF7C9F9216A08AE01EB0A002062FC
:103EF00004E0D4E9012116F8010B9047BAF1010A58
:103F0000F7D22078C00602D52046FEF7B5F96E46F6
:103F100009E016F8010B3E280FD0D4E901219047A3
:103F2000206A401C2062B8F10108F2D22046FEF758
:103F3000B9F909B00320BDE8F08F206A2844206257
:103F400003E0D4E90121302090476D1EEBD3F8E760
:103F5000B19A010002FCFFFF10B5436913B1AFF342
:103F6000008001E0FEF752FA012010BD126800F156
:103F700024014262002282620122EDE711684FF0C3
:103F8000FF32E9E72DE9F34F4FF0000A0C465646A1
:103F90008DB001200C9001F10C000B9062690B9820
:103FA00001219047051E2DD0252D2CD0216A884750
:103FB000C0B162690B9801219047216A88470028A7
:103FC000F7D16269411E0B98904700E0761CA16909
:103FD0000D988847216A88470028F7D1E1690D9834
:103FE0008847DBE7A1690D988847A842074601D1B9
:103FF000761CD3E7E1690D9888477F1C02D1BAF19E
:10400000000F6FD06BE162690B9800273D4639467F
:1040100090472A2804D162690B9801219047012515
:10402000DFF8D08262690B9801219047A0F130013E
:104030000A290AD24745E5DC07EB870100EB410777
:10404000303FDFD445F01005ECE7E90601D46FF00E
:1040500000476C280AD04C2814D0682815D06A284C
:104060000DD074281CD07A281AD01DE062690B98F4
:10407000012190476C2802D045F0040514E045F07A
:1040800002050DE045F020050AE062690B98012168
:104090009047682802D045F0080505E045F4006522
:1040A00062690B9801219047C4E9015765283DD00A
:1040B00019DC58287AD00CDC452837D004DC2528B8
:1040C00026D041289ED131E046282FD0472899D1CB
:1040D0002CE05B2877D0612828D063287CD0642826
:1040E00023D15AE0F6E06F2848D008DC66281DD0BE
:1040F00067281BD0692821D06E2816D127E07028A8
:1041000045D0732868D0752847D078280DD14DE068
:10411000A1690D988847252805463FF469AFE169F4
:104120000D9888476D1C3FF46AAFD8E00D9923467F
:104130006A466FF0010019F08EFAC5E045F04000C4
:1041400023464FF000026060A80736D43EE0E8073F
:104150007FF447AF2068011D21600068290501D563
:1041600006701BE7290701D5068017E7A90703D5C5
:10417000F117C0E9006111E706600FE745F0400064
:1041800023464FF008026060A80716D41EE040F6F0
:104190000E0125EA0100606016E045F0400023466C
:1041A0004FF00A026060A80707D40FE045F0400016
:1041B0006060A80708D5234610220D996FF0010012
:1041C000FEF750FA80E007E0102223460D996FF0C9
:1041D0000100FEF7F2FA77E04FF0000963284F463E
:1041E000C8464B46CB4602D05B2806D038E0E806EE
:1041F00001D40120A060012732E06269D4F80CB03C
:104200000B98012190475E2807D14FF001094946DC
:104210006269D4F80CB00B989047216939B9002134
:104220000A4603AB43F82120491C0829FADBD8B31E
:10423000216949B308F1010862690B98012190478F
:104240005D28F4D1B9F1000F09D0002003A951F87D
:104250002020D24341F82020401C0828F7DB03AB84
:104260002069002820794FEA40701ED05B46224624
:10427000CDF80080CDE901970D9900286FF001007D
:1042800020DAFEF79EFF1FE0C11703AA00EBD16101
:104290004B1121F01F0102EB8302411A1368012028
:1042A000884003431360C7E719E00D9922460028B0
:1042B0006FF00100009702DAFEF789FE04E0FEF7D6
:1042C00022FB01E0FEF70CFF00280ADA401C06D1B1
:1042D0000C9820B14FF0FF300FB0BDE8F08F504682
:1042E000FAE7E90701D10AF1010A064400200C901F
:1042F00054E60000CCCCCC0C10B507E010C89C42B2
:1043000004D10AB1002010BD012010BD491EF5D214
:10431000104610BD2DE9F05F0E4680461C469246C1
:1043200002FB06F503F14C00834614F025FC16B39E
:10433000A768002041E0002F41DCE069A8421CDAB8
:10434000B9F1000F19D0224629464046FDF7E6F99B
:1043500008B1A76029E0E06810F4C06F01D0002028
:1043600008E022696168891AE269511AC003A160F4
:1043700001D44842A060544618E0A84203DAE0683D
:1043800040F40000E060214698F80000FFF711F9C2
:10439000E16821F40001E160411C06D0A768002813
:1043A0000ADB6D1E08F1010818E00024584614F0DD
:1043B00002FC2046BDE8F09F012081460EE0AF429E
:1043C0003E4600DD2E46414632466068FCF793F8D3
:1043D0006068BF1BAD1B3044B0446060002DAADC98
:1043E000A760C8E72DE9F04707461348814614F057
:1043F000C3FB124C40F2022817E094F85000C007AB
:1044000010D0BC420ED004F14C05284614F0B4FB89
:10441000E668284614F0CFFB38EA060002D12046B1
:10442000FCF7BEFB206D20F00104002CE5D14846CE
:1044300014F0C1FBBDE8F0870C000020C000002094
:1044400010B5014602A0FFF767FB012010BD000078
:1044500053494752545245443A2052656469726543
:1044600063743A2063616E2774206F70656E3A2022
:104470000000000010B5012805D0002103A0FFF7BF
:104480004BFB012010BD09A1F8E70000534947523A
:10449000544D454D3A204F7574206F662068656114
:1044A00070206D656D6F7279000000003A204865DC
:1044B0006170206D656D6F727920636F72727570B7
:1044C0007465640010B50C3014F063FB10BD00007F
:1044D0002DE9FF4F1F464FF03C0987B04FF00042D7
:1044E000DDE9141001F10108DDF858A002EA40509E
:1044F0000390002005908346054604460490B96960
:10450000461E08988847AAF1010A0290BAF1000FE6
:104510003BDD02982E2815D01021FEF795F80028D3
:104520002EDB4FF0010B0599014317D0B9F1000FB5
:104530000BDB4A46C117FFF725FB05430C43A9F1E6
:10454000040905E0012004900BE008B145F00105E5
:1045500001200590049820B9361D02E0049800B1AE
:10456000361FB969089808F101088847BBF1000FA8
:10457000AAF1010A0290C9D00999C1F80080C5E7E3
:104580000298702808D0502806D0F9690898884702
:10459000BBF1000F14D04FE0002002900120BBF1CE
:1045A000000F049009D0B969089808F101088847FC
:1045B000AAF10109B9F1000F07DCF96908988847E9
:1045C0006FF001000BB0BDE8F08F2B2804D02D2830
:1045D0000CD14FF0FF300490B969089808F1010838
:1045E0008847A9F10109B9F1000FE6DD411CE4D0CB
:1045F0000A21FEF729F80028DFDB029908F10108FB
:1046000001EB810100EB41000290B96908988847ED
:104610000A21FEF719F8099AA9F10109B9F1000F69
:10462000C2F8008001DD0028E7DAF96908988847B8
:104630000499029800FB016655EA040004D004F0D6
:104640004041090002D006E0039898E0A40044EA43
:104650009574AD00B61E04F00041080002D16D193A
:104660006441761E159810F0240F03D04FF00B090B
:104670005C4803E04FF028096FF07D008246564504
:1046800007DAAAEB06018944B9F1410F01DD4FF0C9
:10469000410901200021A9F10102FFF773FA024646
:1046A00028400B462140084301D0012100E00021B1
:1046B000501E029143F1FF3128402140084301D0B0
:1046C000012000E000200299834651EA0B014FD0FF
:1046D000002108464FF00000039900F4400039B172
:1046E00000EB80004FF4400100EBD07001EA600065
:1046F0008015012802DD4FF0FF3000E013D0401C90
:1047000036D0029860B3BBF1000F0CD14A460120AD
:104710000021FFF737FA28402140084301D001204B
:1047200000E00020E0B101204A460021FFF72AFA0C
:10473000034640190A4661412D1A8C4111D3B9F143
:10474000400F09DD159810F0240F02D0AAF13406AD
:1047500003E0AAF1170600E0761C00254FF00044A4
:1047600006E05B1E42F1FF3220EA030521EA020463
:10477000CAF10100B04206DA1B49039808430190D0
:10478000002000900EE0039AC4F3D321E80A0A4304
:10479000164940EA44500A433146CDE900026846D2
:1047A00017F06BFF159810F0240F0BD01598C00769
:1047B00015D13868DDE90012031D3B600068C0E9CF
:1047C00000120CE002A8694617F04EFF1598C007CA
:1047D00005D13868029A011D3960006802604046C0
:1047E000F0E6000002FCFFFF0000F07F0000F03F59
:1047F0002DE9FF4F92461D4685B04FF00041DDE99F
:10480000124BDDE914727F1E01EA4B50414940F022
:10481000FF4940EA0108002122F0200049280491C4
:1048200002D04E2828D04CE03BA0012607C88DE8D6
:104830000700A9690698641C88477F1E014606D4B4
:104840001DF8060018B121F0200181420BD0E96962
:1048500006988847032E34D0082E32D06FF001001E
:1048600009B0BDE8F08F761C032E01D0082EE0D1F0
:10487000601CCAF80000DCE7A9690698641C884738
:104880007F1E2AD420F02000412826D1A96906984D
:10489000641C88477F1E20D420F020004E281CD1A5
:1048A000A9690698641C88477F1E48F4002849F4CB
:1048B0008009CAF8004001D4282806D0E969069882
:1048C00088475FEACB7012D022E0A9690698641C81
:1048D00088477F1E01D4002803DAE96906988847D3
:1048E000BCE72928F1D1641CCAF80040E9E71BF0B5
:1048F000240F07D028680499031D2B600068C0E9C5
:10490000001805E02868021D2A600068C0F80090C1
:104910002046A5E70000F07F494E46494E495459CC
:10492000000000008249097851B1064AC0F3C6214F
:10493000515CC0F3022021FA00F000F00100704742
:1049400000207047002E002070B5794C264656F89E
:10495000185F00F0F1F856E8001F46E8000202B1C7
:10496000F9E7A942F2D1A84208D204F1100151E8B6
:10497000002F531C41E8003404B1F8E770BD00BFBC
:10498000F8B514460D460646FFF7CCFF98B13746FA
:10499000C0F20807FFF7D8FF0146EFF305800028B3
:1049A00008BFB7B207F140702A46234601B0BDE800
:1049B000F04000F041B80120F8BD00002DE9F047BB
:1049C000994692460F460646FFF7ACFF58B3DDF80E
:1049D00020803446C0F20804FFF7B6FF0546EFF327
:1049E00005800028524808BFB4B20130D0E84F1FFC
:1049F0004A1CC0E8432F03B1F8E74FF4E02000EA77
:104A00000146A01900F1807029463A46534600F04D
:104A100013F858B10748294630434A464346BDE893
:104A2000F04700F009B80120BDE8F0870020BDE89C
:104A3000F08700BF010000022DE9F04F4FF08054D5
:104A400091464FF0005204EAD10402EA9902204351
:104A500010434FF0804202EA530240EA0208344811
:104A6000DFF8D0E09A468B466FF0070600F1040CA1
:104A7000013680F05180614651E8005F681C41E8D2
:104A8000000404B1F8E705F4F0506FF35F250EEB76
:104A9000051448EAC02004F10C0740F0406257E8D2
:104AA000000F810103D3BFF32F8F002006E000F039
:104AB0000040104347E8000303B1F0E74101D7D5B8
:104AC00080F004402BF0004100F0004211442B0123
:104AD0004EF803102AF0004129F0004311441A4413
:104AE000C4E9012157E8002F920103D2BFF32F8FB1
:104AF000002104E047E8000303B1F3E7012159B1C5
:104B00000B48083050E8001F4A1C40E8002303B15E
:104B1000F8E70120BDE8F08F05480C3050E8001F91
:104B20004A1C40E8002303B1F8E70020BDE8F08FFD
:104B3000802E0020000E002001480068704700BF52
:104B4000041000E0014602480022FFF719BF00BF31
:104B500001F30100014602480022FFF711BF00BF28
:104B600005F3020001464FF473400022FFF708BF2F
:104B7000014602480022FFF703BF00BF03F3020013
:104B8000014602480022FFF7FBBE00BF02F301000E
:104B9000014602480022FFF7F3BE00BF04F3020003
:104BA000014602480022FFF7EBBE00BF0DF50200F0
:104BB00001464FF471400022FFF7E2BE0146024871
:104BC0000022FFF7DDBE00BF06F1010001460248EA
:104BD0000022FFF7D5BE00BF13F1010002480021FB
:104BE0000022FFF7CDBE00BF01F101000248002105
:104BF0000022FFF7C5BE00BF02F1020002480021FB
:104C00000022FFF7BDBE00BF07F1010002480021EE
:104C10000022FFF7B5BE00BF08F102001CB5144624
:104C20000A460146024800932346FFF7C7FE1CBD13
:104C300001F002000A4601460148FFF7A1BE00BF8D
:104C400004F00200E0B513460A4601460020009039
:104C50000148FFF7B3FE8CBD05F002001CB51446F9
:104C60000A460146024800932346FFF7A7FE1CBDF3
:104C700003F00200E0B513460A460146002000900A
:104C80000148FFF79BFE8CBD02F00200E0B5134621
:104C90000A460146002000904FF43C30FFF78EFE9C
:104CA0008CBD0000014602480022FFF769BE00BF2C
:104CB00008F902000A4601460148FFF761BE00BF3D
:104CC00003FA0200014602480022FFF759BE00BF66
:104CD00017FA0100014602480022FFF751BE00BF4B
:104CE00018FA02000A4601464FF47A40FFF748BE20
:104CF0001CB514460A460146024800932346FFF7B6
:104D00005DFE1CBD0CFA0100E0B513460A460146E3
:104D1000002000900148FFF751FE8CBD0DFA020003
:104D20000A4601460148FFF72BBE00BF14FA0100F6
:104D3000014602480022FFF723BE00BF0EFA020020
:104D40000A4601460148FFF71BBE00BF09FA0200F0
:104D50000A4601460148FFF713BE00BF0AFA0200E7
:104D6000E0B513460A460146002000900148FFF7CF
:104D700025FE8CBD01FA01000A4601460148FFF7F5
:104D8000FFBD00BF0BFA02000A4601460148FFF7CB
:104D9000F7BD00BF10FA02001CB514460A460146D2
:104DA000024800932346FFF709FE1CBD06FA0100E6
:104DB000E0B513460A460146002000900148FFF77F
:104DC000FDFD8CBD07FA0200014602480022FFF7F4
:104DD000D7BD00BF08FA02000A4601460148FFF7A6
:104DE000CFBD00BF0FFA02000A4601460148FFF797
:104DF000C7BD00BF06F701000A4601460148FFF79C
:104E0000BFBD00BF07F70200014602480022FFF7BE
:104E1000B7BD00BF08F702000A4601460148FFF788
:104E2000AFBD00BF09F702000A4601460148FFF77F
:104E3000A7BD00BF03F70200014602480022FFF7AA
:104E40009FBD00BF0EF70100014602480022FFF798
:104E500097BD00BF0FF702000A4601464FF47740A6
:104E6000FFF78EBD014602480022FFF789BD00BF53
:104E700001F70100014602480022FFF781BD00BF93
:104E80000AF70200014602480022FFF779BD00BF81
:104E90000BF701000A4601460148FFF771BD00BF4C
:104EA0000CF70200014602480022FFF769BD00BF6F
:104EB00008F802000A4601460148FFF761BD00BF3D
:104EC00016F203000B4601460348002A0CBF1A469F
:104ED0002930FFF755BD00BF03F20200014602482A
:104EE0000022FFF74DBD00BF1CF202000A4601463A
:104EF0004FF47240FFF744BD024800210022FFF743
:104F00003FBD00BF1AF201001CB514460A46014617
:104F1000024800932346FFF751FD1CBD09F402002F
:104F2000014602480022FFF72BBD00BF08F4020033
:104F3000014602480022FFF723BD00BF06F2010030
:104F4000014602480022FFF71BBD00BF15F2020018
:104F5000E0B513460A460146002000900148FFF7DD
:104F60002DFD8CBD01F20100014602480022FFF731
:104F700007BD00BF18F203000A4601460148FFF7CB
:104F8000FFBC00BF2DF202000A4601460148FFF7B0
:104F9000F7BC00BF0AF20100014602480022FFF7F9
:104FA000EFBC00BF19F202000A4601460148FFF7B4
:104FB000E7BC00BF17F203000A4601460148FFF7AD
:104FC000DFBC00BF01F602000A4601460148FFF7B8
:104FD000D7BC00BF04F602000A4601464FF47640F3
:104FE000FFF7CEBC1CB514460A46014602480093A2
:104FF0002346FFF7E3FC1CBD02F601000A4601460A
:105000000148FFF7BDBC00BF07F60100014602489A
:105010000022FFF7B5BC00BF08F602000949D1F82D
:105020008020D2071CBF09685FEAC17100D17047B8
:105030004FF060410A68002AFCD04FF060410870D0
:10504000704700BF000E00E010B500F1280151E8E4
:10505000002F12B9BFF32F8F04E0531E41E8003434
:1050600004B1F4E772B12C300121006850B1821C08
:10507000D2E84F3FC2E8441F04B1F9E71A0602D054
:105080000830F2E7002010BD70B5024652F8305FDC
:105090004DB1CC7800235DB12E46ED78A5420DD2FE
:1050A00075683346F7E70023C1E90133C1620DE0BB
:1050B0000024C1E9014300F12C0403E0C1E90163CC
:1050C00006F108042160002B18BF1A1D116028305A
:1050D00050E8001F4A1C40E8002303B1F8E770BD08
:1050E000D1E90123002A0EBFC36293608B68191DAA
:1050F000002B08BF00F130010A60704719480068B2
:10510000704700BF18480178012905D105494FF0C3
:1051100080620A60002101701248016841F00101BB
:105120000160704704ED00E04FF0FF307047000071
:1051300040B127490968B1FBF0F0411E0020B0EBF7
:10514000116F02D04FF0FF307047054AFF231370F4
:10515000044A062313605160034908709060704749
:1051600023ED00E010E000E06802002015484168EF
:1051700001F00C021449082A03D0042A17D113495C
:1051800015E0026802235202104A58BF0A4601681D
:1051900001F03F01B2FBF1F10268C2F38812514302
:1051A0000268C2F3014203EB4202B1FBF2F1084A8A
:1051B000084B11604068C0F30310185C21FA00F03E
:1051C00010607047043802400024F40000127A0096
:1051D000100000205CDA010810B50E480F4CD0F822
:1051E000801041F47001C0F880100B490A6842F049
:1051F00001020A6000228A600B6823400B60084BA2
:105200004B600B6823F480230B60CA604FF0006191
:10521000016010BD08ED00E000380240FFFFF6FE1F
:105220001030002410B5930712D400F12803D007E2
:105230001ED153E8000F084203D1BFF32F8F002087
:1052400005E020EA010243E8002404B1F1E710BDC3
:10525000806A00EA01038B42014618BF002112F068
:10526000010208BF014653EA020018BF084610BDFC
:1052700053E8000F00EA01028A4203D0BFF32F8FE8
:10528000002005E020EA010243E8002404B1EFE732
:1052900010BD0000B0B5194A0023443215462C68F1
:1052A0003CB12569A94209D3491B04F10C052346E9
:1052B000F5E70024C0E90234016106E0C0E90234E8
:1052C0000161A0602569691A2161002B18BF03F1F3
:1052D0000C021060B0BD00BFC16829B182680369CB
:1052E0008A600A691A440A618068044A00F10C0362
:1052F000002808BF02F14403196070471C00002019
:10530000024800680168896C084700BF200200203D
:1053100010B540F25A64C2F20004204610F0ECF9D5
:1053200045F2557040F20002C0F60100C0F60002DE
:105330002146BDE81040FBF784B840F25960C2F244
:10534000000010F0D9B910B540F25B64C2F200045D
:10535000204610F0D1F945F2557040F20002C0F637
:105360000100C0F600022146BDE81040FBF769B815
:105370002DE9F04798B06E48002506AECDE90655F8
:10538000CDE90855CDE90A558DF81D50CDF8190025
:10539000082006F10C048DF8180066A120460C22A6
:1053A0000CF013FD06AA07CA0CAB07C300200328A4
:1053B00003D046F820500130F9E794E807000FAB1E
:1053C00007C300200021032903D044F82100013144
:1053D000F9E7002546F26130CDE90255CDE90055E7
:1053E000CDE90455ADF8010006206E468DF80000A9
:1053F000632006F10C048DF8030052A1204616220A
:105400000CF0E3FC9DE8070012AB07C30020032863
:1054100003D046F820500130F9E794E8070015ABB7
:1054200007C300200021032903D044F821000131E3
:10543000F9E7DFF828A10027504640F8147F0CACAC
:105440000AF110060AF11405476040F8040C302FE9
:1054500007D0E2193046294613460FF040F81837B6
:10546000F5E71827E0190EF0BAFE183F17F11800FB
:10547000F8D168460EF0BDFE06A80EF0BAFEDFF8C1
:1054800018813748DFF8DC9031464246C8470AF1B8
:105490001C06354C3046A047344F3146384642460C
:1054A000C8470AF128063046A047384631464246EA
:1054B000C8470AF134063046A047384631464246CE
:1054C000C8470AF14006304600F096FD28483146AC
:1054D0004246C8470C2013F0FBF906460020374629
:1054E000DAF81040B06047F8040F3760AC4214D0CF
:1054F00004F110023046394613460EF0F0FF6068A2
:1055000028B1044600680028FBD1EFE70446A068F4
:105510000168A142FAD10446E8E74AF80C6F154841
:105520001D4A5146FAF78DFF18B0BDE8F08700BF5D
:1055300066656564506F737577205B756D2F735D5D
:105540000000000050727A7973706965737A656E35
:105550006965205B756D2F73325D00001C020020B1
:10556000C341010843040008935F0008A15F0008DD
:1055700003600008030C010810B5054C204610F02C
:10558000BBF80448044A2146BDE81040FAF759BF69
:1055900058060020555701080000000810B5FFF715
:1055A0001BFE394C206840F4803020602068800366
:1055B000FCD5206C40F0805020643448016841F4F0
:1055C00040410160216821F08071216021688901DA
:1055D000FCD46168042241F480016160616862F377
:1055E000050161606168B42262F38E1161606168D7
:1055F00021F440316160216841F0807121602168AF
:105600008901FCD5016841F4803101604168C9031A
:10561000FCD5016841F40031016041688903FCD583
:1056200040F20570C4F80004A068022161F3010093
:10563000A060A068A060A06840F40040A060A068DE
:1056400040F4A050A060A06800F00C000828FAD137
:10565000FFF78CFD206B40F001002063206B40F0D1
:1056600004002063206B40F008002063206B40F0B2
:1056700010002063206B40F040002063606C40F01D
:105680001000606410BD00BF003802400070004090
:1056900010B5764902220868072362F39340086038
:1056A000486820F400704860886840F440208860B2
:1056B000486A63F307104862086862F3155008608F
:1056C000486820F480604860886840F44010886032
:1056D000486A63F30B204862D1F80028012060F388
:1056E0009752C1F80028624A136823F400631360DC
:1056F000536843F440035360D1F8003860F31963F2
:10570000C1F80038136823F480531360536843F0E2
:1057100040735360D1F8003860F39B63C1F80038E0
:105720001168544B21F400511160516841F04061FF
:105730005160D2F8FC1360F30511C2F8FC13D2F8E3
:10574000001421F00401C2F800144B49CC5844F075
:105750003004CC50D2F8FC4360F30924C2F8FC4377
:10576000D2F8004424F01004C2F80044CC5844F4A9
:105770004074CC50D2F8FC4360F38B24C2F8FC4355
:10578000D2F8004424F02004C2F80044CC5844F479
:105790004064CC50D2F8FC4360F38F34C2F8FC4331
:1057A000D2F8004444F08004C2F80044CA5842F4DD
:1057B0004042CA500A6860F305120A604A6822F043
:1057C00004024A608A6842F030028A600A6860F324
:1057D00087120A604A6822F008024A608A6842F02A
:1057E000C0028A600A6860F309220A604A6822F0EF
:1057F00010024A608A6842F440728A600A6860F364
:105800008B220A604A6822F020024A608A6842F4C9
:1058100040628A600A6860F30D320A604A6822F0CA
:1058200040024A608A6842F440528A6013490A681A
:1058300060F39B620A604A6822F400524A608A68F8
:1058400042F040628A600A6860F31D720A6048682C
:1058500020F480404860886840F0405088604FF4F1
:10586000005048834FF48040488310BD0000024040
:105870000408024008FCFFFF00100240001802402C
:1058800007484FF6FF0201681140064A11430160C4
:10589000054810210170054820210160704700BFB4
:1058A0000CED00E00003FA0525E400E004E100E06F
:1058B000044D054C286880F400502860204613F001
:1058C0005DFCF7E714180240A086010070B504469D
:1058D000084800210022002514F00EFB064E214648
:1058E000306014F02BFB3068002808BF4FF0FF3504
:1058F000284670BDB1580008E4B5002084B06C465D
:10590000314EDFF8C8A04FF0000804F1040903ADE0
:10591000CDF80C8030684FF0FF3201680B692946E2
:10592000984703990028F5D1B1F1405FF2D1306872
:105930004FF0FF3201680B69294698470028E9D1EA
:10594000039801281CD00228E4D130684FF0FF32C0
:1059500001680B69294698470028DBD13068CDF8EB
:105960000880CDE900980168039A4F6921464FF0FD
:10597000FF33B847DAF80000214600F025FE19E0B1
:1059800030684FF0FF3201680B69294698470028BC
:10599000C0D13068CDF80880CDE900980168039A3D
:1059A0004F6921464FF0FF33B847DAF8000021462F
:1059B00000F0AAFEDAF8000001680968884720466E
:1059C0000FF048F9A6E700BF1C02002024020020C7
:1059D00070B50446084800210022002514F08CFA16
:1059E000064E2146306014F0A9FA3068002808BF3E
:1059F0004FF0FF35284670BDFD580008DCB500208B
:105A0000054A0123D2E90012002803FA02F214BF6A
:105A10000A834A83704700BF1400002084B0084DF9
:105A200001AC28680168CA6C4FF0FF3190472968C3
:105A30000868026B2046904720460CF07FFBF0E799
:105A40002002002070B504460848002100220025ED
:105A500014F052FA064E2146306014F06FFA3068A6
:105A6000002808BF4FF0FF35284670BD1D5A0008BA
:105A7000E0B5002012F0C3BE80B5AFF30080BDE8F2
:105A8000804012F022BF80B5AFF30080BDE88040B7
:105A900012F01BBF80B5AFF30080BDE8804012F06C
:105AA00014BFB0B586B00D4604460020C4E901001D
:105AB00020700DF10F0128468DF80F200EF08FFE9B
:105AC000291D81421AD0017C6B468DF80010D0E967
:105AD00005201D1DCDE9012010B14368013343604D
