:020000040800F2
:10000000889A0020890200089102000893020008E3
:1000100095020008970200089902000800000000FD
:10002000000000000000000000000000C9020008FD
:100030009D02000800000000610300087103000831
:10004000A3020008A3020008A3020008A3020008FC
:10005000A3020008A3020008A3020008A3020008EC
:10006000A3020008A3020008A3020008A3020008DC
:10007000A3020008A3020008A3020008A3020008CC
:10008000A3020008A3020008A3020008A3020008BC
:10009000A3020008A3020008A3020008A3020008AC
:1000A000A3020008A3020008A3020008A30200089C
:1000B000A3020008A3020008A3020008A30200088C
:1000C000A3020008A3020008A3020008A30200087C
:1000D000A3020008A3020008AD130008A302000851
:1000E000A3020008A3020008A3020008A30200085C
:1000F000A3020008A3020008A3020008A30200084C
:10010000A3020008A3020008A3020008A30200083B
:10011000A3020008A3020008A3020008A30200082B
:10012000A3020008A3020008A3020008A30200081B
:10013000A3020008A3020008A3020008A30200080B
:10014000A3020008A3020008A3020008A3020008FB
:10015000A3020008A3020008A3020008A3020008EB
:10016000A3020008A3020008A3020008A3020008DB
:10017000A3020008A3020008A30200080000000078
:10018000A3020008A3020008A3020008A3020008BB
:10019000A3020008A3020008A3020008A3020008AB
:1001A000A3020008A3020008A302000800F002F85E
:1001B00000F057F80AA090E8000C82448344AAF1AA
:1001C0000107DA4501D100F04CF8AFF2090EBAE8A8
:1001D0000F0013F0010F18BFFB1A43F0010318477B
:1001E000AC3D0000CC3D0000103A24BF78C878C177
:1001F000FAD8520724BF30C830C144BF04680C602D
:10020000704700000023002400250026103A28BF74
:1002100078C1FBD8520728BF30C148BF0B60704778
:10022000662903F0D085732900F0338500207047DC
:100230001FB503F0BBFD9DE8030000F0D2FA00F00B
:10024000CDFD04000020002103F09AFDE06000F0E5
:1002500071F91FBD10B5002000F01FFD00F014FF64
:1002600010BD00F096FD114603B401F0F6FD03BC8D
:10027000FFF7DEFF01F0F4FD00F0D6FE03B4FFF758
:10028000E9FF03BC00F068F90948804709480047C6
:10029000FEE7FEE7FEE7FEE7FEE7FEE7FEE7FEE736
:1002A000FEE7FEE704480549054A064B7047000093
:1002B000A5120008AD01000888940020889A00204B
:1002C00088960020889600201EF0040F0CBFEFF3E4
:1002D0000880EFF30980816911F8021C91BB01B518
:1002E00090E80F10E047BDE800508CE80300244B75
:1002F00093E80600914208BF704741B91EF0100F05
:1003000010D12049086820F0010008600AE02CE9BB
:10031000F00F1EF0100F08BF2CED108AC1F838C086
:1003200081F822E01A6092F82210906B61F0FF0EC3
:100330001EF0100F08BFB0EC108AB0E8F00F80F389
:1003400009887047104A13689942FAD801B552F8E3
:1003500021C00FC8E047BDE80050CCF8000070474E
:1003600001B502F037F9BDE80140EFF3098CBEE7B3
:1003700001B502F065FBBDE80140EFF3098CB6E77B
:100380001800002034EF00E0183F000810B50020EE
:1003900000F0B6F9FFF75EFFBDE81040012000F065
:1003A000DBB80B460146184600F093B9032A40F229
:1003B000308010F0030C00F0158011F8013BBCF107
:1003C000020F624498BF11F801CB00F8013B38BF1F
:1003D00011F8013BA2F1040298BF00F801CB38BF2D
:1003E00000F8013B11F0030300F02580083AC0F04B
:1003F000088051F8043B083A51F804CBA0E80810F3
:10040000F5E7121D5CBF51F8043B40F8043BAFF325
:100410000080D20724BF11F8013B11F801CB48BF7F
:1004200011F8012B24BF00F8013B00F801CB48BFB5
:1004300000F8012B704710B5203AC0F00B80B1E8EE
:100440001850A0E81850B1E81850A0E81850203A09
:10045000BFF4F5AF5FEA027C24BFB1E81850A0E812
:10046000185044BF18C918C0BDE810405FEA827C2C
:1004700024BF51F8043B40F8043B08BF7047D20743
:1004800028BF31F8023B48BF11F8012B28BF20F8E4
:10049000023B48BF00F8012B70474FF000020429CF
:1004A000C0F0128010F0030C00F01B80CCF1040CA3
:1004B000BCF1020F18BF00F8012BA8BF20F8022BD7
:1004C000A1EB0C0100F00DB85FEAC17C24BF00F87D
:1004D000012B00F8012B48BF00F8012B70474FF0AB
:1004E000000200B5134694469646203922BFA0E884
:1004F0000C50A0E80C50B1F12001BFF4F7AF090790
:1005000028BFA0E80C5048BF0CC05DF804EB890080
:1005100028BF40F8042B08BF704748BF20F8022BC3
:1005200011F0804F18BF00F8012B704770477047DB
:100530007047000070B5064C7C44064D7D4404E0D5
:100540002046016808448047241DAC42F8D170BDA4
:100550008C3A00008C3A000001491820ABBEFEE73F
:10056000260002000844401E491E884370470821A7
:10057000001DF7E72DE9F04117460E460446FFF748
:10058000F6FFA042054633D9002F1CBF06F10C0030
:1005900001F039FC30467468F4B12168A94217D3E0
:1005A00005F1080291423CBF6168416007D362686F
:1005B00061194A602268521B0A6041602560002F61
:1005C0001CBF06F10C0001F03DFC201DBDE8F081D0
:1005D00020466468002CE0D12946304600F0EDF852
:1005E0000028D7D1002F1CBF06F10C0001F02AFC17
:1005F0000020BDE8F08110B5044600F0D0F8016895
:100600002046BDE810400122B4E770B516460D46FD
:10061000041F002808BF70BD002E1CBF05F10C0090
:1006200001F0F1FB2B465868002818BFA04238BFE4
:100630000346F8D31968CA18A24218BF5C6003D1F8
:1006400022681C461144196021680A19824218BFA9
:10065000606004D142686260006808442060002E37
:100660001CBF05F10C0001F0EDFB70BD10B5044698
:1006700000F095F801682046BDE810400122C4E76B
:1006800070B50C460546012A05D02878800600D5AD
:10069000EA69002302E0012305E05B1C934202D2D9
:1006A000E05C0028F9D1A869E618C01AA861286A98
:1006B000184428622846AFF3008004E0D5E9012100
:1006C00014F8010B9047B442F8D32846AFF30080EA
:1006D00070BD2DE9F041074615460E461020FFF784
:1006E0008AFF04000AD06760C4E9026500F05CF884
:1006F0000168216004600020BDE8F0810120FBE773
:1007000010B500F0F1FABDE8104000F0E7BA431A66
:1007100028BF9A427FF64AAE10441144032A40F2A1
:10072000268010F0030F1EBF11F8013D521E00F885
:10073000013D10F0030F7FF4F6AF11F0030300F05A
:10074000FE82083AC0F00B8051F8043D083A51F897
:1007500004CD40F8043D40F804CDFFF7F3BF121D6F
:100760005CBF51F8043D40F8043DAFF30080D20770
:1007700024BF11F8013D11F801CD48BF11F8012C3B
:1007800024BF00F8013D00F801CD48BF00F8012C5E
:100790007047000000487047A8000020704710B55F
:1007A000FFF7F8FF083010BD10B5FFF7F3FF383042
:1007B00010BD704770477047704738B504460A4609
:1007C00000206946AFF30080002808BF38BD02460C
:1007D0000099204600F00EFB012038BD012000F0FA
:1007E00045BCF8B5AFF30080054600200C4610204C
:1007F00000BF0646A819A0420DD93246694600201E
:10080000AFF30080070008BF00F030FC0098A04262
:1008100018BF0546C419FFF7C2FF05600746F01D63
:1008200020F007004619284600F00AF8B44208BF35
:10083000F8BDA21B31463868BDE8F84000F0DABACE
:1008400000210160C0E901100C3001F0ECBA102069
:1008500070472DE9FF4F0C461E464FF0FF378BB017
:10086000D2E90001DDF860800A908A46C1F30A559A
:1008700005B93D46002108464FF00000BAF1000FCF
:1008800000F4400005DA00EB80004FF4400101EA7B
:1008900050004FEA9059B9F1010F00DDB9460A98AE
:1008A00050EA4A000ED044F61050A5F2FF354543F9
:1008B0002F14B8F1000F1ED07542291E1EDDC9F19C
:1008C00000021CE0B8F1010F4FF0000001D0302110
:1008D00003E0F24305E02154401CB042FBDB30460C
:1008E0000022002121540B99C1F80880C1E90020A1
:1008F0000FB0BDE8F08FBD1B6D1CDEE74A4600DA85
:10090000694206A800F01EFB06AB93E8070003ABA4
:1009100083E8070050460A9902F052FE8DE807006E
:10092000A0F500501F3800900398002D0ADD42F218
:100930001F014A460844002303A90390684603F0B8
:10094000BBF809E0A0F500504A461F38002303A970
:100950000390684603F0C5F88DE807000004000C1A
:1009600003D04FF0FF30410800E01046B8F1000F0F
:1009700003D00022009215461EE0751E05D400F03B
:100980005BFA303262556D1EF9D5B3460122084339
:1009900002D000227F1C04E02078302801D1002200
:1009A0007F1E002A099784D01DE0112D07DA00F080
:1009B00043FA303262556D1C50EA0102F5D108430A
:1009C00002D00098C8B10EE00021681E05E0235C4B
:1009D000625C63542254401E491C8142F7DBAB46E3
:1009E000A81B401E0990002004F80B000B98099AE0
:1009F000C0F80880C0E9002B7AE711264FF0000804
:100A000057E72DE9F04F88460446D21D22F0070132
:100A100091B0D1E90001CDE90A0103F099F902464C
:100A20000B98C00F01D02D2007E02068810701D569
:100A30002B2002E0202101EAC000032A099001D006
:100A4000072A05DB03464146204600F03BFA0BE14E
:100A50002078800601D5E06900E00620B8F1650F36
:100A6000814606D0B8F1660F18D0B8F1670F70D183
:100A700031E00020B9F1110F009001DB112301E0FA
:100A800009F101030AAA01A90CA8FFF7E2FEDDE9BA
:100A90000C70002609F10105834647E001204B4612
:100AA00000904FF000470AAA01A90CA8FFF7D1FE59
:100AB000DDE90DB00C995D46002610B909F1010081
:100AC0000D18B9EB050003D4C0F1FF3609F101059B
:100AD000A5EB09002BE0B9F1010F01DA4FF0010994
:100AE0000020B9F1110F0090484601DD112300E00C
:100AF00003460AAA01A90CA8FFF7ABFEDDE90C70BA
:100B00004D4600268346207800070AD4AB4500DA1C
:100B10005D4601A8012D04DD411911F8011C3029A1
:100B200007D04F4502DA17F1040F04DA012082469C
:100B30000FE06D1EEEE7002F02DCED1B3E4403E0EC
:100B4000781CA84200DD7D1CB81B00F1010A4FF0A3
:100B500000472078000703D4AA4501DB4FF0FF3A95
:100B60000021B7F1004F0DF143088DF8431024D058
:100B700002202B23002F01DA7F422D230A21021E9F
:100B8000A0F1010000DC5FB197FBF1FC97FBF1F2F3
:100B900001FB1C7C17460CF1300C08F801CDEEE788
:100BA000A8F1010003702188090501D5452100E065
:100BB0006521A0F1010800F8011C09980FA9A1EB1B
:100BC0000807FF1D00B10120411901EBEA70A1697E
:100BD0003844081A401EA0612078C00602D420467E
:100BE000AFF30080099828B1D4E901219047206A29
:100BF000401C20622078C00622D52046AFF300803A
:100C00001EE0002E04DBB34502DD01A8805D00E09C
:100C10003020D4E901219047206A401C2062761CD4
:100C2000AAF101005FEA000A0AD100F0D7F8C06813
:100C30000168405CD4E901219047206A401C206291
:100C4000281EA5F10105DCDC07E0D4E9012118F834
:100C5000010B9047206A401C2062381EA7F1010753
:100C6000F3DC2046AFF30080032011B041E610B55D
:100C7000436913B1AFF3008001E0FFF701FD0120EC
:100C800010BD127800F124010A7000224A7001227E
:100C9000EDE711684FF0FF32E9E72DE9F041064634
:100CA000FFF782FD8046454613E016B1E068B0428A
:100CB0000ED120682860D4E90101D8F80070884777
:100CC0002046FFF7D3FCD8F80000B842EBD100E093
:100CD00025462C68002CE8D1BDE8F081002801D021
:100CE000FFF73ABC7047000010B5002102A000F0E9
:100CF000A4F9012010BD0000534947414252543A23
:100D00002041626E6F726D616C207465726D696EE8
:100D10006174696F6E000000431A28BF9A427FF623
:100D20008AAB1044114410F0030F1EBF11F8013DAF
:100D3000521E00F8013D10F0030F7FF4F6AF103A99
:100D4000C0F00A8010B531E9185020E91850103A67
:100D5000BFF4F9AFBDE81040530724BF31E90810D4
:100D600020E9081044BF51F8043D40F8043D12F05A
:100D7000030F08BF7047D20728BF31F8023D48BFB4
:100D800011F8012C28BF20F8023D48BF00F8012CC3
:100D900070477546FFF7FEFCAE46050069465346B0
:100DA00020F00700854618B020B5FFF77BFABDE8B4
:100DB00020404FF000064FF000074FF000084FF0C2
:100DC000000BAC46ACE8C009ACE8C009ACE8C0090F
:100DD000ACE8C00921F007018D46704710B5FFF758
:100DE000D9FC203010BD801A0844401E491E88439B
:100DF0001044704770B5144605468C464368002B76
:100E000018BF634538BF1846F8D3026810446045E0
:100E100008D06646604604220821FFF7E4FF811BE4
:100E20008446641A2946CCF80040BDE87040002290
:100E30000CF10400FFF7E9BB30B5B0F10A0271F123
:100E400000034FEA900E4EEA817EB0EB0E0061EB9C
:100E500091014FEA101E4EEA017E10EB0E0041EBAD
:100E600011114FEA102E4EEA016E10EB0E0041EB0D
:100E700011214FEA104E4EEA014E10EB0E0041EBED
:100E80001141401841F100014FEAD00040EA4170A1
:100E90004FEAD1014FEA810444EA907410EB8005D7
:100EA00044EB01046D1944EB0404521BA3414FF0C1
:100EB000000348BF0A3200D530BD401C41F100019B
:100EC00030BD00002DE9F0411F46044603260168AD
:100ED000072A01F4006004DB08B116A505E016A599
:100EE00003E008B115A500E015A521F01000206071
:100EF000A069C01EA0610FB1401EA0612046AFF3E3
:100F000000804FB1D4E9012138469047206A401C47
:100F10002062C01C206206E0206AFAE7D4E90121C1
:100F200015F8010B9047761EF8D22046AFF30080EB
:100F3000BDE8F0814E414E006E616E00494E4600A4
:100F4000696E66002DE9F047814616468AB035483D
:100F500078440DC88DE80D0032487844801C03ACFD
:100F60000DC884E80D0041F69B300844372190FB02
:100F7000F1F290FBF1F5A5F1800501FB12041B3C99
:100F800002D56442012000E00020DFF898A08046EE
:100F90000027FA44AAF1BE0A0EE0E0070AD0324662
:100FA000684607EB470101230AEB810102F099FD36
:100FB0008DE8070064107F1C002CEED1194F7F4490
:100FC000AE3F19E0E80715D007EB04100DF1180A41
:100FD00090E80E008AE80E00C068F04201D198192E
:100FE00008903246012306A903A802F07AFD03AB5C
:100FF00083E807006D10641C002DE3D14FF001035E
:1010000032466946B8F1000F03A802D002F054FD41
:1010100001E002F066FDC9E90001C9F808200AB044
:10102000BDE8F087F42E000010B50446AFF3008051
:101030002046BDE81040FFF721B970B505460C46C3
:101040000A2000E06D1C00F018F835B1287800285F
:10105000F8D102E0641C00F010F814B120780028E8
:10106000F8D1BDE870400A2000F007B810B500F0D4
:1010700013F8BDE81040FFF731BE08B569468DF89A
:1010800000000320ABBE08BD10B5FFF788FB006869
:10109000BDE8104000F066B810B5012805D0002169
:1010A00003A0FFF7CAFF012010BD09A1F8E7000067
:1010B00053494752544D454D3A204F7574206F6641
:1010C0002068656170206D656D6F727900000000A9
:1010D0003A2048656170206D656D6F727920636F8D
:1010E000727275707465640030B44FF0013C50F852
:1010F000042B51F8043BCCFA52F4D51A20D1FCB998
:1011000050F8042B51F8043BCCFA52F4D51A17D1FD
:10111000B4B950F8042B51F8043BCCFA52F4D51A68
:101120000ED16CB950F8042B51F8043BCCFA52F4B0
:10113000D51A05D1002CDAD030BC4FF00000704732
:1011400029BAB1FA81F111F01801D1F120008440DF
:10115000F2D1CA40CB4012F0FF0213F0FF0330BCC3
:10116000D01A704710B50C3000F05AFE10BD10B503
:1011700000F1280151E8002F12B9BFF32F8F04E0CE
:10118000531E41E8003404B1F4E782B12C30012150
:101190000AE0821CD2E84F3FC2E8441F04B1F9E7DD
:1011A0001A0608BF10BD083000680028F1D10020E1
:1011B00010BD10B584465CF8303F8BB1CA784FF053
:1011C000000E05E01C46DB7893420ED26368A6460B
:1011D000002BF7D10022C1E9012E00F12C0208E01A
:1011E0000022C1E90122C16209E0C1E9014E04F116
:1011F00008021160BEF1000F18BF0EF1040CCCF80C
:101200000010283050E8001F4A1C40E8002303B1BA
:10121000F8E710BDD1E90123002A0EBFC362936035
:101220008B68191D002B08BF00F130010A60704760
:101230001A480068704700BF19480178012905D194
:101240000021017004484FF080610160134801687B
:1012500041F001010160704704ED00E04FF0FF3004
:101260007047000040B10B490968B1FBF0F0411E26
:101270000020B0EB116F02D04FF0FF307047064AEC
:10128000FF231370054A06231360516004499060E0
:10129000087070470000002023ED00E010E000E03F
:1012A0001401002010B50E480F4CD0F8801041F406
:1012B0007001C0F880100B490A6842F001020A6010
:1012C00000228A600B6823400B60084B4B600B6860
:1012D00023F480230B60CA604FF00061016010BDF1
:1012E00008ED00E000380240FFFFF6FE1030002459
:1012F00010B5930712D400F12803D00718D153E892
:10130000000F084203D1BFF32F8F002005E020EA31
:10131000010243E8002404B1F1E710BD806AD2075E
:1013200000EA010315D1002B18BF10BD002010BD2D
:1013300053E8000F00EA01028A4203D0BFF32F8F67
:10134000002005E020EA010243E8002404B1EFE7B1
:1013500010BD8B4218BF002010BD000080B5124A9E
:101360004FF0000E02F1440C624606E01A69914209
:101370000BD3891A03F10C029E461368002BF5D19A
:101380000022C0E902E2016106E0C0E902E3016176
:1013900098601A69511A1961BEF1000F18BF0EF159
:1013A0000C0CCCF8000080BD040000200848018827
:1013B000890608D40088000658BF704705480068B1
:1013C0000168496808470348006801688968084758
:1013D000004400408494002010B5054C204600F0E5
:1013E00009FA0448044A2146BDE81040FEF7D9BF77
:1013F0001C010020FF1700080000000880B5FFF75F
:1014000051FF0B48016841F001010160016841F0A2
:1014100008010160016841F010010160016841F0BC
:1014200040010160016941F40031016180BD00BFEC
:10143000303802409C4A02211068072361F30510EE
:101440001060506820F004005060906840F0300058
:101450009060106A63F30B201062106861F38710CC
:101460001060506820F008005060906840F0C000A4
:101470009060106A63F30F301062D2F8001C0120F4
:1014800060F31141C2F8001C88490B6823F4807393
:101490000B604B6843F440334B60D2F8003C60F380
:1014A0009343C2F8003C0B6823F400730B604B6855
:1014B00043F440234B60D2F8003C60F31553C2F86C
:1014C000003C0B6823F480630B604B6843F44013CB
:1014D0004B60D2F8003C60F39753C2F8003C0B68B5
:1014E00023F400630B604B6843F440034B60D2F875
:1014F000003C60F31963C2F8003C0B6823F480538E
:101500000B604B6843F040734B60D2F8003C60F3D3
:101510009B63C2F8003C0B6823F400530B604B68DC
:1015200043F040634B60D2F8003C60F31D73C2F897
:10153000003C0B6823F480430B604B6843F040533E
:101540004B60D2F8003C60F39F73C2F8003C0A681D
:1015500022F400420A604A6842F040424A60D1F8F0
:10156000FC2360F31142C1F8FC23D1F8002422F4DB
:101570008072C1F800244E4A136843F4403313606C
:10158000D1F8FC3360F39343C1F8FC33D1F8003455
:1015900023F40073C1F80034136843F4402313604C
:1015A000D1F8FC3360F31553C1F8FC33D1F80034A3
:1015B00023F48063C1F80034136843F440131360CC
:1015C000D1F8FC3360F39753C1F8FC33D1F8003401
:1015D00023F40063C1F80034136843F4400313603C
:1015E000D1F8FC3360F31963C1F8FC33D1F800344F
:1015F00023F48053C1F80034136843F04073136040
:10160000D1F8FC3360F39B63C1F8FC33D1F80034AC
:1016100023F40053C1F80034136843F040631360AF
:10162000D1F8FC3360F31D73C1F8FC33D1F80034FA
:1016300023F48043C1F80034136843F0405313602F
:10164000D1F8FC3360F39F73C1F8FC33D1F8003458
:1016500023F40043C1F80034116841F040411160A7
:10166000D2F8F81760F39B61C2F8F81711490B68BC
:1016700023F400530B604B6843F040634B60D2F897
:10168000F83760F31D73C2F8F837086820F480401B
:101690000860486840F0405048604FF40050C882ED
:1016A0004FF48040C882704700000240040C0240A2
:1016B000081002400418024007484FF6FF02016874
:1016C0001140064A11430160054870210170054828
:1016D00040210160704700BF0CED00E00003FA05F7
:1016E00026E400E004E100E01848018821F480616C
:1016F0000180018821F480510180818821F44051CA
:10170000818001886FF3DF31018030F8041C41F4DF
:10171000925120F8041C30F8041C41F00F0120F80D
:10172000041C018841F008010180018821F080013A
:101730000180018841F004010180018841F020010D
:101740000180018841F40051018070470C44004041
:10175000174C206880F40050206042F2107000F0B6
:1017600077FCF6E770B50446084800210022002502
:1017700001F0EAF9064E2146306001F0F7F93068D1
:10178000002808BF4FF0FF35284670BD51170008EC
:101790008094002000F096FC054D841C286880F49D
:1017A00080402860204600F065FC0234F6E700BF68
:1017B0001418024070B50446084800210022002594
:1017C00001F0C2F9064E2146306001F0CFF93068D1
:1017D000002808BF4FF0FF35284670BD9517000858
:1017E0007C940020704700210246816042F8041F6B
:1017F000026070470021C0E900118160704700F06D
:10180000A3B940681346002200F098BC2DE9F04FC0
:1018100085B092468946064602AF6D464FF00008F5
:10182000D04525DA30683946836830464FF0FF32BC
:101830009847044630689DF808B0836830463946BA
:101840004FF0FF329847029900284FF0000018BF70
:1018500001460191002C18BF834603A849462A4639
:101860002B468DF800B000F088FA08F10108D7E7A0
:1018700005B0BDE8F08F1CB50191044680684FF0BB
:10188000FF3100F0F1FC30B9606801A900224FF08F
:10189000FF3300F0ADFCA06800F01CFD1CBDF8B5E6
:1018A000044680680D464FF0FF3100F0DDFC00B1CA
:1018B000F8BD606800F078FCD5E90012531AB0EB6F
:1018C000A30F14D90026501AB6EBA00F0FD26768E9
:1018D0002846314600F070FA0146384600224FF0A3
:1018E000FF3300F085FCD5E900120136EBE7A06874
:1018F000BDE8F84000F0EEBC10B5044606480421EF
:10190000083020604FF48070002200F05FFC00205F
:1019100000F0CEFC204610BD003F0008C268416ABE
:101920008A4202DA016A8A4200DCC160704710B55F
:101930000446FFF7F3FFE068A16A90FBF1F048432B
:10194000E06010BD2DE9F0470DF1200ADDF82C8094
:101950009AE880061D461646044600200022C4E987
:101960000000A060032A03D044F822000132F9E706
:10197000002004F11402C4E90522E061204600F0D1
:10198000D1F82046C4E908A8C4E90A79C4E9036586
:10199000FFF7CDFF2046BDE8F087FEF7F7FC2DE905
:1019A000F04F81B00D466FF01101491B914253D3A6
:1019B00004460078DDF828B0C0070CBF601CA068A2
:1019C00000904FF6E670C7F6FF701F4685420CD8B0
:1019D0005019B0EB450F38BF68000B2826BF1030F8
:1019E00020F00F084FF00B0801E06FF01008DDF851
:1019F00030A0404600F0F4F9BBF1000F064604D0D9
:101A0000009930465A46FEF7D1FCDDF82C90BAF129
:101A1000000F05D00D9906EB0B005246FEF7C6FCF1
:101A2000A7EB0907B7EB0B0207D0009906EB0B00F9
:101A3000594450444944FEF7B9FC0A2D02D000989D
:101A400000F0CCF948F0010007EB0A0143C4002084
:101A5000705401B0BDE8F08FFEF798FCF0B581B08E
:101A600012F1100F1ED214460E4605460B2A04D260
:101A7000600005F8010B64B910E004F1100020F0DB
:101A80000F07384600F0ACF9791CC5E90014A860CE
:101A90000546284631462246FEF788FC0020285598
:101AA00001B0F0BDFEF772FC70B584B0044600785A
:101AB000154610F001028C4601D10A2103E021688D
:101AC00021F001010139A9420DD2002A0CBF4308BF
:101AD000636800206A1A8DE829002046CDF80CC002
:101AE000FFF75DFF11E0002A0CBF661CA66825B158
:101AF000304661462A46FEF70AFE002070552078DF
:101B0000C00712BF656068002070204604B070BD39
:101B100010B504460078C00702D0A06800F05EF956
:101B2000204610BD10B5044688420BD0087810F04E
:101B30000102D1E9012304BF4B1C4208204619468B
:101B4000FFF7B2FF204610BD10B50446006810B183
:101B5000606000F043F9204610BD10B541680A6886
:101B6000426002B1906082688A608268134610CB3E
:101B7000844208BF134619608160086010BD10B52B
:101B800001684A68026002B1906082688A60826877
:101B9000134610CB844208BF134619608160486029
:101BA00010BD70B50246081AB0FA80F04009012352
:101BB0000873914219D08C68207BB0B9A068056881
:101BC000A54204D095B115F80C6F2EB10EE0456812
:101BD000E5B115F80C6FCEB9811AB1FA81F1490956
:101BE000237301732B700146E3E770BD22688A42BC
:101BF00004D12046FFF7C3FFA468A0680121217328
:101C000000210173BDE87040FFF7A7BF22688A4238
:101C100004D02046FFF7A1FFA468A068012121732A
:101C200000210173BDE87040FFF7A9BF10B504465D
:101C3000034654F8040FA0B112780433047CA24286
:101C400002D204683CB90FE0944207D2034653F82D
:101C5000044F1CB1184603462046EFE708601846BB
:101C600010BD20460C6010BD086010BD70B5054663
:101C7000182014460E1D00F0B3F80121C5E9000636
:101C80002972217801746168416170BD10B5044604
:101C90000020C3E90000996013602068006808B163
:101CA0002060136860681946FFF77BFFA068013069
:101CB000A06010BDF0B585B00D46044604A92846C5
:101CC0001E46FFF7B3FF0746006808B100210CE08D
:101CD00001A829463246FFF7C9FF019B049928460F
:101CE0003A46FFF7D3FF019801212171206005B02A
:101CF000F0BD10B50446034654F8040FA0B11278A5
:101D00000433047CA24202D204683CB90FE094423E
:101D100007D2034653F8044F1CB118460346204629
:101D2000EFE70860184610BD20460C6010BD086043
:101D300010BD70B50546182014460E1D00F050F871
:101D40000121C5E9000629722178017461684161A9
:101D500070BD10B504460020C3E90000996013600F
:101D60002068006808B12060136860681946FFF7B2
:101D700018FFA0680130A06010BDF0B585B00D4619
:101D8000044604A928461E46FFF7B3FF074600682D
:101D900008B100210CE001A829463246FFF7C9FF2F
:101DA000019B049928463A46FFF7D3FF0198012189
:101DB0002171206005B0F0BD80B5D0E900239B1AE9
:101DC000B1EBA30F3CBF02EB810080BDFFF7E5FD47
:101DD00040F21810C2F2000000687047FEF746BCDF
:101DE00010B50446002808BF012400BF2046FEF7B6
:101DF00002FC002818BF10BDFFF7EAFF08B18047BA
:101E0000F4E7002010BD10B5044600F0C1FE30B16B
:101E100020684FF0FF31BDE8104000F025BA10BD3A
:101E2000006800F033BA10B50446002000F040FA14
:101E3000206008B1012010BD0520214600F05CFAA9
:101E4000002010BD10B5044600F0A2FE20B12068AD
:101E5000BDE8104000F03EBA10BD00F047B90000E8
:101E600094B0FFF7CBFAFFF727FCFFF7E3FAFFF791
:101E70003BFC6C4C0C20A047FFF7B5FC6A4908609E
:101E80006A49884781463020A0470DAF6849694BB1
:101E900004464FF0000838460122CDE90D88CDF800
:101EA0003C8098476448654E062140F2E242DFF8E4
:101EB00090A1CDE90021CDE9028020463946324685
:101EC0003346D0471194582010AA5E4C8DF840003C
:101ED00012A849461346A047DFF86CB13846A14620
:101EE000D84751485149006888474E490746302035
:101EF00088470AAC55494F4B054620460122CDE99B
:101F00000A88CDF83080984740F2E24000900620E1
:101F1000CDE9010848482146039028463246334619
:101F2000D047592010AA11958DF8400012A83946C3
:101F30001346C8472046D847DFF8E8A00C2054468F
:101F4000D047FFF750FCDFF8E090DFF8E0B0C9F8C9
:101F50000400D84706463020D04707AD3449354BFA
:101F6000044628460122CDE90788CDF82480984709
:101F700040F2E24000900620CDE901082E48304FA3
:101F800003902046294600220023B8471194582088
:101F900010AA2C4C8DF8400012A831461346A047D9
:101FA000DFF8A4A02846D047D9F80400D8471D4F31
:101FB00083463020B84704AE24491E4B05463046C0
:101FC0000122CDE90488CDF81880984740F2E2401C
:101FD00000900620CDE901081748194C03902846C7
:101FE000314600220023A047592010AA154C119514
:101FF0008DF8400012A859461346A0473046D047F6
:1020000000F074F80C20B847FFF776FCC9F8080018
:102010000820FFF7A7FB2820FFF7CCFB00F07CF897
:10202000FEE700BFE11D000808010020E5170008D9
:102030007C3F00085D1A0008C0878B3B00E1F50576
:1020400045190008B51C0008111B00087E3F000858
:10205000EFF3058129B9EFF3108111B9EFF3118185
:1020600011B16FF005007047DFF804C000DF704762
:10207000B12B0008EFF3058129B9EFF3108111B9F5
:10208000EFF3118111B16FF005007047DFF804C064
:1020900000DF7047C52B0008EFF3058048B9EFF368
:1020A000108030B9EFF3118018B9EFF31480C00736
:1020B00002D10C48007A7047DFF804C000DF704797
:1020C000E12B0008EFF3058028B9EFF3108010B979
:1020D000EFF3118010B10348C0687047DFF808C003
:1020E00000DF704704000020E92B000880B500F0F5
:1020F00005F9EFF3058028B9EFF3108010B9EFF37D
:10210000118010B16FF0050080BDDFF808C000DF5E
:1021100080BD00BFF52B0008EFF3058028B9EFF371
:10212000108010B9EFF3118010B16FF00500704707
:10213000DFF804C000DF7047492D0008F8B50546F8
:10214000EFF3058014460E4628B9EFF3108010B95E
:10215000EFF31180F0B16FF003000DB303BBFEB1DC
:102160002978FA291CD12846FFF701F878B16A6A64
:10217000074600F10C013046FEF718F90CB1F8786B
:1021800020703846FD6000F06BFA002008E06FF028
:10219000020005E02846DFF80CC03146224600DF89
:1021A00001B0F0BDD12D0008EFF3058129B9EFF39F
:1021B000108111B9EFF3118109B100F079BEDFF898
:1021C00008C000DF704700BFB12E0008EFF30583A1
:1021D0002BB9EFF3108313B9EFF311830BB1002088
:1021E0007047DFF808C000DF704700BFC52E000849
:1021F0002DE9F0410646EFF3058090460D4628B9DB
:10220000EFF3108010B9EFF3118018B36FF00307EC
:10221000EEB1E3B9DDB13078FA2818D106F10C003F
:1022200000F0F1F888B1726A04460C302946FEF7D6
:10223000BDF80027F920C4E9015684F80380A7708F
:102240002070204600F00CFA01E06FF002073846DB
:10225000BDE8F0813046DFF80CC02946424600DF79
:10226000BDE8F081F92F0008EFF305822AB9EFF3FA
:10227000108212B9EFF3118212B16FF005007047AE
:10228000DFF804C000DF7047B5300008EFF30581C8
:1022900029B9EFF3108111B9EFF3118111B16FF08A
:1022A00005007047DFF804C000DF704745310008C3
:1022B000EFF3058129B9EFF3108111B9EFF3118123
:1022C00009B100207047DFF808C000DF704700BF89
:1022D00005320008EFF3058129B9EFF3108111B938
:1022E000EFF3118111B16FF005007047DFF804C002
:1022F00000DF704771320008FEE7FEE77047B0B5B7
:102300000023D0B3C9B3032A37D886460F315EF80D
:10231000084F21F0070CDEF804102346A4EB0E044E
:1023200021F00305641B644505D21C689E46002C01
:10233000F1D1002321E0D0E900436344436020440D
:1023400050F8044C9C423EBF08384360DEF804104D
:1023500069B1DEF8000021F0030141F80E004CEAFB
:10236000020071444860CEF800108E4603E04CEA4B
:102370000200CEF804000EF108031846B0BD80B587
:10238000002218B311B300F10803A1F1080C4FF0BB
:10239000000E634506D01A461B689646002BF8D1FE
:1023A000002213E051F8043C4268BEF1000F23F014
:1023B0000303A2EB030242604FF0010219BFDCF8F5
:1023C0000000CEF80000002041F8040C104680BD4B
:1023D00008B1420702D00022104670470022182997
:1023E000FAD311F00703F7D11022C0E9001201441B
:1023F000A1F108038360002341F8083C81684A602A
:102400000122C360E8E710B5002817D0014600F1AB
:10241000140252E8000F10B9BFF32F8F04E00368D5
:1024200042E8003404B1F4E740B1043151E8002F30
:10243000531C41E8003404B1F8E710BD002010BD82
:1024400000281FD0C2688A421CD802698A4219D962
:10245000B0B500F1140213680B60BFF35F8F52E850
:10246000003F0C689C42F6D142E8001505B1F2E746
:10247000043050E8001F4A1E40E8002303B1F8E78B
:102480000020B0BD6FF00300704784460020BCF10F
:10249000000F18BF00291AD0CAB1C3B180B54FF0E0
:1024A000000E02FB0130CCE9001ECCE90223CCE98E
:1024B0000403C1F10100BDE8804003E09918013038
:1024C00019600B460028F9D10020186001207047E0
:1024D000F8B50446807868B3E56821462846FEF7DB
:1024E00099FE002005F10C06214620703046FFF7CA
:1024F000A7FFA868E8B13046FFF785FFC8B10446DA
:10250000284600F0CBF9002100220646002700F003
:102510007DFA304600F01CFA81686A6A064604F1CA
:102520000C00FDF743FFF920A7702070F068E07001
:1025300025E0F8BDA568A86808B3407883281ED1B7
:10254000284600F0ABF9002100220646002700F0E3
:102550005DFA304600F0FCF9064680686A6A04F1CC
:102560000C01FDF723FFF06808B1E17801702770D6
:1025700005F10C002146BDE8F840FFF761BF284691
:102580002146BDE8F840FEF714BE2DE9F0410446AF
:1025900000274FF0010819E025466469E878000734
:1025A00014D52F76A86888B1284600F077F9002165
:1025B0000022064600F02AFAC5E90367F06A0028FF
:1025C000686100D00561F56285F81880002CE3D1C0
:1025D000BDE8F08170B5EB4C04F1560504F15A06E4
:1025E00028E0D6E85F1F4A1C904200D80022C6E8C7
:1025F000532F03B1F5E788B2E16D51F820000028B0
:1026000028D00178F139082914D8DFE801F0051342
:102610000813130B0E131100216E88470AE0616E38
:10262000884707E0A16E884704E0E16E884701E033
:10263000216F8847B4F85400D5E85F1F11B9BFF384
:102640002F8F04E04A1EC5E8532F03B1F4E70904B5
:102650007FF4C7AF0020BDE8704000F0C9B800BFEC
:1026600070B50146E848B0F8542000F15603D3E8AD
:102670005F4FA24202D8BFF32F8F04E0651CC3E86E
:10268000565F06B1F3E7A3B293421AD200F15803A2
:10269000D3E85F4F651CAA4200D80025C3E8565F07
:1026A00006B1F5E7A2B2C36D43F82210417A0029C2
:1026B00019BF0121817205484FF0805108BF0160A8
:1026C00070BD0220BDE87040FFF716BE04ED00E0CB
:1026D00001214170CC4990F920C001F11C02114642
:1026E00092684AB192F920306345F8DCC0E90221D2
:1026F000886002F10C0103E00022C0E902210831E8
:102700000860704710B54A1C11D0F44A002402F149
:102710002C0C624603E0891A03F110021C46136870
:10272000E3B1DA699142F6D24FF0010E18E0EB49BD
:10273000002301F1300421461A460B6803F1100111
:10274000002BF9D14FF0FF31002AC1614FF0000199
:10275000C0E9041216D002F1100413E04FF0000E8D
:10276000002CC0E90434C16118BF04F1100CCCF88E
:102770000000BEF1000F08BF10BDDA6903F11404B8
:10278000511AD961206010BDC2690169531C0AD079
:1027900021B1CB691A44CA6142694A6142693AB9B6
:1027A000E548C162704709B142694A6142691AB19C
:1027B0001161002141617047DF480163704700BF2C
:1027C000B0B5DD4DEC6A1CB1E0690138E06100D0C4
:1027D000B0BD204600F081F8204600F0B1F8246931
:1027E00024B1E0690028F4D000206061EC62B0BD43
:1027F000B0B50546D048002D4469017A0CD00229B5
:1028000005D194F9200095F92010814212DC284668
:10281000BDE8B04000F094B8022913D1456A8DB1EB
:1028200094F9200095F920108142D8BFB0BD284608
:1028300000F053F82046FFF74BFF2846BDE8B040B4
:1028400000F0C0B8B0BD00BF10B504460020208025
:10285000A07881070DD5C00605D4E548216B406FEF
:10286000FFF78DFD05E0E248216BD0F88400FFF70B
:10287000E7FDA078C00708BF10BDDD49D1F888008A
:1028800020B12146BDE81040FFF7DABDD1F8800045
:102890002146BDE81040FFF772BD00BF01468068C9
:1028A0008268002A8A6000D0D1600021C160704730
:1028B00091F920C00246806840B190F9203063450C
:1028C000F8DAC1E902020C30916004E00020C1E9AD
:1028D000020202F1080001607047C16831B18268EC
:1028E0008A60826802B1D1600021C1607047B0B5D2
:1028F0000446054603E02878F12803D1ED68002D51
:10290000F9D1B0BD2046FFF7E8FF28462146BDE8D3
:10291000B040FFF7CDBF10B504464078332818BF4C
:1029200010BD94F82320616A2046FEF7E1FC30B127
:10293000014620460022BDE8104000F067B810BDF7
:10294000014601204870AA481C30FFF7B1BF00BF04
:1029500090F82210C9064FF0200158BF6021806B0B
:1029600008447047F548416939B1086B8A6B824267
:1029700004D90068044A904200D170470120FFF753
:10298000BBBC00BF04000020A52E5AE270B5EC4C81
:102990000A480021A26D666E00F0FEFCE74D002E95
:1029A000A86209D0E26D0648002100F0F5FCA86499
:1029B000002818BF012070BD012070BDFB22000857
:1029C000AD2A000802214170DC498861FFF7CABFC7
:1029D00010B5FB4C02460020237A022B12D1636A09
:1029E00083B160694270FFF78DFE606A81680029DB
:1029F000616202D004F11C02CA600021C160FFF7CD
:102A0000E1FF012010BD00BF04000020B0B5044666
:102A100090F822001546C0064FF0200058BF6020F5
:102A2000A26B81502046FFF7AFFE20461DB1BDE8E6
:102A3000B040FFF7DDBEBDE8B040FFF781BF00004A
:102A4000B0B5FEF7F5FBDE4DE968286D01310028D1
:102A5000E96000D08047FFF7B3FE0020FFF7C8FE13
:102A6000296C11B3AA69A86B90421CBFC5E90E215D
:102A7000B0BDE96B11B10139E96316D1297A022998
:102A800013D16C6A8CB190F8200094F82010814228
:102A90000BD12046FFF721FFA86BFFF751FF20461F
:102AA000FFF790FF286CC5E90E40B0BD82B0C64864
:102AB0000821D0E91820FFF789FBFC4D08496C4636
:102AC000C5E91301214600224FF0FF33FFF736FB23
:102AD00010B9DDE900108847E86CF3E70400002036
:102AE000E52A000870B5F14D6C6C1CB32069012615
:102AF000013820611CE02069E0B9E06808B1A168F4
:102B00008160686404F1180100220023E86CFFF77B
:102B10006FFB18B103202146FFF7EEFBE078012898
:102B200004D161692046FEF719FC00E066706C6C08
:102B3000002CE0D170BD00BF04000020DFF804C00D
:102B400000DFFEE729330008EFF305832BB9EFF32D
:102B5000108313B9EFF311830BB100207047DFF836
:102B600008C000DF704700BF99330008EFF305820B
:102B70002AB9EFF3108212B9EFF3118212B16FF09C
:102B800005007047DFF804C000DF704775350008A6
:102B900010B5064C207808B1012010BDFFF77CFA73
:102BA0000128D2BF20780120207010BD7894002029
:102BB00030B180B501461320FFF70AFFBDE8804021
:102BC00000207047B949C968411A0129BCBF6FF09C
:102BD0000300704780B51320FFF7FAFE002080BD88
:102BE000B248007A704700BFB048C068704700BF65
:102BF000040000202DE9F843FD4F387A012800F049
:102C00009580002840F0948007F108009C21FDF792
:102C100066FCDFF85089B8F81000A7F85400D8E92E
:102C20000202D8E90B41FA6538642046FFF7D0FB71
:102C300008B1C7F88040D8E90541DFF80891D8E924
:102C400007562046C847D7F880100028284618BFE6
:102C5000214679673146C847D7F88010002818BF49
:102C60002946B967D8E909412046C847D7F88010F6
:102C7000002818BF2146D8F83440F9673CB12168D4
:102C8000D4E902232046FFF700FCC7F88440D8F8B7
:102C900038403CB12168D4E902232046FFF7F5FB18
:102CA000C7F88840D8F83C403CB12168D4E90223F9
:102CB0002046FFF7EAFBC7F88C40D8F840403CB10B
:102CC0002168D4E902232046FFF7DFFBC7F89040D4
:102CD000D8F844403CB12168D4E902232046FFF7EC
:102CE000D4FBC7F89440D8F848403CB12168D4E9F7
:102CF00002232046FFF7C9FBC7F89840D8F84C409C
:102D00003CB12168D4E902232046FFF7BEFBC7F897
:102D10009C40D8F850403CB12168D4E902232046B9
:102D2000FFF7B3FBC7F8A04001203872002001E094
:102D30004FF0FF3001B0BDE8F08300BF0400002079
:102D4000603E0008D1230008B0B5FD4C207A012870
:102D50001CD1FFF71BFEC8B11A48FF211A4D81751F
:102D6000817D026881F0FF01C2F30222B1FA81F194
:102D7000C1F120018A4228BF511CFE2202FA01F152
:102D8000C17468681149FEF76DFA10B14FF0FF3059
:102D9000B0BDFEF763FA2061FEF74EFA04F11C00A5
:102DA000FFF77CFDFFF70EFE2878C0070CBF03205D
:102DB000022080F31488022020720020B0BD00BFE2
:102DC000040000200CED00E0603E000871030008E4
:102DD0002DE9F84300284CD00F466FF00305002979
:102DE00049D004460078FA2845D1204699469046B5
:102DF000FEF7BDF9002842D0064620463146FEF7D0
:102E000009FA626A06F10C013846FDF7CFFAB8F10B
:102E1000000F1CBFF07888F8000004F10C070025B3
:102E2000314638463570FFF70BFBA06818B33846BB
:102E3000FFF7E9FA0025F0B106462046FFF72EFD20
:102E4000002101220746FFF7E1FD3846FFF780FD2C
:102E50008168626A074606F10C00FDF7A7FAF920BF
:102E6000B57031463070F868F0702046FEF7A1F971
:102E700001E06FF00305284601B0BDE8F083B9F129
:102E8000000F10D083204946FFF7A2FD40B1F7485C
:102E900041692046FFF70CFDEFF30980C0E9027895
:102EA0006FF00105E7E76FF00205E4E7040000209A
:102EB00030B10178FA2903D1C168806A081A7047D5
:102EC000002070472DE9F84F002770B10D4661B121
:102ED00005F10F010446B0FA80F021F00306B6FABE
:102EE00086F10844202804D20027384601B0BDE806
:102EF000F08F06FB04F872B1D2F808A01368D2E98B
:102F00000490BAF1000F11D05FEA8A71ECD1D16858
:102F10003429E9D30DE000234FF00009D349009391
:102F2000D1F8A00078B1FFF76EFA12E0D16800295D
:102F3000DAD1B9F1000F2FD000274045D5D319F0D1
:102F400003002BD0D1E7D1F8800034210122FFF714
:102F5000D6F982464FF0010BB9F1000F10D1BAF14A
:102F6000000F0DD0EF4F41460022F86FFFF7C7F971
:102F7000814638B148464146FDF78FFA57461AE078
:102F800057461AE0BBF1000F14D0D7F8A00060B18B
:102F90005146FFF755FA0DE00028A5D1BAF1000F10
:102FA000BCD000934FF0000BD6E7D7F88000514615
:102FB000FFF7E5F900270BF1020B002F3FF495AF67
:102FC000002032464B46C7E90950C7E90B0000997B
:102FD000C7E90110FA2087F802B02146387007F1DE
:102FE0000C00FFF752FAEB48024901677DE700BF8A
:102FF00004000020D12400082DE9F84338B30E4620
:103000006FF00307002951D005460078FA284DD10A
:10301000A86899469046E8B1407883281AD1284696
:10302000FFF73CFC0021012204460027FFF7EEFCDD
:103030002046FFF78DFC044680686A6A3146FDF73A
:10304000B5F9E06890B380F8008000272EE06FF0BB
:1030500003072BE005F10C00FFF7D5F980B16A6A90
:1030600004460C303146FDF7A1F90027F92084F819
:1030700003802146A77020702846FEF79AF815E0D5
:10308000B9F1000F10D093204946FFF7A1FC40B1E1
:10309000C04841692846FFF70BFCEFF30980C0E9FF
:1030A00002686FF0010701E06FF00207384601B0D7
:1030B000BDE8F08370B50446B64845694DB32CB3FE
:1030C0002078F52822D1207E30B30E46E178CA0759
:1030D00002D0E268AA422CD07EB388070AD5E06805
:1030E00095F9201090F920208A4203DA80F8201008
:1030F000FFF7FDFB53203146FFF76AFC18B120466D
:103100002946FFF7D5FB6FF0010070BD6FF003009B
:1031100070BD4FF0FF3070BD0020C4E90350E86A75
:103120000028606100D00461EC620120207600205C
:1031300070BDFF2801D00130F8E76FF0020070BDCC
:103140000400002010B5002852D004460078F5286D
:103150004ED1207EF0B3D4F814C0E068BCF1000F6B
:103160001CBF2269CCF8102000F12C0321691A46FB
:10317000002918BF01F11402C2F800C0E1788907E4
:1031800022D590F821C00BE093683BB193F9203031
:103190004FFA8CF18B42C8BF5FFA83FC02F1140333
:1031A0001A68002AF0D190F8201061450CD080F800
:1031B00020C0FFF79CFB07E02046FFF76FFB6FF096
:1031C00002010022FFF722FCA0680028F4D10020B1
:1031D000FFF70EFB00202070A178C90708BF10BDC3
:1031E000DF49D1F8940030B12146FFF729F907E013
:1031F0006FF0030010BDD1F880002146FFF7BFF843
:10320000002010BD70B558B1D0E90065846884B164
:10321000A10711D1C16800201C2938BF70BD16E07C
:1032200000250026CE49D1F8940038B1FFF7EBF81D
:103230000AE0C0680028F5D0002070BDD1F88000F9
:103240001C210122FFF75BF8044658B1012066609B
:10325000E570A070F5201121207004F10800FDF741
:103260003EF900E00024204670BD00BF04000020AD
:1032700070B50446BA48406970B154B12178F52957
:1032800007D1217E11B1E268824209D06FF00204B9
:1032900004E06FF0030401E04FF0FF34204670BDFE
:1032A00001392176090601D00024F7E7616909B1E7
:1032B00022690A6100F12C0523692A46002B18BFF8
:1032C00003F114021160E178890711D590F82110FB
:1032D00009E093682BB193F920304DB2AB42C8BFDF
:1032E000194602F114052A68002AF2D180F820104C
:1032F000A06890B12046FFF7D1FA002100220546D0
:103300000026FFF783FBC4E90356E86A00286061E2
:1033100000D004610120EC62207600200024FFF739
:1033200067FABBE70400002070B58D4D287A0228AB
:103330002ED1686A002808BF70BD6C69E06AFFF78B
:1033400024F9A06918B100210022FFF75FFBEFF319
:103350000980A063686A81680029696202D005F16A
:103360001C02CA600026C660FFF72CFB6E61E07885
:10337000C00704D12046BDE87040FFF765BA0420BD
:10338000E6606070686B0028A06000D0C4606C6369
:1033900070BD00BF040000202DE9FE4F10B3804631
:1033A0006AB102F1100A9AE88006D2E900439668F1
:1033B000B6B1B00716D1D068442813D317E04FF048
:1033C000180A002300274FF000090024644A0293E2
:1033D000D2F88800CDE90014C8B1FFF714F81CE05A
:1033E000D06820B10025284603B0BDE8F08F37B182
:1033F0000025B9F1000FF6D017F00700F3D1BAF1AC
:10340000000F38D0AAF101003728EBD835E0D2F808
:10341000800044210122FEF772FF06464FF0010BA7
:1034200067B95EB1B9F1000F0AD04D484946002294
:10343000406FFEF764FF98B107460FE035463EE067
:1034400047484849D0F88400D1F854900028ECD07F
:10345000FEF7D9FF20B107460BF1100B35462CE0E3
:10346000BBF1000F1CD03E49D1F88800E0B13146D5
:10347000FEF7E6FF1DE04FF0180AB9F1000F06D085
:103480000025B9F1480FAED319F00700ABD1002EDB
:103490003FF49CAFCDE9001402934FF0000BBFE75F
:1034A0004FF0000B002707E0D1F880003146FEF70F
:1034B00066FF00274FF0010B00254BF0020B002D9B
:1034C0003FF491AF0198182168600298E87040F2CB
:1034D000F11085F802B0288005F10800FCF7FFFF25
:1034E00007EB0900C5E90C79FD214038C5E90E0854
:1034F000002085F82F00C5F82B00C5F82700C5F877
:10350000230085F82210184985F821A085F820A00D
:10351000009E39601349097849070AD511213A1DDF
:103520004FF0CC33A1EB990101E008C20131002931
:10353000FBD1A96B002202E041F8220001320D2AE2
:10354000FAD10A4A4FF080700E62C1E90D28C863B3
:103550000348074901662846FFF74AF943E700BFD9
:1035600004000020603E0008A52E5AE23D2B000812
:103570001729000810B568B14A1E6FF00304372AF6
:103580000AD80278F12A07D14278042A06D16FF0CE
:10359000020401E06FF00304204610BD90F92020E2
:1035A0004BB2934201D10024F6E780F8211080F855
:1035B0002010FFF79CF900200024FFF719F9EBE732
:1035C0005FEA400C08BF91F0000F4FEA8C234FEAEE
:1035D000C12243EA51514FEA1C5018BF00F5F04098
:1035E0004FEA300018BF41F000415FEA6C5C00F028
:1035F0002980BCF1FF3F08BF40F080407047130CAA
:1036000006BF12044FF0100C4FF0000C130E04BF55
:1036100012020CF1080C130F04BF12010CF1040C80
:10362000930F04BF92000CF1020CD30F04BF5200A1
:103630000CF1010C11464FF00002A0F11F00A0EBAD
:103640000C00704711F0004F08BF704731F0004187
:103650003FF4D5AF0B0C06BF09044FF0100C4FF030
:10366000000C0B0E04BF09020CF1080C0B0F04BF79
:1036700009010CF1040C8B0F04BF89000CF1020C42
:10368000CB0F04BF49000CF1010CCCF1200322FA4E
:1036900003F341EA030102FA0CF2A0EB0C0000F183
:1036A0000100704723F07F4720F07F4C80EA030041
:1036B00000F00040ACEB070303F57C5303F1FF037C
:1036C0002DE9804909B44FEA144324EA03484FEA3C
:1036D000154B25EA0B4E0FF2042606EB13273E7816
:1036E00003FB0667C7F5000707FB06F64FEAD64659
:1036F00006F102064FEA543707FB066CCCF1005C7A
:103700004FEA1C472CEA074C0CFB06F507FB06F4B6
:1037100004EB15464FEA961649085FEA320234BFB9
:1037200000204FF000404FEAD13706FB07FC4FEA7C
:103730001C4C0CFB0BF7D21B03FB0CF761EB0701D6
:103740000CFB0EF7B0EB074072EB17420CFB08F7CF
:1037500034BFA2EB0742B2EB074261EB17414FEADD
:103760000C444FEA910706FB07FC4FEA1C4C0CFB8C
:103770000BF7B0EBC74072EB573203FB0CF734BFCB
:10378000A2EBC742B2EBC74261EB57310CFB0EF71D
:10379000B0EBC70072EB57720CFB08F734BFA2EB1B
:1037A000C702B2EBC70261EB57714FEA816141EA90
:1037B00092114FEA826242EA90124FEA806004EB73
:1037C000CC04039F4FEAD13706FB07FC4FEA1C4CA1
:1037D0000CFB0BF7D21B03FB0CF761EB07010CFB97
:1037E0000EF7B0EB074072EB17420CFB08F734BF43
:1037F000A2EB0742B2EB074261EB17414FEA8C554F
:1038000004EB9C244FEA910706FB07FC4FEA1C4C93
:103810000CFB0BF7B0EBC74072EB573203FB0CF716
:1038200034BFA2EBC742B2EBC74261EB57310CFB8E
:103830000EF7B0EBC70072EB57720CFB08F734BF02
:10384000A2EBC702B2EBC70261EB57714FEA81618D
:1038500041EA92114FEA826242EA90124FEA806096
:1038600015EB4C2544F100044FEAD13706FB07FC69
:103870004FEA1C4C0CFB0BF7D21B03FB0CF761EB64
:1038800007010CFB0EF7B0EB074072EB17420CFB85
:1038900008F734BFA2EB0742B2EB074261EB1741D6
:1038A0004FEA813141EA92414FEA823242EA904244
:1038B0004FEA80304FEA0C7615EB1C1544F10004FA
:1038C00048EA03434EEA0B484FF0000EB2EB080CF7
:1038D00071EB030724BF624639464EEB0E0E4FF0E4
:1038E000000B0018524149414BEB0B0BB2EB080C9B
:1038F00071EB03077BF1000B24BF624639464EEBA8
:103900000E0E4FF0000B0018524149414BEB0B0BD0
:10391000B2EB080C71EB03077BF1000B24BF62468E
:1039200039464EEB0E0E51EA020718BF46F001066B
:1039300016EB0E7655F1000254F1000103D5BDE8F7
:103940008901BDE80088BDE88901BDE80048B619D5
:10395000524141EB0101A3F10103704780807F7E5A
:103960007D7C7B7A797877767675747372717170F5
:103970006F6E6E6D6C6C6B6A6A69686867666665A7
:103980006464636362616160605F5F5E5E5D5D5C35
:103990005C5B5B5A5A5959585857575656555555A6
:1039A0005454535352525251515050504F4F4F4E06
:1039B0004E4D4D4D4C4C4C4B4B4B4A4A4A49494954
:1039C0004848484747474746464645454544444496
:1039D0004443434343424242424141419C46002BBF
:1039E00030D477002BD04FEA37071CB503B44FF023
:1039F00010004FF01001BAF1000F06D0BCF1000F1B
:103A0000DCBF40F0080040F008014FF000000FBCA0
:103A1000BDE810400BF1010BBBF1010F08BF5FEADD
:103A2000170722BF12F1010211F101014FF000410D
:103A300043F1000300F0004043EA00007047F9D36F
:103A40005708D0E746EA06464FEA164613F1400FFC
:103A50001FDD13F1200FDFBF16430A46002120337C
:103A60005B42BED0C3F1200746EA06464FEA16463F
:103A700002FA07F746EA070622FA03F2C3F1200723
:103A800001FA07F742EA070221FA03F14FF00003B7
:103A9000A7E746EA020646EA06464FEA164646EA1F
:103AA0000106BCBF46EA0646360C4FF000034FF055
:103AB00000024FF0000194E72DE9804C70B49A4663
:103AC000934691E8380007C831EA400C48BF34EA11
:103AD000430C03D5FFF7E6FDFFF780FFF0BCBDE820
:103AE000008C2DE9804C70B49A46934691E83800DA
:103AF00007C810F0804F08BF13F0804F03D100F0CB
:103B000005F8FFF76BFFF0BCBDE8008C20F07F47A5
:103B100023F07F4C80EA030000F0004007EB0C0329
:103B2000A3F57C53A3F1FE0392F0000F00F0B380E5
:103B300095F0000F00F077802DE901494FEA114020
:103B400021EA00484FEA144624EA064700FB06FC37
:103B500008FB06F607FB08F818EB06484CEB164C7A
:103B600000FB07F718EB07484CEB17404FEA124BE6
:103B700022EA0B4E4FEA154625EA06470BFB06FCE8
:103B80000EFB06F607FB0EFE1EEB064E4CEB164C2C
:103B90000BFB07F71EEB074E4CEB174B18EB0B0814
:103BA00040F1000018EB0E0B58EB000840F100004C
:103BB0008F1A4FF000014FF000063CBFC943661B4F
:103BC00014BFB5EB040C00213CBFC943F61B4FEA00
:103BD000174427EA04454FEA1C472CEA074C04FB2C
:103BE000076205FB07F70CFB05F616EB074642EBF1
:103BF000174204FB0CFC16EB0C4642EB1C421BEB81
:103C0000060658EB020241414EEA8E0E46EA9E0637
:103C100001D5BDE80189B619524141EB0101A3F17B
:103C20000103BDE801894FEA144524EA05464FEA3D
:103C3000114721EA074C05FB07F406FB07F70CFBCD
:103C400006F111EB074144EB174405FB0CFC11EBAB
:103C50000C4144EB1C444FEA124722EA074C05FB97
:103C600007F206FB07F70CFB06F616EB074642EBDE
:103C7000174205FB0CFC16EB0C4642EB1C456A1880
:103C800054F1000148BF7047B619524141EB0101A0
:103C9000A3F10103704795F0000F37D04FEA1142AE
:103CA00021EA02464FEA144724EA074C02FB07F1D7
:103CB00006FB07F70CFB06F414EB074441EB174136
:103CC00002FB0CFC14EB0C4441EB1C414FEA154782
:103CD00025EA074C02FB07F506FB07F70CFB06F687
:103CE00016EB074645EB174502FB0CFC16EB0C46A2
:103CF00045EB1C42121951F1000148BF7047B6193B
:103D0000524141EB0101A3F1010370474FEA144511
:103D100024EA05464FEA114721EA074C05FB07F163
:103D200006FB07F70CFB06F212EB074241EB1741CB
:103D300005FB0CFC12EB0C4251EB1C414FF0000652
:103D400048BF7047921841EB0101A3F1010370478E
:103D500003B401984100009850EAC12018BF042024
:103D60004A0D18BF40F0010040F2FF72B2EB515F04
:103D700008BF40F00200012808BF052002B07047CC
:103D800010B500290AD00878002807D005487844E3
:103D9000FDF7AAF9002801D0002010BD02487844A0
:103DA00010BD00001E02000016020000F1EE100A15
:103DB0004FF6FF71C0F2C03120EA010040F04070C0
:103DC000E1EE100A7047FCF71CBE00000240000044
:103DD000000000A00000000005400000000000C836
:103DE000000000000C4000000000409C00000000AB
:103DF000194000000020BCBE00000000344000005C
:103E0000BFC91B8E00000004B5400000504BCFD04E
:103E10006607E2CF010000006C4100003E8251AA1B
:103E2000DFEEA73401000000D9420000DCB5A0E2BB
:103E30003A301F97FFFFFFFFB4450000FD25A0C8E3
:103E4000E9A3C14FFFFFFFFFFF3F0000000000801C
:103E500000000000FF3F00000000008000000000A4
:103E600003000000102700000000000028010020CF
:103E70001000000000000000000000000000000032
:103E800000000000000000000000000068010020A9
:103E90000090000000000000000000000000000092
:103EA0000000000000000000000000000000000012
:103EB00000000000000200001C3F0008583F0008FE
:103EC000403F000804000000EC91002074920020A4
:103ED00000000000000000000000000000000000E2
:103EE00000000000000000000000000000000000D2
:103EF0000000000000000000689100209C9100205C
:103F00000000000000000000771800089F1800085B
:103F1000031800080D180008000000000000000051
:103F200000000000EC910020440000007892002086
:103F3000000100000100000000000000000000007F
:103F40000000000000000000689100203400000024
:103F50009C910020500000000000000000000000C4
:103F600030920020440000007893002000010000FF
:103F70002800000000000000000000005800590068
:103F80005254582056352E352E310000D03F0008AF
:103F900000000020A8000000E801000878400008A8
:103FA000A8000020E0990000040200081C000000A6
:103FB00043000000F8FFFFFF0C0000000E000000AF
:103FC0000F0000002E00000011D4FFFF00000000D1
:103FD0000024F400803F0008D1B3FB020000000081
:103FE00000000000000000000000000000000000D1
:103FF00000000000000000000000000000000000C1
:1040000000000000000000000000000000000000B0
:1040100000000000000000000000000000000000A0
:104020000000000000000000000000000000000090
:104030000000000000000000000000000000000080
:104040000000000000000000000000000000000070
:104050000000000000000000000000000000000060
:104060000000000000000000000000000000000050
:08407000000000000000000048
:04000005080001AD41
:00000001FF
