:020000040800F2
:10000000889A002059030008610300086303000870
:10001000650300086703000869030008000000008A
:100020000000000000000000000000009502000831
:100030006D030008000000002D0300083D030008C8
:1000400073030008730300087303000873030008B8
:1000500073030008730300087303000873030008A8
:100060007303000873030008730300087303000898
:100070007303000873030008730300087303000888
:100080007303000873030008730300087303000878
:100090007303000873030008730300087303000868
:1000A0007303000873030008730300087303000858
:1000B0007303000873030008730300087303000848
:1000C0007303000873030008730300087303000838
:1000D00073030008E12A0008730300087303000893
:1000E0007303000873030008730300087303000818
:1000F0007303000873030008730300087303000808
:1001000073030008730300087303000873030008F7
:1001100073030008730300087303000873030008E7
:1001200073030008730300087303000873030008D7
:1001300073030008730300087303000873030008C7
:1001400073030008730300087303000873030008B7
:1001500073030008730300087303000873030008A7
:100160007303000873030008730300087303000897
:100170007303000873030008730300080000000005
:100180007303000873030008730300087303000877
:100190007303000873030008730300087303000867
:1001A00073030008730300087303000800F002F8EB
:1001B00000F05DF80AA090E8000C82448344AAF1A4
:1001C0000107DA4501D100F052F8AFF2090EBAE8A2
:1001D0000F0013F0010F18BFFB1A43F0010318477B
:1001E00034C2000054C20000103A24BF78C878C15D
:1001F000FAD8520724BF30C830C144BF04680C602D
:10020000704700000023002400250026103A28BF74
:1002100078C1FBD8520728BF30C148BF0B60704778
:1002200066290BF07883732900F0F386002070476D
:100230001FB50BF05BFB9DE8030000F063FC00F0D2
:10024000ADFF0400002000210AF0F2FC401C6060B9
:10025000002000210AF0D6FCE06000F0CDF91FBDBF
:1002600010B5002000F0F9FE01F078FB10BD00F0A1
:1002700070FF114603B406F02FFD03BCFFF7D8FF53
:1002800006F00AFF01F03AFB03B4FFF7E9FF03BCF5
:1002900000F0C4F91EF0040F0CBFEFF30880EFF379
:1002A0000980816911F8021C91BB01B590E80F101B
:1002B000E047BDE800508CE80300244B93E80600BB
:1002C000914208BF704741B91EF0100F10D120496C
:1002D000086820F0010008600AE02CE9F00F1EF029
:1002E000100F08BF2CED108AC1F838C081F822E049
:1002F0001A6092F82210906B61F0FF0E1EF0100F42
:1003000008BFB0EC108AB0E8F00F80F3098870479E
:10031000104A13689942FAD801B552F821C00FC8A3
:10032000E047BDE80050CCF80000704701B507F089
:1003300083FCBDE80140EFF3098CBEE701B507F08F
:100340005DFFBDE80140EFF3098CB6E7180000201F
:1003500034EF00E058C300080948804709480047C7
:10036000FEE7FEE7FEE7FEE7FEE7FEE7FEE7FEE765
:10037000FEE7FEE704480549054A064B70470000C2
:10038000DD290008AD01000888860020889A002039
:10039000889600208896002010B5002000F0F1FA21
:1003A000FFF75EFFBDE81040012000F037B90B46B3
:1003B0000146184600F0CEBA40EA010310B59B078B
:1003C0000FD1042A0DD310C808C9121F9C42F8D0BF
:1003D00020BA19BA884201D9012010BD4FF0FF3070
:1003E00010BD1AB1D30703D0521C07E0002010BD86
:1003F00010F8013B11F8014B1B1B07D110F8013B12
:1004000011F8014B1B1B01D1921EF1D1184610BDF2
:1004100010B5431C02E010F8011B71B18107FAD13D
:100420004FF0013202C88C1A8C4314EAC211F9D081
:10043000C01A0A0603D0C01E10BDC01A10BD0A049F
:1004400001D0801E10BD0902FCD0401E10BDCBB2F1
:100450002AB101788B4203D0401C521EF9D10020F2
:100460007047032A40F2308010F0030C00F0158032
:1004700011F8013BBCF1020F624498BF11F801CBA7
:1004800000F8013B38BF11F8013BA2F1040298BF0C
:1004900000F801CB38BF00F8013B11F0030300F076
:1004A0002580083AC0F0088051F8043B083A51F81A
:1004B00004CBA0E80810F5E7121D5CBF51F8043B1F
:1004C00040F8043BAFF30080D20724BF11F8013B92
:1004D00011F801CB48BF11F8012B24BF00F8013BF4
:1004E00000F801CB48BF00F8012B704710B5203A47
:1004F000C0F00B80B1E81850A0E81850B1E81850CF
:10050000A0E81850203ABFF4F5AF5FEA027C24BFA0
:10051000B1E81850A0E8185044BF18C918C0BDE889
:1005200010405FEA827C24BF51F8043B40F8043B52
:1005300008BF7047D20728BF31F8023B48BF11F807
:10054000012B28BF20F8023B48BF00F8012B704761
:1005500002F0FF0343EA032242EA024200F024B819
:100560004FF000020429C0F0128010F0030C00F0DC
:100570001B80CCF1040CBCF1020F18BF00F8012B5A
:10058000A8BF20F8022BA1EB0C0100F00DB85FEA28
:10059000C17C24BF00F8012B00F8012B48BF00F8F4
:1005A000012B70474FF0000200B513469446964663
:1005B000203922BFA0E80C50A0E80C50B1F1200176
:1005C000BFF4F7AF090728BFA0E80C5048BF0CC024
:1005D0005DF804EB890028BF40F8042B08BF704782
:1005E00048BF20F8022B11F0804F18BF00F8012BF4
:1005F000704770477047704770B5064C7C44064D95
:100600007D4404E02046016808448047241DAC4234
:10061000F8D170BD70BF000070BF00000149182004
:10062000ABBEFEE72600020006F000BB0844401EF9
:10063000491E884370470821001DF7E72DE9F04166
:1006400017460E460446FFF7F6FFA042054633D98B
:10065000002F1CBF06F10C0006F010FB304674683A
:10066000F4B12168A94217D305F1080291423CBFB9
:100670006168416007D3626861194A602268521B51
:100680000A6041602560002F1CBF06F10C0006F0D7
:1006900017FB201DBDE8F08120466468002CE0D1E6
:1006A0002946304600F01AFA0028D7D1002F1CBF87
:1006B00006F10C0006F004FB0020BDE8F08110B547
:1006C000044600F0FDF901682046BDE81040012213
:1006D000B4E770B516460D46041F002808BF70BD6C
:1006E000002E1CBF05F10C0006F0C8FA2B46586816
:1006F000002818BFA04238BF0346F8D31968CA18AB
:10070000A24218BF5C6003D122681C4611441960E4
:1007100021680A19824218BF606004D14268626091
:10072000006808442060002E1CBF05F10C0006F094
:10073000C7FA70BD10B5044600F0C2F90168204642
:10074000BDE810400122C4E710B5FFF76DFF006857
:1007500010BD10B50446FFF767FF046010BD000030
:100760000FB47CB50C0009AA009001D02044401EB3
:10077000084B7B4469460190089800F018FC054638
:100780001CB10020694600F025FC28467CBC5DF8C1
:1007900014FB00006908000070B50C460546012AEC
:1007A00005D02878800600D5EA69002302E00123FD
:1007B00005E05B1C934202D2E05C0028F9D1A869F5
:1007C000E618C01AA861286A184428622846AFF3C0
:1007D000008004E0D5E9012114F8010B9047B442F0
:1007E000F8D32846AFF3008070BD2DE9F0410F46E5
:1007F0000546002028622846E968884770B3252806
:1008000005D0D5E901219047286A401CF2E7E96844
:100810002846002688476C2804460AD0682C08D051
:100820004C2C35D06A2C31D0742C31D07A2C2FD06E
:1008300016E0E968064628468847B042044608D1D3
:100840006C2E23D04FF480662846E968884704461A
:1008500006E06C2E03D04FF4807601E01EE04026C7
:10086000E4B1A4F14100192802D8203446F400660E
:100870003A46214628462E60FFF7D2FC60B1012897
:1008800008D0FF1D27F007070837B4E78026DBE70D
:100890000026D9E73F1DAEE72046B2E7286ABDE84B
:1008A000F08100000FB40B0010B54FF000048AB0C7
:1008B0000FA900910E99CC60234C7C44234A7A44C2
:1008C000CDE9064200D004236FF00042CDE90132A9
:1008D0001F4A7A446B460892024600200BF07DF8CE
:1008E0000AB010BC5DF814FBF0B507464FF0FF30BE
:1008F0001E4615460C463B4685B06A460091CDE93A
:10090000010131460020049004A8FFF7CBFF0499B1
:100910000346601825B109B1024600E022462A606C
:1009200000290ED0002B02DD0099814209D03B4600
:100930006A463146001B0094CDE9010404A8FFF784
:10094000B1FF05B0F0BD00005D07000077070000B3
:100950009F0200002DE9F041074615460E46102083
:10096000FFF7ADFE04000AD06760C4E9026500F03D
:10097000ACF80168216004600020BDE8F08101202E
:10098000FBE710B500F090FBBDE8104000F086BB1F
:10099000431A28BF9A427FF664AD10441144032ADB
:1009A00040F2268010F0030F1EBF11F8013D521EC9
:1009B00000F8013D10F0030F7FF4F6AF11F00303D0
:1009C00000F09D83083AC0F00B8051F8043D083ACE
:1009D00051F804CD40F8043D40F804CDFFF7F3BFD3
:1009E000121D5CBF51F8043D40F8043DAFF3008098
:1009F000D20724BF11F8013D11F801CD48BF11F80D
:100A0000012C24BF00F8013D00F801CD48BF00F8DB
:100A1000012C704702F0FF0343EA032242EA02423C
:100A2000FFF7A0BD0000000030B44FF0013C50F8CB
:100A3000042B51F8043BCCFA52F4D51A20D1FCB95E
:100A400050F8042B51F8043BCCFA52F4D51A17D1C4
:100A5000B4B950F8042B51F8043BCCFA52F4D51A2F
:100A60000ED16CB950F8042B51F8043BCCFA52F477
:100A7000D51A05D1002CDAD030BC4FF000007047F9
:100A800029BAB1FA81F111F01801D1F120008440A6
:100A9000F2D1CA40CB4012F0FF0213F0FF0330BC8A
:100AA000D01A704700487047A80000207047000027
:100AB00010B500F073FB001D10BD00BF75A1000054
:100AC00010B5FFF7EFFF083010BD10B5FFF7EAFFD4
:100AD000383010BD704770477047704738B50446CE
:100AE0000A4600206946AFF30080002808BF38BDE1
:100AF00002460099204600F05DFB012038BD012030
:100B000000F01EBFF8B5AFF30080054600200C468C
:100B1000102000BF0646A819A0420DD932466946EA
:100B20000020AFF30080070008BF00F009FF009825
:100B3000A04218BF0546C419FFF7C2FF056007466B
:100B4000F01D20F007004619284600F00AF8B442CC
:100B500008BFF8BDA21B31463868BDE8F84000F078
:100B600029BB00210160C0E901100C3006F098B8E3
:100B70001020704710B50446FFF79AFF0068005D2B
:100B800000F0010010BD2DE9FF4F0C461E464FF04E
:100B9000FF378BB0D2E90001DDF860800A908A4609
:100BA000C1F30A5505B93D46002108464FF0000043
:100BB000BAF1000F00F4400005DA00EB80004FF4BA
:100BC000400101EA50004FEA9059B9F1010F00DDF0
:100BD000B9460A9850EA4A000ED044F61050A5F2E1
:100BE000FF3545432F14B8F1000F1ED07542291E62
:100BF0001EDDC9F100021CE0B8F1010F4FF000004A
:100C000001D0302103E0F24305E02154401CB04202
:100C1000FBDB30460022002121540B99C1F80880EB
:100C2000C1E900200FB0BDE8F08FBD1B6D1CDEE7F1
:100C30004A4600DA694206A800F0EEFD06AB93E8EA
:100C4000070003AB83E8070050460A9908F0ADFAA5
:100C50008DE80700A0F500501F3800900398002D84
:100C60000ADD42F21F014A460844002303A903900B
:100C7000684608F059FD09E0A0F500504A461F38C3
:100C8000002303A90390684608F078FD8DE807006B
:100C90000004000C03D04FF0FF30410800E0104684
:100CA000B8F1000F03D00022009215461EE0751E19
:100CB00005D400F0A1FA303262556D1EF9D5B34665
:100CC0000122084302D000227F1C04E02078302853
:100CD00001D100227F1E002A099784D01DE0112D2A
:100CE00007DA00F089FA303262556D1C50EA0102D1
:100CF000F5D1084302D00098C8B10EE00021681E6B
:100D000005E0235C625C63542254401E491C81420E
:100D1000F7DBAB46A81B401E0990002004F80B002F
:100D20000B98099AC0F80880C0E9002B7AE71126D1
:100D30004FF0000857E72DE9F04F88460446D21DD2
:100D400022F0070191B0D1E90001CDE90A0108F0D4
:100D500061FE02460B98C00F01D02D2007E02068ED
:100D6000810701D52B2002E0202101EAC000032ADF
:100D7000099001D0072A05DB03464146204600F0D2
:100D800081FA0BE12078800601D5E06900E00620B9
:100D9000B8F1650F814606D0B8F1660F18D0B8F1EA
:100DA000670F70D131E00020B9F1110F009001DB25
:100DB000112301E009F101030AAA01A90CA8FFF718
:100DC000E2FEDDE90C70002609F10105834647E0EB
:100DD00001204B4600904FF000470AAA01A90CA839
:100DE000FFF7D1FEDDE90DB00C995D46002610B984
:100DF00009F101000D18B9EB050003D4C0F1FF366D
:100E000009F10105A5EB09002BE0B9F1010F01DAA9
:100E10004FF001090020B9F1110F0090484601DDA3
:100E2000112300E003460AAA01A90CA8FFF7ABFEB4
:100E3000DDE90C704D4600268346207800070AD471
:100E4000AB4500DA5D4601A8012D04DD411911F81A
:100E5000011C302907D04F4502DA17F1040F04DADC
:100E6000012082460FE06D1EEEE7002F02DCED1B35
:100E70003E4403E0781CA84200DD7D1CB81B00F155
:100E8000010A4FF000472078000703D4AA4501DB90
:100E90004FF0FF3A0021B7F1004F0DF143088DF8F4
:100EA000431024D002202B23002F01DA7F422D2370
:100EB0000A21021EA0F1010000DC5FB197FBF1FCEA
:100EC00097FBF1F201FB1C7C17460CF1300C08F883
:100ED00001CDEEE7A8F1010003702188090501D5D5
:100EE000452100E06521A0F1010800F8011C0998E6
:100EF0000FA9A1EB0807FF1D00B10120411901EB6B
:100F0000EA70A1693844081A401EA0612078C00622
:100F100002D42046AFF30080099828B1D4E901211A
:100F20009047206A401C20622078C00622D52046C7
:100F3000AFF300801EE0002E04DBB34502DD01A804
:100F4000805D00E03020D4E901219047206A401CF8
:100F50002062761CAAF101005FEA000A0AD100F0C3
:100F60001DF9C0680168405CD4E901219047206AFE
:100F7000401C2062281EA5F10105DCDC07E0D4E955
:100F8000012118F8010B9047206A401C2062381E8E
:100F9000A7F10107F3DC2046AFF30080032011B076
:100FA00041E6000001694A1C02610878704700B5FB
:100FB0008FB0CDE901310021059105497944CDE992
:100FC000031011466846FFF710FC0FB000BD00008B
:100FD000E5FFFFFF0A6802F8010B0A607047D1E9DC
:100FE00000239A4202D2531C0B601070704710B558
:100FF000436913B1AFF3008001E0FFF7CDFB01209F
:1010000010BD127800F124010A7000224A700122FA
:10101000EDE711684FF0FF32E9E7426842B101683D
:1010200011F8013B23B1521EC0E900121846704767
:101030000121C160881E704742685AB1C3680168C7
:1010400043B983688B4205D0491E521CC0E9001287
:10105000002070474FF0FF3070472DE9F041064601
:10106000FFF733FD8046454613E016B1E068B04215
:101070000ED120682860D4E90101D8F800708847B3
:101080002046FFF757FBD8F80000B842EBD100E04C
:1010900025462C68002CE8D1BDE8F081002801D05D
:1010A000FFF7BCBA7047000010B5002102A000F0A5
:1010B0002EFC012010BD0000534947414252543AD2
:1010C0002041626E6F726D616C207465726D696E25
:1010D0006174696F6E000000431A28BF9A427FF660
:1010E00005AA1044114410F0030F1EBF11F8013D72
:1010F000521E00F8013D10F0030F7FF4F6AF103AD6
:10110000C0F00A8010B531E9185020E91850103AA3
:10111000BFF4F9AFBDE81040530724BF31E9081010
:1011200020E9081044BF51F8043D40F8043D12F096
:10113000030F08BF7047D20728BF31F8023D48BFF0
:1011400011F8012C28BF20F8023D48BF00F8012CFF
:1011500070477546FFF7A6FCAE4605006946534644
:1011600020F00700854618B020B5FFF703F9BDE869
:1011700020404FF000064FF000074FF000084FF0FE
:10118000000BAC46ACE8C009ACE8C009ACE8C0094B
:10119000ACE8C00921F007018D46704710B5FFF794
:1011A00081FC203010BD801A0844401E491E88432F
:1011B0001044704770B5144605468C464368002BB2
:1011C00018BF634538BF1846F8D30268104460451D
:1011D00008D06646604604220821FFF7E4FF811B21
:1011E0008446641A2946CCF80040BDE870400022CD
:1011F0000CF10400FFF76DBA30B5B0F10A0271F1DD
:1012000000034FEA900E4EEA817EB0EB0E0061EBD8
:1012100091014FEA101E4EEA017E10EB0E0041EBE9
:1012200011114FEA102E4EEA016E10EB0E0041EB49
:1012300011214FEA104E4EEA014E10EB0E0041EB29
:101240001141401841F100014FEAD00040EA4170DD
:101250004FEAD1014FEA810444EA907410EB800513
:1012600044EB01046D1944EB0404521BA3414FF0FD
:10127000000348BF0A3200D530BD401C41F10001D7
:1012800030BD00002DE9F0411F46044603260168E9
:10129000072A01F4006004DB08B116A505E016A5D5
:1012A00003E008B115A500E015A521F010002060AD
:1012B000A069C01EA0610FB1401EA0612046AFF31F
:1012C00000804FB1D4E9012138469047206A401C84
:1012D0002062C01C206206E0206AFAE7D4E90121FE
:1012E00015F8010B9047761EF8D22046AFF3008028
:1012F000BDE8F0814E414E006E616E00494E4600E1
:10130000696E66003A2800D2303820F02002412A67
:1013100001D3A2F13700884201D34FF0FF3070476C
:101320002DE9FF4F06468BB00878FF2806D0491CF0
:101330002D2805D000244FF0000908E000200CE023
:101340000124F8E709EB8903491C00EB43090878FD
:10135000FF28F7D114B1C9F10000814610780025AB
:101360002C46AA4629462D2801D02B2804D1521CF0
:101370002D2813D0002082468B461078FF280FD0EE
:101380004FF0000C0A21521CA5FB017804FB0181DF
:1013900005FB0C11C5194BEB0104EEE70120EAE750
:1013A000002108464FF00000BAF1000F02D000EB18
:1013B00080004008C0F38157012F01DD4FF0FF3757
:1013C0000E9955EA040009EB01080BD04FF0020911
:1013D00018F5FA7F16DA4FEACA70002F706008DD40
:1013E000012007E04FEACA70C6E900B00FB0BDE8BF
:1013F000F08F00203060FFF717F9C0F80090182137
:10140000084616E0B8F5FA7F18DD002F02DAF74833
:10141000784401E0F6487844D0E90010C6E90010AD
:1014200040EACA707060FFF7FFF8C0F8009014211E
:1014300008460FB0BDE8F04F0AF06ABA002108462E
:101440004FF00000B8F10001099002DAC7F1000284
:1014500000E03A4601DAC8F1000106A800F0DCF924
:1014600006AB93E8070003AB83E8070044F23E00B5
:101470005BEA04010090584604D144F21E012C4658
:101480005D460091210C0904014306D10099240412
:1014900044EA15442D041039009104F07F410143C2
:1014A00006D10099240244EA15642D0208390091FE
:1014B00004F07041014306D10099240144EA1574F7
:1014C0002D01091F009104F04041014306D100990C
:1014D000A40044EA9574AD00891E009104F0004117
:1014E000084304D100986D196441401E00904FF0EC
:1014F00001033A466846B8F1000FCDE9014503A95A
:1015000002DD08F050F901E008F023F9BAF1000F0C
:1015100004460D4601D084F00044002108464FF0F7
:101520000000099940F2FF77484010F00C0F07D1F6
:1015300024F00040284303D0C4F30A50B84212D12B
:10154000FFF772F8C0F80090C4F30A50B8420AD10D
:10155000A8487844D0E90010C6E9001004F0004122
:101560000843706042E7C6E900543FE72DE9FF4FAA
:101570001F464FF0000A4FF0FF38454691B0D7E9BB
:101580000146CDF83CA0FFF709FEC0680168405C49
:101590001090B96912986D1C8847396A814688474E
:1015A0000028F6D1B9F1FF3F0AD0002E24F4D06410
:1015B00011DDB9F12B0F08D0B9F12D0F0BD102E0DD
:1015C000404615B013E744F48064B96912986D1C65
:1015D0008847761E8146600504A901D52D2000E0CC
:1015E0002B20002E01F1010B0DF130088DF81000B9
:1015F0003FDDB9F1690F08D0B9F1490F05D0B9F154
:101600006E0F02D0B9F14E0F1CD13B4601A80095D8
:1016100080E85002DDE912126FF002000AF0E1F9F1
:10162000C11CCED10EE0B96912986D1C8847814665
:101630001398761E44F4007405600F98401C002E29
:101640000F9016DDB9F1300FEDD0B9F1780F02D05F
:10165000B9F1580F0DD10F9801280AD13B46CDE9B9
:101660000054DDE91212001F02960AF0B8F9C11CFD
:10167000A7D1109989453ED144F0800406E0139922
:10168000681CAAF1010A44F400740860B9696D1C71
:101690001298761E884730288146F0D02BE01099AA
:1016A000894505D1200603D4761E44F0800418E055
:1016B000484609F014FA08B3761E0DF1230293454B
:1016C000A9F1300044F4007406D20BF8010B200697
:1016D00007D5AAF1010003E0200602D40AF10100B7
:1016E0008246A00502D51399681C0860B969129852
:1016F0006D1C88478146002ED1DC53E0002E51DD61
:10170000B9F1650F02D0B9F1450F4BD1A00549D50C
:10171000B9696D1C1298761E24F440748847002E17
:1017200081460CDD2B2804D0B9F12D0F07D144F4EC
:101730008074B96912986D1C8847761E8146E00551
:1017400001D52D2100E02B2108F8011BCDF80080E8
:1017500021E0761E0DF13901884544F400740CD265
:10176000A9F1300010F0FF0088F8000002D10099C4
:10177000884509D908F1010806E0E00501D51E48B1
:1017800001E042F20F708246B96912986D1C8847D9
:10179000814613980560002E04DD484609F09FF944
:1017A0000028D6D1F96912988847FF2053468BF854
:1017B000000088F8000000200A900B9004AA0CA9F1
:1017C0000AA8FFF7ADFDA00502D46FF00100F8E60E
:1017D00014F0240F12D0E0071CD13868DDE90A129A
:1017E000031D3B600068C0E9001213E028B0000050
:1017F0001AB00000DEAE0000F1D8FFFF0AA968466B
:1018000009F05AF9E00705D13868009A011D3960DE
:10181000006802602846D4E62DE9F0478146164666
:101820008AB0354878440DC88DE80D0032487844B8
:10183000801C03AC0DC884E80D0041F69B300844C1
:10184000372190FBF1F290FBF1F5A5F1800501FB4A
:1018500012041B3C02D56442012000E00020DFF8A6
:1018600098A080460027FA44AAF1BE0A0EE0E007DD
:101870000AD03246684607EB470101230AEB810193
:1018800007F07CFF8DE8070064107F1C002CEED170
:10189000194F7F44AE3F19E0E80715D007EB04105D
:1018A0000DF1180A90E80E008AE80E00C068F042B8
:1018B00001D1981908903246012306A903A807F020
:1018C0005DFF03AB83E807006D10641C002DE3D1BE
:1018D0004FF0010332466946B8F1000F03A802D069
:1018E00007F022FF01E007F049FFC9E90001C9F84C
:1018F00008200AB0BDE8F087FCA2000010B504463D
:10190000AFF300802046BDE81040FEF7BDBC70B5C7
:1019100005460C460A2000E06D1C00F018F835B1B1
:1019200028780028F8D102E0641C00F010F814B107
:1019300020780028F8D1BDE870400A2000F007B8F0
:1019400010B500F027F8BDE81040FFF7A7BB08B5B9
:1019500069468DF800000320ABBE08BD10B5FFF747
:10196000AFF80068BDE8104000F03CB8B2F12003C9
:101970000AD5C2F1200301FA02F120FA03F341EA89
:10198000030100FA02F0704700FA03F14FF0000083
:101990007047000010B5012805D0002103A0FFF713
:1019A000B6FF012010BD09A1F8E7000053494752D6
:1019B000544D454D3A204F7574206F66206865611F
:1019C00070206D656D6F7279000000003A204865E7
:1019D0006170206D656D6F727920636F72727570C2
:1019E0007465640010B50C3005F056F910BD0000A8
:1019F0002DE9FF4F1F464FF03C0987B04FF00042E2
:101A0000DDE9141001F10108DDF858A002EA4050A8
:101A10000390002005908346054604460490B9696A
:101A2000461E08988847AAF1010A0290BAF1000FF1
:101A30003BDD02982E2815D01021FFF763FC00280B
:101A40002EDB4FF0010B0599014317D0B9F1000FC0
:101A50000BDB4A46C117FFF789FF05430C43A9F189
:101A6000040905E0012004900BE008B145F00105F0
:101A700001200590049820B9361D02E0049800B1B9
:101A8000361FB969089808F101088847BBF1000FB3
:101A9000AAF1010A0290C9D00999C1F80080C5E7EE
:101AA0000298702808D0502806D0F969089888470D
:101AB000BBF1000F14D04FE0002002900120BBF1D9
:101AC000000F049009D0B969089808F10108884707
:101AD000AAF10109B9F1000F07DCF96908988847F4
:101AE0006FF001000BB0BDE8F08F2B2804D02D283B
:101AF0000CD14FF0FF300490B969089808F1010843
:101B00008847A9F10109B9F1000FE6DD411CE4D0D5
:101B10000A21FFF7F7FB0028DFDB029908F1010833
:101B200001EB810100EB41000290B96908988847F8
:101B30000A21FFF7E7FB099AA9F10109B9F1000FA2
:101B4000C2F8008001DD0028E7DAF96908988847C3
:101B50000499029800FB016655EA040004D004F0E1
:101B60004041090002D006E0039898E0A40044EA4E
:101B70009574AD00B61E04F00041080002D16D1945
:101B80006441761E159810F0240F03D04FF00B0916
:101B90005C4803E04FF028096FF07D00824656450F
:101BA00007DAAAEB06018944B9F1410F01DD4FF0D4
:101BB000410901200021A9F10102FFF7D7FE0246E9
:101BC00028400B462140084301D0012100E00021BC
:101BD000501E029143F1FF3128402140084301D0BB
:101BE000012000E000200299834651EA0B014FD00A
:101BF000002108464FF00000039900F4400039B17D
:101C000000EB80004FF4400100EBD07001EA60006F
:101C10008015012802DD4FF0FF3000E013D0401C9A
:101C200036D0029860B3BBF1000F0CD14A460120B8
:101C30000021FFF79BFE28402140084301D00120EE
:101C400000E00020E0B101204A460021FFF78EFEAF
:101C5000034640190A4661412D1A8C4111D3B9F14E
:101C6000400F09DD159810F0240F02D0AAF13406B8
:101C700003E0AAF1170600E0761C00254FF00044AF
:101C800006E05B1E42F1FF3220EA030521EA02046E
:101C9000CAF10100B04206DA1B49039808430190DB
:101CA000002000900EE0039AC4F3D321E80A0A430F
:101CB000164940EA44500A433146CDE900026846DD
:101CC00008F003FF159810F0240F0BD01598C007EB
:101CD00015D13868DDE90012031D3B600068C0E9DA
:101CE00000120CE002A8694608F0E6FE1598C0074D
:101CF00005D13868029A011D3960006802604046CB
:101D0000F0E6000002FCFFFF0000F07F0000F03F63
:101D10002DE9FF4F92461D4685B04FF00041DDE9A9
:101D2000124BDDE914727F1E01EA4B50414940F02D
:101D3000FF4940EA0108002122F0200049280491CF
:101D400002D04E2828D04CE03BA0012607C88DE8E1
:101D50000700A9690698641C88477F1E014606D4BF
:101D60001DF8060018B121F0200181420BD0E9696D
:101D700006988847032E34D0082E32D06FF0010029
:101D800009B0BDE8F08F761C032E01D0082EE0D1FB
:101D9000601CCAF80000DCE7A9690698641C884743
:101DA0007F1E2AD420F02000412826D1A969069858
:101DB000641C88477F1E20D420F020004E281CD1B0
:101DC000A9690698641C88477F1E48F4002849F4D6
:101DD0008009CAF8004001D4282806D0E96906988D
:101DE00088475FEACB7012D022E0A9690698641C8C
:101DF00088477F1E01D4002803DAE96906988847DE
:101E0000BCE72928F1D1641CCAF80040E9E71BF0BF
:101E1000240F07D028680499031D2B600068C0E9CF
:101E2000001805E02868021D2A600068C0F80090CC
:101E30002046A5E70000F07F494E46494E495459D7
:101E4000000000004FF68071C2F2020109780029FB
:101E500004BF002070474FF60072C0F3C621C2F2E3
:101E60000202515CC0F3022021FA00F000F00100F0
:101E70007047000070B54FF68075C2F2020500BFD2
:101E8000AE6900F07FF9044600F042FEB042F7D19F
:101E9000844238BF00F010FC204670BD70B5144677
:101EA0000D460646FFF7CEFF90B1FFF7E3FF32463F
:101EB000C0F208020146EFF30580002808BFB2B265
:101EC00002F140702A462346BDE8704000F03CB85D
:101ED000012070BD2DE9F04F81B0DDF828909846C3
:101EE00092468B460546FFF7ADFF28B3FFF7C2FFCA
:101EF0000446EFF3058700F0D3FB4FF4E02101EA3D
:101F000000462846C0F20800002F08BFA8B230449F
:101F100000F1807021465A46534600F015F878B11A
:101F200046F0007040F00100214642464B4601B0A9
:101F3000BDE8F04F00F008B8012001B0BDE8F08F17
:101F4000002001B0BDE8F08F2DE9F04F81B08A4646
:101F50004FF08051914601EADA014FF0005202EA57
:101F600099024FF080470843009307EA5303104358
:101F70004DF6007B40EA03066FF00605C2F2020B45
:101F800000F092FB04466FF35F2400F4F0500BEB7B
:101F9000041846EAC02008F10C0740F040613846BA
:101FA00000F002FC410102D40135E9D31CE080F0CD
:101FB000044101F000402AF00042024423014BF8A2
:101FC0000320009B29F0004223F000430244184400
:101FD000C8E90120384600F08BFD28B100F07CFBF9
:101FE000012001B0BDE8F08F00F06EFB002001B0D1
:101FF000BDE8F08FFE294FF0000398BFFE2A01D9FB
:10200000184670472DE9F0414FF600784FF0000C6C
:102010004FF0010EC2F20208002406E00CF1010CA0
:10202000BCF1040F04F1200415D020FA0CF5ED07E3
:10203000F4D09142F2D80D4604EBD50705F007061F
:1020400018F807300EFA06F601353343954208F8C2
:102050000730F1D9E2E70123BDE8F04118467047A7
:102060002DE9F0414FF680770546C2F202070020C5
:1020700038704FF60070884642F26B76C2F202006A
:102080008021CEF2A516FEF78DFA04F0F7FE396A2C
:10209000B1423ED1798881423CD1FE69701CF86121
:1020A000DEB34DF600710020C2F202010A18D368B7
:1020B00010305C0144BF23F04063D360B0F5005F93
:1020C000F4D100F065F8002E064636D0F6B1284669
:1020D0000021FE22FFF78EFF0F20EF21EF22FFF7F6
:1020E00089FF0420FE21FE22FFF784FFFFF7C2FED6
:1020F000FA6901464FF60070C0F200300023FFF786
:1021000023FFB8F1000F18BF00F024F83046BDE8F7
:10211000F0813E6278800120F86100207870C7E984
:102120000100F8604DF60070C2F202004FF4005159
:10213000FEF738FA00F02CF8064630460021002E53
:1021400018BF4CF25030C7E90410B961002EBED15F
:10215000DCE7000080B54FF68070C2F20200017823
:1021600009B1012080BD01210170FFF783FE014606
:102170004FF60170C0F2003000220023FFF7E4FEAA
:10218000012080BD41F20400CEF2000000687047DB
:102190004EF6FC50CEF20000016841F08071016003
:1021A00041F20001CEF20001086840F00102012076
:1021B0000A60704701464FF20130C0F20100002270
:1021C000FFF76CBE01464FF20530C0F2020000225C
:1021D000FFF764BE01464FF473400022FFF75EBE76
:1021E00001464FF20330C0F202000022FFF756BE54
:1021F00001464FF20230C0F201000022FFF74EBE4E
:1022000001464FF20430C0F202000022FFF746BE42
:1022100001464FF20D50C0F202000022FFF73EBE11
:1022200001464FF471400022FFF738BE01464FF2DD
:102230001310C0F201000022FFF730BE4FF2011070
:10224000C0F2010000210022FFF728BE4FF2021069
:10225000C0F2020000210022FFF720BE4FF207105B
:10226000C0F2010000210022FFF718BE4FF2081053
:10227000C0F2020000210022FFF710BE80B582B03C
:102280009C4613460A4601464FF20100C0F2020086
:10229000CDF800C0FFF71EFE02B080BD0A46014621
:1022A0004FF20400C0F20200FFF7F8BD80B582B023
:1022B00013460A4601464FF205004FF0000CC0F2EB
:1022C0000200CDF800C0FFF705FE02B080BD00009F
:1022D00080B582B09C4613460A4601464FF2030081
:1022E000C0F20200CDF800C0FFF7F4FD02B080BDDF
:1022F00080B582B013460A4601464FF202004FF005
:10230000000CC0F20200CDF800C0FFF7E3FD02B000
:1023100080BD000080B582B013460A4601464FF0EA
:10232000000C4FF43C30CDF800C0FFF7D3FD02B0F5
:1023300080BD000001464FF60810C0F202000022E6
:10234000FFF7ACBD0A4601464FF60320C0F202007B
:10235000FFF7A4BD01464FF61720C0F2010000228E
:10236000FFF79CBD01464FF61820C0F20200002284
:10237000FFF794BD0A4601464FF47A40FFF78EBD41
:1023800080B582B09C4613460A4601464FF60C20A3
:10239000C0F20100CDF800C0FFF79CFD02B080BD87
:1023A00080B582B013460A4601464FF60D204FF025
:1023B000000CC0F20200CDF800C0FFF78BFD02B0A8
:1023C00080BD00000A4601464FF61420C0F201000D
:1023D000FFF764BD01464FF60E20C0F20200002256
:1023E000FFF75CBD0A4601464FF60920C0F2020025
:1023F000FFF754BD0A4601464FF60A20C0F202001C
:10240000FFF74CBD80B582B013460A4601464FF631
:1024100001204FF0000CC0F20100CDF800C0FFF722
:1024200059FD02B080BD00000A4601464FF60B2060
:10243000C0F20200FFF732BD0A4601464FF61020F7
:10244000C0F20200FFF72ABD80B582B09C46134659
:102450000A4601464FF60620C0F20100CDF800C042
:10246000FFF738FD02B080BD80B582B013460A4642
:1024700001464FF607204FF0000CC0F20200CDF8E5
:1024800000C0FFF727FD02B080BD000001464FF6F7
:102490000820C0F202000022FFF700BD0A460146F4
:1024A0004FF60F20C0F20200FFF7F8BC0A460146C3
:1024B0004FF20670C0F20100FFF7F0BC0A46014679
:1024C0004FF20770C0F20200FFF7E8BC01464FF27E
:1024D0000870C0F202000022FFF7E0BC0A46014685
:1024E0004FF20970C0F20200FFF7D8BC0A4601465D
:1024F0004FF20370C0F20200FFF7D0BC01464FF26A
:102500000E70C0F201000022FFF7C8BC01464FF276
:102510000F70C0F202000022FFF7C0BC0A4601465D
:102520004FF47740FFF7BABC01464FF20170C0F29A
:1025300001000022FFF7B2BC01464FF20A70C0F260
:1025400002000022FFF7AABC01464FF20B70C0F256
:1025500001000022FFF7A2BC0A4601464FF20C70B0
:10256000C0F20200FFF79ABC01464FF60800C0F225
:1025700002000022FFF792BC0A4601464FF21620E5
:10258000C0F20300FFF78ABC0B4601464FF203205E
:10259000C0F20200002A0CBF1A462930FFF77EBCA9
:1025A00001464FF21C20C0F202000022FFF776BC69
:1025B0000A4601464FF47240FFF770BC4FF21A20F2
:1025C000C0F2010000210022FFF768BC80B582B094
:1025D0009C4613460A4601464FF20940C0F20200EB
:1025E000CDF800C0FFF776FC02B080BD01464FF287
:1025F0000840C0F202000022FFF750BC01464FF233
:102600000620C0F201000022FFF748BC01464FF24D
:102610001520C0F202000022FFF740BC80B582B056
:1026200013460A4601464FF201204FF0000CC0F25B
:102630000100CDF800C0FFF74DFC02B080BD0000E6
:1026400001464FF21820C0F203000022FFF726BC1B
:102650000A4601464FF22D20C0F20200FFF71EBCD1
:102660000A4601464FF20A20C0F20100FFF716BCED
:1026700001464FF21920C0F202000022FFF70EBC03
:102680000A4601464FF21720C0F20300FFF706BCCE
:102690000A4601464FF20160C0F20200FFF7FEBB9E
:1026A00080B504F0A7FB80BD4FF68070C2F2020037
:1026B000043004F095BB00004FF68070C2F20200B7
:1026C000103004F08DBB00004FF68070C2F20200A3
:1026D0000C3004F085BB00004FF68070C2F202009F
:1026E000083004F07DBB0000EFF3108000281CBF11
:1026F00001207047EFF31180002818BF01207047B8
:10270000EFF3108000281CBF01207047EFF3118009
:10271000002818BF01207047EFF3108000281CBF6D
:1027200001207047EFF31180002818BF0120704787
:10273000EFF3108000281CBF01207047EFF31180D9
:10274000002818BF01207047EFF3108000281CBF3D
:1027500001207047EFF31180002818BF0120704757
:10276000EFF30580002818BF01207047EFF30580C4
:10277000002818BF01207047EFF30580002818BF1C
:1027800001207047EFF30580002818BF0120704733
:10279000EFF30580002818BF01207047EFF3148085
:1027A000012121EA0000704710B550E8002F940184
:1027B00003D3BFF32F8F002206E002F000420A434A
:1027C00040E8002303B1F0E7104610BD084470470D
:1027D0007047000010B50446283004F0C1FA58B123
:1027E000E46A4CB1A01C04F031FB18B1A468002CC1
:1027F000F8D10024204610BD0024204610BD000062
:1028000010B584465CF8303F5BB191F803E0DA78AC
:1028100072450BD21A465B688BB1DC787445F9D3EC
:1028200005E00022C1E90122C1620DE00022C1E9F8
:102830000132002A996018BF02F1040C04E0C1E9DA
:102840000132C16202F1040C2830CCF80010BDE85E
:10285000104004F0BDBA0000D1E9012C02F10803D8
:10286000002A08BF00F12C03C3F800C0D1E901120F
:10287000131D002A08BF00F13003196070470000E3
:102880004EF21000CEF200000068704740F20810CF
:10289000C2F200000178012908D1002101704EF632
:1028A0000450CEF200004FF0806101604EF2100043
:1028B000CEF20000016841F00101016070470000A4
:1028C0004FF0FF307047000058B140F20001C2F2F3
:1028D00000010968B1FBF0F0411E0020B0EB116F60
:1028E00002D04FF0FF3070474EF62352CEF2000276
:1028F000FF2313704EF21002CEF200020623136083
:10290000516040F20811C2F20001906008707047F7
:10291000B0B54EF62254CEF20004FF20207020788D
:1029200080F0FF00B0FA80F0C0F1200504F0F8F864
:10293000A84228BF451CFE20A84004F8030CB0BDE7
:102940004EF60450CEF200004FF080510160704707
:10295000C0064FF0200058BF6020704743F60400C7
:10296000C4F20200416801F00C0242F20041082A60
:10297000C0F2F40106D0042A1DD141F20021C0F2B8
:102980007A0118E002680368520241F20022C0F2A4
:102990007A0258BF0A46016803F03F03B2FBF3F224
:1029A000C1F3881103685143C3F30142022303EBCF
:1029B0004202B1FBF2F140F20002C2F200021160E9
:1029C00040684BF6DC31C0F30310C0F60001085C30
:1029D000116821FA00F01060704700004EF6885030
:1029E000CEF2000001684FF0000C41F4700101606C
:1029F00043F60001C4F202010A6842F001020A60D3
:102A0000C1F808C00B684FF6FF72CFF6F6621A40A5
:102A10000A6043F21002C2F200424A600A6822F4DD
:102A200080220A60C1F80CC04FF0006140F8801CA1
:102A300070470000930707D4D20700F1280018BFA1
:102A400004F04EB904F060B9836A02F0010203EAAF
:102A5000010040EA020C8842184618BF0020002AF4
:102A600008BF1846BCF1000F08BF60467047000061
:102A700010B540F2040CC2F2000CDCF844304FF008
:102A8000000EA3B11C698C4202D9002207E000BFEE
:102A90001A46DB68091B5BB11C69A142F8D282604F
:102AA00001611C69C360611A1961986003E000222A
:102AB000C0E9022E016102F10C01002A08BF0CF1ED
:102AC0004401086010BD0000C16800291CBF826875
:102AD0008A60C06840F20401C2F200014864704795
:102AE00048F28060C2F20000006801688968084707
:102AF00010B550E8003F9B0103D2BFF32F8F002297
:102B000004E040E8001404B1F3E70122104610BDD0
:102B100004F0A6B904F020B810B543F63004C4F2AE
:102B20000204FFF75BFF54F8300C40F4803044F8A7
:102B3000300C00BF54F8300C8003FBD5216947F2FC
:102B4000000041F08051C4F200002161016841F4AD
:102B50004041016054F8301C21F0807144F8301C71
:102B600054F8301C8901FBD454F82C1C042241F485
:102B7000800144F82C1C54F82C1C62F3050144F825
:102B80002C1C54F82C1CB42262F38E1144F82C1C1B
:102B900054F82C1C21F4403144F82C1C54F8301CFF
:102BA00041F0807144F8301C54F8301C8901FBD589
:102BB000016841F4803101604168C903FCD50168B6
:102BC00041F40031016000BF41688903FCD540F247
:102BD0000570C4F8D00354F8280C022161F30100F9
:102BE00044F8280C54F8280C44F8280C54F8280C05
:102BF00040F4004044F8280C54F8280C40F4A0504D
:102C000044F8280C54F8280C00F00C000828F9D1DE
:102C1000FFF7A4FE206840F001002060206840F02B
:102C200002002060206840F004002060206840F02E
:102C300010002060206840F040002060606940F093
:102C40001000606110BD000080B50021C4F20201D7
:102C50000868022262F3934008604868072320F462
:102C60000070486088684FF0010C40F44020886094
:102C7000486A4FF6044E63F3071048620868CFF6BF
:102C8000FF7E62F315500860486820F48060486059
:102C9000886840F440108860486A63F30B204862FB
:102CA000D1F800246CF30922C1F8002440F6000298
:102CB000C4F2020252F80E0020F0100042F80E009A
:102CC0004FF60840CFF6FF70135843F4407313508B
:102CD000D1F800346CF38F33C1F8003452F80E1081
:102CE00021F0800142F80E10115841F4404111507A
:102CF000106841F200016CF3975010605068C4F204
:102D0000020120F4006050604FF60800CFF6FF701B
:102D10000B5843F440030B5013686CF319631360B2
:102D2000536823F4805353600B5843F040730B50A7
:102D300013686CF39B631360536823F40053536070
:102D40000A5842F040620A50086841F204026CF3EB
:102D500005100860C4F20202106820F00400106040
:102D6000506840F03000506008686CF387100860CD
:102D7000106820F008001060506840F0C0005060FB
:102D800008686CF309200860106820F010001060DB
:102D9000506840F44070506008686CF38B20086005
:102DA000106820F020001060506840F440605060CF
:102DB00008686CF30D300860106820F04000106067
:102DC000506840F44050506041F60000C4F20200E8
:102DD00001686CF39B610160416821F4005141601E
:102DE000816841F04061816001686CF31D71016090
:102DF000416821F480414160816841F04051816027
:102E00004FF4005141834FF48041418380BD000065
:102E100080B500F02BF900F021F9BDE8804000F00A
:102E200015B9000041F20C00C4F20100018842F221
:102E3000904221F480610180018821F48051018059
:102E4000818821F44051818001886FF3DF31018056
:102E500030F8041C114320F8041C30F8041C41F025
:102E60000F0120F8041C018841F00801018001884D
:102E700021F080010180018841F004010180018876
:102E800041F020010180018841F400510180704728
:102E900041F6140548F2A064C4F20205C0F2010430
:102EA000286880F400502860204604F02DFBF7E7E6
:102EB00070B5044642F69160C0F600000021002281
:102EC000002505F04FFA48F27C66C2F20006214662
:102ED000306005F065FA3068002808BF4FF0FF3514
:102EE000284670BD86B048F2706740F22019002075
:102EF000C2F2000704AC01AD0DF11408C2F20009E2
:102F0000049019E02846414603F07CFC3868049A96
:102F100001684FF0FF33CE682946B047D9F800006A
:102F2000294600F0E5FCD9F80000016809688847E7
:102F3000284603F06FFC00BF38684FF0FF3201688D
:102F40008B682146984704990028F5D1B1F1405F7C
:102F5000F2D138684FF0FF3201688B6821469847FC
:102F60000028E9D1049801280BD00228E4D1386860
:102F70004FF0FF3201688B68214698470028DBD16B
:102F8000C0E738684FF0FF3201688B6821469847E8
:102F90000028D1D12846414603F034FC3868049A11
:102FA00001684FF0FF33CE682946B047D9F80000DA
:102FB000294600F045FDB6E770B5044642F6E560E7
:102FC000C0F6000000210022002505F0CBF948F2F0
:102FD0007466C2F200062146306005F0E1F93068FF
:102FE000002808BF4FF0FF35284670BD48F28064C6
:102FF000C2F2000420680168496A8847FAE70000C5
:1030000070B58AB001AD044628462421FDF7CAFAFE
:103010004FF40060CDE9060442F6ED70C0F6000002
:1030200000212A46002505F09DF948F27866C2F293
:1030300000062146306005F0B3F93068002808BF6B
:103040004FF0FF3528460AB070BD00004EF2041064
:10305000CEF2000020210160704700004EF22540B2
:10306000CEF2000010210170704700004EF60C50A7
:10307000CEF2000001684FF6FF02114040F200322C
:10308000C0F2FA5211430160704703F02CBD80B5C5
:10309000AFF30080BDE8804003F02CBD80B5AFF3F6
:1030A0000080BDE8804003F025BD000010B5144647
:1030B00000F08CF928B101684A6A2146BDE8104049
:1030C0001047002010BD0000B0B582B00D46044688
:1030D0000DF1070128468DF8072003F009F9291D95
:1030E000814203D0017C4069217001E00020207002
:1030F000606002B0B0BD000080B500F067F920B19B
:103100000168C969BDE880400847002080BD000013
:1031100080B500F05BF920B10168C968BDE8804066
:103120000847002080BD00002DE9F04184B00C4626
:1031300002A9054603F066FB54F8046BA6422BD0A7
:103140000DF108086F4601E0A64225D070690168BC
:10315000C9688847317C3A468DF800100190404696
:1031600029463B4603F0FCFA706828B10646006821
:103170000028FBD1E8E700BF304650F8081F0A6876
:10318000B2420E46E0D000BF0168084650F8086F12
:1031900032688A42F8D1D7E704B0BDE8F081000078
:1031A00080B500F013F920B101688969BDE880405D
:1031B0000847002080BD00002DE9F0472DED028B6F
:1031C00084B0054600208946286059F8046B686081
:1031D0004E45A8605AD09FED308B0DF1040A0FF2D6
:1031E000C00801E04E4551D0317C284602F0EBFC8E
:1031F00070690168C968884708F01BF8726907465A
:1032000013681046DB690C46984708F012F8B0EED8
:10321000480A41EC110BF0EE680A06F015FD53EC7C
:10322000102B3846214607F013FE024650460B4647
:1032300003F0B4FB9DF8040010F00101DDE9022168
:1032400004BF0AF101014208284602F09EFB5046E5
:1032500002F021FD2846414602F08AFB706828B141
:10326000064600680028FBD1BCE700BF304650F896
:10327000081F0A68B2420E46B4D000BF0168084673
:1032800050F8086F32688A42F8D1ABE704B0BDEC61
:10329000028BBDE8F08700BF000000000000244062
:1032A00020000000000000002DE9F0472DED048B08
:1032B000814659F8047B4F4572D09FED3B8B884681
:1032C00002E000BF4F456BD07E6997F810A03068D0
:1032D000C1683046884707F0ACFF7A690546136835
:1032E0001046DB690C46984707F0A3FFB0EE480A8A
:1032F00041EC110BF0EE680A06F0A6FC53EC102B23
:103300002846214607F0A4FD41EC100B40465146EB
:1033100001F0BEFE7869B0EE409A0168F0EE609A66
:10332000C969884707F085FFB0EE480A41EC110BE8
:10333000F0EE680A06F088FC51EC190B53EC102BE8
:1033400007F0DEFF07F018FF31684A6A0146304691
:103350009047796904460A680846926990477A69F5
:1033600094FBF0F311688E6A03FB00F11046B0473E
:10337000786828B1074600680028FBD1A2E700BFA3
:10338000384650F8081F0A68BA420F469AD000BF64
:103390000168084650F8087F3A688A42F8D191E7F8
:1033A000BDEC048BBDE8F087000000000000244065
:1033B00080B584B00346CDE900126A4602A81946DA
:1033C000134602F075FF04B080BD000010B582B056
:1033D0008DF807100DF10701044602F089FF211D49
:1033E000814214BF4069002002B010BD80B582B098
:1033F00001A902F08FFF02B080BD000070B5054644
:10340000D0E90040A04212D020680E460168C96889
:103410008847B0420BD004346868844207D054F81F
:10342000040B0168C9688847B042F5D1043C2046C6
:1034300070BD00007047000010B50446FFF7DEFFC6
:103440006168814214BF0068002010BD7047000011
:103450000021C0E9001181607047000002F038BC13
:103460004CF20801C0F6000108310160704700000D
:103470004CF22001C0F600010831016070470000E5
:10348000FEDE0000704700004CF25C01C0F6000157
:103490000831016070470000FEDE00007047000048
:1034A00040681346002204F0CDB800002DE9F04F2B
:1034B00085B0012A2CDB1446894606460DF1080A20
:1034C0004FF0000B0DF10C086D4600BF30685146FF
:1034D000836830464FF0FF32984731689DF8087096
:1034E0008B680028304651464FF0FF3218BF5F46C8
:1034F00098470299002818BF59468DF8007001912D
:10350000404649462A462B4603F02AF9013CDDD1C4
:1035100005B0BDE8F08F000010B582B004468068A9
:1035200001914FF0FF3104F003F930B9606801A94F
:1035300000224FF0FF3304F0D9F8A06804F048F9F6
:1035400002B010BDF0B581B0044680680D464FF062
:10355000FF3104F0EDF800281CBF01B0F0BD606839
:1035600004F092F8D5E90012511AB0EBA10F18D966
:10357000D5E90001814214D0002600BF67682846C3
:10358000314603F0FDF90146384600224FF0FF3383
:1035900004F0ACF8D5E900010136081AB6EBA00F2B
:1035A000ECD3A06801B0BDE8F04004F011B9000010
:1035B00010B50446FFF754FF4CF2AC00C0F6000013
:1035C0000830206040200421002204F071F860607F
:1035D000002004F0E3F801462046A16010BD000081
:1035E00041680A88920606D40988090658BF7047C0
:1035F0000168C96908470168096A0847007C704783
:1036000080B5143102F011FB80BD000070B582B0AE
:103610000546044615F8140FC00709D1681C00269A
:103620000DF106018DF8066002F0D6F82E7008E064
:10363000E06900250DF107018DF8075002F0CCF884
:10364000A5610020207402B070BD000010B582B0EA
:103650000446C0680DF107010022002303F0F2FFC9
:1036600050B161688A8922F080028A818A8942F099
:1036700004028A8102B010BD9DF807106268918033
:1036800002B010BDB0B582B00446007C40B9A0685D
:103690000DF1050100224FF0FF3303F0D3FF08B115
:1036A00002B0B0BD9DF8051004F11405284602F0E3
:1036B0008AFA9DF805000A2803D10120207402B07F
:1036C000B0BD297811F001000CBF4908A16941295A
:1036D000E6D350B9681C00240DF106018DF80640B0
:1036E00002F07AF82C7002B0B0BDE06900250DF14F
:1036F00007018DF8075002F06FF8A56102B0B0BD68
:10370000F0B581B00B7813F00102D1E9012604BFB6
:103710004E1C5A08EAB10446B7180DF1030502E041
:103720000136B74215D03178E0688DF8031029468C
:1037300000224FF0FF3303F0D9FF0028F0D160687A
:10374000818921F004018181818941F08001818199
:10375000E6E701B0F0BD000080B582B0D0E901100D
:103760000022898800238DF807100DF1070103F06E
:10377000BDFF02B080BD0000B0B50C460546FFF7A6
:1037800077FE4CF2C400C0F600000830C5E9000422
:1037900000202874C5E90500E8618020012100228D
:1037A00003F086FFE86080200121002203F080FF03
:1037B00001462846A960B0BD80B500F005F8BDE817
:1037C000804003F097B9000010B504464CF2C400E5
:1037D000C0F6000000F10801E068216003F018FF66
:1037E000A06803F015FF04F1140002F054FA20461B
:1037F000BDE81040FFF746BE70B584B00546002016
:103800000390CDE9010008460C4601F0E9FF01AE46
:1038100002463046214602F085F828683146C268E3
:1038200028469047304602F036FA284604B070BD6C
:1038300010B504460068C26820469047204610BD77
:103840002DE9F04387B0804600200D46069055F8DC
:10385000044B0590A54204903AD001AE04AF0FF29C
:103860008C0901E0A54233D0217C384602F0ABF947
:103870006169304603F0D6F89DF8040010F00101AC
:10388000DDE9022104BF711C4208384602F07DF8D0
:10389000304602F000FA3846494602F069F860689E
:1038A00030B100BF044600680028FBD1DAE700BF52
:1038B000204650F8081F0A68A2420C46D2D000BF2A
:1038C0000168084650F8084F22688A42F8D1C9E7D3
:1038D000D8F8000004ACC268404621469047204614
:1038E00002F0D9F9404607B0BDE8F083200000009F
:1038F0002DE9F04F8BB000F11007044638460591D2
:1039000002F060FF04F11C0B584602F05BFF04F16B
:103910003400039002F056FF04F14000029002F0E0
:1039200051FFA16808AD2846FFF7FEFB384629463F
:1039300002F078FF284602F06DFF5846394604979A
:1039400001F024FBD4F8108004F11407474570D02F
:1039500005980430019001E047456AD0C24660688E
:103960001AF8101FFFF74AFD616805460846FFF781
:103970006DFD4068A84242D00598514602F010FF04
:1039800081460198484516D05E46A5689AF800B071
:103990003046514602F004FF4069D9F814100A1865
:1039A00028465946B346FFF781FB05463046514647
:1039B00002F0F6FE45615846514602F0F1FE4569B7
:1039C0000498514602F0ECFE40699AF80010281A5B
:1039D0008DF8181008AD039906AE079028463246B8
:1039E000334602F0BDFE9AF8000002998DF81800E7
:1039F0000020079028463246334602F0B1FED8F840
:103A0000040028B1804600680028FBD1A4E700BF6D
:103A1000404650F8081F0A68424588469CD000BFBF
:103A20000168084650F8088FD8F800208A42F7D17C
:103A300092E720680168204688470BB0BDE8F08F08
:103A40002DE9F04F8DB000F1100604463046059187
:103A500002F0B8FE04F11C07384602F0B3FE04F190
:103A60003400039002F0AEFE04F14000029002F038
:103A7000A9FEA1680AAD2846FFF756FB3046294645
:103A800002F0D0FE284602F0C5FE384631460496C4
:103A900001F07CFAD4F8108004F11400404507903E
:103AA00079D005980430019003E000BF07984045A5
:103AB00071D0C24660681AF8101FFFF79FFC61685A
:103AC00005460846FFF7C2FC4068A84249D0059861
:103AD000514602F065FE8146019848451DD0A06818
:103AE0009AF800B006903846514602F059FE4269F5
:103AF000D9F81430E0689AF800103E469F18FFF796
:103B000007FB3A1A069859463746FFF7CFFA05469B
:103B10003046514602F044FE45613846514602F0B7
:103B20003FFE45690498514602F03AFE40699AF812
:103B30000010281A8DF820100AAD039908AE0990DC
:103B400028463246334602F00BFE9AF800000299EE
:103B50008DF820000020099028463246334602F0B6
:103B6000FFFDD8F8040028B1804600680028FBD18A
:103B70009CE700BF404650F8081F0A684245884647
:103B800094D000BF0168084650F8088FD8F800208C
:103B90008A42F7D18AE720680168204688470DB03D
:103BA000BDE8F08F504349434000B1FBF0F070474F
:103BB0000128D8BF01204FF47A725043B0FBF1F0D6
:103BC00070470000000000002DE9F041069C90467F
:103BD0000D4607461046194622461E46FFF7E2FFED
:103BE000AF4288BF2F46874205DD30462146BDE8FB
:103BF000F041FFF7DDBF781C08FB00F0400007F044
:103C000018FB054620460E4607F02AFB02460B46E7
:103C10002846314607F01CF941EC100B06F03CFE3B
:103C200051EC100B9FED040B53EC102B07F068FBCD
:103C300007F0D2FABDE8F0810000000000408F409C
:103C4000B0B582B0DDE906540094FFF7BDFFB5FBC7
:103C5000F0F002B0B0BD000010B582B004464CF2E6
:103C60000010C0F60000083084E80F0004F11000D6
:103C700001F084F904F11C0001F080F904F128003E
:103C800001F07CF904F1340001F078F904F140000E
:103C900001A902F0B7FD204602B010BD4CF20C1194
:103CA000C0F6000108310160704700002DE9F04FB7
:103CB00091B0834600201090CDE90E0003F068FC1F
:103CC00006464FF0FF300BF12805CBF84C00284694
:103CD00002F078FD0BF11C012846069101F056F91F
:103CE000DBF80400FFF7A6FBDBF84C50022DC0F018
:103CF000DD800BF1400008900BF144000BF114073C
:103D000007900BF13400CDE904071CE0DBF8081044
:103D10000BAE3046FFF708FA0698314601F038F945
:103D20000546304602F076FD002D1CBF0020CBF882
:103D30004C00039E0A36304603F0FEFBDBF84C5085
:103D4000012D40F2B3800396DBF81060B742DDD05E
:103D5000B146DBF8040019F8101FFFF74FFBDBF842
:103D6000041005460846FFF771FB4068A84200F0C2
:103D700085800898494602F013FD04460798A04242
:103D80007CD0DBF80800317CD4F81480FFF7C0F950
:103D90007169471A48BF7F42DBF80800317CFFF7A2
:103DA000FFF997FBF0F50698494602F0F9FC4769E0
:103DB000DBF80800317CFFF7ABF93F1ACDE9095871
:103DC00048BF7F42DBF80800317CFFF7E9F997FB39
:103DD000F0F8DBF80400317CFFF72EFB016809697D
:103DE0008847DBF80420317C82461046FFF724FB2D
:103DF000016849698847DBF80820317C5D468346C5
:103E00001046FFF7CDF9074642F21070009009986E
:103E1000414652465B460197FFF712FF0A998142DD
:103E200004D26069059F0130AB4626E0049F4946F5
:103E3000384602F0B5FC406901280ADB686899F849
:103E40000010AB46FFF7F8FA016809688847059F3C
:103E500012E03846494602F0A3FC4069059FB0F1E4
:103E6000FF3FAB4608DCDBF8040099F80010FFF7D1
:103E7000E3FA01684968884701206061706828B1E9
:103E8000064600680028FBD160E700BF304650F8C6
:103E9000081F0A68B2420E463FF458AF0168084650
:103EA00050F8086F32688A42F8D14FE70EA801F047
:103EB000F2FE284611B0BDE8F08F000080B5FFF794
:103EC000CBFE4CF23011C0F600010831016080BD1C
:103ED000406801688968084740680168896A08473E
:103EE00080B549680A68D26A904780BD4068016819
:103EF000096B084740680168C9690847406801685C
:103F0000496A084740680268D268104740680168FB
:103F1000096A084710B50C46FFF7AAFA4CF23C11A3
:103F2000C0F600010831C0E9001410BD80B5FFF7EC
:103F3000A9FABDE8804002F0DDBD000040680268DB
:103F40005269104740680268126910474068026869
:103F500092691047007970470171704700207047DF
:103F60007047000070470000C0680168C9680847D2
:103F700080680168C9680847B0B514460D46FFF768
:103F80008DFE4CF27811C0F6000108310160C0E9E5
:103F90000254B0BD40680268526A104710B504462A
:103FA00080684FF0FF3103F0C3FB18B96068016807
:103FB000496B8847A068BDE8104003F009BC0000C9
:103FC00010B5044680684FF0FF3103F0B1FB18B91B
:103FD00060680168C96A8847A068BDE8104003F0BE
:103FE000F7BB0000406801688969084740680168BC
:103FF000096908474068016849690847B0B504463F
:1040000080680D464FF0FF3103F092FB08B10025A8
:1040100005E060680168CA6B294690470546A068BC
:1040200003F0D6FB2846B0BDB0B5044680684FF01B
:10403000FF3103F07DFB08B1002504E060680168F2
:10404000896B88470546A06803F0C2FB2846B0BDCF
:10405000B0B5044680680D464FF0FF3103F068FBB1
:1040600008B1002505E0606801684A6C2946904760
:104070000546A06803F0ACFB2846B0BDB0B50446C9
:1040800080684FF0FF3103F053FB08B1002504E0D6
:1040900060680168096C88470546A06803F098FBD2
:1040A0002846B0BD10B5044680684FF0FF3103F0DC
:1040B0003FFB18B960680168096B8847A068BDE8D4
:1040C000104003F085BB000040680168096A08479A
:1040D00080B549680A689268904780BD4068016869
:1040E000C969084740680168C9680847B0B504460F
:1040F00080680D464FF0FF3103F01AFB20B960686D
:1041000001688A6A29469047A068BDE8B04003F07C
:104110005FBB0000B0B50C460546FFF7B5F94CF2A1
:104120009C10C0F600000830C5E90004002003F030
:1041300035FB01462846A960B0BD000080B500F0FF
:1041400005F8BDE8804002F0D5BC000010B504467B
:104150004CF29C10C0F6000000F10801A06821603C
:1041600003F002FB2046BDE81040FFF797B90000BE
:104170002DE9F04F81B02DED048B92B00446FFF78E
:10418000BDFE2046FFF7A8FE002800F0B5840DF123
:104190003409484621460094FFF7A2FE0DF1280A93
:1041A0005046494601F05CF8484601F074FD4CF277
:1041B000DB34C0F600044FF000082046CDF8248020
:1041C000CDE9078801F00CFB024607A8214601F063
:1041D000A9FB4CF2FC3B9DF82870C0F6000BDDE912
:1041E0000B54584617F001060AF1010A08BF54465D
:1041F00001F0F6FA002800F0A080002E08BF7D082C
:1042000067190BEB0003204639465A4601F0DCFDE6
:10421000B8421CBF001B10F1010040F08E804CF230
:10422000F3389DF82850C0F60008DDE90B744046CD
:1042300015F0010608BF544601F0D2FA002800F03C
:10424000A580002E08BF6F08274408EB0003204616
:104250003946424601F0B8FDB8421CBF001B10F1C0
:10426000010040F093804CF2E2389DF82850C0F6EF
:104270000008DDE90B74404615F0010608BF5446FE
:1042800001F0AEFA002800F04C82002E08BF6F0843
:10429000274408EB000320463946424601F094FDCE
:1042A000B8421CBF001B10F1010040F03A824CF2F2
:1042B000EB389DF82850C0F60008DDE90B74404645
:1042C00015F0010608BF544601F08AFA88B1002EA5
:1042D00008BF6F08274408EB0003204639464246D2
:1042E00001F072FDB8421CBF001B10F1010000F08C
:1042F000F4834CF2EB389DF82850C0F60008DDE955
:104300000B74404615F0010608BF544601F068FAE8
:10431000002800F01084002E08BF6F08274408EB27
:10432000000320463946424601F04EFD041BB842C8
:1043300008BF4FF0FF3400F0FFBB04A80DA902F046
:1043400091F8CDE90188CDF80C804CF2FC389DF84D
:104350002860C0F60008DDE90B74404616F0010540
:1043600008BF544601F03CFAE0B3002D08BF7708BF
:10437000E61908EB000320463146424601F024FDD1
:10438000011BCA1DB04208BF06222CE004A80DA9DB
:1043900002F068F84CF2F33800209DF82860C0F66F
:1043A0000008CDE901000390DDE90B74404616F0EA
:1043B000010508BF544601F013FA002800F0D5812A
:1043C000002D08BF7708E61908EB000320463146A8
:1043D000424601F0F9FC011B01F10802B04208BF9E
:1043E0000722C3E107220AACDDF800802046002145
:1043F00001F06DFA0DAE3046214600F075FE04ADB9
:104400002846314602F03EF8304602F033F806986E
:10441000002800F05C83DDE9020188420DD20DA87E
:1044200001A9012202F084FA0E994FF0405241F89E
:10443000042B0E9102F084FA2FE0DDE9010101ACBA
:10444000081A012101EBA006204601F0A1F9B042B3
:10445000C0F0AE8301460198039A121A9310B3EB91
:10446000510F04F1080304D2B6EB620F98BF561047
:104470003146029A0DAC101A8210204601F070FCF1
:104480000F984FF0405140F8041B0F9001A82146AF
:1044900002F05AFA204601F07DFCDDE90201884273
:1044A0000CD20DA801A9012202F042FA0E990222B3
:1044B00041F8042B0E9102F043FA2EE0DDE90101F0
:1044C00001AC081A012101EBA006204601F060F9B9
:1044D000B042C0F06D8301460198039A121A9310FE
:1044E000B3EB510F04F1080304D2B6EB620F98BF8F
:1044F00056103146029A0DAC101A8210204601F077
:104500002FFC0F98022140F8041B0F9001A82146B0
:1045100002F01AFA204601F03DFCDDE90201069E98
:1045200088420BD20DA801A9012202F001FA0E99CE
:1045300041F8046B0E9102F003FA2DE0DDE9010170
:1045400001AC081A012101EBA007204601F020F977
:10455000B842C0F02D8301460198039A121A9310B5
:10456000B3EB510F04F1080304D2B7EB620F98BF0D
:1045700057103946029A0DAC101A8210204601F0ED
:10458000EFFB0F98214640F8046B0F9001A802F052
:10459000DBF9204601F0FEFB049E05F1040A5645B6
:1045A00000F0BC800DF1040B9FEDE58B0BF10809C9
:1045B0000DAF012503E000BF564500F0AF80DDE9F7
:1045C0000201347C88420DD238465946012202F05D
:1045D000AFF90E9840F8044B0E90384602F0B0F94F
:1045E0002DE000BFDDE90101081A05EBA0085846DF
:1045F00001F0CEF84045C0F0DB8201460198039AF5
:10460000121A9310B3EB510F05D2B8EB620F98BF9B
:104610004FEA62084146029A4B46101A8210384609
:1046200001F09EFB0F98394640F8044B0F90584616
:1046300002F08AF9384601F0ADFBDDF80080D8F8C9
:104640000C00317C96ED069BFEF756FD06F0F1FD61
:10465000B0EE480A41EC110BF0EE680A05F0F4FAEE
:1046600053EC102B51EC190B06F04AFE06F084FDBA
:10467000DDE90212044691420CD238465946012225
:1046800002F056F90E9840F8044B0E90384602F0AE
:1046900057F92BE0DDE90101081A012101EBA00522
:1046A000584601F075F8A842C0F082820146019890
:1046B000039A121A9310B3EB510F04D2B5EB620FA9
:1046C00098BF55102946029A4B46101A8210384658
:1046D00001F046FB0F98394640F8044B0F905846BE
:1046E00002F032F9384601F055FB0125706828B117
:1046F000064600680028FBD15EE700BF304650F850
:10470000081F0A68B2420E463FF456AF01680846D9
:1047100050F8086F32688A42F8D14DE7D8F808009F
:10472000CAE14CF2E2389DF82850C0F60008DDE9F5
:104730000B74404615F0010608BF544601F050F8CE
:10474000002800F0DF81002E08BF6F08274408EB27
:10475000000320463946424601F036FB011B01F1B9
:104760000804B84208BF0724CDE108220AACDDF8EE
:1047700000B02046002101F0AAF80DAE30462146D7
:1047800000F0B2FC04AD2846314601F07BFE304615
:1047900001F070FE0698002800F09981DDE9020121
:1047A00088420DD20DA801A9012202F0C1F80E998C
:1047B0004FF0405241F8042B0E9102F0C1F82FE067
:1047C000DDE9010101AC081A012101EBA006204638
:1047D00000F0DEFFB042C0F0EB8101460198039A81
:1047E000121A9310B3EB510F04F1080304D2B6EB85
:1047F000620F98BF56103146029A0DAC101A821003
:10480000204601F0ADFA0F984FF0405140F8041BDC
:104810000F9001A8214602F097F8204601F0BAFA5D
:10482000DDE9020188420CD20DA801A90122012470
:1048300002F07EF80E9941F8044B0E9102F080F8D8
:104840002EE0DDE9010101AC081A012101EBA0060F
:10485000204600F09DFFB042C0F0AA8101460198B9
:10486000039A121A9310B3EB510F04F1080304D208
:10487000B6EB620F98BF56103146029A0DAC101A73
:104880008210204601F06CFA0F98012140F8041BB9
:104890000F9001A8214602F057F8204601F07AFA5D
:1048A000DDE90201069E88420BD20DA801A9012272
:1048B00002F03EF80E9941F8046B0E9102F040F8B8
:1048C0002DE0DDE9010101AC081A012101EBA0078F
:1048D000204600F05DFFB842C0F06A8101460198B1
:1048E000039A121A9310B3EB510F04F1080304D288
:1048F000B7EB620F98BF57103946029A0DAC101AE9
:104900008210204601F02CFA0F98214640F8046BE3
:104910000F9001A802F018F8204601F03BFA049E1F
:1049200005F1040A564500F0C5800DF104099FED1C
:10493000A28B09F108050DF1340808E000BF00BFA3
:104940000000000000002440564500F0B380DDE97F
:104950000201347C88420DD240464946012201F0D2
:10496000E7FF0E9840F8044B0E90404601F0E8FF38
:104970002EE000BFDDE901015F46081A012101EBCD
:10498000A00B484600F004FF5845C0F011810146D5
:104990000198039A121A9310B3EB510F05D2BBEB97
:1049A000620F98BF4FEA620B5946029A2B46101AC3
:1049B0008210404601F0D4F90F98414640F8044B6C
:1049C0000F90484601F0C0FF404601F0E3F9BB46B6
:1049D000DBF80C00317C96ED069BFEF78DFB06F0B4
:1049E00028FCB0EE480A41EC110BF0EE680A05F025
:1049F0002BF953EC102B51EC190B06F081FC06F04F
:104A0000BBFBDDE90212044691420DD24046494605
:104A1000012201F08DFF0E9840F8044B0E904046A5
:104A200001F08EFF2DE000BFDDE901012F46081ADD
:104A3000012101EBA005484600F0AAFEA842C0F003
:104A4000B78001460198039A121A9310B3EB510FE5
:104A500004D2B5EB620F98BF55102946029A3B4627
:104A6000101A821040463D4601F07AF90F984146EF
:104A700040F8044B0F90484601F066FF404601F0B5
:104A800089F9706830B100BF064600680028FBD184
:104A90005AE700BF304650F8081F0A68B2420E4677
:104AA0003FF452AF0168084650F8086F32688A42F6
:104AB000F8D149E7DBF8080001684A6801A9904786
:104AC0004CF2D631C0F6000107A800F0CEFF01A8D5
:104AD00001F00AF904A801F0CDFC009D07AC2846BE
:104AE0002146FFF70FFA2846FFF700FA204601F0AB
:104AF000D2F80AA801F0CFF812B0BDEC048B01B0D7
:104B0000BDE8F08F0824009E0AA8214600F0CFFEE1
:104B100000783F2806D107AC2BA1204600F0A5FF66
:104B2000316917E00AAD28460021224600F0CFFE89
:104B30003069294632E00024E11D0AA800F0B7FEE2
:104B40000078009D3F2820D107AC1DA1204600F031
:104B50008CFFE9684846FEF72FFB9DF834000E9A5B
:104B600010F001010F9904BF09F10101420820462C
:104B700000F00BFF484601F08EF84CF2DF31C0F632
:104B80000001204600F0F4FEA7E704F108020AAC99
:104B90002046002100F09BFEE8682146FEF784FBDA
:104BA0004CF2D631C0F6000107A800F05EFF94E792
:104BB00001A800F0DAFD00BF000000000000244062
:104BC0005048594320000000424153454320000013
:104BD00070B5049E1C461546FFF79CF94CF2EC118B
:104BE000C0F6000108310160C0E90254066170BDE1
:104BF00080B5FEF747FCBDE8804001F07BBF0000B8
:104C0000B0B52DED028B0446C068022826D120697C
:104C10000168C9688847216905460A680846D2695B
:104C20009047033806F005FB9FED2B0B41EC110B71
:104C300005F00AF8A068B0EE408AF0EE608A06F04F
:104C4000F8FA02460B4651EC180B06F059FB06F039
:104C500093FA95FBF0F101FB105060B3204600F091
:104C6000F5F8E068012826D120690168C9688847FD
:104C7000216905460A680846D2699047033806F05C
:104C8000D8FA9FED150B41EC110B04F0DDFFA06885
:104C9000B0EE408AF0EE608A06F0CBFA02460B4690
:104CA00051EC180B06F02CFB06F066FA95FBF0F1C0
:104CB00001FB105058B120690168096C8847606990
:104CC0000168096CBDEC028BBDE8B0400847BDEC43
:104CD000028BB0BD00BF00BF0000000000002440F8
:104CE000B0B52DED028B0446C068022826D120699C
:104CF0000168C9688847216905460A680846D2697B
:104D00009047033806F095FA9FED2B0B41EC110B01
:104D100004F09AFFA068B0EE408AF0EE608A06F0D8
:104D200088FA02460B4651EC180B06F0E9FA06F039
:104D300023FA95FBF0F101FB105060B3204600F020
:104D400089F8E068012826D120690168C968884788
:104D5000216905460A680846D2699047033806F07B
:104D600068FA9FED150B41EC110B04F06DFFA06884
:104D7000B0EE408AF0EE608A06F05BFA02460B461F
:104D800051EC180B06F0BCFA06F0F6F995FBF0F1C1
:104D900001FB105058B120690168896B8847606930
:104DA0000168896BBDEC028BBDE8B0400847BDECE3
:104DB000028BB0BD00BF00BF000000000000244017
:104DC0002DE9F041DDE906871D461646044600F050
:104DD0004DF84CF22820C0F6000008302060F1B2F7
:104DE0002046C4F8148000F029F8002F256101DD69
:104DF000012105E0C7F1000018BF0127790007462F
:104E00002046A760E160BDE8F081000000697047BE
:104E1000002101617047000001210161704700001D
:104E200080B5FFF7A9F84CF24C21C0F6000108311B
:104E3000016080BD40680168C96808474068026831
:104E400092681047406801688969084740680168AE
:104E50000968084740680168496808474068016870
:104E600049690847406801680969084710B50C4658
:104E7000FEF714FF4CF27021C0F600010831C0E9C2
:104E8000001410BD10B50446FFF7E0FF2046BDE852
:104E9000104000F001B80000F0B581B00446806811
:104EA000D0E90010401A102850D12046FFF7CAFF61
:104EB000A16800F001050846002101F003FD4168EA
:104EC000A06805FA01F6002101F0FCFC416801250B
:104ED000A06805FA01F7002101F0F4FC00684069C0
:104EE0003840B04211D0A068002101F0EBFC00680E
:104EF000406920EA0701A0680E43002101F0E2FCAE
:104F000000684661012002F0FFFAA068012101F06B
:104F1000D9FC4168A06805FA01F6012101F0D2FC34
:104F20000068416931434161012002F0EDFAA06857
:104F3000012101F0C7FC4168A06805FA01F40121D4
:104F400001F0C0FC00684169A143416101B0F0BDBE
:104F500010B50446FFF77EFF2046BDE81040FFF77E
:104F60009BBF000010B51446FFF780FF4CF2942160
:104F7000C0F6000108310160846010BD80B582B0C8
:104F800001A901F03FFC02B080BD000001F050BC5F
:104F9000F0B581B00C4605468068896888422BD1FF
:104FA00055F8047BBD4227D0261D01E0BD4223D029
:104FB00007F11001204601F0F3FB86421FD0406943
:104FC000796988421BD1786830B100BF0746006814
:104FD0000028FBD1EAE700BF384650F8081F0A68EE
:104FE000BA420F46E2D000BF0168084650F8087F79
:104FF0003A688A42F8D1D9E7012001B0F0BD00201B
:1050000001B0F0BD70B5054600200C46C5E90000B2
:10501000A86008461146002200F08BFB461C0AD10E
:1050200035E000BF2046314600F041FC01782846BB
:1050300000F0C9FD01362078C1070CBF4008606848
:10504000864224D22046314600F031FC00783028D8
:1050500006D32046314600F02AFC00783A28E1D3F6
:105060002046314600F023FC00782D28DAD0204677
:10507000314600F01CFC00782B28D3D02046314666
:1050800000F015FC00782E2818BF70BDCAE770BD6F
:1050900010B52DED028B84B001ACB0EE408A0A460B
:1050A00001462046F0EE608AFFF7ACFF9DF8040051
:1050B000029A10F0010108BF42084AB10398002982
:1050C00008BF601C04F03CFDB0EE408AF0EE608A40
:1050D00001A800F0E0FDB0EE480AF0EE680A04B066
:1050E000BDEC028B10BD00002DE9F0478AB06F4681
:1050F0008A460025394680460795CDE9055501F0D9
:10510000B1F905A8461C61240DF1200903E000BF98
:1051100001347A2C4AD0E2B238465146FFF772FF8A
:105120009DF81400C00709D1304649468DF820503B
:1051300000F052FB8DF8145007E000BF0798494675
:105140008DF8205000F048FB06959DF81400C0072C
:1051500006D00599079821F0010100F031FE059570
:105160000299DDE900020791CDE905023846CDE953
:105170000055029500F08FFD9DF81400069A10F07E
:10518000010108BF4208002AC2D00798002908BFC1
:10519000304604F0D5FC484641463A463B468DF839
:1051A00000408DED020B01F029F9B1E741256F4672
:1051B00000240DF1200902E001355A2D4AD0EAB24F
:1051C00038465146FFF71EFF9DF81400C00709D16D
:1051D000304649468DF8204000F0FEFA8DF8144024
:1051E00007E000BF079849468DF8204000F0F4FA28
:1051F00006949DF81400C00706D00599079821F081
:10520000010100F0DDFD05940299DDE9000207913E
:10521000CDE905023846CDE90044029400F03BFD9B
:105220009DF81400069A10F0010108BF4208002AF8
:10523000C2D00798002908BF304604F081FC4846D8
:1052400041463A463B468DF800508DED020B01F089
:10525000D5F8B1E705A800F01EFD0AB0BDE8F0875B
:1052600000F0E3BCC2698A42DCBF10467047806927
:105270008842B8BF084670470269C1698A4204DAA9
:1052800081698A42D8BF016170470161704700009F
:105290004169016170470000006A7047806970478A
:1052A000C069704702698369511A9942B2BF0020F0
:1052B00001610120704700000169026A8369891A4F
:1052C0009942B2BF00200161012070470269C369A1
:1052D00011449942CEBF00200161012070470000B7
:1052E0000169D0E9073211449942CEBF0020016123
:1052F0000120704710B504460068416B204688477E
:105300002069216A90FBF1F04843206110BD000044
:105310004069704780B5043100F087FC80BD000013
:10532000406A704700697047016170472DE9F04F8E
:1053300081B0DDE90A98DDE90CBA1C4615460E4637
:105340000746FEF7A1F84CF2B820C0F6000008307E
:10535000386000213846C7E9021140F8041F314681
:1053600000F0A3FCC7E90454C7E906BAC7F82090C7
:105370003868C7F82480016B38468847384601B042
:10538000BDE8F08F80B500F005F8BDE8804001F081
:10539000B1BB000010B504464CF2B820C0F60000C6
:1053A00000F10801204640F8041B00F074FC204680
:1053B000BDE81040FEF772B87047704770B51546EB
:1053C000059A0E4689681C463AB188420AD0406860
:1053D0004968FBF729FB28B170BD406849688842DD
:1053E00018BF70BD31462A462346BDE8704000F024
:1053F00074B82DE9F0411646069A0C46896898461D
:10540000074682B18F422FD07D6849682846FBF756
:105410000BFB48B3206887420DD041682846FBF754
:1054200003FB20BB07E07868496888421CD02168EC
:10543000496888421BD12069B04223D06069B042DC
:1054400020D0C4F820806661D4E909100130012918
:10545000A06205D1A069022804BF012084F83600AB
:105460000420E062BDE8F0816068B04201D0BDE890
:10547000F081E06901281CBFC4F81C80BDE8F08100
:10548000BDE8F081B8F1010F18BFBDE8F08101203F
:105490002062BDE8F08180B5D1F808C0D0F804E002
:1054A000DCF80400864518BF80BD086950B1904201
:1054B0000DD0486A0130486202208861012081F8DD
:1054C000360080BD01200A618B61486280BD886919
:1054D000022804BF8B6180BD80BD80B548684FF055
:1054E000010E984281F835E019D10B69DDF808C04A
:1054F00081F834E02BB1934212D0486A01304862FF
:105500000AE00120BCF1010F0A61C1F818C048622D
:1055100005D1086B012802D1012081F8360080BD39
:105520008A69022A04BFC1F818C06246086B0128C4
:1055300018BF80BD012AEFD0F1E72DE9F0418EB010
:10554000074640684B68984229D04BF6AC53154645
:10555000C0F600034BF6B852C0F6000208461946E2
:105560000023002401F00DFBD0B106468DE8910028
:105570004FF0FF30E846039008F110002721FBF7B9
:1055800011F801200C9030682A68C76930464146FE
:105590000123B8470698012802D104982860012405
:1055A00020460EB0BDE8F0812DE9F04383B0DDE97F
:1055B0000A940E46896898461546074674B18F428C
:1055C00004D078684968FBF72FFA58B931462A4663
:1055D000434603B0BDE8F043FFF77FBF78684968F2
:1055E0008842F3D0B8682A46016843464F6931467D
:1055F000CDF800900194B84703B0BDE8F0832DE9E1
:10560000F04383B0DDF828900C468968984615462B
:10561000B9F1000F074630D08F4240D07E6849680C
:105620003046FBF701FAD0B32068874204D04168C6
:105630003046FBF7F9F940BB2069A84238D06069D1
:10564000A84235D0E06AC4F82080042838D0002071
:10565000A086B8682A4601682B464F69012100914F
:105660002146CDF80490B84794F8350030B394F84B
:1056700034000321E16280BB22E0786849688842F7
:105680000DD0216849688842D6D0B8682A4601689A
:1056900043468F692146CDF80090B8471DE0606809
:1056A000A8421AD1E069012818BFC4F81C8014E090
:1056B000B8F1010F04BF012020620EE00420E06277
:1056C0006561D4E9091001300129A06205D1A06902
:1056D000022804BF012084F8360003B0BDE8F0833F
:1056E00080B5D1F808C0D0F804E0DCF804C0E64585
:1056F00007D08068D0F800C0DCF81CC0BDE880404E
:105700006047086950B190420DD0486A0130486244
:1057100002208861012081F8360080BD01200A61E5
:105720008B61486280BD8869022804BF8B6180BD9F
:1057300080BD10B50378DC0706BF441C5B08D0E9C8
:10574000013493429CBF4FF0FF3010BD9B1A05D02F
:10575000A0181A46FAF77BFE014600E00021081B5C
:10576000002908BF4FF0FF3010BDFAF715FEFAF719
:1057700013FE000004307047043070470430704757
:105780006FF06040704700006FF0404070470000CD
:105790006FF0404070470000014600BF08460968AE
:1057A0000029FBD14168002908BF7047F6E70000D7
:1057B00070470000002904BF00207047B0B50546BF
:1057C00010780C46FFF7F4FF014628462246BDE854
:1057D000B040FAF73CBE0000097801707047000045
:1057E000FAF716BE002A0CBF0020FAF7E5BD704795
:1057F0002DE9F04F81B00D466FF01101491B914228
:1058000053D304460078DDF828B0C0070CBF601CF5
:10581000A06800904FF6E670C7F6FF701F468542FD
:105820000CD85019B0EB450F38BF68000B2826BFC5
:10583000103020F00F084FF00B0801E06FF0100857
:10584000DDF830A0404601F057F9BBF1000F0646E5
:1058500004D0009930465A46FAF703FEDDF82C9042
:10586000BAF1000F05D00D9906EB0B005246FAF77E
:10587000F8FDA7EB0907B7EB0B0207D0009906EB81
:105880000B00594450444944FAF7EBFD0A2D02D06D
:10589000009801F02FF948F0010007EB0A0143C41A
:1058A0000020705401B0BDE8F08FFAF775FD037861
:1058B00013F001020CBF5B0843688B4205D9002A34
:1058C0000CBF0130806808447047FAF765FDF0B5F9
:1058D00081B004460078154610F001020CBF46085E
:1058E00066688E421CD3C5B1002AA6EB01020CBF2C
:1058F000671CA768AA4238BF1546521B04D0781807
:105900004119FBF745F82078C007A6EB050006BF54
:1059100041002170606000213954204601B0F0BD83
:10592000FAF73AFDF0B581B012F1100F1ED214460D
:105930000E4605460B2A04D2600005F8010B64B937
:1059400010E004F1100020F00F07384601F0D4F801
:10595000791CC5E90014A860054628463146224650
:10596000FAF77FFD0020285501B0F0BDFAF714FDCD
:10597000B0B5054608460C46FAF74AFD02462846E9
:105980002146BDE8B040AFF30080F0B585B00378A4
:105990000446154613F001008C4602D15E080A2128
:1059A00004E0D4E9001621F0010101398A1BAA4262
:1059B0000CD27019421A0020CDE90060204633460F
:1059C0000295CDF80CC0FFF713FF13E095B1002846
:1059D0000CBF671CA768B81961462A46FAF741FD53
:1059E0002078C00706EB050006BF4100217060600B
:1059F00000213954204605B0F0BD2DE9F04184B0B6
:105A0000044671B3207890460D46C10702D147087D
:105A10000A2105E0D4E9000720F001010139C0B2F4
:105A2000CA1BAA420AD27819421A0020CDE9010005
:105A300020463B46009700F074F82078C0070CBF62
:105A4000661CA668F01929464246FAF7E3FF20785B
:105A5000C00707EB050006BF410021706060002110
:105A60003154204604B0BDE8F081B0B50546084683
:105A70000C46FAF7CDFC024628462146BDE8B04068
:105A8000AFF3008070B584B004460078154610F07E
:105A900001028C4601D10A2103E0216821F00101B5
:105AA0000139A9420DD2002A0CBF430863680020C7
:105AB0006A1A8DE829002046CDF80CC0FFF798FE41
:105AC00011E0002A0CBF661CA66825B1304661466D
:105AD0002A46FAF75DFF002070552078C00712BFF4
