:020000040800F2
:10000000889A002059030008610300086303000870
:10001000650300086703000869030008000000008A
:100020000000000000000000000000009502000831
:100030006D030008000000002D0300083D030008C8
:1000400073030008730300087303000873030008B8
:1000500073030008730300087303000873030008A8
:100060007303000873030008730300087303000898
:100070007303000873030008730300087303000888
:100080007303000873030008730300087303000878
:100090007303000873030008730300087303000868
:1000A0007303000873030008730300087303000858
:1000B0007303000873030008730300087303000848
:1000C0007303000873030008730300087303000838
:1000D00073030008E12A0008730300087303000893
:1000E0007303000873030008730300087303000818
:1000F0007303000873030008730300087303000808
:1001000073030008730300087303000873030008F7
:1001100073030008730300087303000873030008E7
:1001200073030008730300087303000873030008D7
:1001300073030008730300087303000873030008C7
:1001400073030008730300087303000873030008B7
:1001500073030008730300087303000873030008A7
:100160007303000873030008730300087303000897
:100170007303000873030008730300080000000005
:100180007303000873030008730300087303000877
:100190007303000873030008730300087303000867
:1001A00073030008730300087303000800F002F8EB
:1001B00000F05DF80AA090E8000C82448344AAF1A4
:1001C0000107DA4501D100F052F8AFF2090EBAE8A2
:1001D0000F0013F0010F18BFFB1A43F0010318477B
:1001E00048C4000068C40000103A24BF78C878C131
:1001F000FAD8520724BF30C830C144BF04680C602D
:10020000704700000023002400250026103A28BF74
:1002100078C1FBD8520728BF30C148BF0B60704778
:1002200066290BF09C84732900F0F3860020704748
:100230001FB50BF07FFC9DE8030000F063FC00F0AD
:10024000ADFF0400002000210AF016FE401C606093
:10025000002000210AF0FAFDE06000F0CDF91FBD9A
:1002600010B5002000F0F9FE01F078FB10BD00F0A1
:1002700070FF114603B406F04FFE03BCFFF7D8FF32
:1002800007F02AF801F03AFB03B4FFF7E9FF03BCDB
:1002900000F0C4F91EF0040F0CBFEFF30880EFF379
:1002A0000980816911F8021C91BB01B590E80F101B
:1002B000E047BDE800508CE80300244B93E80600BB
:1002C000914208BF704741B91EF0100F10D120496C
:1002D000086820F0010008600AE02CE9F00F1EF029
:1002E000100F08BF2CED108AC1F838C081F822E049
:1002F0001A6092F82210906B61F0FF0E1EF0100F42
:1003000008BFB0EC108AB0E8F00F80F3098870479E
:10031000104A13689942FAD801B552F821C00FC8A3
:10032000E047BDE80050CCF80000704701B507F089
:10033000A7FDBDE80140EFF3098CBEE701B508F069
:1003400081F8BDE80140EFF3098CB6E71800002002
:1003500034EF00E06CC500080948804709480047B1
:10036000FEE7FEE7FEE7FEE7FEE7FEE7FEE7FEE765
:10037000FEE7FEE704480549054A064B70470000C2
:10038000DD290008AD01000888860020889A002039
:10039000889600208896002010B5002000F0F1FA21
:1003A000FFF75EFFBDE81040012000F037B90B46B3
:1003B0000146184600F0CEBA40EA010310B59B078B
:1003C0000FD1042A0DD310C808C9121F9C42F8D0BF
:1003D00020BA19BA884201D9012010BD4FF0FF3070
:1003E00010BD1AB1D30703D0521C07E0002010BD86
:1003F00010F8013B11F8014B1B1B07D110F8013B12
:1004000011F8014B1B1B01D1921EF1D1184610BDF2
:1004100010B5431C02E010F8011B71B18107FAD13D
:100420004FF0013202C88C1A8C4314EAC211F9D081
:10043000C01A0A0603D0C01E10BDC01A10BD0A049F
:1004400001D0801E10BD0902FCD0401E10BDCBB2F1
:100450002AB101788B4203D0401C521EF9D10020F2
:100460007047032A40F2308010F0030C00F0158032
:1004700011F8013BBCF1020F624498BF11F801CBA7
:1004800000F8013B38BF11F8013BA2F1040298BF0C
:1004900000F801CB38BF00F8013B11F0030300F076
:1004A0002580083AC0F0088051F8043B083A51F81A
:1004B00004CBA0E80810F5E7121D5CBF51F8043B1F
:1004C00040F8043BAFF30080D20724BF11F8013B92
:1004D00011F801CB48BF11F8012B24BF00F8013BF4
:1004E00000F801CB48BF00F8012B704710B5203A47
:1004F000C0F00B80B1E81850A0E81850B1E81850CF
:10050000A0E81850203ABFF4F5AF5FEA027C24BFA0
:10051000B1E81850A0E8185044BF18C918C0BDE889
:1005200010405FEA827C24BF51F8043B40F8043B52
:1005300008BF7047D20728BF31F8023B48BF11F807
:10054000012B28BF20F8023B48BF00F8012B704761
:1005500002F0FF0343EA032242EA024200F024B819
:100560004FF000020429C0F0128010F0030C00F0DC
:100570001B80CCF1040CBCF1020F18BF00F8012B5A
:10058000A8BF20F8022BA1EB0C0100F00DB85FEA28
:10059000C17C24BF00F8012B00F8012B48BF00F8F4
:1005A000012B70474FF0000200B513469446964663
:1005B000203922BFA0E80C50A0E80C50B1F1200176
:1005C000BFF4F7AF090728BFA0E80C5048BF0CC024
:1005D0005DF804EB890028BF40F8042B08BF704782
:1005E00048BF20F8022B11F0804F18BF00F8012BF4
:1005F000704770477047704770B5064C7C44064D95
:100600007D4404E02046016808448047241DAC4234
:10061000F8D170BD84C1000084C1000001491820D8
:10062000ABBEFEE72600020006F020BC0844401ED8
:10063000491E884370470821001DF7E72DE9F04166
:1006400017460E460446FFF7F6FFA042054633D98B
:10065000002F1CBF06F10C0006F030FC3046746819
:10066000F4B12168A94217D305F1080291423CBFB9
:100670006168416007D3626861194A602268521B51
:100680000A6041602560002F1CBF06F10C0006F0D7
:1006900037FC201DBDE8F08120466468002CE0D1C5
:1006A0002946304600F01AFA0028D7D1002F1CBF87
:1006B00006F10C0006F024FC0020BDE8F08110B526
:1006C000044600F0FDF901682046BDE81040012213
:1006D000B4E770B516460D46041F002808BF70BD6C
:1006E000002E1CBF05F10C0006F0E8FB2B465868F5
:1006F000002818BFA04238BF0346F8D31968CA18AB
:10070000A24218BF5C6003D122681C4611441960E4
:1007100021680A19824218BF606004D14268626091
:10072000006808442060002E1CBF05F10C0006F094
:10073000E7FB70BD10B5044600F0C2F90168204621
:10074000BDE810400122C4E710B5FFF76DFF006857
:1007500010BD10B50446FFF767FF046010BD000030
:100760000FB47CB50C0009AA009001D02044401EB3
:10077000084B7B4469460190089800F018FC054638
:100780001CB10020694600F025FC28467CBC5DF8C1
:1007900014FB00006908000070B50C460546012AEC
:1007A00005D02878800600D5EA69002302E00123FD
:1007B00005E05B1C934202D2E05C0028F9D1A869F5
:1007C000E618C01AA861286A184428622846AFF3C0
:1007D000008004E0D5E9012114F8010B9047B442F0
:1007E000F8D32846AFF3008070BD2DE9F0410F46E5
:1007F0000546002028622846E968884770B3252806
:1008000005D0D5E901219047286A401CF2E7E96844
:100810002846002688476C2804460AD0682C08D051
:100820004C2C35D06A2C31D0742C31D07A2C2FD06E
:1008300016E0E968064628468847B042044608D1D3
:100840006C2E23D04FF480662846E968884704461A
:1008500006E06C2E03D04FF4807601E01EE04026C7
:10086000E4B1A4F14100192802D8203446F400660E
:100870003A46214628462E60FFF7D2FC60B1012897
:1008800008D0FF1D27F007070837B4E78026DBE70D
:100890000026D9E73F1DAEE72046B2E7286ABDE84B
:1008A000F08100000FB40B0010B54FF000048AB0C7
:1008B0000FA900910E99CC60234C7C44234A7A44C2
:1008C000CDE9064200D004236FF00042CDE90132A9
:1008D0001F4A7A446B460892024600200BF0A1F9A9
:1008E0000AB010BC5DF814FBF0B507464FF0FF30BE
:1008F0001E4615460C463B4685B06A460091CDE93A
:10090000010131460020049004A8FFF7CBFF0499B1
:100910000346601825B109B1024600E022462A606C
:1009200000290ED0002B02DD0099814209D03B4600
:100930006A463146001B0094CDE9010404A8FFF784
:10094000B1FF05B0F0BD00005D07000077070000B3
:100950009F0200002DE9F041074615460E46102083
:10096000FFF7ADFE04000AD06760C4E9026500F03D
:10097000ACF80168216004600020BDE8F08101202E
:10098000FBE710B500F090FBBDE8104000F086BB1F
:10099000431A28BF9A427FF664AD10441144032ADB
:1009A00040F2268010F0030F1EBF11F8013D521EC9
:1009B00000F8013D10F0030F7FF4F6AF11F00303D0
:1009C00000F09D83083AC0F00B8051F8043D083ACE
:1009D00051F804CD40F8043D40F804CDFFF7F3BFD3
:1009E000121D5CBF51F8043D40F8043DAFF3008098
:1009F000D20724BF11F8013D11F801CD48BF11F80D
:100A0000012C24BF00F8013D00F801CD48BF00F8DB
:100A1000012C704702F0FF0343EA032242EA02423C
:100A2000FFF7A0BD0000000030B44FF0013C50F8CB
:100A3000042B51F8043BCCFA52F4D51A20D1FCB95E
:100A400050F8042B51F8043BCCFA52F4D51A17D1C4
:100A5000B4B950F8042B51F8043BCCFA52F4D51A2F
:100A60000ED16CB950F8042B51F8043BCCFA52F477
:100A7000D51A05D1002CDAD030BC4FF000007047F9
:100A800029BAB1FA81F111F01801D1F120008440A6
:100A9000F2D1CA40CB4012F0FF0213F0FF0330BC8A
:100AA000D01A704700487047A80000207047000027
:100AB00010B500F073FB001D10BD00BFBDA300000A
:100AC00010B5FFF7EFFF083010BD10B5FFF7EAFFD4
:100AD000383010BD704770477047704738B50446CE
:100AE0000A4600206946AFF30080002808BF38BDE1
:100AF00002460099204600F05DFB012038BD012030
:100B000000F01EBFF8B5AFF30080054600200C468C
:100B1000102000BF0646A819A0420DD932466946EA
:100B20000020AFF30080070008BF00F009FF009825
:100B3000A04218BF0546C419FFF7C2FF056007466B
:100B4000F01D20F007004619284600F00AF8B442CC
:100B500008BFF8BDA21B31463868BDE8F84000F078
:100B600029BB00210160C0E901100C3006F0B8B9C2
:100B70001020704710B50446FFF79AFF0068005D2B
:100B800000F0010010BD2DE9FF4F0C461E464FF04E
:100B9000FF378BB0D2E90001DDF860800A908A4609
:100BA000C1F30A5505B93D46002108464FF0000043
:100BB000BAF1000F00F4400005DA00EB80004FF4BA
:100BC000400101EA50004FEA9059B9F1010F00DDF0
:100BD000B9460A9850EA4A000ED044F61050A5F2E1
:100BE000FF3545432F14B8F1000F1ED07542291E62
:100BF0001EDDC9F100021CE0B8F1010F4FF000004A
:100C000001D0302103E0F24305E02154401CB04202
:100C1000FBDB30460022002121540B99C1F80880EB
:100C2000C1E900200FB0BDE8F08FBD1B6D1CDEE7F1
:100C30004A4600DA694206A800F0EEFD06AB93E8EA
:100C4000070003AB83E8070050460A9908F0D1FB80
:100C50008DE80700A0F500501F3800900398002D84
:100C60000ADD42F21F014A460844002303A903900B
:100C7000684608F07DFE09E0A0F500504A461F389E
:100C8000002303A90390684608F09CFE8DE8070046
:100C90000004000C03D04FF0FF30410800E0104684
:100CA000B8F1000F03D00022009215461EE0751E19
:100CB00005D400F0A1FA303262556D1EF9D5B34665
:100CC0000122084302D000227F1C04E02078302853
:100CD00001D100227F1E002A099784D01DE0112D2A
:100CE00007DA00F089FA303262556D1C50EA0102D1
:100CF000F5D1084302D00098C8B10EE00021681E6B
:100D000005E0235C625C63542254401E491C81420E
:100D1000F7DBAB46A81B401E0990002004F80B002F
:100D20000B98099AC0F80880C0E9002B7AE71126D1
:100D30004FF0000857E72DE9F04F88460446D21DD2
:100D400022F0070191B0D1E90001CDE90A0108F0D4
:100D500085FF02460B98C00F01D02D2007E02068C8
:100D6000810701D52B2002E0202101EAC000032ADF
:100D7000099001D0072A05DB03464146204600F0D2
:100D800081FA0BE12078800601D5E06900E00620B9
:100D9000B8F1650F814606D0B8F1660F18D0B8F1EA
:100DA000670F70D131E00020B9F1110F009001DB25
:100DB000112301E009F101030AAA01A90CA8FFF718
:100DC000E2FEDDE90C70002609F10105834647E0EB
:100DD00001204B4600904FF000470AAA01A90CA839
:100DE000FFF7D1FEDDE90DB00C995D46002610B984
:100DF00009F101000D18B9EB050003D4C0F1FF366D
:100E000009F10105A5EB09002BE0B9F1010F01DAA9
:100E10004FF001090020B9F1110F0090484601DDA3
:100E2000112300E003460AAA01A90CA8FFF7ABFEB4
:100E3000DDE90C704D4600268346207800070AD471
:100E4000AB4500DA5D4601A8012D04DD411911F81A
:100E5000011C302907D04F4502DA17F1040F04DADC
:100E6000012082460FE06D1EEEE7002F02DCED1B35
:100E70003E4403E0781CA84200DD7D1CB81B00F155
:100E8000010A4FF000472078000703D4AA4501DB90
:100E90004FF0FF3A0021B7F1004F0DF143088DF8F4
:100EA000431024D002202B23002F01DA7F422D2370
:100EB0000A21021EA0F1010000DC5FB197FBF1FCEA
:100EC00097FBF1F201FB1C7C17460CF1300C08F883
:100ED00001CDEEE7A8F1010003702188090501D5D5
:100EE000452100E06521A0F1010800F8011C0998E6
:100EF0000FA9A1EB0807FF1D00B10120411901EB6B
:100F0000EA70A1693844081A401EA0612078C00622
:100F100002D42046AFF30080099828B1D4E901211A
:100F20009047206A401C20622078C00622D52046C7
:100F3000AFF300801EE0002E04DBB34502DD01A804
:100F4000805D00E03020D4E901219047206A401CF8
:100F50002062761CAAF101005FEA000A0AD100F0C3
:100F60001DF9C0680168405CD4E901219047206AFE
:100F7000401C2062281EA5F10105DCDC07E0D4E955
:100F8000012118F8010B9047206A401C2062381E8E
:100F9000A7F10107F3DC2046AFF30080032011B076
:100FA00041E6000001694A1C02610878704700B5FB
:100FB0008FB0CDE901310021059105497944CDE992
:100FC000031011466846FFF710FC0FB000BD00008B
:100FD000E5FFFFFF0A6802F8010B0A607047D1E9DC
:100FE00000239A4202D2531C0B601070704710B558
:100FF000436913B1AFF3008001E0FFF7CDFB01209F
:1010000010BD127800F124010A7000224A700122FA
:10101000EDE711684FF0FF32E9E7426842B101683D
:1010200011F8013B23B1521EC0E900121846704767
:101030000121C160881E704742685AB1C3680168C7
:1010400043B983688B4205D0491E521CC0E9001287
:10105000002070474FF0FF3070472DE9F041064601
:10106000FFF733FD8046454613E016B1E068B04215
:101070000ED120682860D4E90101D8F800708847B3
:101080002046FFF757FBD8F80000B842EBD100E04C
:1010900025462C68002CE8D1BDE8F081002801D05D
:1010A000FFF7BCBA7047000010B5002102A000F0A5
:1010B0002EFC012010BD0000534947414252543AD2
:1010C0002041626E6F726D616C207465726D696E25
:1010D0006174696F6E000000431A28BF9A427FF660
:1010E00005AA1044114410F0030F1EBF11F8013D72
:1010F000521E00F8013D10F0030F7FF4F6AF103AD6
:10110000C0F00A8010B531E9185020E91850103AA3
:10111000BFF4F9AFBDE81040530724BF31E9081010
:1011200020E9081044BF51F8043D40F8043D12F096
:10113000030F08BF7047D20728BF31F8023D48BFF0
:1011400011F8012C28BF20F8023D48BF00F8012CFF
:1011500070477546FFF7A6FCAE4605006946534644
:1011600020F00700854618B020B5FFF703F9BDE869
:1011700020404FF000064FF000074FF000084FF0FE
:10118000000BAC46ACE8C009ACE8C009ACE8C0094B
:10119000ACE8C00921F007018D46704710B5FFF794
:1011A00081FC203010BD801A0844401E491E88432F
:1011B0001044704770B5144605468C464368002BB2
:1011C00018BF634538BF1846F8D30268104460451D
:1011D00008D06646604604220821FFF7E4FF811B21
:1011E0008446641A2946CCF80040BDE870400022CD
:1011F0000CF10400FFF76DBA30B5B0F10A0271F1DD
:1012000000034FEA900E4EEA817EB0EB0E0061EBD8
:1012100091014FEA101E4EEA017E10EB0E0041EBE9
:1012200011114FEA102E4EEA016E10EB0E0041EB49
:1012300011214FEA104E4EEA014E10EB0E0041EB29
:101240001141401841F100014FEAD00040EA4170DD
:101250004FEAD1014FEA810444EA907410EB800513
:1012600044EB01046D1944EB0404521BA3414FF0FD
:10127000000348BF0A3200D530BD401C41F10001D7
:1012800030BD00002DE9F0411F46044603260168E9
:10129000072A01F4006004DB08B116A505E016A5D5
:1012A00003E008B115A500E015A521F010002060AD
:1012B000A069C01EA0610FB1401EA0612046AFF31F
:1012C00000804FB1D4E9012138469047206A401C84
:1012D0002062C01C206206E0206AFAE7D4E90121FE
:1012E00015F8010B9047761EF8D22046AFF3008028
:1012F000BDE8F0814E414E006E616E00494E4600E1
:10130000696E66003A2800D2303820F02002412A67
:1013100001D3A2F13700884201D34FF0FF3070476C
:101320002DE9FF4F06468BB00878FF2806D0491CF0
:101330002D2805D000244FF0000908E000200CE023
:101340000124F8E709EB8903491C00EB43090878FD
:10135000FF28F7D114B1C9F10000814610780025AB
:101360002C46AA4629462D2801D02B2804D1521CF0
:101370002D2813D0002082468B461078FF280FD0EE
:101380004FF0000C0A21521CA5FB017804FB0181DF
:1013900005FB0C11C5194BEB0104EEE70120EAE750
:1013A000002108464FF00000BAF1000F02D000EB18
:1013B00080004008C0F38157012F01DD4FF0FF3757
:1013C0000E9955EA040009EB01080BD04FF0020911
:1013D00018F5FA7F16DA4FEACA70002F706008DD40
:1013E000012007E04FEACA70C6E900B00FB0BDE8BF
:1013F000F08F00203060FFF717F9C0F80090182137
:10140000084616E0B8F5FA7F18DD002F02DAF74833
:10141000784401E0F6487844D0E90010C6E90010AD
:1014200040EACA707060FFF7FFF8C0F8009014211E
:1014300008460FB0BDE8F04F0AF08EBB0021084609
:101440004FF00000B8F10001099002DAC7F1000284
:1014500000E03A4601DAC8F1000106A800F0DCF924
:1014600006AB93E8070003AB83E8070044F23E00B5
:101470005BEA04010090584604D144F21E012C4658
:101480005D460091210C0904014306D10099240412
:1014900044EA15442D041039009104F07F410143C2
:1014A00006D10099240244EA15642D0208390091FE
:1014B00004F07041014306D10099240144EA1574F7
:1014C0002D01091F009104F04041014306D100990C
:1014D000A40044EA9574AD00891E009104F0004117
:1014E000084304D100986D196441401E00904FF0EC
:1014F00001033A466846B8F1000FCDE9014503A95A
:1015000002DD08F074FA01E008F047FABAF1000FC2
:1015100004460D4601D084F00044002108464FF0F7
:101520000000099940F2FF77484010F00C0F07D1F6
:1015300024F00040284303D0C4F30A50B84212D12B
:10154000FFF772F8C0F80090C4F30A50B8420AD10D
:10155000A8487844D0E90010C6E9001004F0004122
:101560000843706042E7C6E900543FE72DE9FF4FAA
:101570001F464FF0000A4FF0FF38454691B0D7E9BB
:101580000146CDF83CA0FFF709FEC0680168405C49
:101590001090B96912986D1C8847396A814688474E
:1015A0000028F6D1B9F1FF3F0AD0002E24F4D06410
:1015B00011DDB9F12B0F08D0B9F12D0F0BD102E0DD
:1015C000404615B013E744F48064B96912986D1C65
:1015D0008847761E8146600504A901D52D2000E0CC
:1015E0002B20002E01F1010B0DF130088DF81000B9
:1015F0003FDDB9F1690F08D0B9F1490F05D0B9F154
:101600006E0F02D0B9F14E0F1CD13B4601A80095D8
:1016100080E85002DDE912126FF002000AF005FBCB
:10162000C11CCED10EE0B96912986D1C8847814665
:101630001398761E44F4007405600F98401C002E29
:101640000F9016DDB9F1300FEDD0B9F1780F02D05F
:10165000B9F1580F0DD10F9801280AD13B46CDE9B9
:101660000054DDE91212001F02960AF0DCFAC11CD8
:10167000A7D1109989453ED144F0800406E0139922
:10168000681CAAF1010A44F400740860B9696D1C71
:101690001298761E884730288146F0D02BE01099AA
:1016A000894505D1200603D4761E44F0800418E055
:1016B000484609F038FB08B3761E0DF12302934526
:1016C000A9F1300044F4007406D20BF8010B200697
:1016D00007D5AAF1010003E0200602D40AF10100B7
:1016E0008246A00502D51399681C0860B969129852
:1016F0006D1C88478146002ED1DC53E0002E51DD61
:10170000B9F1650F02D0B9F1450F4BD1A00549D50C
:10171000B9696D1C1298761E24F440748847002E17
:1017200081460CDD2B2804D0B9F12D0F07D144F4EC
:101730008074B96912986D1C8847761E8146E00551
:1017400001D52D2100E02B2108F8011BCDF80080E8
:1017500021E0761E0DF13901884544F400740CD265
:10176000A9F1300010F0FF0088F8000002D10099C4
:10177000884509D908F1010806E0E00501D51E48B1
:1017800001E042F20F708246B96912986D1C8847D9
:10179000814613980560002E04DD484609F0C3FA1F
:1017A0000028D6D1F96912988847FF2053468BF854
:1017B000000088F8000000200A900B9004AA0CA9F1
:1017C0000AA8FFF7ADFDA00502D46FF00100F8E60E
:1017D00014F0240F12D0E0071CD13868DDE90A129A
:1017E000031D3B600068C0E9001213E03CB200003A
:1017F0002EB20000F2B00000F1D8FFFF0AA968463F
:1018000009F07EFAE00705D13868009A011D3960B9
:10181000006802602846D4E62DE9F0478146164666
:101820008AB0354878440DC88DE80D0032487844B8
:10183000801C03AC0DC884E80D0041F69B300844C1
:10184000372190FBF1F290FBF1F5A5F1800501FB4A
:1018500012041B3C02D56442012000E00020DFF8A6
:1018600098A080460027FA44AAF1BE0A0EE0E007DD
:101870000AD03246684607EB470101230AEB810193
:1018800008F0A0F88DE8070064107F1C002CEED152
:10189000194F7F44AE3F19E0E80715D007EB04105D
:1018A0000DF1180A90E80E008AE80E00C068F042B8
:1018B00001D1981908903246012306A903A808F01F
:1018C00081F803AB83E807006D10641C002DE3D1A1
:1018D0004FF0010332466946B8F1000F03A802D069
:1018E00008F046F801E008F06DF8C9E90001C9F810
:1018F00008200AB0BDE8F08744A5000010B50446F2
:10190000AFF300802046BDE81040FEF7BDBC70B5C7
:1019100005460C460A2000E06D1C00F018F835B1B1
:1019200028780028F8D102E0641C00F010F814B107
:1019300020780028F8D1BDE870400A2000F007B8F0
:1019400010B500F027F8BDE81040FFF7A7BB08B5B9
:1019500069468DF800000320ABBE08BD10B5FFF747
:10196000AFF80068BDE8104000F03CB8B2F12003C9
:101970000AD5C2F1200301FA02F120FA03F341EA89
:10198000030100FA02F0704700FA03F14FF0000083
:101990007047000010B5012805D0002103A0FFF713
:1019A000B6FF012010BD09A1F8E7000053494752D6
:1019B000544D454D3A204F7574206F66206865611F
:1019C00070206D656D6F7279000000003A204865E7
:1019D0006170206D656D6F727920636F72727570C2
:1019E0007465640010B50C3005F076FA10BD000087
:1019F0002DE9FF4F1F464FF03C0987B04FF00042E2
:101A0000DDE9141001F10108DDF858A002EA4050A8
:101A10000390002005908346054604460490B9696A
:101A2000461E08988847AAF1010A0290BAF1000FF1
:101A30003BDD02982E2815D01021FFF763FC00280B
:101A40002EDB4FF0010B0599014317D0B9F1000FC0
:101A50000BDB4A46C117FFF789FF05430C43A9F189
:101A6000040905E0012004900BE008B145F00105F0
:101A700001200590049820B9361D02E0049800B1B9
:101A8000361FB969089808F101088847BBF1000FB3
:101A9000AAF1010A0290C9D00999C1F80080C5E7EE
:101AA0000298702808D0502806D0F969089888470D
:101AB000BBF1000F14D04FE0002002900120BBF1D9
:101AC000000F049009D0B969089808F10108884707
:101AD000AAF10109B9F1000F07DCF96908988847F4
:101AE0006FF001000BB0BDE8F08F2B2804D02D283B
:101AF0000CD14FF0FF300490B969089808F1010843
:101B00008847A9F10109B9F1000FE6DD411CE4D0D5
:101B10000A21FFF7F7FB0028DFDB029908F1010833
:101B200001EB810100EB41000290B96908988847F8
:101B30000A21FFF7E7FB099AA9F10109B9F1000FA2
:101B4000C2F8008001DD0028E7DAF96908988847C3
:101B50000499029800FB016655EA040004D004F0E1
:101B60004041090002D006E0039898E0A40044EA4E
:101B70009574AD00B61E04F00041080002D16D1945
:101B80006441761E159810F0240F03D04FF00B0916
:101B90005C4803E04FF028096FF07D00824656450F
:101BA00007DAAAEB06018944B9F1410F01DD4FF0D4
:101BB000410901200021A9F10102FFF7D7FE0246E9
:101BC00028400B462140084301D0012100E00021BC
:101BD000501E029143F1FF3128402140084301D0BB
:101BE000012000E000200299834651EA0B014FD00A
:101BF000002108464FF00000039900F4400039B17D
:101C000000EB80004FF4400100EBD07001EA60006F
:101C10008015012802DD4FF0FF3000E013D0401C9A
:101C200036D0029860B3BBF1000F0CD14A460120B8
:101C30000021FFF79BFE28402140084301D00120EE
:101C400000E00020E0B101204A460021FFF78EFEAF
:101C5000034640190A4661412D1A8C4111D3B9F14E
:101C6000400F09DD159810F0240F02D0AAF13406B8
:101C700003E0AAF1170600E0761C00254FF00044AF
:101C800006E05B1E42F1FF3220EA030521EA02046E
:101C9000CAF10100B04206DA1B49039808430190DB
:101CA000002000900EE0039AC4F3D321E80A0A430F
:101CB000164940EA44500A433146CDE900026846DD
:101CC00009F027F8159810F0240F0BD01598C007CD
:101CD00015D13868DDE90012031D3B600068C0E9DA
:101CE00000120CE002A8694609F00AF81598C0072E
:101CF00005D13868029A011D3960006802604046CB
:101D0000F0E6000002FCFFFF0000F07F0000F03F63
:101D10002DE9FF4F92461D4685B04FF00041DDE9A9
:101D2000124BDDE914727F1E01EA4B50414940F02D
:101D3000FF4940EA0108002122F0200049280491CF
:101D400002D04E2828D04CE03BA0012607C88DE8E1
:101D50000700A9690698641C88477F1E014606D4BF
:101D60001DF8060018B121F0200181420BD0E9696D
:101D700006988847032E34D0082E32D06FF0010029
:101D800009B0BDE8F08F761C032E01D0082EE0D1FB
:101D9000601CCAF80000DCE7A9690698641C884743
:101DA0007F1E2AD420F02000412826D1A969069858
:101DB000641C88477F1E20D420F020004E281CD1B0
:101DC000A9690698641C88477F1E48F4002849F4D6
:101DD0008009CAF8004001D4282806D0E96906988D
:101DE00088475FEACB7012D022E0A9690698641C8C
:101DF00088477F1E01D4002803DAE96906988847DE
:101E0000BCE72928F1D1641CCAF80040E9E71BF0BF
:101E1000240F07D028680499031D2B600068C0E9CF
:101E2000001805E02868021D2A600068C0F80090CC
:101E30002046A5E70000F07F494E46494E495459D7
:101E4000000000004FF68071C2F2020109780029FB
:101E500004BF002070474FF60072C0F3C621C2F2E3
:101E60000202515CC0F3022021FA00F000F00100F0
:101E70007047000070B54FF68075C2F2020500BFD2
:101E8000AE6900F07FF9044600F042FEB042F7D19F
:101E9000844238BF00F010FC204670BD70B5144677
:101EA0000D460646FFF7CEFF90B1FFF7E3FF32463F
:101EB000C0F208020146EFF30580002808BFB2B265
:101EC00002F140702A462346BDE8704000F03CB85D
:101ED000012070BD2DE9F04F81B0DDF828909846C3
:101EE00092468B460546FFF7ADFF28B3FFF7C2FFCA
:101EF0000446EFF3058700F0D3FB4FF4E02101EA3D
:101F000000462846C0F20800002F08BFA8B230449F
:101F100000F1807021465A46534600F015F878B11A
:101F200046F0007040F00100214642464B4601B0A9
:101F3000BDE8F04F00F008B8012001B0BDE8F08F17
:101F4000002001B0BDE8F08F2DE9F04F81B08A4646
:101F50004FF08051914601EADA014FF0005202EA57
:101F600099024FF080470843009307EA5303104358
:101F70004DF6007B40EA03066FF00605C2F2020B45
:101F800000F092FB04466FF35F2400F4F0500BEB7B
:101F9000041846EAC02008F10C0740F040613846BA
:101FA00000F002FC410102D40135E9D31CE080F0CD
:101FB000044101F000402AF00042024423014BF8A2
:101FC0000320009B29F0004223F000430244184400
:101FD000C8E90120384600F08BFD28B100F07CFBF9
:101FE000012001B0BDE8F08F00F06EFB002001B0D1
:101FF000BDE8F08FFE294FF0000398BFFE2A01D9FB
:10200000184670472DE9F0414FF600784FF0000C6C
:102010004FF0010EC2F20208002406E00CF1010CA0
:10202000BCF1040F04F1200415D020FA0CF5ED07E3
:10203000F4D09142F2D80D4604EBD50705F007061F
:1020400018F807300EFA06F601353343954208F8C2
:102050000730F1D9E2E70123BDE8F04118467047A7
:102060002DE9F0414FF680770546C2F202070020C5
:1020700038704FF60070884642F26B76C2F202006A
:102080008021CEF2A516FEF78DFA05F017F8396A11
:10209000B1423ED1798881423CD1FE69701CF86121
:1020A000DEB34DF600710020C2F202010A18D368B7
:1020B00010305C0144BF23F04063D360B0F5005F93
:1020C000F4D100F065F8002E064636D0F6B1284669
:1020D0000021FE22FFF78EFF0F20EF21EF22FFF7F6
:1020E00089FF0420FE21FE22FFF784FFFFF7C2FED6
:1020F000FA6901464FF60070C0F200300023FFF786
:1021000023FFB8F1000F18BF00F024F83046BDE8F7
:10211000F0813E6278800120F86100207870C7E984
:102120000100F8604DF60070C2F202004FF4005159
:10213000FEF738FA00F02CF8064630460021002E53
:1021400018BF4CF25030C7E90410B961002EBED15F
:10215000DCE7000080B54FF68070C2F20200017823
:1021600009B1012080BD01210170FFF783FE014606
:102170004FF60170C0F2003000220023FFF7E4FEAA
:10218000012080BD41F20400CEF2000000687047DB
:102190004EF6FC50CEF20000016841F08071016003
:1021A00041F20001CEF20001086840F00102012076
:1021B0000A60704701464FF20130C0F20100002270
:1021C000FFF76CBE01464FF20530C0F2020000225C
:1021D000FFF764BE01464FF473400022FFF75EBE76
:1021E00001464FF20330C0F202000022FFF756BE54
:1021F00001464FF20230C0F201000022FFF74EBE4E
:1022000001464FF20430C0F202000022FFF746BE42
:1022100001464FF20D50C0F202000022FFF73EBE11
:1022200001464FF471400022FFF738BE01464FF2DD
:102230001310C0F201000022FFF730BE4FF2011070
:10224000C0F2010000210022FFF728BE4FF2021069
:10225000C0F2020000210022FFF720BE4FF207105B
:10226000C0F2010000210022FFF718BE4FF2081053
:10227000C0F2020000210022FFF710BE80B582B03C
:102280009C4613460A4601464FF20100C0F2020086
:10229000CDF800C0FFF71EFE02B080BD0A46014621
:1022A0004FF20400C0F20200FFF7F8BD80B582B023
:1022B00013460A4601464FF205004FF0000CC0F2EB
:1022C0000200CDF800C0FFF705FE02B080BD00009F
:1022D00080B582B09C4613460A4601464FF2030081
:1022E000C0F20200CDF800C0FFF7F4FD02B080BDDF
:1022F00080B582B013460A4601464FF202004FF005
:10230000000CC0F20200CDF800C0FFF7E3FD02B000
:1023100080BD000080B582B013460A4601464FF0EA
:10232000000C4FF43C30CDF800C0FFF7D3FD02B0F5
:1023300080BD000001464FF60810C0F202000022E6
:10234000FFF7ACBD0A4601464FF60320C0F202007B
:10235000FFF7A4BD01464FF61720C0F2010000228E
:10236000FFF79CBD01464FF61820C0F20200002284
:10237000FFF794BD0A4601464FF47A40FFF78EBD41
:1023800080B582B09C4613460A4601464FF60C20A3
:10239000C0F20100CDF800C0FFF79CFD02B080BD87
:1023A00080B582B013460A4601464FF60D204FF025
:1023B000000CC0F20200CDF800C0FFF78BFD02B0A8
:1023C00080BD00000A4601464FF61420C0F201000D
:1023D000FFF764BD01464FF60E20C0F20200002256
:1023E000FFF75CBD0A4601464FF60920C0F2020025
:1023F000FFF754BD0A4601464FF60A20C0F202001C
:10240000FFF74CBD80B582B013460A4601464FF631
:1024100001204FF0000CC0F20100CDF800C0FFF722
:1024200059FD02B080BD00000A4601464FF60B2060
:10243000C0F20200FFF732BD0A4601464FF61020F7
:10244000C0F20200FFF72ABD80B582B09C46134659
:102450000A4601464FF60620C0F20100CDF800C042
:10246000FFF738FD02B080BD80B582B013460A4642
:1024700001464FF607204FF0000CC0F20200CDF8E5
:1024800000C0FFF727FD02B080BD000001464FF6F7
:102490000820C0F202000022FFF700BD0A460146F4
:1024A0004FF60F20C0F20200FFF7F8BC0A460146C3
:1024B0004FF20670C0F20100FFF7F0BC0A46014679
:1024C0004FF20770C0F20200FFF7E8BC01464FF27E
:1024D0000870C0F202000022FFF7E0BC0A46014685
:1024E0004FF20970C0F20200FFF7D8BC0A4601465D
:1024F0004FF20370C0F20200FFF7D0BC01464FF26A
:102500000E70C0F201000022FFF7C8BC01464FF276
:102510000F70C0F202000022FFF7C0BC0A4601465D
:102520004FF47740FFF7BABC01464FF20170C0F29A
:1025300001000022FFF7B2BC01464FF20A70C0F260
:1025400002000022FFF7AABC01464FF20B70C0F256
:1025500001000022FFF7A2BC0A4601464FF20C70B0
:10256000C0F20200FFF79ABC01464FF60800C0F225
:1025700002000022FFF792BC0A4601464FF21620E5
:10258000C0F20300FFF78ABC0B4601464FF203205E
:10259000C0F20200002A0CBF1A462930FFF77EBCA9
:1025A00001464FF21C20C0F202000022FFF776BC69
:1025B0000A4601464FF47240FFF770BC4FF21A20F2
:1025C000C0F2010000210022FFF768BC80B582B094
:1025D0009C4613460A4601464FF20940C0F20200EB
:1025E000CDF800C0FFF776FC02B080BD01464FF287
:1025F0000840C0F202000022FFF750BC01464FF233
:102600000620C0F201000022FFF748BC01464FF24D
:102610001520C0F202000022FFF740BC80B582B056
:1026200013460A4601464FF201204FF0000CC0F25B
:102630000100CDF800C0FFF74DFC02B080BD0000E6
:1026400001464FF21820C0F203000022FFF726BC1B
:102650000A4601464FF22D20C0F20200FFF71EBCD1
:102660000A4601464FF20A20C0F20100FFF716BCED
:1026700001464FF21920C0F202000022FFF70EBC03
:102680000A4601464FF21720C0F20300FFF706BCCE
:102690000A4601464FF20160C0F20200FFF7FEBB9E
:1026A00080B504F0C7FC80BD4FF68070C2F2020016
:1026B000043004F0B5BC00004FF68070C2F2020096
:1026C000103004F0ADBC00004FF68070C2F2020082
:1026D0000C3004F0A5BC00004FF68070C2F202007E
:1026E000083004F09DBC0000EFF3108000281CBFF0
:1026F00001207047EFF31180002818BF01207047B8
:10270000EFF3108000281CBF01207047EFF3118009
:10271000002818BF01207047EFF3108000281CBF6D
:1027200001207047EFF31180002818BF0120704787
:10273000EFF3108000281CBF01207047EFF31180D9
:10274000002818BF01207047EFF3108000281CBF3D
:1027500001207047EFF31180002818BF0120704757
:10276000EFF30580002818BF01207047EFF30580C4
:10277000002818BF01207047EFF30580002818BF1C
:1027800001207047EFF30580002818BF0120704733
:10279000EFF30580002818BF01207047EFF3148085
:1027A000012121EA0000704710B550E8002F940184
:1027B00003D3BFF32F8F002206E002F000420A434A
:1027C00040E8002303B1F0E7104610BD084470470D
:1027D0007047000010B50446283004F0E1FB58B102
:1027E000E46A4CB1A01C04F051FC18B1A468002CA0
:1027F000F8D10024204610BD0024204610BD000062
:1028000010B584465CF8303F5BB191F803E0DA78AC
:1028100072450BD21A465B688BB1DC787445F9D3EC
:1028200005E00022C1E90122C1620DE00022C1E9F8
:102830000132002A996018BF02F1040C04E0C1E9DA
:102840000132C16202F1040C2830CCF80010BDE85E
:10285000104004F0DDBB0000D1E9012C02F10803B7
:10286000002A08BF00F12C03C3F800C0D1E901120F
:10287000131D002A08BF00F13003196070470000E3
:102880004EF21000CEF200000068704740F20810CF
:10289000C2F200000178012908D1002101704EF632
:1028A0000450CEF200004FF0806101604EF2100043
:1028B000CEF20000016841F00101016070470000A4
:1028C0004FF0FF307047000058B140F20001C2F2F3
:1028D00000010968B1FBF0F0411E0020B0EB116F60
:1028E00002D04FF0FF3070474EF62352CEF2000276
:1028F000FF2313704EF21002CEF200020623136083
:10290000516040F20811C2F20001906008707047F7
:10291000B0B54EF62254CEF20004FF20207020788D
:1029200080F0FF00B0FA80F0C0F1200504F018FA42
:10293000A84228BF451CFE20A84004F8030CB0BDE7
:102940004EF60450CEF200004FF080510160704707
:10295000C0064FF0200058BF6020704743F60400C7
:10296000C4F20200416801F00C0242F20041082A60
:10297000C0F2F40106D0042A1DD141F20021C0F2B8
:102980007A0118E002680368520241F20022C0F2A4
:102990007A0258BF0A46016803F03F03B2FBF3F224
:1029A000C1F3881103685143C3F30142022303EBCF
:1029B0004202B1FBF2F140F20002C2F200021160E9
:1029C00040684BF62461C0F30310C0F60001085CB8
:1029D000116821FA00F01060704700004EF6885030
:1029E000CEF2000001684FF0000C41F4700101606C
:1029F00043F60001C4F202010A6842F001020A60D3
:102A0000C1F808C00B684FF6FF72CFF6F6621A40A5
:102A10000A6043F21002C2F200424A600A6822F4DD
:102A200080220A60C1F80CC04FF0006140F8801CA1
:102A300070470000930707D4D20700F1280018BFA1
:102A400004F06EBA04F080BA836A02F0010203EA6D
:102A5000010040EA020C8842184618BF0020002AF4
:102A600008BF1846BCF1000F08BF60467047000061
:102A700010B540F2040CC2F2000CDCF844304FF008
:102A8000000EA3B11C698C4202D9002207E000BFEE
:102A90001A46DB68091B5BB11C69A142F8D282604F
:102AA00001611C69C360611A1961986003E000222A
:102AB000C0E9022E016102F10C01002A08BF0CF1ED
:102AC0004401086010BD0000C16800291CBF826875
:102AD0008A60C06840F20401C2F200014864704795
:102AE00048F28460C2F20000006801688968084703
:102AF00010B550E8003F9B0103D2BFF32F8F002297
:102B000004E040E8001404B1F3E70122104610BDD0
:102B100004F0C6BA04F040B910B543F60004C4F29C
:102B20000204FFF75BFF206840F48030206000BFA4
:102B300020688003FCD5216C47F2000041F08051F1
:102B4000C4F200002164016841F440410160216841
:102B500021F08071216000BF21688901FCD4616887
:102B6000042241F480016160616862F305016160E3
:102B70006168B42262F38E116160616821F44031B2
:102B80006160216841F08071216000BF2168890186
:102B9000FCD5016841F48031016000BF4168C90380
:102BA000FCD5016841F40031016000BF4168890330
:102BB000FCD540F20570C4F80004A068022161F35E
:102BC0000100A060A068A060A06840F40040A06080
:102BD000A06840F4A050A060A06800F00C00082895
:102BE000FAD1FFF7BBFE206B40F001002063206BA1
:102BF00040F002002063206B40F040002063606CD6
:102C000040F01000606410BD0020C4F202000168B2
:102C1000022262F3934101604168072321F40071AD
:102C20004160816841F440218160416A63F307118A
:102C30004162016862F315510160416821F48061CD
:102C40004160816841F440118160416A63F30B2166
:102C50004162D0F80024012161F30922C0F8002468
:102C600040F20442C4F20202136823F0100313601E
:102C7000536843F440735360D0F8003461F38F33EA
:102C8000C0F80034106820F080001060506840F4F4
:102C90004040506041F60000C4F20200026861F357
:102CA0009B620260426822F400524260826842F0F5
:102CB00040628260026861F31D720260416821F423
:102CC00080414160816841F0405181604FF4005182
:102CD00041834FF4804141837047000080B500F08C
:102CE00057F900F04DF9BDE8804000F041B900000F
:102CF00041F20C00C4F20100018842F2904221F43A
:102D000080610180018821F480510180818821F453
:102D10004051818001886FF3DF31018030F8041C5D
:102D2000114320F8041C30F8041C41F00F0120F876
:102D3000041C018841F008010180018821F0800114
:102D40000180018841F004010180018841F02001E7
:102D50000180018841F400510180704741F614045C
:102D6000C4F20204206880F40050206042F2107027
:102D700004F0EEFCF6E7000070B5044642F65D5044
:102D8000C0F6000000210022002505F00FFC48F2EB
:102D90008066C2F200062146306005F025FC3068EE
:102DA000002808BF4FF0FF35284670BD41F61405D6
:102DB000C4F2020504F010FD41F28836841900BF08
:102DC000286880F480402860204604F0D9FC344410
:102DD000F6E7000086B048F2706740F22019002044
:102DE000C2F2000704AC01AD0DF11408C2F20009F3
:102DF000049019E02846414603F0F2FD3868049A31
:102E000001684FF0FF33CE682946B047D9F800007B
:102E1000294600F001FDD9F80000016809688847DB
:102E2000284603F0E5FD00BF38684FF0FF32016827
:102E30008B682146984704990028F5D1B1F1405F8D
:102E4000F2D138684FF0FF3201688B68214698470D
:102E50000028E9D1049801280BD00228E4D1386871
:102E60004FF0FF3201688B68214698470028DBD17C
:102E7000C0E738684FF0FF3201688B6821469847F9
:102E80000028D1D12846414603F0AAFD3868049AAB
:102E900001684FF0FF33CE682946B047D9F80000EB
:102EA000294600F061FDB6E770B5044642F6AD5024
:102EB000C0F6000000210022002505F077FB48F253
:102EC0007466C2F200062146306005F08DFB306862
:102ED000002808BF4FF0FF35284670BD70B5044686
:102EE00042F6D550C0F6000000210022002505F072
:102EF0005DFB48F27866C2F200062146306005F0BC
:102F000073FB3068002808BF4FF0FF35284670BDBE
:102F100048F28464C2F2000420680168496A884764
:102F2000FAE7000070B58AB001AD044628462421B6
:102F3000FDF738FB4FF40060CDE9060442F611704E
:102F4000C0F6000000212A46002505F02FFB48F2BC
:102F50007C66C2F200062146306005F045FB306811
:102F6000002808BF4FF0FF3528460AB070BD0000AA
:102F70004EF20410CEF200002021016070470000E4
:102F80004EF22540CEF20000102101707047000083
:102F90004EF60C50CEF2000001684FF6FF021140D1
:102FA00040F20032C0F2FA5211430160704703F060
:102FB000BABE80B5AFF30080BDE8804003F0BABE72
:102FC00080B5AFF30080BDE8804003F0B3BE0000E1
:102FD00010B5144600F08EF928B101684A6A2146FE
:102FE000BDE810401047002010BD0000B0B582B011
:102FF0000D4604460DF1070128468DF8072003F021
:1030000065FA291D814203D0017C4069217001E0ED
:1030100000202070606002B0B0BD000080B500F0FC
:1030200069F920B10168C969BDE8804008470020FE
:1030300080BD000080B500F05DF920B10168C9686D
:10304000BDE880400847002080BD00002DE9F04128
:1030500084B00C4602A9054603F0C2FC54F8046B88
:10306000A6422BD00DF108086F4601E0A64225D0FC
:1030700070690168C9688847317C3A468DF800104C
:103080000190404629463B4603F058FC706828B141
:10309000064600680028FBD1E8E700BF304650F83C
:1030A000081F0A68B2420E46E0D000BF0168084619
:1030B00050F8086F32688A42F8D1D7E704B0BDE80B
:1030C000F081000080B500F015F920B10168896930
:1030D000BDE880400847002080BD000000000000DF
:1030E0002DE9F0472DED028B84B00546002089467E
:1030F000286059F8046B68604E45A8605AD09FED6F
:10310000308B0DF1040A0FF2C00801E04E4551D09A
:10311000317C284602F0ADFD70690168C9688847B6
:1031200008F0ABF97269074613681046DB690C4674
:10313000984708F0A2F9B0EE480A41EC110BF0EE06
:10314000680A06F0A5FE53EC102B3846214607F01E
:10315000A3FF024650460B4603F040FD9DF80400D5
:1031600010F00101DDE9022104BF0AF1010142086A
:10317000284602F060FC504602F0E3FD2846414636
:1031800002F04CFC706828B1064600680028FBD1AC
:10319000BCE700BF304650F8081F0A68B2420E462E
:1031A000B4D000BF0168084650F8086F32688A4200
:1031B000F8D1ABE704B0BDEC028BBDE8F08700BFEF
:1031C000000000000000244020000000000000007B
:1031D0002DE9F0472DED048B814659F8047B4F45CE
:1031E00072D09FED3B8B884602E000BF4F456BD00D
:1031F0007E6997F810A03068C1683046884708F0AB
:103200003CF97A69054613681046DB690C46984715
:1032100008F033F9B0EE480A41EC110BF0EE680A01
:1032200006F036FE53EC102B2846214607F034FFFB
:1032300041EC100B4046514601F07EFF7869B0EE3C
:10324000409A0168F0EE609AC969884708F015F95C
:10325000B0EE480A41EC110BF0EE680A06F018FED9
:1032600051EC190B53EC102B08F06EF908F0A8F88C
:1032700031684A6A014630469047796904460A68CF
:103280000846926990477A6994FBF0F311688E6A58
:1032900003FB00F11046B047786828B10746006884
:1032A0000028FBD1A2E700BF384650F8081F0A6883
:1032B000BA420F469AD000BF0168084650F8087F0E
:1032C0003A688A42F8D191E7BDEC048BBDE8F087FB
:1032D000000000000000244080B584B00346CDE922
:1032E00000126A4602A81946134603F0CFF804B04C
:1032F00080BD000010B582B08DF807100DF10701F8
:10330000044603F0E3F8211D814214BF4069002008
:1033100002B010BD80B582B001A903F0E9F802B097
:1033200080BD000070B50546D0E90040A04212D033
:1033300020680E460168C9688847B0420BD0043443
:103340006868844207D054F8040B0168C96888474C
:10335000B042F5D1043C204670BD0000704700002B
:1033600010B50446FFF7DEFF6168814214BF0068B4
:10337000002010BD704700000021C0E900118160ED
:103380007047000002F0FABC4CF22021C0F60001A8
:1033900008310160704700004CF23821C0F600018E
:1033A0000831016070470000FEDE00007047000039
:1033B0004CF27421C0F60001083101607047000032
:1033C000FEDE00007047000040681346002204F053
:1033D0005DBA00002DE9F04F85B0012A2CDB1446C0
:1033E000894606460DF1080A4FF0000B0DF10C0856
:1033F0006D4600BF30685146836830464FF0FF325B
:10340000984731689DF808708B680028304651460F
:103410004FF0FF3218BF5F4698470299002818BF47
:1034200059468DF800700191404649462A462B4680
:1034300003F084FA013CDDD105B0BDE8F08F000057
:1034400010B582B00446806801914FF0FF3104F05E
:1034500093FA30B9606801A900224FF0FF3304F0FD
:1034600069FAA06804F0D8FA02B010BDF0B581B0D6
:10347000044680680D464FF0FF3104F07DFA0028C5
:103480001CBF01B0F0BD606804F022FAD5E900125B
:10349000511AB0EBA10F18D9D5E90001814214D01F
:1034A000002600BF67682846314603F089FB0146C5
:1034B000384600224FF0FF3304F03CFAD5E9000112
:1034C0000136081AB6EBA00FECD3A06801B0BDE836
:1034D000F04004F0A1BA000010B50446FFF754FF15
:1034E0004CF2C420C0F600000830206040200421C7
:1034F000002204F001FA6060002004F073FA014633
:103500002046A16010BD000041680A88920606D4DA
:103510000988090658BF70470168C96908470168EA
:10352000096A0847007C704780B5143102F0D3FB6C
:1035300080BD000070B582B00546044615F8140F32
:10354000C00709D1681C00260DF106018DF8066040
:1035500002F098F92E7008E0E06900250DF10701EE
:103560008DF8075002F08EF9A5610020207402B09A
:1035700070BD000010B582B00446C0680DF10701AF
:103580000022002304F082F950B161688A8922F098
:1035900080028A818A8942F004028A8102B010BDC9
:1035A0009DF807106268918002B010BDB0B582B07E
:1035B0000446007C40B9A0680DF1050100224FF0DF
:1035C000FF3304F063F908B102B0B0BD9DF80510F7
:1035D00004F11405284602F04CFB9DF805000A286A
:1035E00003D10120207402B0B0BD297811F0010090
:1035F0000CBF4908A1694129E6D350B9681C0024D1
:103600000DF106018DF8064002F03CF92C7002B075
:10361000B0BDE06900250DF107018DF8075002F0FB
:1036200031F9A56102B0B0BDF0B581B00B7813F0EF
:103630000102D1E9012604BF4E1C5A08EAB1044632
:10364000B7180DF1030502E00136B74215D0317805
:10365000E0688DF80310294600224FF0FF3304F094
:1036600069F90028F0D16068818921F00401818125
:10367000818941F080018181E6E701B0F0BD000061
:1036800080B582B0D0E901100022898800238DF82E
:1036900007100DF1070104F04DF902B080BD0000E4
:1036A000B0B50C460546FFF777FE4CF2DC20C0F6BD
:1036B00000000830C5E9000400202874C5E90500B1
:1036C000E86180200121002204F016F9E8608020E2
:1036D0000121002204F010F901462846A960B0BD7E
:1036E00080B500F005F8BDE8804003F023BB000082
:1036F00010B504464CF2DC20C0F6000000F10801D1
:10370000E068216004F0A8F8A06804F0A5F804F1CE
:10371000140002F016FB2046BDE81040FFF746BE3D
:1037200070B584B0054600200390CDE9010008463D
:103730000C4602F0ABF801AE02463046214602F0DC
:1037400047F928683146C26828469047304602F05B
:10375000F8FA284604B070BD10B504460068C26887
:1037600020469047204610BD2DE9F04387B08046A3
:1037700000200D46069055F8044B0590A542049094
:103780003AD001AE04AF0FF28C0901E0A54233D06C
:10379000217C384602F06DFA6169304603F062FA26
:1037A0009DF8040010F00101DDE9022104BF711C45
:1037B0004208384602F03FF9304602F0C2FA384675
:1037C000494602F02BF9606830B100BF044600683A
:1037D0000028FBD1DAE700BF204650F8081F0A682E
:1037E000A2420C46D2D000BF0168084650F8084FEC
:1037F00022688A42F8D1C9E7D8F8000004ACC26850
:10380000404621469047204602F09BFA404607B0CA
:10381000BDE8F083200000002DE9F04F8BB000F1EF
:10382000100704463846059103F0BAF804F11C0B62
:10383000584603F0B5F804F13400039003F0B0F8F3
:1038400004F14000029003F0ABF8A16808AD2846EF
:10385000FFF7FCFB3846294603F0D2F8284603F070
:10386000C7F858463946049701F0E4FBD4F81080B5
:1038700004F11407474570D005980430019001E029
:1038800047456AD0C24660681AF8101FFFF74AFD24
:10389000616805460846FFF76DFD4068A84242D0C2
:1038A0000598514603F06AF881460198484516D0BC
:1038B0005E46A5689AF800B03046514603F05EF8BF
:1038C0004069D9F814100A1828465946B346FFF73C
:1038D0007FFB05463046514603F050F84561584697
:1038E000514603F04BF845690498514603F046F8F9
:1038F00040699AF80010281A8DF8181008AD03993D
:1039000006AE079028463246334603F017F89AF879
:10391000000002998DF818000020079028463246D2
:10392000334603F00BF8D8F8040028B1804600684D
:103930000028FBD1A4E700BF404650F8081F0A68E2
:10394000424588469CD000BF0168084650F8088F61
:10395000D8F800208A42F7D192E720680168204613
:1039600088470BB0BDE8F08F2DE9F04F8DB000F126
:10397000100604463046059103F012F804F11C07C6
:10398000384603F00DF804F13400039003F008F812
:1039900004F14000029003F003F8A1680AAD284644
:1039A000FFF754FB3046294603F02AF8284603F077
:1039B0001FF838463146049601F03CFBD4F81080DD
:1039C00004F114004045079079D005980430019027
:1039D00003E000BF0798404571D0C24660681AF8FE
:1039E000101FFFF79FFC616805460846FFF7C2FC01
:1039F0004068A84249D00598514602F0BFFF814671
:103A0000019848451DD0A0689AF800B00690384645
:103A1000514602F0B3FF4269D9F81430E0689AF8D1
:103A200000103E469F18FFF705FB3A1A06985946C4
:103A30003746FFF7CDFA05463046514602F09EFF65
:103A400045613846514602F099FF45690498514650
:103A500002F094FF40699AF80010281A8DF820109F
:103A60000AAD039908AE099028463246334602F063
:103A700065FF9AF8000002998DF820000020099057
:103A800028463246334602F059FFD8F8040028B1E0
:103A9000804600680028FBD19CE700BF404650F8F4
:103AA000081F0A684245884694D000BF016808464E
:103AB00050F8088FD8F800208A42F7D18AE72068AA
:103AC0000168204688470DB0BDE8F08F5043494358
:103AD0004000B1FBF0F070470128D8BF01204FF43F
:103AE0007A725043B0FBF1F0704700000000000014
:103AF0002DE9F041069C90460D46074610461946B2
:103B000022461E46FFF7E2FFAF4288BF2F4687429C
:103B100005DD30462146BDE8F041FFF7DDBF781CEA
:103B200008FB00F0400007F0A8FC054620460E46C2
:103B300007F0BAFC02460B462846314607F0ACFABD
:103B400041EC100B06F0CCFF51EC100B9FED040B79
:103B500053EC102B07F0F8FC07F062FCBDE8F08195
:103B60000000000000408F40B0B582B0DDE906548F
:103B70000094FFF7BDFFB5FBF0F002B0B0BD000050
:103B800010B582B004464CF21830C0F60000083080
:103B900084E80F0004F1100001F044FA04F11C0065
:103BA00001F040FA04F1280001F03CFA04F134007D
:103BB00001F038FA04F1400001A902F011FF20469B
:103BC00002B010BD4CF22431C0F600010831016092
:103BD000704700002DE9F04F91B08346002010900F
:103BE000CDE90E0003F0F8FD06464FF0FF300BF173
:103BF0002805CBF84C00284602F0D2FE0BF11C0140
:103C00002846069101F016FADBF80400FFF7A6FB40
:103C1000DBF84C50022DC0F0DD800BF14000089025
:103C20000BF144000BF1140707900BF13400CDE9C0
:103C300004071CE0DBF808100BAE3046FFF706FA6D
:103C40000698314601F0F8F90546304602F0D0FEFC
:103C5000002D1CBF0020CBF84C00039E01363046DF
:103C600003F08EFDDBF84C50012D40F2B38003963B
:103C7000DBF81060B742DDD0B146DBF8040019F87C
:103C8000101FFFF74FFBDBF8041005460846FFF74F
:103C900071FB4068A84200F085800898494602F010
:103CA0006DFE04460798A0427CD0DBF80800317C0A
:103CB000D4F81480FFF7BEF97169471A48BF7F42F4
:103CC000DBF80800317CFFF7FDF997FBF0F506986B
:103CD000494602F053FE4769DBF80800317CFFF7E4
:103CE000A9F93F1ACDE9095848BF7F42DBF808001F
:103CF000317CFFF7E7F997FBF0F8DBF80400317C43
:103D0000FFF72EFB016809698847DBF80420317C46
:103D100082461046FFF724FB016849698847DBF8B3
:103D20000820317C5D4683461046FFF7CBF90746F5
:103D300042F2107000900998414652465B46019746
:103D4000FFF712FF0A99814204D26069059F013092
:103D5000AB4626E0049F4946384602F00FFE406914
:103D600001280ADB686899F80010AB46FFF7F8FAFB
:103D7000016809688847059F12E03846494602F005
:103D8000FDFD4069059FB0F1FF3FAB4608DCDBF865
:103D9000040099F80010FFF7E3FA016849688847C2
:103DA00001206061706828B1064600680028FBD1D8
:103DB00060E700BF304650F8081F0A68B2420E465E
:103DC0003FF458AF0168084650F8086F32688A42DD
:103DD000F8D14FE70EA801F0B4FF284611B0BDE8B6
:103DE000F08F000080B5FFF7CBFE4CF24831C0F6F3
:103DF00000010831016080BD40680168896808479A
:103E000040680168896A084780B549680A68D26ACB
:103E1000904780BD40680168096B084740680168A9
:103E2000C969084740680168496A084740680268EC
:103E3000D268104740680168096A084710B50C4607
:103E4000FFF7AAFA4CF25431C0F600010831C0E97C
:103E5000001410BD80B5FFF7A9FABDE8804002F05C
:103E600069BF0000406802685269104740680268F4
:103E700012691047406802689269104740680268FA
:103E8000526A104710B5044680684FF0FF3103F0C6
:103E900073FD18B960680168496B8847A068BDE880
:103EA000104003F0B9BD000010B5044680684FF023
:103EB000FF3103F061FD18B960680168C96A88477D
:103EC000A068BDE8104003F0A7BD0000406801688D
:103ED00089690847406801680969084740680168BE
:103EE00049690847B0B5044680680D464FF0FF3178
:103EF00003F042FD08B1002505E060680168CA6B67
:103F0000294690470546A06803F086FD2846B0BDC7
:103F1000B0B5044680684FF0FF3103F02DFD08B1C5
:103F2000002504E060680168896B88470546A06841
:103F300003F072FD2846B0BDB0B5044680680D465A
:103F40004FF0FF3103F018FD08B1002505E060686F
:103F500001684A6C294690470546A06803F05CFD5D
:103F60002846B0BDB0B5044680684FF0FF3103F07D
:103F700003FD08B1002504E060680168096C88470A
:103F80000546A06803F048FD2846B0BD10B50446BC
:103F900080684FF0FF3103F0EFFC18B960680168EA
:103FA000096B8847A068BDE8104003F035BD0000EC
:103FB00040680168096A084780B549680A689268DC
:103FC000904780BD40680168C9690847406801683A
:103FD000C9680847B0B5044680680D464FF0FF3108
:103FE00003F0CAFC20B9606801688A6A29469047D4
:103FF000A068BDE8B04003F00FBD0000B0B50C46AE
:104000000546FFF7D5F94CF29030C0F600000830B5
:10401000C5E90004002003F0E5FC01462846A9603C
:10402000B0BD000080B500F005F8BDE8804002F0AA
:1040300081BE000010B504464CF29030C0F600007E
:1040400000F10801A068216003F0B2FC2046BDE841
:104050001040FFF7B7B900002DE9F04F81B02DED0A
:10406000048B92B00446FFF7DDFE2046FFF7C8FE42
:10407000002800F0B5840DF134094846214600942B
:10408000FFF7C2FE0DF1280A5046494601F03CF9FF
:10409000484601F056FE4CF2EF54C0F600044FF0D3
:1040A00000082046CDF82480CDE9078801F0EEFB1A
:1040B000024607A8214601F08BFC4CF2106B9DF8DC
:1040C0002870C0F6000BDDE90B54584617F00106C6
:1040D0000AF1010A08BF544601F0D8FB002800F09D
:1040E000A080002E08BF7D0867190BEB0003204657
:1040F00039465A4601F0BEFEB8421CBF001B10F103
:10410000010040F08E804CF207689DF82850C0F600
:104110000008DDE90B74404615F0010608BF54465F
:1041200001F0B4FB002800F0A580002E08BF6F0846
:10413000274408EB000320463946424601F09AFE28
:10414000B8421CBF001B10F1010040F093804CF2FC
:10415000F6589DF82850C0F60008DDE90B7440467B
:1041600015F0010608BF544601F090FB002800F04E
:104170004C82002E08BF6F08274408EB000320463E
:104180003946424601F076FEB8421CBF001B10F1D2
:10419000010040F03A824CF2FF589DF82850C0F6DA
:1041A0000008DDE90B74404615F0010608BF5446CF
:1041B00001F06CFB88B1002E08BF6F08274408EBA4
:1041C000000320463946424601F054FEB8421CBF67
:1041D000001B10F1010000F0F4834CF2FF589DF831
:1041E0002850C0F60008DDE90B74404615F00106C2
:1041F00008BF544601F04AFB002800F01084002E4E
:1042000008BF6F08274408EB0003204639464246A2
:1042100001F030FE041BB84208BF4FF0FF3400F03D
:10422000FFBB04A80DA902F00BFACDE90188CDF877
:104230000C804CF210689DF82860C0F60008DDE99B
:104240000B74404616F0010508BF544601F01EFBF2
:10425000E0B3002D08BF7708E61908EB00032046FD
:104260003146424601F006FE011BCA1DB04208BF9E
:1042700006222CE004A80DA902F0E2F94CF207682E
:1042800000209DF82860C0F60008CDE901000390E9
:10429000DDE90B74404616F0010508BF544601F0F5
:1042A000F5FA002800F0D581002D08BF7708E6193F
:1042B00008EB000320463146424601F0DBFD011BBE
:1042C00001F10802B04208BF0722C3E107220AAC8D
:1042D000DDF800802046002101F04FFB0DAE304696
:1042E000214600F055FF04AD2846314602F0B8F9EA
:1042F000304602F0ADF90698002800F05C83DDE955
:10430000020188420DD20DA801A9012202F030FC61
:104310000E994FF0405241F8042B0E9102F030FC00
:104320002FE0DDE9010101AC081A012101EBA00633
:10433000204601F083FAB042C0F0AE8301460198F6
:10434000039A121A9310B3EB510F04F1080304D22D
:10435000B6EB620F98BF56103146029A0DAC101A98
:104360008210204601F052FD0F984FF0405140F866
:10437000041B0F9001A8214602F006FC204601F024
:104380005FFDDDE9020188420CD20DA801A90122DE
:1043900002F0EEFB0E99022241F8042B0E9102F07E
:1043A000EFFB2EE0DDE9010101AC081A012101EB70
:1043B000A006204601F042FAB042C0F06D830146EB
:1043C0000198039A121A9310B3EB510F04F10803EA
:1043D00004D2B6EB620F98BF56103146029A0DAC6C
:1043E000101A8210204601F011FD0F98022140F8AA
:1043F000041B0F9001A8214602F0C6FB204601F0E5
:104400001FFDDDE90201069E88420BD20DA801A91D
:10441000012202F0ADFB0E9941F8046B0E9102F0FF
:10442000AFFB2DE0DDE9010101AC081A012101EB30
:10443000A007204601F002FAB842C0F02D830146E1
:104440000198039A121A9310B3EB510F04F1080369
:1044500004D2B7EB620F98BF57103946029A0DACE1
:10446000101A8210204601F0D1FC0F98214640F826
:10447000046B0F9001A802F087FB204601F0E0FCDE
:10448000049E05F1040A564500F0BC800DF1040BB2
:104490009FEDE58B0BF108090DAF012503E000BF8F
:1044A000564500F0AF80DDE90201347C88420DD230
:1044B00038465946012202F05BFB0E9840F8044B47
:1044C0000E90384602F05CFB2DE000BFDDE90101F3
:1044D000081A05EBA008584601F0B0F94045C0F0B5
:1044E000DB8201460198039A121A9310B3EB510F25
:1044F00005D2B8EB620F98BF4FEA62084146029AB4
:104500004B46101A8210384601F080FC0F9839464D
:1045100040F8044B0F90584602F036FB384601F045
:104520008FFCDDF80080D8F80C00317C96ED069BFE
:10453000FEF774FD06F0A1FFB0EE480A41EC110B46
:10454000F0EE680A05F0A4FC53EC102B51EC190BAB
:1045500006F0FAFF06F034FFDDE90212044691424C
:104560000CD238465946012202F002FB0E9840F860
:10457000044B0E90384602F003FB2BE0DDE901010D
:10458000081A012101EBA005584601F057F9A8428D
:10459000C0F0828201460198039A121A9310B3EB7D
:1045A000510F04D2B5EB620F98BF55102946029AFD
:1045B0004B46101A8210384601F028FC0F983946F5
:1045C00040F8044B0F90584602F0DEFA384601F0EE
:1045D00037FC0125706828B1064600680028FBD129
:1045E0005EE700BF304650F8081F0A68B2420E4628
:1045F0003FF456AF0168084650F8086F32688A42A7
:10460000F8D14DE7D8F80800CAE14CF2F6589DF809
:104610002850C0F60008DDE90B74404615F001068D
:1046200008BF544601F032F9002800F0DF81002E67
:1046300008BF6F08274408EB00032046394642466E
:1046400001F018FC011B01F10804B84208BF07245F
:10465000CDE108220AACDDF800B02046002101F0CF
:104660008CF90DAE3046214600F092FD04AD28468F
:10467000314601F0F5FF304601F0EAFF06980028C8
:1046800000F09981DDE9020188420DD20DA801A94F
:10469000012202F06DFA0E994FF0405241F8042BBE
:1046A0000E9102F06DFA2FE0DDE9010101AC081A6C
:1046B000012101EBA006204601F0C0F8B042C0F095
:1046C000EB8101460198039A121A9310B3EB510F34
:1046D00004F1080304D2B6EB620F98BF56103146BE
:1046E000029A0DAC101A8210204601F08FFB0F9831
:1046F0004FF0405140F8041B0F9001A8214602F0F2
:1047000043FA204601F09CFBDDE9020188420CD20D
:104710000DA801A90122012402F02AFA0E9941F8FC
:10472000044B0E9102F02CFA2EE0DDE9010101AC00
:10473000081A012101EBA006204601F07FF8B042E3
:10474000C0F0AA8101460198039A121A9310B3EBA4
:10475000510F04F1080304D2B6EB620F98BF561054
:104760003146029A0DAC101A8210204601F04EFB21
:104770000F98012140F8041B0F9001A8214602F078
:1047800003FA204601F05CFBDDE90201069E884247
:104790000BD20DA801A9012202F0EAF90E9941F805
:1047A000046B0E9102F0ECF92DE0DDE9010101ACA2
:1047B000081A012101EBA007204601F03FF8B8429A
:1047C000C0F06A8101460198039A121A9310B3EB64
:1047D000510F04F1080304D2B7EB620F98BF5710D2
:1047E0003946029A0DAC101A8210204601F00EFBD9
:1047F0000F98214640F8046B0F9001A802F0C4F90D
:10480000204601F01DFB049E05F1040A564500F008
:10481000C5800DF104099FEDA28B09F108050DF18A
:10482000340808E000BF00BF000000000000244082
:10483000564500F0B380DDE90201347C88420DD298
:1048400040464946012202F093F90E9840F8044B85
:104850000E90404602F094F92EE000BFDDE9010120
:104860005F46081A012101EBA00B484600F0E6FF65
:104870005845C0F0118101460198039A121A93100D
:10488000B3EB510F05D2BBEB620F98BF4FEA620B3F
:104890005946029A2B46101A8210404601F0B6FA89
:1048A0000F98414640F8044B0F90484602F06CF9CF
:1048B000404601F0C5FABB46DBF80C00317C96EDB2
:1048C000069BFEF7ABFB06F0D8FDB0EE480A41ECC4
:1048D000110BF0EE680A05F0DBFA53EC102B51ECEB
:1048E000190B06F031FE06F06BFDDDE902120446FD
:1048F00091420DD240464946012202F039F90E9804
:1049000040F8044B0E90404602F03AF92DE000BF0B
:10491000DDE901012F46081A012101EBA0054846F7
:1049200000F08CFFA842C0F0B78001460198039ABE
:10493000121A9310B3EB510F04D2B5EB620F98BF6C
:1049400055102946029A3B46101A821040463D46B1
:1049500001F05CFA0F98414640F8044B0F9048462E
:1049600002F012F9404601F06BFA706830B100BFF6
:10497000064600680028FBD15AE700BF304650F8D1
:10498000081F0A68B2420E463FF452AF016808465B
:1049900050F8086F32688A42F8D149E7DBF808001E
:1049A00001684A6801A990474CF2EA51C0F600013B
:1049B00007A801F0B0F801A801F0ECF904A801F093
:1049C00047FE009D07AC28462146FFF72FFA2846F0
:1049D000FFF720FA204601F0B4F90AA801F0B1F976
:1049E00012B0BDEC048B01B0BDE8F08F0824009E2E
:1049F0000AA8214600F0B1FF00783F2806D107AC95
:104A00002BA1204601F087F8316917E00AAD28464E
:104A10000021224600F0B1FF3069294632E000242F
:104A2000E11D0AA800F099FF0078009D3F2820D1E1
:104A300007AC1DA1204601F06EF8E9684846FEF774
:104A40004FFB9DF834000E9A10F001010F9904BF3E
:104A500009F101014208204600F0EDFF484601F04F
:104A600070F94CF2F351C0F60001204600F0D6FF79
:104A7000A7E704F108020AAC2046002100F07DFF00
:104A8000E8682146FEF7A4FB4CF2EA51C0F60001AB
:104A900007A801F040F894E701A800F0BAFE00BFB3
:104AA000000000000000244050485943200000004E
:104AB000424153454320000070B5049E1C461546F4
:104AC000FFF7BCF94CF2E031C0F60001083101609B
:104AD000C0E90254066170BD80B5FEF767FCBDE811
:104AE000804002F027B900000079704701717047DB
:104AF0004069006870470000D0E905214B68043226
:104B00009A42426118BF70470968416170470000CE
:104B10000229016105D0012906D041B900F11C012B
:104B200004E000F1340101E000F1280181618169B4
:104B30000968416170470000D0E905210B689A427D
:104B40000CBF49684169043941617047C068016818
:104B5000C968084780680168C96808472DE9F04FAF
:104B60008BB0CDE901238A460746FFF72BF84CF2BC
:104B70001C40C0F60000083038600120039003207C
:104B80004FF0020800253C460490CDF814800695AD
:104B900044F81C5F20460421C7E9085501F0B6FF20
:104BA0000DF10C0B0BF11009204659464A4604231F
:104BB00001F0C4FF4CF24C50C0F6000090E85E508B
:104BC000C06906943C460391049205930796CDF87C
:104BD00020C0CDF824E00A9044F8285F2046082140
:104BE000C7E90B5501F092FF0BF120022046594610
:104BF000082301F0A3FF3C46CDE90388CDE90588F1
:104C000044F8345F20460421C7E90E5501F07EFFC9
:104C1000204659464A46042301F090FF0198029924
:104C2000C7F808A0F8603846FFF772FF38460BB0A7
:104C3000BDE8F08F00000000B0B52DED028B0446FA
:104C4000C068022826D120690168C968884721699F
:104C500005460A680846D2699047033806F00DFCFD
:104C60009FED2B0B41EC110B05F012F9A068B0EE93
:104C7000408AF0EE608A06F000FC02460B4651ECDA
:104C8000180B06F061FC06F09BFB95FBF0F101FBB5
:104C9000105060B3204600F0E1F8E068012826D10A
:104CA00020690168C9688847216905460A6808467D
:104CB000D2699047033806F0E0FB9FED150B41ECFD
:104CC000110B05F0E5F8A068B0EE408AF0EE608ABE
:104CD00006F0D3FB02460B4651EC180B06F034FCF1
:104CE00006F06EFB95FBF0F101FB105058B1206906
:104CF0000168096C884760690168096CBDEC028B2A
:104D0000BDE8B0400847BDEC028BB0BD00BF00BF9E
:104D10000000000000002440B0B52DED028B0446D9
:104D2000C068022826D120690168C96888472169BE
:104D300005460A680846D2699047033806F09DFB8D
:104D40009FED2B0B41EC110B05F0A2F8A068B0EE23
:104D5000408AF0EE608A06F090FB02460B4651EC6A
:104D6000180B06F0F1FB06F02BFB95FBF0F101FBB5
:104D7000105060B3204600F075F8E068012826D195
:104D800020690168C9688847216905460A6808469C
:104D9000D2699047033806F070FB9FED150B41EC8C
:104DA000110B05F075F8A068B0EE408AF0EE608A4D
:104DB00006F063FB02460B4651EC180B06F0C4FBF1
:104DC00006F0FEFA95FBF0F101FB105058B1206996
:104DD0000168896B884760690168896BBDEC028B4B
:104DE000BDE8B0400847BDEC028BB0BD00BF00BFBE
:104DF00000000000000024402DE9F041DDE90687B5
:104E00001D461646044600F039F84CF24040C0F604
:104E1000000008302060F1B22046C4F8148000F091
:104E200015F8002F256101DD012105E0C7F1000023
:104E300018BF0127790007462046A760E160BDE85A
:104E4000F081000040680168C9680847406802684E
:104E5000926810474068016889690847406801689E
:104E60000968084740680168496808474068016860
:104E700049690847406801680969084710B50C4648
:104E8000FEF7A0FE4CF26441C0F600010831C0E913
:104E9000001410BD10B50446FFF7E0FF2046BDE842
:104EA000104000F001B800002DE9F04184B000216D
:104EB000CDE90211044680680191D0E900128A42CE
:104EC00024D004F10C080026314601F0E9FD01462A
:104ED000404601F063FA07462046FFF7BBFF20FA81
:104EE00006F1A06801F00105314601F0D9FD4068E6
:104EF0007A6905FA00F1A0685368D0E90075194392
:104F0000EB1B0136B6EBE30F5160DDD3E26804F131
:104F10001000824228D04FF0000C01E0824223D0E2
:104F2000D2E9047653687D69D6E9004125EA040593
:104F300041EA05017961C6F804C02BB11A461B6825
:104F4000002BFBD1EAE700BF134653F8081F0F6898
:104F500097420A46E2D000BF19680B4653F8082F63
:104F600017688F42F8D1D9E701A800F0EAFE04B033
:104F7000BDE8F08110B50446FFF774FF2046BDE898
:104F80001040FFF791BF00002DE9F04F87B01646A3
:104F90008146FFF773FF4CF28840C0F600000830EE
:104FA00009F10C05C9F8000005A92846C9F80860F0
:104FB00001F006FAD6E90047BC422ED009F11006EE
:104FC0000DF1080B4FF00108EA4609E0406903992A
:104FD000026808FA01F1114301600834A7421CD0AD
:104FE000D4E90010CDE902102846594601F0D6F95F
:104FF0008642EBD1082001F09FFEDDE9022100236B
:1050000008FA01F1C0E90013CDE9002005A82946FE
:105010005246534601F0A2F9DFE7484607B0BDE823
:10502000F08F000080B582B001A901F0D9FC02B078
:1050300080BD000001F0EABCF0B581B00C46054629
:105040008068896888422BD155F8047BBD4227D0FF
:10505000261D01E0BD4223D007F11001204601F0DA
:105060008DFC86421FD04069796988421BD17868DF
:1050700030B100BF074600680028FBD1EAE700BF57
:10508000384650F8081F0A68BA420F46E2D000BFFF
:105090000168084650F8087F3A688A42F8D1D9E793
:1050A000012001B0F0BD002001B0F0BD70B5054693
:1050B00000200C46C5E90000A86008461146002201
:1050C00000F08BFB461C0AD135E000BF204631467C
:1050D00000F043FC0178284600F0CBFD0136207833
:1050E000C1070CBF40086068864224D22046314682
:1050F00000F033FC0078302806D32046314600F01B
:105100002CFC00783A28E1D32046314600F025FCFB
:1051100000782D28DAD02046314600F01EFC0078B9
:105120002B28D3D02046314600F017FC00782E28DB
:1051300018BF70BDCAE770BD10B52DED028B84B0ED
:1051400001ACB0EE408A0A4601462046F0EE608A85
:10515000FFF7ACFF9DF80400029A10F0010108BFB0
:1051600042084AB10398002908BF601C04F00CFEF5
:10517000B0EE408AF0EE608A01A800F0E2FDB0EEE9
:10518000480AF0EE680A04B0BDEC028B10BD0000C6
:105190002DE9F0478AB06F468A4600253946804699
:1051A0000795CDE9055501F04BFA05A8461C612489
:1051B0000DF1200903E000BF01347A2C4AD0E2B29D
:1051C00038465146FFF772FF9DF81400C00709D119
:1051D000304649468DF8205000F054FB8DF81450AD
:1051E00007E000BF079849468DF8205000F04AFBC1
:1051F00006959DF81400C00706D00599079821F080
:10520000010100F033FE05950299DDE900020791E6
:10521000CDE905023846CDE90055029500F091FD33
:105220009DF81400069A10F0010108BF4208002AF8
:10523000C2D00798002908BF304604F0A5FD4846B3
:1052400041463A463B468DF800408DED020B01F099
:10525000C3F9B1E741256F4600240DF1200902E0B2
:1052600001355A2D4AD0EAB238465146FFF71EFFA3
:105270009DF81400C00709D1304649468DF82040FA
:1052800000F000FB8DF8144007E000BF0798494686
:105290008DF8204000F0F6FA06949DF81400C0073F
:1052A00006D00599079821F0010100F0DFFD059473
:1052B0000299DDE900020791CDE905023846CDE902
:1052C0000044029400F03DFD9DF81400069A10F091
:1052D000010108BF4208002AC2D00798002908BF70
:1052E000304604F051FD484641463A463B468DF86B
:1052F00000508DED020B01F06FF9B1E705A800F049
:1053000020FD0AB0BDE8F08700F0E5BCC2698A4222
:10531000DCBF1046704780698842B8BF08467047B6
:105320000269C1698A4204DA81698A42D8BF01618F
:1053300070470161704700004169016170470000DA
:10534000006A704780697047C06970470269836965
:10535000511A9942B2BF002001610120704700003C
:105360000169026A8369891A9942B2BF002001610A
:10537000012070470269C36911449942CEBF0020E1
:1053800001610120704700000169D0E90732114432
:105390009942CEBF002001610120704710B504463C
:1053A0000068416B204688472069216A90FBF1F034
:1053B0004843206110BD00004069704780B504314A
:1053C00000F089FC80BD0000406A704700697047AA
:1053D000016170472DE9F04F81B0DDE90A98DDE900
:1053E0000CBA1C4615460E460746FDF7E1FF4CF287
:1053F000AC40C0F600000830386000213846C7E9EC
:10540000021140F8041F314600F0A5FCC7E904541E
:10541000C7E906BAC7F820903868C7F82480016B3E
:1054200038468847384601B0BDE8F08F80B500F0B7
:1054300005F8BDE8804001F07DBC000010B50446D1
:105440004CF2AC40C0F6000000F10801204640F8E4
:10545000041B00F076FC2046BDE81040FDF7B2BF0B
:105460007047704770B51546059A0E4689681C4608
:105470003AB188420AD040684968FBF7D5FA28B1AA
:1054800070BD40684968884218BF70BD31462A46E1
:105490002346BDE8704000F074B82DE9F04116468F
:1054A000069A0C4689689846074682B18F422FD0EB
:1054B0007D6849682846FBF7B7FA48B320688742F9
:1054C0000DD041682846FBF7AFFA20BB07E07868AB
:1054D000496888421CD02168496888421BD12069EC
:1054E000B04223D06069B04220D0C4F82080666109
:1054F000D4E9091001300129A06205D1A069022870
:1055000004BF012084F836000420E062BDE8F08189
:105510006068B04201D0BDE8F081E06901281CBF9D
:10552000C4F81C80BDE8F081BDE8F081B8F1010F3E
:1055300018BFBDE8F08101202062BDE8F08180B590
:10554000D1F808C0D0F804E0DCF80400864518BFA4
:1055500080BD086950B190420DD0486A0130486260
:1055600002208861012081F8360080BD01200A6197
:105570008B61486280BD8869022804BF8B6180BD51
:1055800080BD80B548684FF0010E984281F835E043
:1055900019D10B69DDF808C081F834E02BB19342D2
:1055A00012D0486A013048620AE00120BCF1010FC4
:1055B0000A61C1F818C0486205D1086B012802D100
:1055C000012081F8360080BD8A69022A04BFC1F833
:1055D00018C06246086B012818BF80BD012AEFD0B1
:1055E000F1E72DE9F0418EB0074640684B689842DC
:1055F00029D04BF6E8731546C0F600034BF6F4725B
:10560000C0F60002084619460023002401F0D9FB29
:10561000D0B106468DE891004FF0FF30E846039088
:1056200008F110002721FAF7BDFF01200C90306827
:105630002A68C769304641460123B84706980128C1
:1056400002D104982860012420460EB0BDE8F08104
:105650002DE9F04383B0DDE90A940E468968984647
:105660001546074674B18F4204D078684968FBF745
:10567000DBF958B931462A46434603B0BDE8F0434A
:10568000FFF77FBF786849688842F3D0B8682A4638
:10569000016843464F693146CDF800900194B84700
:1056A00003B0BDE8F0832DE9F04383B0DDF8289026
:1056B0000C46896898461546B9F1000F074630D068
:1056C0008F4240D07E6849683046FBF7ADF9D0B3D1
:1056D0002068874204D041683046FBF7A5F940BBFB
:1056E0002069A84238D06069A84235D0E06AC4F881
:1056F0002080042838D00020A086B8682A46016897
:105700002B464F69012100912146CDF80490B847FE
:1057100094F8350030B394F834000321E16280BB83
:1057200022E07868496888420DD02168496888423B
:10573000D6D0B8682A46016843468F692146CDF81D
:105740000090B8471DE06068A8421AD1E0690128BE
:1057500018BFC4F81C8014E0B8F1010F04BF012089
:1057600020620EE00420E0626561D4E90910013096
:105770000129A06205D1A069022804BF012084F894
:10578000360003B0BDE8F08380B5D1F808C0D0F88A
:1057900004E0DCF804C0E64507D08068D0F800C01B
:1057A000DCF81CC0BDE880406047086950B19042F9
:1057B0000DD0486A0130486202208861012081F8DA
:1057C000360080BD01200A618B61486280BD886916
:1057D000022804BF8B6180BD80BD10B50378DC0753
:1057E00006BF441C5B08D0E9013493429CBF4FF0D4
:1057F000FF3010BD9B1A05D0A0181A46FAF727FEF5
:10580000014600E00021081B002908BF4FF0FF30CF
:1058100010BDFAF7C1FDFAF7BFFD00000430704774
:105820000430704704307047043070476FF06040B8
:10583000704700006FF04040704700006FF040403C
:1058400070470000014600BF084609680029FBD1E7
:105850004168002908BF7047F6E700007047000064
:10586000002904BF00207047B0B5054610780C46EB
:10587000FFF7F4FF014628462246BDE8B040FAF79C
:10588000E6BD00000978017070470000FAF7C0BD5E
:10589000002A0CBF0020FAF78FBD70472DE9F04FAA
:1058A00081B00D466FF01101491B914253D304465C
:1058B0000078DDF828B0C0070CBF601CA06800901D
:1058C0004FF6E670C7F6FF701F4685420CD8501998
:1058D000B0EB450F38BF68000B2826BF103020F012
:1058E0000F084FF00B0801E06FF01008DDF830A052
:1058F000404601F021FABBF1000F064604D00099A2
:1059000030465A46FAF7ADFDDDF82C90BAF1000F9B
:1059100005D00D9906EB0B005246FAF7A2FDA7EB56
:105920000907B7EB0B0207D0009906EB0B005944AF
:1059300050444944FAF795FD0A2D02D0009801F031
:10594000F9F948F0010007EB0A0143C40020705444
:1059500001B0BDE8F08FFAF71FFD037813F00102E4
:105960000CBF5B0843688B4205D9002A0CBF01308D
:10597000806808447047FAF70FFDF0B581B004461F
:105980000078154610F001020CBF460866688E428A
:105990001CD3C5B1002AA6EB01020CBF671CA76887
:1059A000AA4238BF1546521B04D078184119FAF79D
:1059B000EFFF2078C007A6EB050006BF410021706D
:1059C000606000213954204601B0F0BDFAF7E4FCD4
:1059D000F0B581B012F1100F1ED214460E460546E6
:1059E0000B2A04D2600005F8010B64B910E004F141
:1059F000100020F00F07384601F09EF9791CC5E928
:105A00000014A8600546284631462246FAF729FDCB
:105A10000020285501B0F0BDFAF7BEFCB0B5054630
:105A200008460C46FAF7F4FC024628462146BDE833
:105A3000B040AFF30080F0B585B00378044615465A
:105A400013F001008C4602D15E080A2104E0D4E97B
:105A5000001621F0010101398A1BAA420CD27019EB
:105A6000421A0020CDE90060204633460295CDF869
:105A70000CC0FFF713FF13E095B100280CBF671CA3
:105A8000A768B81961462A46FAF7EBFC2078C007E8
:105A900006EB050006BF410021706060002139540B
:105AA000204605B0F0BD2DE9F04184B0044671B345
:105AB000207890460D46C10702D147080A2105E02B
:105AC000D4E9000720F001010139C0B2CA1BAA4283
:105AD0000AD27819421A0020CDE9010020463B463F
