:020000040800F2
:10000000889A002059030008610300086303000870
:10001000650300086703000869030008000000008A
:100020000000000000000000000000009502000831
:100030006D030008000000002D0300083D030008C8
:1000400073030008730300087303000873030008B8
:1000500073030008730300087303000873030008A8
:100060007303000873030008730300087303000898
:100070007303000873030008730300087303000888
:100080007303000873030008730300087303000878
:100090007303000873030008730300087303000868
:1000A0007303000873030008730300087303000858
:1000B0007303000873030008730300087303000848
:1000C0007303000873030008730300087303000838
:1000D0007303000861270008730300087303000816
:1000E0007303000873030008730300087303000818
:1000F0007303000873030008730300087303000808
:1001000073030008730300087303000873030008F7
:1001100073030008730300087303000873030008E7
:1001200073030008730300087303000873030008D7
:1001300073030008730300087303000873030008C7
:1001400073030008730300087303000873030008B7
:1001500073030008730300087303000873030008A7
:100160007303000873030008730300087303000897
:100170007303000873030008730300080000000005
:100180007303000873030008730300087303000877
:100190007303000873030008730300087303000867
:1001A00073030008730300087303000800F002F8EB
:1001B00000F05DF80AA090E8000C82448344AAF1A4
:1001C0000107DA4501D100F052F8AFF2090EBAE8A2
:1001D0000F0013F0010F18BFFB1A43F0010318477B
:1001E000CC960000EC960000103A24BF78C878C185
:1001F000FAD8520724BF30C830C144BF04680C602D
:10020000704700000023002400250026103A28BF74
:1002100078C1FBD8520728BF30C148BF0B60704778
:10022000662908F0F287732900F0418600207047A4
:100230001FB508F0D5FF9DE8030000F0D7FB00F0E4
:10024000FBFE04000020002108F0AEF9401C6060B5
:100250000020002108F092F9E06000F0C5F91FBD10
:1002600010B5002000F047FE01F0C6FA10BD00F006
:10027000BEFE114603B404F01FFE03BCFFF7D8FF17
:1002800004F01CFE01F088FA03B4FFF7E9FF03BC99
:1002900000F0BCF91EF0040F0CBFEFF30880EFF381
:1002A0000980816911F8021C91BB01B590E80F101B
:1002B000E047BDE800508CE80300244B93E80600BB
:1002C000914208BF704741B91EF0100F10D120496C
:1002D000086820F0010008600AE02CE9F00F1EF029
:1002E000100F08BF2CED108AC1F838C081F822E049
:1002F0001A6092F82210906B61F0FF0E1EF0100F42
:1003000008BFB0EC108AB0E8F00F80F3098870479E
:10031000104A13689942FAD801B552F821C00FC8A3
:10032000E047BDE80050CCF80000704701B505F08B
:100330009DFABDE80140EFF3098CBEE701B505F079
:1003400027FDBDE80140EFF3098CB6E71800002057
:1003500034EF00E01098000809488047094800473A
:10036000FEE7FEE7FEE7FEE7FEE7FEE7FEE7FEE765
:10037000FEE7FEE704480549054A064B70470000C2
:100380005D260008AD01000888860020889A0020BC
:10039000889600208896002010B5002000F06FFAA3
:1003A000FFF75EFFBDE81040012000F02FB90B46BB
:1003B0000146184600F04CBA40EA010310B59B070D
:1003C0000FD1042A0DD310C808C9121F9C42F8D0BF
:1003D00020BA19BA884201D9012010BD4FF0FF3070
:1003E00010BD1AB1D30703D0521C07E0002010BD86
:1003F00010F8013B11F8014B1B1B07D110F8013B12
:1004000011F8014B1B1B01D1921EF1D1184610BDF2
:1004100010B5431C02E010F8011B71B18107FAD13D
:100420004FF0013202C88C1A8C4314EAC211F9D081
:10043000C01A0A0603D0C01E10BDC01A10BD0A049F
:1004400001D0801E10BD0902FCD0401E10BDCBB2F1
:100450002AB101788B4203D0401C521EF9D10020F2
:100460007047032A40F2308010F0030C00F0158032
:1004700011F8013BBCF1020F624498BF11F801CBA7
:1004800000F8013B38BF11F8013BA2F1040298BF0C
:1004900000F801CB38BF00F8013B11F0030300F076
:1004A0002580083AC0F0088051F8043B083A51F81A
:1004B00004CBA0E80810F5E7121D5CBF51F8043B1F
:1004C00040F8043BAFF30080D20724BF11F8013B92
:1004D00011F801CB48BF11F8012B24BF00F8013BF4
:1004E00000F801CB48BF00F8012B704710B5203A47
:1004F000C0F00B80B1E81850A0E81850B1E81850CF
:10050000A0E81850203ABFF4F5AF5FEA027C24BFA0
:10051000B1E81850A0E8185044BF18C918C0BDE889
:1005200010405FEA827C24BF51F8043B40F8043B52
:1005300008BF7047D20728BF31F8023B48BF11F807
:10054000012B28BF20F8023B48BF00F8012B704761
:100550004FF000020429C0F0128010F0030C00F0EC
:100560001B80CCF1040CBCF1020F18BF00F8012B6A
:10057000A8BF20F8022BA1EB0C0100F00DB85FEA38
:10058000C17C24BF00F8012B00F8012B48BF00F804
:10059000012B70474FF0000200B513469446964673
:1005A000203922BFA0E80C50A0E80C50B1F1200186
:1005B000BFF4F7AF090728BFA0E80C5048BF0CC034
:1005C0005DF804EB890028BF40F8042B08BF704792
:1005D00048BF20F8022B11F0804F18BF00F8012B04
:1005E000704770477047704770B5064C7C44064DA5
:1005F0007D4404E02046016808448047241DAC4245
:10060000F8D170BD1894000018940000014918201A
:10061000ABBEFEE72600020004F0FEBB0844401E0D
:10062000491E884370470821001DF7E72DE9F04176
:1006300017460E460446FFF7F6FFA042054633D99B
:10064000002F1CBF06F10C0004F00CFC304674684F
:10065000F4B12168A94217D305F1080291423CBFC9
:100660006168416007D3626861194A602268521B61
:100670000A6041602560002F1CBF06F10C0004F0E9
:1006800010FC201DBDE8F08120466468002CE0D1FC
:100690002946304600F096F90028D7D1002F1CBF1C
:1006A00006F10C0004F0FDFB0020BDE8F08110B560
:1006B000044600F079F901682046BDE810400122A7
:1006C000B4E770B516460D46041F002808BF70BD7C
:1006D000002E1CBF05F10C0004F0C4FB2B4658682B
:1006E000002818BFA04238BF0346F8D31968CA18BB
:1006F000A24218BF5C6003D122681C4611441960F5
:1007000021680A19824218BF606004D142686260A1
:10071000006808442060002E1CBF05F10C0004F0A6
:10072000C0FB70BD10B5044600F03EF901682046DC
:10073000BDE810400122C4E710B5FFF76DFF006867
:1007400010BD10B50446FFF767FF046010BD70B51B
:100750000C460546012A05D02878800600D5EA69AE
:10076000002302E0012305E05B1C934202D2E05C1F
:100770000028F9D1A869E618C01AA861286A1844A7
:1007800028622846AFF3008004E0D5E9012114F87F
:10079000010B9047B442F8D32846AFF3008070BDF8
:1007A0000FB40B0010B54FF000048AB00FA90091F0
:1007B0000E99CC60234C7C44234A7A44CDE906420E
:1007C00000D004236FF00042CDE901321F4A7A4481
:1007D0006B4608920246002008F079FD0AB010BC72
:1007E0005DF814FBF0B507464FF0FF301E46154686
:1007F0000C463B4685B06A460091CDE90101314681
:100800000020049004A8FFF7CBFF0499034660186A
:1008100025B109B1024600E022462A6000290ED027
:10082000002B02DD0099814209D03B466A463146E1
:10083000001B0094CDE9010404A8FFF7B1FF05B047
:10084000F0BD0000FD060000170700008B0200004D
:100850002DE9F041074615460E461020FFF727FF09
:1008600004000AD06760C4E9026500F0A2F80168DC
:10087000216004600020BDE8F0810120FBE710B595
:1008800000F060FBBDE8104000F056BB431A28BFE3
:100890009A427FF6E6AD10441144032A40F22680C6
:1008A00010F0030F1EBF11F8013D521E00F8013D6C
:1008B00010F0030F7FF4F6AF11F0030300F06D8327
:1008C000083AC0F00B8051F8043D083A51F804CDC5
:1008D00040F8043D40F804CDFFF7F3BF121D5CBFA4
:1008E00051F8043D40F8043DAFF30080D20724BF27
:1008F00011F8013D11F801CD48BF11F8012C24BFBA
:1009000000F8013D00F801CD48BF00F8012C704708
:1009100030B44FF0013C50F8042B51F8043BCCFAB2
:1009200052F4D51A20D1FCB950F8042B51F8043BED
:10093000CCFA52F4D51A17D1B4B950F8042B51F8A7
:10094000043BCCFA52F4D51A0ED16CB950F8042BF2
:1009500051F8043BCCFA52F4D51A05D1002CDAD068
:1009600030BC4FF00000704729BAB1FA81F111F0A4
:100970001801D1F120008440F2D1CA40CB4012F0DE
:10098000FF0213F0FF0330BCD01A704700487047D5
:10099000A80000207047000010B500F04DFB001DBE
:1009A00010BD00BF057C000010B5FFF7EFFF083059
:1009B00010BD10B5FFF7EAFF383010BD7047704723
:1009C0007047704738B504460A4600206946AFF3C1
:1009D0000080002808BF38BD02460099204600F07C
:1009E00037FB012038BD012000F0F8BEF8B5AFF3A9
:1009F0000080054600200C46102000BF0646A819BE
:100A0000A0420DD9324669460020AFF300800700AE
:100A100008BF00F0E3FE0098A04218BF0546C419C5
:100A2000FFF7C2FF05600746F01D20F007004619DA
:100A3000284600F00AF8B44208BFF8BDA21B3146B0
:100A40003868BDE8F84000F003BB00210160C0E950
:100A500001100C3004F016BA1020704710B504468F
:100A6000FFF79AFF0068005D00F0010010BD2DE95E
:100A7000FF4F0C461E464FF0FF378BB0D2E9000106
:100A8000DDF860800A908A46C1F30A5505B93D46F3
:100A9000002108464FF00000BAF1000F00F44000BA
:100AA00005DA00EB80004FF4400101EA50004FEA04
:100AB0009059B9F1010F00DDB9460A9850EA4A0091
:100AC0000ED044F61050A5F2FF3545432F14B8F16F
:100AD000000F1ED07542291E1EDDC9F100021CE068
:100AE000B8F1010F4FF0000001D0302103E0F243D4
:100AF00005E02154401CB042FBDB304600220021BF
:100B000021540B99C1F80880C1E900200FB0BDE85D
:100B1000F08FBD1B6D1CDEE74A4600DA694206A86D
:100B200000F0C8FD06AB93E8070003AB83E80700BD
:100B300050460A9906F037F88DE80700A0F50050F6
:100B40001F3800900398002D0ADD42F21F014A462B
:100B50000844002303A90390684606F0E3FA09E07D
:100B6000A0F500504A461F38002303A903906846A9
:100B700006F002FB8DE807000004000C03D04FF0E4
:100B8000FF30410800E01046B8F1000F03D000220A
:100B9000009215461EE0751E05D400F07BFA303237
:100BA00062556D1EF9D5B3460122084302D00022DA
:100BB0007F1C04E02078302801D100227F1E002A0B
:100BC000099784D01DE0112D07DA00F063FA303266
:100BD00062556D1C50EA0102F5D1084302D000981D
:100BE000C8B10EE00021681E05E0235C625C63541E
:100BF0002254401E491C8142F7DBAB46A81B401E15
:100C00000990002004F80B000B98099AC0F808809E
:100C1000C0E9002B7AE711264FF0000857E72DE9CD
:100C2000F04F88460446D21D22F0070191B0D1E969
:100C30000001CDE90A0106F0EBFB02460B98C00F5C
:100C400001D02D2007E02068810701D52B2002E08C
:100C5000202101EAC000032A099001D0072A05DB00
:100C600003464146204600F05BFA0BE120788006FF
:100C700001D5E06900E00620B8F1650F814606D095
:100C8000B8F1660F18D0B8F1670F70D131E00020CD
:100C9000B9F1110F009001DB112301E009F101030B
:100CA0000AAA01A90CA8FFF7E2FEDDE90C700026F4
:100CB00009F10105834647E001204B4600904FF0C3
:100CC00000470AAA01A90CA8FFF7D1FEDDE90DB083
:100CD0000C995D46002610B909F101000D18B9EB19
:100CE000050003D4C0F1FF3609F10105A5EB0900A9
:100CF0002BE0B9F1010F01DA4FF001090020B9F141
:100D0000110F0090484601DD112300E003460AAAB6
:100D100001A90CA8FFF7ABFEDDE90C704D460026DB
:100D20008346207800070AD4AB4500DA5D4601A867
:100D3000012D04DD411911F8011C302907D04F4560
:100D400002DA17F1040F04DA012082460FE06D1E6B
:100D5000EEE7002F02DCED1B3E4403E0781CA842C6
:100D600000DD7D1CB81B00F1010A4FF00047207820
:100D7000000703D4AA4501DB4FF0FF3A0021B7F189
:100D8000004F0DF143088DF8431024D002202B238F
:100D9000002F01DA7F422D230A21021EA0F101005B
:100DA00000DC5FB197FBF1FC97FBF1F201FB1C7CCF
:100DB00017460CF1300C08F801CDEEE7A8F1010060
:100DC00003702188090501D5452100E06521A0F1C6
:100DD000010800F8011C09980FA9A1EB0807FF1DE5
:100DE00000B10120411901EBEA70A1693844081AE9
:100DF000401EA0612078C00602D42046AFF30080D8
:100E0000099828B1D4E901219047206A401C20624A
:100E10002078C00622D52046AFF300801EE0002EC9
:100E200004DBB34502DD01A8805D00E03020D4E999
:100E300001219047206A401C2062761CAAF1010023
:100E40005FEA000A0AD100F0F7F8C0680168405C68
:100E5000D4E901219047206A401C2062281EA5F198
:100E60000105DCDC07E0D4E9012118F8010B90470B
:100E7000206A401C2062381EA7F10107F3DC2046DF
:100E8000AFF30080032011B041E610B5436913B100
:100E9000AFF3008001E0FFF75AFC012010BD12788B
:100EA00000F124010A7000224A700122EDE7116866
:100EB0004FF0FF32E9E7426842B1016811F8013BA7
:100EC00023B1521EC0E90012184670470121C160CB
:100ED000881E704742685AB1C368016843B9836885
:100EE0008B4205D0491E521CC0E9001200207047F9
:100EF0004FF0FF3070472DE9F0410646FFF759FDEE
:100F00008046454613E016B1E068B0420ED1206835
:100F10002860D4E90101D8F8007088472046FFF71F
:100F200001FCD8F80000B842EBD100E025462C685F
:100F3000002CE8D1BDE8F081002801D0FFF766BBA6
:100F40007047000010B5002102A000F02EFC012027
:100F500010BD0000534947414252543A2041626E4D
:100F60006F726D616C207465726D696E6174696F0A
:100F70006E000000431A28BF9A427FF6B7AA1044B9
:100F8000114410F0030F1EBF11F8013D521E00F86E
:100F9000013D10F0030F7FF4F6AF103AC0F00A8065
:100FA00010B531E9185020E91850103ABFF4F9AFE4
:100FB000BDE81040530724BF31E9081020E90810AC
:100FC00044BF51F8043D40F8043D12F0030F08BF40
:100FD0007047D20728BF31F8023D48BF11F8012CF5
:100FE00028BF20F8023D48BF00F8012C7047754625
:100FF000FFF7CCFCAE4605006946534620F00700DB
:10100000854618B020B5FFF7B5F9BDE820404FF090
:1010100000064FF000074FF000084FF0000BAC4601
:10102000ACE8C009ACE8C009ACE8C009ACE8C0094C
:1010300021F007018D46704710B5FFF7A7FC20305F
:1010400010BD801A0844401E491E88431044704752
:1010500070B5144605468C464368002B18BF63459F
:1010600038BF1846F8D302681044604508D0664679
:10107000604604220821FFF7E4FF811B8446641ABE
:101080002946CCF80040BDE8704000220CF1040075
:10109000FFF717BB30B5B0F10A0271F100034FEA58
:1010A000900E4EEA817EB0EB0E0061EB91014FEAAB
:1010B000101E4EEA017E10EB0E0041EB11114FEABB
:1010C000102E4EEA016E10EB0E0041EB11214FEA9B
:1010D000104E4EEA014E10EB0E0041EB114140184C
:1010E00041F100014FEAD00040EA41704FEAD101DE
:1010F0004FEA810444EA907410EB800544EB01044C
:101100006D1944EB0404521BA3414FF0000348BF88
:101110000A3200D530BD401C41F1000130BD000055
:101120002DE9F0411F46044603260168072A01F411
:10113000006004DB08B116A505E016A503E008B1C0
:1011400015A500E015A521F010002060A069C01EC3
:10115000A0610FB1401EA0612046AFF300804FB1E7
:10116000D4E9012138469047206A401C2062C01C07
:10117000206206E0206AFAE7D4E9012115F8010BA4
:101180009047761EF8D22046AFF30080BDE8F0818C
:101190004E414E006E616E00494E4600696E66001B
:1011A0003A2800D2303820F02002412A01D3A2F19F
:1011B0003700884201D34FF0FF3070472DE9FF4FD1
:1011C00006468BB00878FF2806D0491C2D2805D08C
:1011D00000244FF0000908E000200CE00124F8E7AB
:1011E00009EB8903491C00EB43090878FF28F7D174
:1011F00014B1C9F100008146107800252C46AA469A
:1012000029462D2801D02B2804D1521C2D2813D07B
:10121000002082468B461078FF280FD04FF0000C3C
:101220000A21521CA5FB017804FB018105FB0C116E
:10123000C5194BEB0104EEE70120EAE7002108465F
:101240004FF00000BAF1000F02D000EB8000400820
:10125000C0F38157012F01DD4FF0FF370E9955EA9A
:10126000040009EB01080BD04FF0020918F5FA7FD2
:1012700016DA4FEACA70002F706008DD012007E01F
:101280004FEACA70C6E900B00FB0BDE8F08F002089
:101290003060FFF7C1F9C0F800901821084616E049
:1012A000B8F5FA7F18DD002F02DAF748784401E03C
:1012B000F6487844D0E90010C6E9001040EACA7048
:1012C0007060FFF7A9F9C0F80090142108460FB02C
:1012D000BDE8F04F07F096BF002108464FF0000030
:1012E000B8F10001099002DAC7F1000200E03A46C5
:1012F00001DAC8F1000106A800F0DCF906AB93E8BA
:10130000070003AB83E8070044F23E005BEA0401F8
:101310000090584604D144F21E012C465D460091CF
:10132000210C0904014306D10099240444EA154420
:101330002D041039009104F07F41014306D100993A
:10134000240244EA15642D020839009104F070412A
:10135000014306D10099240144EA15742D01091FA7
:10136000009104F04041014306D10099A40044EAF1
:101370009574AD00891E009104F00041084304D12A
:1013800000986D196441401E00904FF001033A46E9
:101390006846B8F1000FCDE9014503A902DD05F06B
:1013A00000FF01E005F0D3FEBAF1000F04460D4640
:1013B00001D084F00044002108464FF00000099954
:1013C00040F2FF77484010F00C0F07D124F00040A6
:1013D000284303D0C4F30A50B84212D1FFF71CF9D6
:1013E000C0F80090C4F30A50B8420AD1A848784423
:1013F000D0E90010C6E9001004F000410843706015
:1014000042E7C6E900543FE72DE9FF4F1F464FF082
:10141000000A4FF0FF38454691B0D7E90146CDF8B4
:101420003CA0FFF709FEC0680168405C1090B969F4
:1014300012986D1C8847396A814688470028F6D182
:10144000B9F1FF3F0AD0002E24F4D06411DDB9F1C8
:101450002B0F08D0B9F12D0F0BD102E0404615B08B
:1014600013E744F48064B96912986D1C8847761EAE
:101470008146600504A901D52D2000E02B20002E17
:1014800001F1010B0DF130088DF810003FDDB9F1CD
:10149000690F08D0B9F1490F05D0B9F16E0F02D02C
:1014A000B9F14E0F1CD13B4601A8009580E85002CF
:1014B000DDE912126FF0020007F00DFFC11CCED162
:1014C0000EE0B96912986D1C884781461398761E04
:1014D00044F4007405600F98401C002E0F9016DD38
:1014E000B9F1300FEDD0B9F1780F02D0B9F1580F42
:1014F0000DD10F9801280AD13B46CDE90054DDE912
:101500001212001F029607F0E4FEC11CA7D1109929
:1015100089453ED144F0800406E01399681CAAF185
:10152000010A44F400740860B9696D1C1298761EB3
:10153000884730288146F0D02BE01099894505D1A5
:10154000200603D4761E44F0800418E0484606F0D6
:1015500082FF08B3761E0DF123029345A9F13000F6
:1015600044F4007406D20BF8010B200607D5AAF14B
:10157000010003E0200602D40AF101008246A00522
:1015800002D51399681C0860B96912986D1C8847C8
:101590008146002ED1DC53E0002E51DDB9F1650FFC
:1015A00002D0B9F1450F4BD1A00549D5B9696D1CE1
:1015B0001298761E24F440748847002E81460CDD74
:1015C0002B2804D0B9F12D0F07D144F48074B969E8
:1015D00012986D1C8847761E8146E00501D52D21A5
:1015E00000E02B2108F8011BCDF8008021E0761ED9
:1015F0000DF13901884544F400740CD2A9F1300092
:1016000010F0FF0088F8000002D10099884509D940
:1016100008F1010806E0E00501D51E4801E042F2AC
:101620000F708246B96912986D1C884781461398DD
:101630000560002E04DD484606F00DFF0028D6D1D7
:10164000F96912988847FF2053468BF8000088F804
:10165000000000200A900B9004AA0CA90AA8FFF72A
:10166000ADFDA00502D46FF00100F8E614F0240FE0
:1016700012D0E0071CD13868DDE90A12031D3B6077
:101680000068C0E9001213E02486000016860000FE
:10169000DA840000F1D8FFFF0AA9684606F0C8FE08
:1016A000E00705D13868009A011D396000680260C2
:1016B0002846D4E62DE9F047814616468AB03548DB
:1016C00078440DC88DE80D0032487844801C03AC86
:1016D0000DC884E80D0041F69B300844372190FB8B
:1016E000F1F290FBF1F5A5F1800501FB12041B3C22
:1016F00002D56442012000E00020DFF898A0804677
:101700000027FA44AAF1BE0A0EE0E0070AD03246EA
:10171000684607EB470101230AEB810105F02CFD28
:101720008DE8070064107F1C002CEED1194F7F4418
:10173000AE3F19E0E80715D007EB04100DF1180AC9
:1017400090E80E008AE80E00C068F04201D19819B6
:1017500008903246012306A903A805F00DFD03AB4E
:1017600083E807006D10641C002DE3D14FF00103E6
:1017700032466946B8F1000F03A802D005F0D2FC4A
:1017800001E005F0F9FCC9E90001C9F808200AB038
:10179000BDE8F087587D000010B50446AFF3008027
:1017A0002046BDE81040FEF76FBD70B505460C46FB
:1017B0000A2000E06D1C00F018F835B128780028E8
:1017C000F8D102E0641C00F010F814B12078002871
:1017D000F8D1BDE870400A2000F007B810B500F05D
:1017E00027F8BDE81040FFF7A7BB08B569468DF89C
:1017F00000000320ABBE08BD10B5FFF7D5F80068A8
:10180000BDE8104000F03CB8B2F120030AD5C2F1A7
:10181000200301FA02F120FA03F341EA030100FA7E
:1018200002F0704700FA03F14FF00000704700002B
:1018300010B5012805D0002103A0FFF7B6FF012055
:1018400010BD09A1F8E7000053494752544D454DDA
:101850003A204F7574206F662068656170206D6551
:101860006D6F7279000000003A2048656170206D4C
:10187000656D6F727920636F727275707465640044
:1018800010B50C3003F0FBFA10BD00002DE9FF4F3E
:101890001F464FF03C0987B04FF00042DDE91410BD
:1018A00001F10108DDF858A002EA40500390002041
:1018B00005908346054604460490B969461E08987B
:1018C0008847AAF1010A0290BAF1000F3BDD0298A5
:1018D0002E2815D01021FFF763FC00282EDB4FF0D7
:1018E000010B0599014317D0B9F1000F0BDB4A46F4
:1018F000C117FFF789FF05430C43A9F1040905E06F
:10190000012004900BE008B145F00105012005908D
:10191000049820B9361D02E0049800B1361FB96959
:10192000089808F101088847BBF1000FAAF1010AE5
:101930000290C9D00999C1F80080C5E702987028C3
:1019400008D0502806D0F96908988847BBF1000FE5
:1019500014D04FE0002002900120BBF1000F049052
:1019600009D0B969089808F101088847AAF1010966
:10197000B9F1000F07DCF969089888476FF001009A
:101980000BB0BDE8F08F2B2804D02D280CD14FF0E0
:10199000FF300490B969089808F101088847A9F157
:1019A0000109B9F1000FE6DD411CE4D00A21FFF77F
:1019B000F7FB0028DFDB029908F1010801EB810148
:1019C00000EB41000290B969089888470A21FFF7A7
:1019D000E7FB099AA9F10109B9F1000FC2F80080EB
:1019E00001DD0028E7DAF969089888470499029828
:1019F00000FB016655EA040004D004F040410900F0
:101A000002D006E0039898E0A40044EA9574AD0083
:101A1000B61E04F00041080002D16D196441761E23
:101A2000159810F0240F03D04FF00B095C4803E029
:101A30004FF028096FF07D008246564507DAAAEB81
:101A400006018944B9F1410F01DD4FF04109012040
:101A50000021A9F10102FFF7D7FE024628400B46FC
:101A60002140084301D0012100E00021501E0291D5
:101A700043F1FF3128402140084301D0012000E01C
:101A800000200299834651EA0B014FD000210846FD
:101A90004FF00000039900F4400039B100EB8000E2
:101AA0004FF4400100EBD07001EA6000801501287E
:101AB00002DD4FF0FF3000E013D0401C36D002981A
:101AC00060B3BBF1000F0CD14A4601200021FFF7A3
:101AD0009BFE28402140084301D0012000E0002067
:101AE000E0B101204A460021FFF78EFE034640196F
:101AF0000A4661412D1A8C4111D3B9F1400F09DD1D
:101B0000159810F0240F02D0AAF1340603E0AAF1D0
:101B1000170600E0761C00254FF0004406E05B1E2F
:101B200042F1FF3220EA030521EA0204CAF1010072
:101B3000B04206DA1B490398084301900020009048
:101B40000EE0039AC4F3D321E80A0A43164940EA97
:101B500044500A433146CDE90002684606F071FC64
:101B6000159810F0240F0BD01598C00715D13868C0
:101B7000DDE90012031D3B600068C0E900120CE0C3
:101B800002A8694606F054FC1598C00705D13868CC
:101B9000029A011D3960006802604046F0E60000CC
:101BA00002FCFFFF0000F07F0000F03F2DE9FF4F37
:101BB00092461D4685B04FF00041DDE9124BDDE94C
:101BC00014727F1E01EA4B50414940F0FF4940EA40
:101BD0000108002122F020004928049102D04E285B
:101BE00028D04CE03BA0012607C88DE80700A96972
:101BF0000698641C88477F1E014606D41DF806001F
:101C000018B121F0200181420BD0E969069888477C
:101C1000032E34D0082E32D06FF0010009B0BDE899
:101C2000F08F761C032E01D0082EE0D1601CCAF87C
:101C30000000DCE7A9690698641C88477F1E2AD447
:101C400020F02000412826D1A9690698641C884705
:101C50007F1E20D420F020004E281CD1A9690698B0
:101C6000641C88477F1E48F4002849F48009CAF89C
:101C7000004001D4282806D0E969069888475FEA21
:101C8000CB7012D022E0A9690698641C88477F1E99
:101C900001D4002803DAE96906988847BCE72928B7
:101CA000F1D1641CCAF80040E9E71BF0240F07D00B
:101CB00028680499031D2B600068C0E9001805E03E
:101CC0002868021D2A600068C0F800902046A5E739
:101CD0000000F07F494E46494E495459000000002B
:101CE000EA49097851B1DB4AC0F3C621515CC0F31F
:101CF000022021FA00F000F0010070470020704738
:101D000070B5E24C264656F8185F00F0C3F956E865
:101D1000001F46E8000202B1F9E7A942F2D1A84249
:101D200008D204F1100151E8002F531C41E800349F
:101D300004B1F8E770BD00BFF8B514460D4606467D
:101D4000FFF7CEFF98B13746C0F20807FFF7D8FF7C
:101D50000146EFF30580002808BFB7B207F14070D5
:101D60002A46234601B0BDE8F04000F041B801200A
:101D7000F8BD00002DE9F047994692460F46064609
:101D8000FFF7AEFF58B3DDF820803446C0F20804F8
:101D9000FFF7B6FF0546EFF305800028BB4808BFF4
:101DA000B4B20130D0E84F1F4A1CC0E8432F03B142
:101DB000F8E74FF4E02000EA0146A01900F1807036
:101DC00029463A46534600F013F858B107482946C9
:101DD00030434A464346BDE8F04700F009B80120C9
:101DE000BDE8F0870020BDE8F08700BF01000002D9
:101DF0002DE9F04F4FF0805491464FF0005204EA25
:101E0000D10402EA9902204310434FF0804202EAD3
:101E1000530240EA02089D48DFF844E29A468B46A6
:101E20006FF0070600F1040C013680F05080614627
:101E300051E8004F601C41E8000505B1F8E7E5B244
:101E400004F470640EEB051048EA043400F10C074A
:101E500044F0406257E8004FA10103D3BFF32F8F36
:101E6000002406E004F00044144347E8004303B1B3
:101E7000F0E76101D8D584F004422BF0004102F074
:101E8000004319442C014EF804102AF0004129F0B7
:101E9000004419442344C0E9013157E8001F890177
:101EA00003D2BFF32F8F002004E047E8002303B1E3
:101EB000F3E7012058B17548083050E8001F4A1C6C
:101EC00040E8002303B1F8E70120BDE8F08F6F4838
:101ED0000C3050E8001F4A1C40E8002303B1F8E72B
:101EE0000020BDE8F08F00BF0023FE2998BFFE2A26
:101EF00026D82DE9F041DFF85C8100234FF0010E78
:101F00004FF0000CBCF1040F17D020FA0CF7FF07BC
:101F10000FD00F4697420CD803EBD70407F0070603
:101F200018F804500EFA06F6354308F80450013745
:101F3000F0E70CF1010C2033E4E70123BDE8F041A8
:101F4000184670472DE9F047DFF840A18146002090
:101F50008AF800003F4888468021FEF71BFB3E4A76
:101F600018214FF0FF3341F221064FF0FF3589B1C0
:101F7000147885EA04256FF0070444B186EA450029
:101F80002FB29F42C8BF680001340546F5E701390A
:101F90000132ECE7DAF820003049884218D1BAF86B
:101FA0000210A8B2814215D1DAF81C00411CCAF80F
:101FB0001C10A0B12A490020B0F5805F45D00A1856
:101FC000D36810305C0144BF23F04063D360F3E773
:101FD000CAF820100120CAF81C00AAF802502048B4
:101FE00000244FF48051CAE90144CAF80C408AF831
:101FF0000140FEF7CFFA00F053F80646002818BF5C
:102000004CF25030CAE90440CAF81840D6B1154C19
:1020100048460021FE22A0470F20EF21EF22A047D3
:102020000420FE21FE22A047FFF76AFE0146DAF8EF
:102030001C200D480023FFF7DBFEB8F1000F18BF8E
:1020400000F014F83046BDE8F08700F029F80646A5
:10205000DCE700BF00FE0220D49400086B27A5E156
:1020600000EE0220E91E000800FF000380B50748CB
:10207000017849B901210170FFF742FE0146044889
:1020800000220023FFF7B4FE012080BD80FE022065
:1020900001FF000301480068704700BF041000E022
:1020A0000548016841F0807101600448016841F011
:1020B0000101016001207047FCED00E0001000E02C
:1020C000014602480022FFF737BE00BF01F30100BE
:1020D000014602480022FFF72FBE00BF05F30200B1
:1020E00001464FF473400022FFF726BE0146024826
:1020F0000022FFF721BE00BF03F3020001460248A1
:102100000022FFF719BE00BF02F30100014602489A
:102110000022FFF711BE00BF04F30200014602488F
:102120000022FFF709BE00BF0DF5020001464FF483
:1021300071400022FFF700BE014602480022FFF76F
:10214000FBBD00BF13F10100024800210022FFF790
:10215000F3BD00BF01F10100024800210022FFF79A
:10216000EBBD00BF02F10200024800210022FFF790
:10217000E3BD00BF07F10100024800210022FFF784
:10218000DBBD00BF08F102001CB514460A4601463B
:10219000024800932346FFF7EDFD1CBD01F002004D
:1021A0000A4601460148FFF7C7BD00BF04F0020020
:1021B000E0B513460A460146002000900148FFF7AB
:1021C000D9FD8CBD05F002001CB514460A46014637
:1021D000024800932346FFF7CDFD1CBD03F002002B
:1021E000E0B513460A460146002000900148FFF77B
:1021F000C1FD8CBD02F00200E0B513460A4601465F
:10220000002000904FF43C30FFF7B4FD8CBD00007F
:10221000014602480022FFF78FBD00BF08F9020007
:102220000A4601460148FFF787BD00BF03FA0200D6
:10223000014602480022FFF77FBD00BF17FA0100E8
:10224000014602480022FFF777BD00BF18FA0200DE
:102250000A4601464FF47A40FFF76EBD1CB514469E
:102260000A460146024800932346FFF783FD1CBD42
:102270000CFA0100E0B513460A4601460020009022
:102280000148FFF777FD8CBD0DFA02000A460146B2
:102290000148FFF751BD00BF14FA01000146024892
:1022A0000022FFF749BD00BF0EFA02000A460146B0
:1022B0000148FFF741BD00BF09FA02000A46014686
:1022C0000148FFF739BD00BF0AFA0200E0B5134626
:1022D0000A460146002000900148FFF74BFD8CBDE7
:1022E00001FA01000A4601460148FFF725BD00BF7B
:1022F0000BFA02000A4601460148FFF71DBD00BF68
:1023000010FA02001CB514460A4601460248009322
:102310002346FFF72FFD1CBD06FA0100E0B513466A
:102320000A460146002000900148FFF723FD8CBDBE
:1023300007FA0200014602480022FFF7FDBC00BF79
:1023400008FA02000A4601460148FFF7F5BC00BF43
:102350000FFA02000A4601460148FFF7EDBC00BF34
:1023600006F701000A4601460148FFF7E5BC00BF39
:1023700007F70200014602480022FFF7DDBC00BF5C
:1023800008F702000A4601460148FFF7D5BC00BF26
:1023900009F702000A4601460148FFF7CDBC00BF1D
:1023A00003F70200014602480022FFF7C5BC00BF48
:1023B0000EF70100014602480022FFF7BDBC00BF36
:1023C0000FF702000A4601464FF47740FFF7B4BC0E
:1023D000014602480022FFF7AFBC00BF01F7010031
:1023E000014602480022FFF7A7BC00BF0AF702001F
:1023F000014602480022FFF79FBC00BF0BF7010017
:102400000A4601460148FFF797BC00BF0CF70200DF
:10241000014602480022FFF78FBC00BF08F8020007
:102420000A4601460148FFF787BC00BF16F20300C9
:102430000B4601460348002A0CBF1A462930FFF715
:102440007BBC00BF03F20200014602480022FFF7F6
:1024500073BC00BF1CF202000A4601464FF47240F2
:10246000FFF76ABC024800210022FFF765BC00BFED
:102470001AF201001CB514460A46014602480093B0
:102480002346FFF777FC1CBD09F402000146024811
:102490000022FFF751BC00BF08F4020001460248C9
:1024A0000022FFF749BC00BF06F2010001460248C6
:1024B0000022FFF741BC00BF15F20200E0B5134651
:1024C0000A460146002000900148FFF753FC8CBDEE
:1024D00001F20100014602480022FFF72DBC00BFB7
:1024E00018F203000A4601460148FFF725BC00BF69
:1024F0002DF202000A4601460148FFF71DBC00BF4D
:102500000AF20100014602480022FFF715BC00BF95
:1025100019F202000A4601460148FFF70DBC00BF50
:1025200017F203000A4601460148FFF705BC00BF49
:1025300001F6020010B500F1280151E8002F12B990
:10254000BFF32F8F04E0531E41E8003404B1F4E7D9
:1025500072B12C300121006850B1821CD2E84F3F8B
:10256000C2E8441F04B1F9E71A0602D00830F2E7C6
:10257000002010BD70B5024652F8305F4DB1CC78E6
:1025800000235DB12E46ED78A5420DD27568334625
:10259000F7E70023C1E90133C1620DE00024C1E97E
:1025A000014300F12C0403E0C1E9016306F10804D2
:1025B0002160002B18BF1A1D1160283050E8001F41
:1025C0004A1C40E8002303B1F8E770BDD1E90123BC
:1025D000002A0EBFC36293608B68191D002B08BFD1
:1025E00000F130010A6070471A480068704700BF68
:1025F00019480178012905D105494FF080620A6028
:10260000002101701348016841F001010160704729
:1026100004ED00E04FF0FF307047000040B10B497F
:102620000968B1FBF0F0411E0020B0EB116F02D041
:102630004FF0FF307047064AFF231370054A062308
:1026400013605160044908709060704700000020DA
:1026500023ED00E010E000E01801002010B50E4866
:102660000F4CD0F8801041F47001C0F880100B4975
:102670000A6842F001020A6000228A600B68234067
:102680000B60084B4B600B6823F480230B60CA601F
:102690004FF00061016010BD08ED00E0003802401D
:1026A000FFFFF6FE1030002410B5930712D400F19E
:1026B0002803D0071ED153E8000F084203D1BFF30F
:1026C0002F8F002005E020EA010243E8002404B136
:1026D000F1E710BD806A00EA01038B42014618BF92
:1026E000002112F0010208BF014653EA020018BFA0
:1026F000084610BD53E8000F00EA01028A4203D0E9
:10270000BFF32F8F002005E020EA010243E80024F8
:1027100004B1EFE710BD0000B0B5104A0023443209
:1027200015462C683CB12569A94209D3491B04F11F
:102730000C052346F5E70024C0E90234016106E0F8
:10274000C0E902340161A0602569691A2161002B8A
:1027500018BF03F10C021060B0BD00BF04000020E0
:102760000248006801688968084700BF140100201A
:1027700010B5054C204600F007FB0448044A2146EA
:10278000BDE81040FDF713BE20010020932D000886
:102790000000000880B5FFF761FF0B48016841F0B9
:1027A00001010160016841F008010160016841F028
:1027B00010010160016841F040010160416941F090
:1027C0001001416180BD00BF303802409C4A0221A7
:1027D0001068072361F393401060506820F4007084
:1027E0005060906840F440209060506A63F3071096
:1027F0005062106861F315501060506820F48060DA
:102800005060906840F440109060506A63F30B2071
:102810005062D2F8001C012060F31141C2F8001C84
:1028200088490B6823F480730B604B6843F4403392
:102830004B60D2F8003C60F39343C2F8003C0B6855
:1028400023F400730B604B6843F440234B60D2F8D1
:10285000003C60F31553C2F8003C0B6823F480631E
:102860000B604B6843F440134B60D2F8003C60F3BC
:102870009753C2F8003C0B6823F400630B604B686D
:1028800043F440034B60D2F8003C60F31963C2F894
:10289000003C0B6823F480530B604B6843F040739B
:1028A0004B60D2F8003C60F39B63C2F8003C0B68BD
:1028B00023F400530B604B6843F040634B60D2F845
:1028C000003C60F31D73C2F8003C0B6823F48043A6
:1028D0000B604B6843F040534B60D2F8003C60F310
:1028E0009F73C2F8003C0A6822F400420A604A68FA
:1028F00042F040424A60D1F8FC2360F31142C1F833
:10290000FC23D1F8002422F48072C1F800244E4A3E
:10291000136843F440331360D1F8FC3360F39343FE
:10292000C1F8FC33D1F8003423F40073C1F800344B
:10293000136843F440231360D1F8FC3360F315535C
:10294000C1F8FC33D1F8003423F48063C1F80034BB
:10295000136843F440131360D1F8FC3360F39753CA
:10296000C1F8FC33D1F8003423F40063C1F800341B
:10297000136843F440031360D1F8FC3360F3196328
:10298000C1F8FC33D1F8003423F48053C1F800348B
:10299000136843F040731360D1F8FC3360F39B631A
:1029A000C1F8FC33D1F8003423F40053C1F80034EB
:1029B000136843F040631360D1F8FC3360F31D7378
:1029C000C1F8FC33D1F8003423F48043C1F800345B
:1029D000136843F040531360D1F8FC3360F39F73E6
:1029E000C1F8FC33D1F8003423F40043C1F80034BB
:1029F000116841F040411160D2F8F81760F39B6113
:102A0000C2F8F81711490B6823F400530B604B68A8
:102A100043F040634B60D2F8F83760F31D73C2F89F
:102A2000F837086820F480400860486840F040505B
:102A300048604FF40050C8824FF48040C88270470D
:102A400000000240040C024008100240041802403A
:102A500007484FF6FF0201681140064A1143016022
:102A6000054810210170054820210160704700BF12
:102A70000CED00E00003FA0525E400E004E100E0CD
:102A8000194842F29042018821F480610180018856
:102A900021F480510180818821F440518180018896
:102AA0006FF3DF31018030F8041C114320F8041C5F
:102AB00030F8041C41F00F0120F8041C018841F09B
:102AC00008010180018821F080010180018841F026
:102AD00004010180018841F020010180018841F456
:102AE00000510180704700BF0C100140234C20684A
:102AF00080F40050206042F2107002F0F1FAF6E724
:102B000070B50446084800210022002503F0E4F9CE
:102B1000064E2146306003F001FA3068002808BFF5
:102B20004FF0FF35284670BDED2A00088086002052
:102B300084B000200DF104080390CDE901000DA13F
:102B40004046052201F05BFB02F01AFB41F2883699
:102B50000A4F474C8519386880F4804038602068F7
:102B60000168CA6841469047284602F0D5FA3544C4
:102B7000F1E700BF73746172740000001418024022
:102B800084B06C461E4E4FF0000804F1040903ADFA
:102B9000CDF80C8030684FF0FF3201688B68294611
:102BA000984703990028F5D1B1F1405FF2D1306820
:102BB0004FF0FF3201688B68294698470028E9D119
:102BC0000398012818BF0228E4D130684FF0FF3283
:102BD00001688B68294698470028DBD13068CDF81A
:102BE0000880CDF80480CDF800900168039ACF6882
:102BF00021464FF0FF33B847204602F027F8C9E7D7
:102C00001001002070B5044608480021002200256C
:102C100003F062F9064E2146306003F07FF9306818
:102C2000002808BF4FF0FF35284670BD312B000843
:102C30007486002070B50446084800210022002553
:102C400003F04AF9064E2146306003F067F9306818
:102C5000002808BF4FF0FF35284670BD812B0008C3
:102C600078860020024C2068016889698847FAE765
:102C70001401002070B504460848002100220025F8
:102C800003F02AF9064E2146306003F047F9306818
:102C9000002808BF4FF0FF35284670BD652C00089E
:102CA0007C86002002F047B880B5AFF30080BDE815
:102CB000804002F047B880B5AFF30080BDE88040A7
:102CC00002F040B8000000002DE9F0412DED048B2A
:102CD000054610CD9FED268B8846AC4241D06669F3
:102CE000277C304600F0D7FF05F031FF41EC100B98
:102CF0004046394600F014FF6069B0EE409AF0EEAD
:102D0000609A00F0C6FF05F022FFB0EE480A41ECE1
:102D1000110BF0EE680A04F093FC51EC190B53EC24
:102D2000102B05F067FF05F0E3FE0146304600F08A
:102D300090FF0646606900F09FFF96FBF0F141436B
:102D4000606900F0AAFF6068214620B1044600686F
:102D50000028FBD1C1E78C68206888422146FAD15F
:102D6000BBE7BDEC048BBDE8F08100BF00BF00BF36
:102D700000000000000024407047002102468160EE
:102D800042F8041F026070470021C0E90011816011
:102D9000704701F0B6BB704740681346002202F04E
:102DA00053BA2DE9F04F85B092468946064602AFE8
:102DB0006D464FF00008D04525DA30683946836803
:102DC00030464FF0FF329847044630689DF808B00F
:102DD0008368304639464FF0FF3298470299002801
:102DE0004FF0000018BF01460191002C18BF834628
:102DF00003A849462A462B468DF800B001F0F6FE9E
:102E000008F10108D7E705B0BDE8F08F1CB50191C6
:102E1000044680684FF0FF3102F0DCFA30B9606898
:102E200001A900224FF0FF3302F08AFAA06802F0F5
:102E300029FB1CBDF8B5044680680D464FF0FF31F4
:102E400002F0C8FA00B1F8BD606802F045FAD5E9B1
:102E50000012531AB0EBA30F14D90026501AB6EB88
:102E6000A00F0FD267682846314601F0F6FE0146F2
:102E7000384600224FF0FF3302F062FAD5E9001223
:102E80000136EBE7A068BDE8F84002F0FBBA0000AD
:102E900010B5044607480421083020604020002275
:102EA00002F02CFA6060002002F0CEFAA06020460A
:102EB00010BD00BF4897000841680A88920606D4F2
:102EC0000988090658BF7047016809690847016801
:102ED00049690847007C704780B5143101F0BFFA9A
:102EE00080BD017DC90702D10021818203E0C16953
:102EF00000220A7082610021017470471CB50446EB
:102F0000C0680DF107010022002302F09DF948B1CD
:102F100061688A8922F080028A818A8942F00402EB
:102F20008A811CBD61689DF807208A801CBDBCB5E4
:102F30000446007C40B9A0680DF1070100224FF063
:102F4000FF3302F081F900B1BCBD9DF8071004F118
:102F50001405284601F051FA9DF807000A2802D10D
:102F600001202074BCBD297811F001000CBF490874
:102F7000A1694129E8D310B900202880BCBDE069CF
:102F800000210170A161BCBDF8B504460878D1E903
:102F900001670DF1030510F0010204BF46084F1C44
:102FA000B6B1387829468DF80300E06800224FF06A
:102FB000FF3302F0C5F940B96068818921F004014E
:102FC0008181818941F080018181013E0137E7E7FC
:102FD000F8BDE0B5D0E901100022898800238DF802
:102FE00007100DF1070102F0ABF98CBD10B51C4ABA
:102FF0000446002008322074C4E90500E061C4E9F9
:1030000000210521082903D044F821000131F9E706
:1030100040200121002202F071F9E06040200121EE
:10302000002202F06BF9A060204610BD80B500F0D0
:1030300005F8BDE8804001F085BE000010B50446EB
:10304000074808302060E06802F0E2F8A06802F06B
:10305000DFF804F1140001F038FA204610BD00BF7B
:1030600060970008406801688968084740680168FF
:10307000C969084780B549680A68126A904780BDE7
:1030800040680168496A084740680168096908475B
:1030900040680268D268104740680168496908477B
:1030A0002DE9F04F93B0064640680168896988476A
:1030B00070680168C9698847002800F0B2847168A7
:1030C0000DF1380B0868026A584690470BAC204651
:1030D000594600F0BCFD584601F0F7F900200A906F
:1030E000CDE9080008A80FF64811042201F087F87E
:1030F0009DF82C00DFF8409910F001010C9908BFF1
:10310000410804F101080D9C08BF4446651809F107
:103110000707204629464A463B4601F02DFAA842B9
:1031200000961CBF001B10F1010040F0B4809DF818
:103130002C00DFF8106910F001010C9908BF41085C
:103140000D9C08BF4446651806F10807204629462D
:1031500032463B4601F010FAA8421CBF001B10F19A
:10316000010040F0D8809DF82C00DFF8DC9810F0CA
:1031700001010C9908BF41080D9C08BF4446651821
:1031800009F1080A204629464A46534601F0F4F957
:103190009DF82C1011F001020C9A08BF4A080D9EF0
:1031A00008BF4646B718A8421CBF001B10F101001B
:1031B00040F0F380DFF8A098304609F10704394663
:1031C0004A46234601F0D8F9B842009F1CBF801B35
:1031D00010F1010000F015849DF82C004A4610F013
:1031E00001010C9908BF41080D9D08BF45466E18A6
:1031F00028463146234601F0BFF9441BB04208BFC0
:103200004FF0FF34E11D0BA800F0BEFF00783F280F
:1032100040F0928208AE0FF64401304601F05AF8B1
:10322000F868FFF7A9FD0468DFF82858F868FFF789
:10323000A3FD0430844200F0E4833046294601F0C7
:1032400004F8217C304601F0D8F8606900F023FDD5
:103250000146584601F00EFD9DF8380010F00101BE
:10326000109908BF0BF101010F9A08BF42083046C0
:1032700000F0F8FF584601F028F96068214620B1B7
:10328000044600680028FBD1D0E78C68206888429B
:103290002146FAD1CAE705AE0020321DCDE906006D
:1032A000CDE90300CDE901209DF82C00059210F036
:1032B00001010C9908BF41080D9C08BF44466518E0
:1032C000204629464A463B4601F056F9011B0BAC05
:1032D000CA1DA84220464FF0000108BF062200F098
:1032E00063FF0EAD2846214600F04BFC30462946D0
:1032F00001F0C1FB284601F02EFC0798002800F0E1
:103300007983DDE90310814280F09C804FF04052C8
:1033100004C10391F3E00DF11409002009F1040246
:10332000CDE90600CDE90300CDE901209DF82C0090
:10333000059210F001010C9908BF41080D9C08BFCF
:10334000444665182046294632463B4601F014F9AA
:10335000011B0BAC01F10802A84220464FF000010E
:1033600008BF072200F020FF0EAD2846214600F0DE
:1033700008FC4846294601F07EFB284601F0EBFB9D
:103380000798002800F03683DDE90310814279D2E6
:103390004FF0405204C1039104E2304639464A4698
:1033A000534601F0E9F8811B01F10804B84208BF57
:1033B00007240BA8214600F0E7FE00783F2857D1EC
:1033C00008AE0FF28861304600F084FF009F386934
:1033D000FFF7D2FC0468DFF87C563869FFF7CCFCB5
:1033E0000430844200F00D833046294600F02DFF62
:1033F000217C304601F001F8606900F04CFC014688
:10340000584601F037FC9DF8380010F00101109982
:1034100008BF0BF101010F9A08BF4208304600F0C7
:1034200021FF584601F051F86068214620B104465A
:1034300000680028FBD1D0E78C68206888422146CC
:10344000FAD1CAE7029C0A1B012101EBA201B1F1EA
:10345000804F80F0E982001BE04D02AB8410921097
:103460000833AC4225D8B1EB600F98BF411022E081
:103470000BAD28460021224600F096FE009F29460B
:10348000386962E1029C0A1B012101EBA201B1F142
:10349000804F80F0C982001BD04D02AB8410921087
:1034A0000833AC4200F25881B1EB600F98BF411075
:1034B00054E16FF040410EA801F035F8DDE90F53FB
:1034C0004FF0405001C3DDE902141093621AA81AAC
:1034D000002A0F9005DDFDF709F8DDE90F03DDE9AE
:1034E0000214CDE90203CDE90F140498119A11904A
:1034F0000EA804920E9101F030F8DDE9031081422C
:1035000003D2022204C103913AE0029C0A1B01216A
:1035100001EBA201B1F1804F80F08682001BAF4D1C
:1035200002AB841092100833AC4204D8B1EB600FA8
:1035300098BF411001E06FF040410EA800F0F3FF8A
:10354000DDE90F53022001C3DDE902141093621A72
:10355000A81A002A0F9005DDFCF7C8FFDDE90F036C
:10356000DDE90214CDE90203CDE90F140498119AA4
:1035700011900EA804920E9100F0EFFFDDE9031008
:10358000079C814202D210C1039137E0029D4A1B81
:10359000012101EBA201B1F1804F80F04582401B77
:1035A0008E4E02AB851092100833B54204D8B1EBB1
:1035B000600F98BF411001E06FF040410EA800F08D
:1035C000B2FFDDE90F0310C3DDE902141093621AA4
:1035D000801A002A0F9005DDFCF788FFDDE90F0354
:1035E000DDE90214CDE90203CDE90F140498119A24
:1035F00011900EA804920E9100F0AFFF02A800F106
:1036000008087648059C4FF0010982460DF1380BF9
:103610000198844200F0E481DDE90365277CAE4235
:1036200002D280C6039637E00298321A09EBA20153
:10363000B1F1804F80F0F881281A83109210534521
:10364000554604D8B1EB600F98BF411001E06FF010
:1036500040415846434600F066FFDDE90F0380C352
:10366000DDE9021510936A1A801A002A0F9005DD11
:10367000FCF73CFFDDE90F03DDE90215CDE90203AC
:10368000CDE90F150498119A1190584604920E91A5
:1036900000F063FFDDE9036594ED060B51EC100BC0
:1036A00005F026FA0746AE4202D280C6039635E000
:1036B0000298321A09EBA201B1F1804F80F0B48177
:1036C000281A831092105345554604D8B1EB600F69
:1036D00098BF411001E06FF040415846434600F06A
:1036E00022FFDDE90F0380C3DDE9021510936A1A9A
:1036F000801A002A0F9005DDFCF7F8FEDDE90F03C4
:10370000DDE90215CDE90203CDE90F150498119A00
:103710001190584604920E9100F01FFF60682146F8
:1037200020B1044600680028FBD171E78C6820684E
:1037300088422146FAD16BE704F108020BAC20461F
:10374000002100F031FDF8682146FFF7BDFABC49C1
:1037500008A800F0BFFD54E16FF040410EA800F052
:10376000E2FEDDE90F534FF0405001C3DDE90214E2
:103770001093621AA81A002A0F9005DDFCF7B6FE16
:10378000DDE90F03DDE90214CDE90203CDE90F14F1
:103790000498119A11900EA804920E9100F0DDFE8B
:1037A000DDE90310814203D2012204C103913CE010
:1037B000029C0A1B012101EBA201B1F1804F80F0B4
:1037C0003381001B9D4D02AB841092100833AC4234
:1037D00006D8B1EB600F98BF411003E0FEFFFF1F5A
:1037E0006FF040410EA800F09EFEDDE90F5301206E
:1037F00001C3DDE902141093621AA81A002A0F907F
:1038000005DDFCF773FEDDE90F03DDE90214CDE908
:103810000203CDE90F140498119A11900EA8049296
:103820000E9100F09AFEDDE90310079C814202D25E
:1038300010C1039137E0029D4A1B012101EBA20157
:10384000B1F1804F80F0F080401B7C4E02AB8510C0
:1038500092100833B54204D8B1EB600F98BF411005
:1038600001E06FF040410EA800F05DFEDDE90F03BE
:1038700010C3DDE902141093621A801A002A0F9017
:1038800005DDFCF733FEDDE90F03DDE90214CDE9C8
:103890000203CDE90F140498119A11900EA8049216
:1038A0000E9100F05AFE02A800F108086348059C3A
:1038B0004FF0010982460DF1380B0198844200F067
:1038C0008F80DDE90365277CAE4202D280C6039675
:1038D00037E00298321A09EBA201B1F1804F80F073
:1038E000A380281A831092105345554604D8B1EB93
:1038F000600F98BF411001E06FF0404158464346C9
:1039000000F011FEDDE90F0380C3DDE9021510931D
:103910006A1A801A002A0F9005DDFCF7E7FDDDE941
:103920000F03DDE90215CDE90203CDE90F15049877
:10393000119A1190584604920E9100F00EFEDDE9A6
:10394000036594ED060B51EC100B05F0D1F807461A
:10395000AE4202D280C6039634E00298321A09EBD6
:10396000A201B1F1804F5FD2281A83109210534503
:10397000554604D8B1EB600F98BF411001E06FF0DD
:1039800040415846434600F0CEFDDDE90F0380C3B9
:10399000DDE9021510936A1A801A002A0F9005DDDE
:1039A000FCF7A4FDDDE90F03DDE90215CDE9020313
:1039B000CDE90F150498119A1190584604920E9172
:1039C00000F0CBFD6068214620B104460068002865
:1039D000FBD172E78C68206888422146FAD16CE7F7
:1039E0000098806801684A6802A99047144908A8AD
:1039F00000F070FC02A800F08DFD05A801F0ABF806
:103A0000009F386808ACC2683846214690477868FD
:103A10000168496A8847204600F057FD0BA800F06E
:103A200054FD13B0BDE8F08F02A800F03CFB00BFCE
:103A30004641494C0000000097980008FEFFFF1F18
:103A40008B9800088E9800087A98000842415345E8
:103A500043000000789800088398000850485943B4
:103A600000000000B0B5044D049C0835C0E90051C9
:103A700000F108011CC1B0BD9097000801F062B9C7
:103A80002DE9F0410C46054600200021C5E9000063
:103A9000A860032903D045F821000131F9E7204649
:103AA0001146002200F0E3FA10F1010836D0002799
:103AB0002078C1070CBF4008606887422ED208EB0F
:103AC00007062046314600F05FFB0078302806D319
:103AD0002046314600F058FB00783A2814D320469F
:103AE000314600F051FB00782D280DD0204631469C
:103AF00000F04AFB00782B2806D02046314600F023
:103B000043FB00782E2809D12046314600F03CFBCB
:103B10000178284600F071FC0137C9E7BDE8F08163
:103B2000B0B52DED085B6D46B0EE408A0A46014601
:103B30002846F0EE608AFFF7A3FF03AC2046294633
:103B400000F08DFC284600F0C0FC9DF80C00049AA3
:103B500010F0010108BF42084AB10598002908BFCA
:103B6000601C03F0E9FCB0EE408AF0EE608A03A826
:103B700000F0ABFCB0EE480AF0EE680ABDEC085B62
:103B8000B0BD2DE9F0478AB00C46814600200DF10A
:103B9000140A00210790CDE90500032903D04AF853
:103BA00021000131F9E700254846C9F8085040F8DE
:103BB000045F61276E460DF12008C9F800007A2FD6
:103BC0003FD0FAB230462146FFF75AFF9DF8140065
:103BD000C00702D1ADF814500AE0079805700695A9
:103BE0009DF81400C00703D0079801F0ABF80595C5
:103BF0009DE8070005AB07C30020032803D046F863
:103C000020500130F9E7304600F05FFC9DF81400C9
:103C1000069A10F0010108BF420882B107980029F6
:103C200008BF0AF1010003F087FC404649463246CE
:103C300033468DED020B8DF8007000F05CFF01370C
:103C4000BDE705A800F041FC0AB0BDE8F08700F030
:103C500006BC426A8A42DCBF10467047006A88424E
:103C6000B8BF08467047C268416A8A4202DA016AF0
:103C70008A4200DCC1607047806A704710B5044614
:103C8000FFF7F1FFE068A16A90FBF1F04843E060C4
:103C900010BDC06A7047C0687047C16070472DE9A9
:103CA000F0470DF1200ADDF82C809AE880061D46C9
:103CB0001646044600200022C4E90000A060032A42
:103CC00003D044F822000132F9E7002004F1140285
:103CD000C4E90522E061204600F001FC2046C4E969
:103CE00008A8C4E90A79C4E90365FFF7C7FF2046BD
:103CF000BDE8F0877047704770B51546059A0E46C7
:103D000089681C463AB188420AD040684968FCF785
:103D1000FFFD28B170BD40684968884218BF70BD7A
:103D200031462A462346BDE8704000F074B82DE9BC
:103D3000F0411646069A0C4689689846074682B1B5
:103D40008F422FD07D6849682846FCF7E1FD48B3D3
:103D5000206887420DD041682846FCF7D9FD20BB7A
:103D600007E07868496888421CD021684968884221
:103D70001BD12069B04223D06069B04220D0C4F882
:103D800020806661D4E9091001300129A06205D1C3
:103D9000A069022804BF012084F836000420E062F4
:103DA000BDE8F0816068B04201D0BDE8F081E06913
:103DB00001281CBFC4F81C80BDE8F081BDE8F0817B
:103DC000B8F1010F18BFBDE8F08101202062BDE805
:103DD000F08180B5D1F808C0D0F804E0DCF8040028
:103DE000864518BF80BD086950B190420DD0486A21
:103DF0000130486202208861012081F8360080BDD0
:103E000001200A618B61486280BD8869022804BF75
:103E10008B6180BD80BD80B548684FF0010E98422F
:103E200081F835E019D10B69DDF808C081F834E07C
:103E30002BB1934212D0486A013048620AE0012057
:103E4000BCF1010F0A61C1F818C0486205D1086BC6
:103E5000012802D1012081F8360080BD8A69022A3A
:103E600004BFC1F818C06246086B012818BF80BDA6
:103E7000012AEFD0F1E72DE9F0418EB00746406806
:103E80004B68984229D049F21C631546C0F60003DE
:103E900049F22862C0F600020846194600230024B1
:103EA00000F065FFD0B106468DE891004FF0FF307D
:103EB000E846039008F110002721FCF76BFB012076
:103EC0000C9030682A68C769304641460123B847DC
:103ED0000698012802D104982860012420460EB0DB
:103EE000BDE8F0812DE9F04383B0DDE90A940E4688
:103EF000896898461546074674B18F4204D07868A1
:103F00004968FCF705FD58B931462A46434603B0D7
:103F1000BDE8F043FFF77FBF786849688842F3D077
:103F2000B8682A46016843464F693146CDF800908B
:103F30000194B84703B0BDE8F0832DE9F04383B0A6
:103F4000DDF828900C46896898461546B9F1000FAF
:103F5000074630D08F4240D07E6849683046FCF733
:103F6000D7FCD0B32068874204D041683046FCF7C4
:103F7000CFFC40BB2069A84238D06069A84235D048
:103F8000E06AC4F82080042838D00020A086B868F1
:103F90002A4601682B464F69012100912146CDF840
:103FA0000490B84794F8350030B394F834000321F6
:103FB000E16280BB22E07868496888420DD02168C0
:103FC00049688842D6D0B8682A46016843468F6956
:103FD0002146CDF80090B8471DE06068A8421AD18C
:103FE000E069012818BFC4F81C8014E0B8F1010F83
:103FF00004BF012020620EE00420E0626561D4E984
:10400000091001300129A06205D1A069022804BF6E
:10401000012084F8360003B0BDE8F08380B5D1F804
:1040200008C0D0F804E0DCF804C0E64507D080689A
:10403000D0F800C0DCF81CC0BDE8804060470869CB
:1040400050B190420DD0486A013048620220886128
:10405000012081F8360080BD01200A618B61486231
:1040600080BD8869022804BF8B6180BD80BD10B50A
:104070000378DC0706BF441C5B08D0E90134934297
:104080009CBF4FF0FF3010BD9B1A05D0A0181A46F8
:10409000FCF7DDF9014600E00021081B002908BFFC
:1040A0004FF0FF3010BDFCF777F9FCF775F921B13F
:1040B0000B4611781A46FCF7CAB900207047002A4F
:1040C0000CBF0020FCF778B970472DE9F04F81B0A4
:1040D0000D466FF01101491B914253D304460078FD
:1040E000DDF828B0C0070CBF601CA06800904FF638
:1040F000E670C7F6FF701F4685420CD85019B0EB2A
:10410000450F38BF68000B2826BF103020F00F087D
:104110004FF00B0801E06FF01008DDF830A04046CA
:1041200000F012FEBBF1000F064604D000993046A5
:104130005A46FCF796F9DDF82C90BAF1000F05D03D
:104140000D9906EB0B005246FCF78BF9A7EB09071C
:10415000B7EB0B0207D0009906EB0B005944504413
:104160004944FCF77EF90A2D02D0009800F0EAFDE0
:1041700048F0010007EB0A0143C40020705401B06D
:10418000BDE8F08FFCF708F9037813F001020CBFCB
:104190005B0843688B4205D9002A0CBF0130806858
:1041A00008447047FCF7F8F8F0B581B00446007891
:1041B000154610F001020CBF460866688E421CD3FB
:1041C000C5B1002AA6EB01020CBF671CA768AA4272
:1041D00038BF1546521B04D078184119FCF756FB1E
:1041E0002078C007A6EB050006BF41002170606083
:1041F00000213954204601B0F0BDFCF7CDF8F0B5F0
:1042000081B012F1100F1ED214460E4605460B2A3D
:1042100004D2600005F8010B64B910E004F110004D
:1042200020F00F07384600F08FFD791CC5E9001417
:10423000A8600546284631462246FCF712F90020C0
:10424000285501B0F0BDFCF7A7F8B0B50546084603
:104250000C46FCF7DDF8024628462146BDE8B04092
:10426000AFF30080F0B585B003780446154613F02F
:1042700001008C4602D15E080A2104E0D4E9001650
:1042800021F0010101398A1BAA420CD27019421A8D
:104290000020CDE90060204633460295CDF80CC0E1
:1042A000FFF713FF13E095B100280CBF671CA76848
:1042B000B81961462A46FCF7D4F82078C00706EB07
:1042C000050006BF4100217060600021395420467E
:1042D00005B0F0BDB0B5054608460C46FCF798F8A9
:1042E000024628462146BDE8B040AFF3008070B5D5
:1042F00084B004460078154610F001028C4601D1C6
:104300000A2103E0216821F001010139A9420DD2FF
:10431000002A0CBF4308636800206A1A8DE8290050
:104320002046CDF80CC0FFF7D0FE11E0002A0CBFEC
:10433000661CA66825B1304661462A46FCF7A6FAF7
:10434000002070552078C00712BF6560680020709B
:10435000204604B070BD2DE9F04F81B00D466FF0DE
:104360001001491B914246D304460078DDF828A08D
:10437000C0074FF6E670C7F6FF7098460CBF04F111
:104380000109D4F8089085420BD85019B0EB450FBD
:1043900038BF68000B2826BF103020F00F070B270E
:1043A00001E06FF01007DDF82CB0384600F0CCFCCF
:1043B000BAF1000F064604D0304649465246FCF793
:1043C00050F8A8EB0B00B0EB0A0208D00C9806EBF3
:1043D0000A01084409EB0A015944FCF742F80A2D86
:1043E00002D0484600F0AEFC47F00100A660206015
:1043F00001B0BDE8F08FFBF7CFFF70B584B0027855
:10440000044612F001000D4605D0D4E9001621F053
:104410000101013901E056080A218E4212D14FF004
:10442000000C204601220B46CDE9001CCDF808C047
:10443000FFF791FF2078C00706D0A068711C61606B
:10444000044606E00028F8D1022000EB460004F8FC
:10445000010BA0190021A555417004B070BD2DE9D4
:10446000F04104460020C4E90000A0600878C007BD
:1044700006D1D1E900028968C4E90002A1601FE009
:104480004D6815F1100F1ED2D1F808800B2D05D202
:104490006800274607F8010B5DB90FE005F1100031
:1044A00020F00F06304600F04FFC0746701C84E8F1
:1044B000A100384641462A46FBF7D3FF0020785535
:1044C0002046BDE8F081FBF767FF10B50446007891
:1044D000C00702D0A06800F035FC204610BD10B522
:1044E000044688420BD0087810F00102D1E901237C
:1044F00004BF4B1C420820461946FFF7F8FE204631
:1045000010BD10B50446006810B1606000F01AFCE0
:10451000204610BD10B50446006810B1606000F080
:1045200011FC204610BD70B516460D46044600200D
:10453000C4E9030329B1B5F1804F0CD2A80000F003
:1045400003FC00EB860100EB8502C4E90001204674
:10455000C4E9021270BDFBF71FFF10B504464068A6
:10456000A168884202D00439A160FAE7206808B146
:1045700000F0E8FB204610BD2DE9F84304469F1AE1
:104580001ED0081B0D46B84219DB10781646C7F13D
:1045900001090DF103088DF80300281BB8420EDB5A
:1045A00009EB000120464246FFF781FD38B1314654
:1045B0003A460446FFF783FD10B10134EDE72C467F
:1045C0002046BDE8F88310B541680A68426002B130
:1045D000906082688A608268134610CB844208BF6C
:1045E000134619608160086010BD10B501684A6803
:1045F000026002B1906082688A608268134610CBC4
:10460000844208BF134619608160486010BD70B5D0
:104610000246081AB0FA80F040090123087391425B
:1046200019D08C68207BB0B9A0680568A54204D079
:1046300095B115F80C6F2EB10EE04568E5B115F88F
:104640000C6FCEB9811AB1FA81F149092373017354
:104650002B700146E3E770BD22688A4204D12046F0
:10466000FFF7C3FFA468A068012121730021017333
:10467000BDE87040FFF7A7BF22688A4204D02046F9
:10468000FFF7A1FFA468A068012121730021017335
:10469000BDE87040FFF7A9BF2DE9F0434EF20012CC
:1046A000C0F2F55286469042084611D242F20F718E
:1046B0008E4526D8BEF1630F00F28B80BEF1090F44
:1046C00000F2CE800EF1300100F8011BBDE8F0834E
:1046D00043F68931C5F2E651AEFB01135B0E4CF691
:1046E000FF1103FB12ECC3F69A3149F214598E45BF
:1046F000C0F6000920D803F1300202704FF0010823
:1047000023E041F25971CDF2B711AEFB011244F230
:104710003F21C0F20F018E454FEA52317BD848F25B
:104720009F62C0F20102964500F2A88001F13002BA
:1047300002704FF0010CF3E009EB430219F813305B
:1047400052784FF002080370427041F25973CDF273
:10475000B713ACFB033548F21F5E6B0BC5F34F3448
:10476000C5F2EB1E42F2107603FB16C3A4FB0E64E7
:1047700064099EB219F81410A6FB0E6209EB4407F7
:1047800000EB08067F7800F80810642004FB00F1B5
:10479000C1EB5531777089B209EB410719F8111057
:1047A0007F78B1705109F77009EB410219F8117067
:1047B000527801FB10303771727180B209EB400101
:1047C00019F810004978B07106F10800F171BDE8E0
:1047D000F08348F21F511FFA8EF3C5F2EB11A3FBD1
:1047E00001124FEADE017C294FEA521154D801F13F
:1047F00030020270642201FB123149F21452C0F6F9
:10480000000202EB410312F811105A7841708270D5
:104810000330BDE8F08349F27F62C0F2980296450A
:1048200054D848F21F538AB2C5F2EB13A2FB0323FC
:1048300030224FEA531C02EB531264230CFB131378
:1048400049F2145C02709AB2C0F6000C0CEB420301
:104850001CF812205B78427083704FF0030C5FE00D
:1048600049F21451C0F6000101EB4E0211F81E107E
:104870005278017042700230BDE8F08349F2145260
:10488000C0F6000202EB410312F811205B780270BF
:1048900043704FF0020C43E049F2145C8AB2C0F658
:1048A000000C0CEB42031CF812205B7802706422AF
:1048B00001FB12E1437089B20CEB41021CF81110AC
:1048C00052788170C2700430BDE8F0834DF6836287
:1048D000C4F21B32AEFB022C48F21F538AB2C5F25F
:1048E000EB13A2FB03344FEA9C434FEA541C6424AD
:1048F0000CFB142249F21454C0F6000404EB430CE0
:1049000014F813309CF801C0037080F801C004EB68
:10491000420314F812205B784FF0040C8270C370CD
:1049200042F2107201FB12E148F21F548AB2C5F242
:10493000EB14A2FB042449F2145E6409C0F6000ED5
:104940001EF814500EEB440300EB0C025B7800F8E9
:104950000C50642004FB1010537080B20EEB400129
:104960001EF8100049789070101DD170BDE8F083DA
:1049700010B50446034654F8040FA0B1127804336E
:10498000047CA24202D204683CB90FE0944207D2F0
:10499000034653F8044F1CB1184603462046EFE780
:1049A0000860184610BD20460C6010BD086010BDA0
:1049B00070B50546182014460E1D00F0C5F90121FA
:1049C000C5E900062972217801746168416170BDF2
:1049D00010B504460020C3E9000099601360206808
:1049E000006808B12060136860681946FFF70FFE81
:1049F000A0680130A06010BDF0B585B00D4604463A
:104A000004A928461E46FFF7B3FF0746006808B111
:104A100000210CE001A829463246FFF7C9FF019B9F
:104A2000049928463A46FFF7D3FF019801212171E6
:104A3000206005B0F0BD10B50446034654F8040FDD
:104A4000A0B112780433047CA24202D204683CB9BB
:104A50000FE0944207D2034653F8044F1CB11846A6
:104A600003462046EFE70860184610BD20460C605C
:104A700010BD086010BD70B506460C4656F8041F00
:104A8000054600F057F820682860204650F8041FBB
:104A900031604268AA60002A0FBF2E608E6000213C
:104AA000C4E9000118BFA16070BD70B505462020A3
:104AB00014460E1D00F048F90121C5E900062972CF
:104AC0002178017494ED020B80ED060B70BD10B5DA
:104AD00004460020C3E90000996013602068006864
:104AE00008B12060136860681946FFF790FDA06860
:104AF0000130A06010BDF0B585B00D46044604A994
:104B000028461E46FFF797FF0746006808B10021B8
:104B10000CE001A829463246FFF7C7FF019B049924
:104B200028463A46FFF7D3FF019801212171206002
:104B300005B0F0BD71B1B0B50C4609680546FFF788
:104B4000F9FF61682846FFF7F5FF2046BDE8B04051
:104B500000F0F8B8704710B541680446FFF7EAFF67
:104B6000204610BD10B50446034654F8040FA0B10A
:104B700012780433047CA24202D204683CB90FE0EC
:104B8000944207D2034653F8044F1CB1184603461B
:104B90002046EFE70860184610BD20460C6010BDA7
:104BA000086010BD70B50546182014460E1D00F0B3
:104BB000CBF80121C5E900062972217801746168EA
:104BC000416170BD10B504460020C3E90000996042
:104BD00013602068006808B1206013686068194697
:104BE000FFF715FDA0680130A06010BDF0B585B0DD
:104BF0000D46044604A928461E46FFF7B3FF0746A4
:104C0000006808B100210CE001A829463246FFF7F0
:104C1000C9FF019B049928463A46FFF7D3FF019844
:104C200001212171206005B0F0BD71B1B0B50C4615
:104C300009680546FFF7F9FF61682846FFF7F5FFA9
:104C40002046BDE8B04000F07DB8704710B541681F
:104C50000446FFF7EAFF204610BD80B5D0E90023E7
:104C60009B1AB1EBA30F3CBF02EB810080BDFFF7A5
:104C70001CFA00002DE9F04184B00DF1050804464E
:104C8000B1F1FF3F08F10B0501DD424605E008F1F7
:104C900001022D2049428DF80500A81A092818DCC8
:104CA00041F00103B3FA83F3C3F1200340F2D1478B
:104CB0007B4349F2EC461F0BC0F6000656F827600E
:104CC0004FF0FF3C8E4288BF0CEB13377B1C8342B6
:104CD00004DC08461146FFF7DFFC0546A5EB080794
:104CE000002017F1100FC4E90000A06021D20A2FA4
:104CF00003D8780004F8010B0BE007F1100020F056
:104D00000F06304600F020F8711CC4E90017A060BF
:104D10000446A84508D00DF1050000BF10F8011B9E
:104D2000854204F8011BF9D10020207004B0BDE8D1
:104D3000F081FBF731FB704740F21C10C2F200001B
:104D400000687047FBF7EEBC10B50446002808BFAA
:104D5000012400BF2046FBF7AAFC002818BF10BDA5
:104D6000FFF7EAFF08B18047F4E7002010BDF0B577
:104D700091B01446026852E90256CDE90340054459
:104D800003A8CDE9051310302721FBF703FC706859
:104D9000616888421BD030680024876903A93046C7
:104DA0002A4601230094B8470C98012821D078BBEB
:104DB0000D99DDE90A0281F0010180F00100089CF3
:104DC00082F001020843104318BF002420E00120B4
:104DD0000F90316800274C69009003A930462A469D
:104DE0002B460197A0470998012818BF3D462C463D
:104DF0000EE00998012801D1079C09E00D980024D4
:104E000030B90A98012803D10B98012808BF079CE4
:104E1000204611B0F0BD000010B501F09DF868B15A
:104E2000002401F047F801460C48042C08D050F843
:104E3000242052B18A420AD00134F6E7042406E065
:104E40000420042400F03AFB01E040F82410044957
:104E500004EB440001EB401010BD00BF7081002046
:104E60008081002010B5044601F076F830B120684A
:104E70004FF0FF31BDE8104000F0ACBA10BD006843
:104E800000F0C6BA10B50446002000F0DDFA20603C
:104E900008B1012010BD0520214600F00FFB0020C5
:104EA00010BD10B5044601F057F820B12068BDE8E8
:104EB000104000F0E7BA10BD00F074B994B0FDF7EF
:104EC00069FCFDF783FC7A4C0C20A047FDF755FFE9
:104ED000DFF8E0B17849CBF8000088478146302000
:104EE000A0470DAF7549764E04464FF0000838468E
:104EF0000122CDE90D88CDF83C80B047062140F273
:104F0000E2427048CDE900216F4A704DCDE9028040
:104F10002046394613469246A8471194582010AAB5
:104F20006B4C8DF8400012A849461346A0476949CA
:104F30003846A1468847DBF800005F4988475C494E
:104F40000746302088470AAC6349054620460122BF
:104F5000CDE90A88CDF83080B04740F2E2400090B9
:104F60000620CDE901085748584E039028462146AF
:104F700052465346B047592010AA11958DF840006B
:104F800012A839461346CA46C847DFF8489120465A
:104F9000C847474C0C20A047FDF7EFFECBF80400B4
:104FA000DFF814B1D84706463020A04707AD434983
:104FB000434F044628460122CDE90788CDF82480D6
:104FC000B84740F2E24000900620CDE901083D4894
:104FD0003E4F03902046294600220023B847582020
:104FE00010AA11948DF8400012A831461346D047FC
:104FF0002846C8472F484068D8472D4F8346302061
:10500000B84704AE34492E4B054630460122CDE95F
:105010000488CDF81880984740F2E24000900620BE
:10502000CDE901082748294C039028463146002243
:105030000023A047592010AA11958DF8400012A80E
:1050400059461346D0473046C8470F200121FCF788
:1050500079FF00F0A7F80C203C46B847FDF718FF91
:10506000144EB0601420B84704462020B8471B49AE
:105070000546FDF7BBFFD6E90030B2680090204638
:105080002946FEF7EFFCF460FDF7E2FCFDF7F8FCC3
:105090002820FDF735FD1020FDF7CCFD1820FDF789
:1050A000B1FD0820FDF7E6FD00F098F8FEE700BF2F
:1050B000494D000808010020792D00087498000867
:1050C000FF410008C0878B3B00E1F5059F3C0008CD
:1050D000F9490008CB440008769800080010014008
:1050E00010B50446FCF7ECFFEFF3058028B9EFF3A9
:1050F000108010B9EFF3118030B16FF00500FCF7AC
:10510000EFFF6FF0050010BD2046DFF808C000DF9C
:1051100010BD00BF795F000810B50446FCF7EEFF34
:10512000EFF3058028B9EFF3108010B9EFF3118089
:1051300030B16FF00500FCF7D3FF6FF0050010BD34
:105140002046DFF808C000DF10BD00BF9D5F0008EB
:10515000EFF3058048B9EFF3108030B9EFF3118019
:1051600018B9EFF31480C00702D10448007A7047E1
:10517000DFF804C000DF7047D55F0008040000209E
:10518000EFF3058028B9EFF3108010B9EFF3118029
:1051900008B100F023BFDFF808C000DF704700BF90
:1051A000DD5F000880B500F08BF9FCF7CDFFEFF371
:1051B000058028B9EFF3108010B9EFF3118030B1FA
:1051C0006FF00500FCF7B2FF6FF0050080BDDFF85F
:1051D00008C000DF80BD00BFF15F000880B5FCF7AC
:1051E000C3FFEFF3058028B9EFF3108010B9EFF398
:1051F000118030B16FF00500FCF798FF6FF00500EB
:1052000080BDDFF808C000DF80BD00BF4961000835
:1052100010B50446FDF70CF8EFF3058028B9EFF35D
:10522000108010B9EFF3118038B120466FF00501FE
:10523000FDF70EF86FF0050010BD2046DFF804C042
:1052400000DF10BDED610008F8B51F4616460C469C
:105250000546FDF703F8EFF3058028B9EFF310805A
:1052600010B9EFF3118068B3E5B1DFB9D4B1287894
:10527000FA2817D12846FDF75DF9E0B16A6A0746BA
:1052800000F10C012046FBF7ECF80EB1F878307015
:105290003846FD6000F02EFB28462146FDF752F807
:1052A000002406E028466FF003016FF00304FCF7CA
:1052B000CFFF2046F8BD28462146FDF71BF86FF0CA
:1052C0000204F6E72846DFF80CC0214632463B468A
:1052D00000DFF8BD69620008EFF3058129B9EFF33B
:1052E000108111B9EFF3118109B101F045B8DFF870
:1052F00008C000DF704700BF7963000870B514462E
:105300000D460646FCF7E2FFEFF3058028B9EFF300
:10531000108010B9EFF3118038B100206FF0050153
:105320000024FCF795FF204670BD3046DFF80CC026
:105330002946224600DF0446F5E700BFA9630008BE
:10534000F8B51F4616460C460546FCF7DBFFEFF3A3
:10535000058028B9EFF3108010B9EFF3118078B30E
:10536000F5B1EFB9E4B12878FA2819D105F10C00AC
:1053700000F065F9E8B16A6A07460C302146FBF790
:1053800070F8C7E90145FE700026F920BE7038703C
:10539000384600F0AFFA28462146FCF787FF06E0C2
:1053A00028466FF003016FF00306FCF751FF30460B
:1053B000F8BD28462146FCF795FF6FF00206F6E798
:1053C0002846DFF80CC0214632463B4600DFF8BDD8
:1053D000ED640008B0B50D460446FCF7BBFFEFF3E3
:1053E000058028B9EFF3108010B9EFF3118038B1C0
:1053F00020466FF00501FCF7E5FF6FF00500B0BD3A
:105400002046DFF808C0294600DFB0BDD965000896
:1054100010B50446FCF7C6FFEFF3058028B9EFF39B
:10542000108010B9EFF3118038B120466FF00501FC
:10543000FCF7C8FF6FF0050010BD2046DFF804C080
:1054400000DF10BDAD66000810B50446FCF7C0FFD4
:10545000EFF3058028B9EFF3108010B9EFF3118056
:1054600038B100206FF005010024FCF7ABFF2046A7
:1054700010BD2046DFF808C000DF0446F7E700BF94
:105480006967000810B50446FCF7B2FFEFF305802A
:1054900028B9EFF3108010B9EFF3118038B120462E
:1054A0006FF00501FCF78EFF6FF0050010BD204680
:1054B000DFF804C000DF10BDE9670008FEE7FEE783
:1054C00010B5FFF745FE00B110BD00200121FCF72B
:1054D00039FD184C0120F021F022A0470120F121D4
:1054E000F122A0470520F221F222A0470120F3215A
:1054F000F322A0470120F421F422A0470120F52146
:10550000F522A0470120F621F622A0470120F7212D
:10551000F722A0470120F821F822A0470120F92115
:10552000F922A0470120FA21FA222346BDE81040C3
:10553000184700BFE91E0008F8B5A8B1A1B1042AB8
:1055400012D2034653F8085F01F10F0424F0070C50
:105550002E46EF1A5D6825F003043C1B644506D215
:1055600035683346002DF3D1002400231EE0D0E936
:10557000004666444660071957F8044CB44203D20B
:10558000A7F1080466605D6855B11C6825F0030545
:10559000EC504CEA02041D446C601D602B4602E096
:1055A0004CEA02045C6003F108042346FCF7ECFDBE
:1055B0002046F8BDB0B560B159B100F10804A1F1C1
:1055C00008020023944207D0254624682B46002C6D
:1055D000F8D1002400220FE051F8045C446825F063
:1055E0000305641B446013B112681A6002E00022D4
:1055F00041F8042C01240122FCF7F2FD2046B0BD45
:1056000010B508B1420705D000240022FCF7F4FDD4
:10561000204610BD1829F7D311F00702F4D10A185B
:10562000A2F108038360002342F8083C826810243A
:105630005460C0E9001401240122C360E6E7B0B55C
:10564000002817D000F1140151E8004F14B9BFF33E
:105650002F8F04E0226841E8002303B1F4E73CB156
:10566000011D51E8002F531C41E8003505B1F8E752
:10567000214602E0002400200021FCF791FD204695
:10568000B0BDB0B500281FD0C2688A421CD80269DC
:105690008A4219D900F1140213680B60BFF35F8FBF
:1056A00052E8003F0C689C42F6D142E8001505B173
:1056B000F2E7021D52E8003F5C1E42E8004505B1DA
:1056C000F8E70024002203E06FF003046FF0030208
:1056D000FCF76EFD2046B0BD70B50E4601460020B9
:1056E000E9B1E6B11446D2B11D46C3B104FB06527E
:1056F0000020C1E90060C1E90245C1E9042508466E
:10570000314622462B46FCF75FFD701E20B1291959
:10571000296001380D46F9E700202860012070BD9E
:105720002DE9F04104468078D0B3E568214628464B
:10573000FCF74CFF002005F10C0620703046214696
:10574000FFF79FFFA86848B33046FFF778FF28B3FC
:105750000446284600F02CFA0021002206464FF0AD
:10576000000800F0F9FA304600F088FA87686A6AA3
:10577000064604F10C003946FAF773FEF92084F866
:1057800002802070F0682146E0702846FCF7F2FEA7
:1057900028463946BDE8F041FCF790BDBDE8F081F0
:1057A000D4E90115A86858B34078832828D1284641
:1057B000FCF784FD284600F0FBF900210022064694
:1057C0004FF0000800F0C8FA304600F057FA86683B
:1057D0006A6A074604F10C013046FAF742FEF8689F
:1057E00008B1E178017028463146FCF7ABFD84F83A
:1057F000008005F10C002146BDE8F041FFF741BFF4
:105800002846FCF75BFD28462146BDE8F041FCF741
:10581000B1BE2DE9F041044600274FF0010814B352
:105820002546E87864690007F9D5284600212F76D7
:10583000FCF7E6FDA8680028F1D0284600F0B8F98A
:1058400000210022064600F087FAC5E90367F06AE6
:10585000686100B105612846012185F81880F5626C
:10586000FCF790FDDBE7BDE8F081000070B5CF4CA0
:1058700004F1560504F15A06B4F85400D5E85F1F48
:1058800011B9BFF32F8F04E04A1EC5E8532F03B1AF
:10589000F4E7090429D0D6E85F1F4A1C904200D8DB
:1058A0000022C6E8532F03B1F5E788B2E16D51F845
:1058B0002000D0B10178F1390829DDD8DFE801F006
:1058C00006050905050C0F051200D5E7216E88476E
:1058D000D2E7616E8847CFE7A16E8847CCE7E16EDB
:1058E0008847C9E7216F8847C6E70020BDE87040B8
:1058F00000F008B970B50146ED4800F15603B0F864
:105900005420D3E85F4FA24202D8BFF32F8F04E0A8
:10591000651CC3E8565F06B1F3E7A3B2934214D205
:1059200000F15803D3E85F4F651CAA4200D8002558
:10593000C3E8565F06B1F5E7C36DA2B243F8221083
:10594000417A39B10121817270BD0220BDE87040F9
:10595000FFF7B4BD02484FF08051016070BD00BF39
:1059600004ED00E010B501214170E84990F92030C4
:105970001C310A46896841B191F920409C42F8DC0B
:10598000C0E9021290600C3104E00021C0E902126B
:1059900002F108010860BDE81040FCF79BBD00BFA4
:1059A000B0B54A1C0DD0EB4A00242C3215462B68AA
:1059B000DBB1DD69A9421AD3491B03F110051C466E
:1059C000F5E7E449002330310C461A46236803F119
:1059D0001004002BF9D14FF0FF33C3610023C0E95D
:1059E00004329AB102F1100110E0002500E0012517
:1059F000002CC0E90434C16118BF04F1100210602A
:105A00002DB1DA69511AD96103F114010860B0BDF2
:105A1000C2690169531C0AD021B143694B61CB694A
:105A20001A44CA6142693AB9F548C162704709B17E
:105A300042694A6142691AB10023436111617047AA
:105A4000EF480163704700BFB0B5ED4DEC6A1CB183
:105A5000E0690138E06103D0B0BDE06900284DD1B4
:105A6000607813384FEA3010082831D8DFE800F0AA
:105A70000530090D13191F252B002046FCF728FBC4
:105A800026E02046FCF702FD22E0204600F0B9F8AF
:105A9000FCF744FB1CE0204600F0B3F8FCF76AFC7E
:105AA00016E0204600F0ADF8FCF7B2FC10E020460E
:105AB00000F0A7F8FCF7ACFB0AE0204600F0A1F8E4
:105AC000FCF7ECFB04E0204600F09BF8FCF732FC0E
:105AD00094F82200C0064FF0200058BF6020A16B50
