:020000040800F2
:1000000068BD00205903000861030008630300086D
:10001000650300086703000869030008000000008A
:100020000000000000000000000000009502000831
:100030006D030008000000002D0300083D030008C8
:1000400073030008730300087303000873030008B8
:1000500073030008730300087303000873030008A8
:100060007303000873030008730300087303000898
:100070007303000873030008730300087303000888
:100080007303000873030008730300087303000878
:100090007303000873030008730300087303000868
:1000A0007303000873030008730300087303000858
:1000B0007303000873030008730300087303000848
:1000C0007303000873030008730300087303000838
:1000D00073030008E1270008730300087303000896
:1000E0007303000873030008730300087303000818
:1000F0007303000873030008730300087303000808
:1001000073030008730300087303000873030008F7
:1001100073030008730300087303000873030008E7
:1001200073030008730300087303000873030008D7
:1001300073030008730300087303000873030008C7
:1001400073030008730300087303000873030008B7
:1001500073030008730300087303000873030008A7
:100160007303000873030008730300087303000897
:100170007303000873030008730300080000000005
:100180007303000873030008730300087303000877
:100190007303000873030008730300087303000867
:1001A00073030008730300087303000800F002F8EB
:1001B00000F05DF80AA090E8000C82448344AAF1A4
:1001C0000107DA4501D100F052F8AFF2090EBAE8A2
:1001D0000F0013F0010F18BFFB1A43F0010318477B
:1001E000C4B60000E4B60000103A24BF78C878C155
:1001F000FAD8520724BF30C830C144BF04680C602D
:10020000704700000023002400250026103A28BF74
:1002100078C1FBD8520728BF30C148BF0B60704778
:1002200066290AF08885732900F0EB860020704764
:100230001FB50AF06BFD9DE8030000F05BFC00F0C9
:10024000A5FF04000020002109F002FF401C6060AF
:100250000020002109F0E6FEE06000F0C5F91FBDB6
:1002600010B5002000F0F1FE01F070FB10BD00F0B1
:1002700068FF114603B406F0AFF903BCFFF7D8FFDF
:1002800006F0AEF901F032FB03B4FFF7E9FF03BC5F
:1002900000F0BCF91EF0040F0CBFEFF30880EFF381
:1002A0000980816911F8021C91BB01B590E80F101B
:1002B000E047BDE800508CE80300244B93E80600BB
:1002C000914208BF704741B91EF0100F10D120496C
:1002D000086820F0010008600AE02CE9F00F1EF029
:1002E000100F08BF2CED108AC1F838C081F822E049
:1002F0001A6092F82210906B61F0FF0E1EF0100F42
:1003000008BFB0EC108AB0E8F00F80F3098870479E
:10031000104A13689942FAD801B552F821C00FC8A3
:10032000E047BDE80050CCF80000704701B506F08A
:10033000E7FEBDE80140EFF3098CBEE701B507F029
:1003400071F9BDE80140EFF3098CB6E72000002009
:1003500034EF00E004B80008094880470948004726
:10036000FEE7FEE7FEE7FEE7FEE7FEE7FEE7FEE765
:10037000FEE7FEE704480549054A064B70470000C2
:10038000BD260008AD01000868A9002068BD002056
:1003900068B9002068B9002010B5002000F0E9FA23
:1003A000FFF75EFFBDE81040012000F02FB90B46BB
:1003B0000146184600F0C6BA40EA010310B59B0793
:1003C0000FD1042A0DD310C808C9121F9C42F8D0BF
:1003D00020BA19BA884201D9012010BD4FF0FF3070
:1003E00010BD1AB1D30703D0521C07E0002010BD86
:1003F00010F8013B11F8014B1B1B07D110F8013B12
:1004000011F8014B1B1B01D1921EF1D1184610BDF2
:1004100010B5431C02E010F8011B71B18107FAD13D
:100420004FF0013202C88C1A8C4314EAC211F9D081
:10043000C01A0A0603D0C01E10BDC01A10BD0A049F
:1004400001D0801E10BD0902FCD0401E10BDCBB2F1
:100450002AB101788B4203D0401C521EF9D10020F2
:100460007047032A40F2308010F0030C00F0158032
:1004700011F8013BBCF1020F624498BF11F801CBA7
:1004800000F8013B38BF11F8013BA2F1040298BF0C
:1004900000F801CB38BF00F8013B11F0030300F076
:1004A0002580083AC0F0088051F8043B083A51F81A
:1004B00004CBA0E80810F5E7121D5CBF51F8043B1F
:1004C00040F8043BAFF30080D20724BF11F8013B92
:1004D00011F801CB48BF11F8012B24BF00F8013BF4
:1004E00000F801CB48BF00F8012B704710B5203A47
:1004F000C0F00B80B1E81850A0E81850B1E81850CF
:10050000A0E81850203ABFF4F5AF5FEA027C24BFA0
:10051000B1E81850A0E8185044BF18C918C0BDE889
:1005200010405FEA827C24BF51F8043B40F8043B52
:1005300008BF7047D20728BF31F8023B48BF11F807
:10054000012B28BF20F8023B48BF00F8012B704761
:100550004FF000020429C0F0128010F0030C00F0EC
:100560001B80CCF1040CBCF1020F18BF00F8012B6A
:10057000A8BF20F8022BA1EB0C0100F00DB85FEA38
:10058000C17C24BF00F8012B00F8012B48BF00F804
:10059000012B70474FF0000200B513469446964673
:1005A000203922BFA0E80C50A0E80C50B1F1200186
:1005B000BFF4F7AF090728BFA0E80C5048BF0CC034
:1005C0005DF804EB890028BF40F8042B08BF704792
:1005D00048BF20F8022B11F0804F18BF00F8012B04
:1005E000704770477047704770B5064C7C44064DA5
:1005F0007D4404E02046016808448047241DAC4245
:10060000F8D170BD10B4000010B4000001491820EA
:10061000ABBEFEE72600020005F08EBF0844401E78
:10062000491E884370470821001DF7E72DE9F04176
:1006300017460E460446FFF7F6FFA042054633D99B
:10064000002F1CBF06F10C0005F09CFF30467468BB
:10065000F4B12168A94217D305F1080291423CBFC9
:100660006168416007D3626861194A602268521B61
:100670000A6041602560002F1CBF06F10C0005F0E8
:10068000A0FF201DBDE8F08120466468002CE0D169
:100690002946304600F01AFA0028D7D1002F1CBF97
:1006A00006F10C0005F08DFF0020BDE8F08110B5CB
:1006B000044600F0FDF901682046BDE81040012223
:1006C000B4E770B516460D46041F002808BF70BD7C
:1006D000002E1CBF05F10C0005F054FF2B46586896
:1006E000002818BFA04238BF0346F8D31968CA18BB
:1006F000A24218BF5C6003D122681C4611441960F5
:1007000021680A19824218BF606004D142686260A1
:10071000006808442060002E1CBF05F10C0005F0A5
:1007200050FF70BD10B5044600F0C2F901682046C4
:10073000BDE810400122C4E710B5FFF76DFF006867
:1007400010BD10B50446FFF767FF046010BD000040
:100750000FB47CB50C0009AA009001D02044401EC3
:10076000084B7B4469460190089800F018FC054648
:100770001CB10020694600F025FC28467CBC5DF8D1
:1007800014FB00006908000070B50C460546012AFC
:1007900005D02878800600D5EA69002302E001230D
:1007A00005E05B1C934202D2E05C0028F9D1A86905
:1007B000E618C01AA861286A184428622846AFF3D0
:1007C000008004E0D5E9012114F8010B9047B44200
:1007D000F8D32846AFF3008070BD2DE9F0410F46F5
:1007E0000546002028622846E968884770B3252816
:1007F00005D0D5E901219047286A401CF2E7E96855
:100800002846002688476C2804460AD0682C08D061
:100810004C2C35D06A2C31D0742C31D07A2C2FD07E
:1008200016E0E968064628468847B042044608D1E3
:100830006C2E23D04FF480662846E968884704462A
:1008400006E06C2E03D04FF4807601E01EE04026D7
:10085000E4B1A4F14100192802D8203446F400661E
:100860003A46214628462E60FFF7DAFC60B101289F
:1008700008D0FF1D27F007070837B4E78026DBE71D
:100880000026D9E73F1DAEE72046B2E7286ABDE85B
:10089000F08100000FB40B0010B54FF000048AB0D7
:1008A0000FA900910E99CC60234C7C44234A7A44D2
:1008B000CDE9064200D004236FF00042CDE90132B9
:1008C0001F4A7A446B460892024600200AF095FAC5
:1008D0000AB010BC5DF814FBF0B507464FF0FF30CE
:1008E0001E4615460C463B4685B06A460091CDE94A
:1008F000010131460020049004A8FFF7CBFF0499C2
:100900000346601825B109B1024600E022462A607C
:1009100000290ED0002B02DD0099814209D03B4610
:100920006A463146001B0094CDE9010404A8FFF794
:10093000B1FF05B0F0BD00005D07000077070000C3
:100940009F0200002DE9F041074615460E46102093
:10095000FFF7ADFE04000AD06760C4E9026500F04D
:10096000ACF80168216004600020BDE8F08101203E
:10097000FBE710B500F090FBBDE8104000F086BB2F
:10098000431A28BF9A427FF66CAD10441144032AE3
:1009900040F2268010F0030F1EBF11F8013D521ED9
:1009A00000F8013D10F0030F7FF4F6AF11F00303E0
:1009B00000F09D83083AC0F00B8051F8043D083ADE
:1009C00051F804CD40F8043D40F804CDFFF7F3BFE3
:1009D000121D5CBF51F8043D40F8043DAFF30080A8
:1009E000D20724BF11F8013D11F801CD48BF11F81D
:1009F000012C24BF00F8013D00F801CD48BF00F8EC
:100A0000012C704702F0FF0343EA032242EA02424C
:100A1000FFF7A0BD0000000030B44FF0013C50F8DB
:100A2000042B51F8043BCCFA52F4D51A20D1FCB96E
:100A300050F8042B51F8043BCCFA52F4D51A17D1D4
:100A4000B4B950F8042B51F8043BCCFA52F4D51A3F
:100A50000ED16CB950F8042B51F8043BCCFA52F487
:100A6000D51A05D1002CDAD030BC4FF00000704709
:100A700029BAB1FA81F111F01801D1F120008440B6
:100A8000F2D1CA40CB4012F0FF0213F0FF0330BC9A
:100A9000D01A704700487047C0000020704700001F
:100AA00010B500F073FB001D10BD00BFA595000040
:100AB00010B5FFF7EFFF083010BD10B5FFF7EAFFE4
:100AC000383010BD704770477047704738B50446DE
:100AD0000A4600206946AFF30080002808BF38BDF1
:100AE00002460099204600F05DFB012038BD012040
:100AF00000F01EBFF8B5AFF30080054600200C469D
:100B0000102000BF0646A819A0420DD932466946FA
:100B10000020AFF30080070008BF00F009FF009835
:100B2000A04218BF0546C419FFF7C2FF056007467B
:100B3000F01D20F007004619284600F00AF8B442DC
:100B400008BFF8BDA21B31463868BDE8F84000F088
:100B500029BB00210160C0E901100C3005F022BD65
:100B60001020704710B50446FFF79AFF0068005D3B
:100B700000F0010010BD2DE9FF4F0C461E464FF05E
:100B8000FF378BB0D2E90001DDF860800A908A4619
:100B9000C1F30A5505B93D46002108464FF0000053
:100BA000BAF1000F00F4400005DA00EB80004FF4CA
:100BB000400101EA50004FEA9059B9F1010F00DD00
:100BC000B9460A9850EA4A000ED044F61050A5F2F1
:100BD000FF3545432F14B8F1000F1ED07542291E72
:100BE0001EDDC9F100021CE0B8F1010F4FF000005A
:100BF00001D0302103E0F24305E02154401CB04213
:100C0000FBDB30460022002121540B99C1F80880FB
:100C1000C1E900200FB0BDE8F08FBD1B6D1CDEE701
:100C20004A4600DA694206A800F0EEFD06AB93E8FA
:100C3000070003AB83E8070050460A9907F0C8FC99
:100C40008DE80700A0F500501F3800900398002D94
:100C50000ADD42F21F014A460844002303A903901B
:100C6000684607F073FF09E0A0F500504A461F38B8
:100C7000002303A90390684607F092FF8DE8070060
:100C80000004000C03D04FF0FF30410800E0104694
:100C9000B8F1000F03D00022009215461EE0751E29
:100CA00005D400F0A1FA303262556D1EF9D5B34675
:100CB0000122084302D000227F1C04E02078302863
:100CC00001D100227F1E002A099784D01DE0112D3A
:100CD00007DA00F089FA303262556D1C50EA0102E1
:100CE000F5D1084302D00098C8B10EE00021681E7B
:100CF00005E0235C625C63542254401E491C81421F
:100D0000F7DBAB46A81B401E0990002004F80B003F
:100D10000B98099AC0F80880C0E9002B7AE71126E1
:100D20004FF0000857E72DE9F04F88460446D21DE2
:100D300022F0070191B0D1E90001CDE90A0108F0E4
:100D40007BF802460B98C00F01D02D2007E02068E9
:100D5000810701D52B2002E0202101EAC000032AEF
:100D6000099001D0072A05DB03464146204600F0E2
:100D700081FA0BE12078800601D5E06900E00620C9
:100D8000B8F1650F814606D0B8F1660F18D0B8F1FA
:100D9000670F70D131E00020B9F1110F009001DB35
:100DA000112301E009F101030AAA01A90CA8FFF728
:100DB000E2FEDDE90C70002609F10105834647E0FB
:100DC00001204B4600904FF000470AAA01A90CA849
:100DD000FFF7D1FEDDE90DB00C995D46002610B994
:100DE00009F101000D18B9EB050003D4C0F1FF367D
:100DF00009F10105A5EB09002BE0B9F1010F01DABA
:100E00004FF001090020B9F1110F0090484601DDB3
:100E1000112300E003460AAA01A90CA8FFF7ABFEC4
:100E2000DDE90C704D4600268346207800070AD481
:100E3000AB4500DA5D4601A8012D04DD411911F82A
:100E4000011C302907D04F4502DA17F1040F04DAEC
:100E5000012082460FE06D1EEEE7002F02DCED1B45
:100E60003E4403E0781CA84200DD7D1CB81B00F165
:100E7000010A4FF000472078000703D4AA4501DBA0
:100E80004FF0FF3A0021B7F1004F0DF143088DF804
:100E9000431024D002202B23002F01DA7F422D2380
:100EA0000A21021EA0F1010000DC5FB197FBF1FCFA
:100EB00097FBF1F201FB1C7C17460CF1300C08F893
:100EC00001CDEEE7A8F1010003702188090501D5E5
:100ED000452100E06521A0F1010800F8011C0998F6
:100EE0000FA9A1EB0807FF1D00B10120411901EB7B
:100EF000EA70A1693844081A401EA0612078C00633
:100F000002D42046AFF30080099828B1D4E901212A
:100F10009047206A401C20622078C00622D52046D7
:100F2000AFF300801EE0002E04DBB34502DD01A814
:100F3000805D00E03020D4E901219047206A401C08
:100F40002062761CAAF101005FEA000A0AD100F0D3
:100F50001DF9C0680168405CD4E901219047206A0E
:100F6000401C2062281EA5F10105DCDC07E0D4E965
:100F7000012118F8010B9047206A401C2062381E9E
:100F8000A7F10107F3DC2046AFF30080032011B086
:100F900041E6000001694A1C02610878704700B50B
:100FA0008FB0CDE901310021059105497944CDE9A2
:100FB000031011466846FFF710FC0FB000BD00009B
:100FC000E5FFFFFF0A6802F8010B0A607047D1E9EC
:100FD00000239A4202D2531C0B601070704710B568
:100FE000436913B1AFF3008001E0FFF7CDFB0120AF
:100FF00010BD127800F124010A7000224A7001220B
:10100000EDE711684FF0FF32E9E7426842B101684D
:1010100011F8013B23B1521EC0E900121846704777
:101020000121C160881E704742685AB1C3680168D7
:1010300043B983688B4205D0491E521CC0E9001297
:10104000002070474FF0FF3070472DE9F041064611
:10105000FFF733FD8046454613E016B1E068B04225
:101060000ED120682860D4E90101D8F800708847C3
:101070002046FFF757FBD8F80000B842EBD100E05C
:1010800025462C68002CE8D1BDE8F081002801D06D
:10109000FFF7BCBA7047000010B5002102A000F0B5
:1010A0002EFC012010BD0000534947414252543AE2
:1010B0002041626E6F726D616C207465726D696E35
:1010C0006174696F6E000000431A28BF9A427FF670
:1010D0000DAA1044114410F0030F1EBF11F8013D7A
:1010E000521E00F8013D10F0030F7FF4F6AF103AE6
:1010F000C0F00A8010B531E9185020E91850103AB4
:10110000BFF4F9AFBDE81040530724BF31E9081020
:1011100020E9081044BF51F8043D40F8043D12F0A6
:10112000030F08BF7047D20728BF31F8023D48BF00
:1011300011F8012C28BF20F8023D48BF00F8012C0F
:1011400070477546FFF7A6FCAE4605006946534654
:1011500020F00700854618B020B5FFF70BF9BDE871
:1011600020404FF000064FF000074FF000084FF00E
:10117000000BAC46ACE8C009ACE8C009ACE8C0095B
:10118000ACE8C00921F007018D46704710B5FFF7A4
:1011900081FC203010BD801A0844401E491E88433F
:1011A0001044704770B5144605468C464368002BC2
:1011B00018BF634538BF1846F8D30268104460452D
:1011C00008D06646604604220821FFF7E4FF811B31
:1011D0008446641A2946CCF80040BDE870400022DD
:1011E0000CF10400FFF76DBA30B5B0F10A0271F1ED
:1011F00000034FEA900E4EEA817EB0EB0E0061EBE9
:1012000091014FEA101E4EEA017E10EB0E0041EBF9
:1012100011114FEA102E4EEA016E10EB0E0041EB59
:1012200011214FEA104E4EEA014E10EB0E0041EB39
:101230001141401841F100014FEAD00040EA4170ED
:101240004FEAD1014FEA810444EA907410EB800523
:1012500044EB01046D1944EB0404521BA3414FF00D
:10126000000348BF0A3200D530BD401C41F10001E7
:1012700030BD00002DE9F0411F46044603260168F9
:10128000072A01F4006004DB08B116A505E016A5E5
:1012900003E008B115A500E015A521F010002060BD
:1012A000A069C01EA0610FB1401EA0612046AFF32F
:1012B00000804FB1D4E9012138469047206A401C94
:1012C0002062C01C206206E0206AFAE7D4E901210E
:1012D00015F8010B9047761EF8D22046AFF3008038
:1012E000BDE8F0814E414E006E616E00494E4600F1
:1012F000696E66003A2800D2303820F02002412A78
:1013000001D3A2F13700884201D34FF0FF3070477C
:101310002DE9FF4F06468BB00878FF2806D0491C00
:101320002D2805D000244FF0000908E000200CE033
:101330000124F8E709EB8903491C00EB430908780D
:10134000FF28F7D114B1C9F10000814610780025BB
:101350002C46AA4629462D2801D02B2804D1521C00
:101360002D2813D0002082468B461078FF280FD0FE
:101370004FF0000C0A21521CA5FB017804FB0181EF
:1013800005FB0C11C5194BEB0104EEE70120EAE760
:10139000002108464FF00000BAF1000F02D000EB28
:1013A00080004008C0F38157012F01DD4FF0FF3767
:1013B0000E9955EA040009EB01080BD04FF0020921
:1013C00018F5FA7F16DA4FEACA70002F706008DD50
:1013D000012007E04FEACA70C6E900B00FB0BDE8CF
:1013E000F08F00203060FFF717F9C0F80090182147
:1013F000084616E0B8F5FA7F18DD002F02DAF74844
:10140000784401E0F6487844D0E90010C6E90010BD
:1014100040EACA707060FFF7FFF8C0F8009014212E
:1014200008460FB0BDE8F04F09F082BC0021084625
:101430004FF00000B8F10001099002DAC7F1000294
:1014400000E03A4601DAC8F1000106A800F0DCF934
:1014500006AB93E8070003AB83E8070044F23E00C5
:101460005BEA04010090584604D144F21E012C4668
:101470005D460091210C0904014306D10099240422
:1014800044EA15442D041039009104F07F410143D2
:1014900006D10099240244EA15642D02083900910E
:1014A00004F07041014306D10099240144EA157407
:1014B0002D01091F009104F04041014306D100991C
:1014C000A40044EA9574AD00891E009104F0004127
:1014D000084304D100986D196441401E00904FF0FC
:1014E00001033A466846B8F1000FCDE9014503A96A
:1014F00002DD07F06AFB01E007F03DFBBAF1000FE7
:1015000004460D4601D084F00044002108464FF007
:101510000000099940F2FF77484010F00C0F07D106
:1015200024F00040284303D0C4F30A50B84212D13B
:10153000FFF772F8C0F80090C4F30A50B8420AD11D
:10154000A8487844D0E90010C6E9001004F0004132
:101550000843706042E7C6E900543FE72DE9FF4FBA
:101560001F464FF0000A4FF0FF38454691B0D7E9CB
:101570000146CDF83CA0FFF709FEC0680168405C59
:101580001090B96912986D1C8847396A814688475E
:101590000028F6D1B9F1FF3F0AD0002E24F4D06420
:1015A00011DDB9F12B0F08D0B9F12D0F0BD102E0ED
:1015B000404615B013E744F48064B96912986D1C75
:1015C0008847761E8146600504A901D52D2000E0DC
:1015D0002B20002E01F1010B0DF130088DF81000C9
:1015E0003FDDB9F1690F08D0B9F1490F05D0B9F164
:1015F0006E0F02D0B9F14E0F1CD13B4601A80095E9
:1016000080E85002DDE912126FF0020009F0F9FBE8
:10161000C11CCED10EE0B96912986D1C8847814675
:101620001398761E44F4007405600F98401C002E39
:101630000F9016DDB9F1300FEDD0B9F1780F02D06F
:10164000B9F1580F0DD10F9801280AD13B46CDE9C9
:101650000054DDE91212001F029609F0D0FBC11CF4
:10166000A7D1109989453ED144F0800406E0139932
:10167000681CAAF1010A44F400740860B9696D1C81
:101680001298761E884730288146F0D02BE01099BA
:10169000894505D1200603D4761E44F0800418E065
:1016A000484608F02CFC08B3761E0DF12302934542
:1016B000A9F1300044F4007406D20BF8010B2006A7
:1016C00007D5AAF1010003E0200602D40AF10100C7
:1016D0008246A00502D51399681C0860B969129862
:1016E0006D1C88478146002ED1DC53E0002E51DD71
:1016F000B9F1650F02D0B9F1450F4BD1A00549D51D
:10170000B9696D1C1298761E24F440748847002E27
:1017100081460CDD2B2804D0B9F12D0F07D144F4FC
:101720008074B96912986D1C8847761E8146E00561
:1017300001D52D2100E02B2108F8011BCDF80080F8
:1017400021E0761E0DF13901884544F400740CD275
:10175000A9F1300010F0FF0088F8000002D10099D4
:10176000884509D908F1010806E0E00501D51E48C1
:1017700001E042F20F708246B96912986D1C8847E9
:10178000814613980560002E04DD484608F0B7FB3B
:101790000028D6D1F96912988847FF2053468BF864
:1017A000000088F8000000200A900B9004AA0CA901
:1017B0000AA8FFF7ADFDA00502D46FF00100F8E61E
:1017C00014F0240F12D0E0071CD13868DDE90A12AA
:1017D000031D3B600068C0E9001213E0C8A40000CC
:1017E000BAA400007EA30000F1D8FFFF0AA9684652
:1017F00008F072FBE00705D13868009A011D3960D6
:10180000006802602846D4E62DE9F0478146164676
:101810008AB0354878440DC88DE80D0032487844C8
:10182000801C03AC0DC884E80D0041F69B300844D1
:10183000372190FBF1F290FBF1F5A5F1800501FB5A
:1018400012041B3C02D56442012000E00020DFF8B6
:1018500098A080460027FA44AAF1BE0A0EE0E007ED
:101860000AD03246684607EB470101230AEB8101A3
:1018700007F096F98DE8070064107F1C002CEED16C
:10188000194F7F44AE3F19E0E80715D007EB04106D
:101890000DF1180A90E80E008AE80E00C068F042C8
:1018A00001D1981908903246012306A903A807F030
:1018B00077F903AB83E807006D10641C002DE3D1BA
:1018C0004FF0010332466946B8F1000F03A802D079
:1018D00007F03CF901E007F063F9C9E90001C9F834
:1018E00008200AB0BDE8F0872C97000010B5044628
:1018F000AFF300802046BDE81040FEF7C5BC70B5D0
:1019000005460C460A2000E06D1C00F018F835B1C1
:1019100028780028F8D102E0641C00F010F814B117
:1019200020780028F8D1BDE870400A2000F007B800
:1019300010B500F027F8BDE81040FFF7A7BB08B5C9
:1019400069468DF800000320ABBE08BD10B5FFF757
:10195000AFF80068BDE8104000F03CB8B2F12003D9
:101960000AD5C2F1200301FA02F120FA03F341EA99
:10197000030100FA02F0704700FA03F14FF0000093
:101980007047000010B5012805D0002103A0FFF723
:10199000B6FF012010BD09A1F8E7000053494752E6
:1019A000544D454D3A204F7574206F66206865612F
:1019B00070206D656D6F7279000000003A204865F7
:1019C0006170206D656D6F727920636F72727570D2
:1019D0007465640010B50C3004F0E1FD10BD00002A
:1019E0002DE9FF4F1F464FF03C0987B04FF00042F2
:1019F000DDE9141001F10108DDF858A002EA4050B9
:101A00000390002005908346054604460490B9697A
:101A1000461E08988847AAF1010A0290BAF1000F01
:101A20003BDD02982E2815D01021FFF763FC00281B
:101A30002EDB4FF0010B0599014317D0B9F1000FD0
:101A40000BDB4A46C117FFF789FF05430C43A9F199
:101A5000040905E0012004900BE008B145F0010500
:101A600001200590049820B9361D02E0049800B1C9
:101A7000361FB969089808F101088847BBF1000FC3
:101A8000AAF1010A0290C9D00999C1F80080C5E7FE
:101A90000298702808D0502806D0F969089888471D
:101AA000BBF1000F14D04FE0002002900120BBF1E9
:101AB000000F049009D0B969089808F10108884717
:101AC000AAF10109B9F1000F07DCF9690898884704
:101AD0006FF001000BB0BDE8F08F2B2804D02D284B
:101AE0000CD14FF0FF300490B969089808F1010853
:101AF0008847A9F10109B9F1000FE6DD411CE4D0E6
:101B00000A21FFF7F7FB0028DFDB029908F1010843
:101B100001EB810100EB41000290B9690898884708
:101B20000A21FFF7E7FB099AA9F10109B9F1000FB2
:101B3000C2F8008001DD0028E7DAF96908988847D3
:101B40000499029800FB016655EA040004D004F0F1
:101B50004041090002D006E0039898E0A40044EA5E
:101B60009574AD00B61E04F00041080002D16D1955
:101B70006441761E159810F0240F03D04FF00B0926
:101B80005C4803E04FF028096FF07D00824656451F
:101B900007DAAAEB06018944B9F1410F01DD4FF0E4
:101BA000410901200021A9F10102FFF7D7FE0246F9
:101BB00028400B462140084301D0012100E00021CC
:101BC000501E029143F1FF3128402140084301D0CB
:101BD000012000E000200299834651EA0B014FD01A
:101BE000002108464FF00000039900F4400039B18D
:101BF00000EB80004FF4400100EBD07001EA600080
:101C00008015012802DD4FF0FF3000E013D0401CAA
:101C100036D0029860B3BBF1000F0CD14A460120C8
:101C20000021FFF79BFE28402140084301D00120FE
:101C300000E00020E0B101204A460021FFF78EFEBF
:101C4000034640190A4661412D1A8C4111D3B9F15E
:101C5000400F09DD159810F0240F02D0AAF13406C8
:101C600003E0AAF1170600E0761C00254FF00044BF
:101C700006E05B1E42F1FF3220EA030521EA02047E
:101C8000CAF10100B04206DA1B49039808430190EB
:101C9000002000900EE0039AC4F3D321E80A0A431F
:101CA000164940EA44500A433146CDE900026846ED
:101CB00008F01BF9159810F0240F0BD01598C007E9
:101CC00015D13868DDE90012031D3B600068C0E9EA
:101CD00000120CE002A8694608F0FEF81598C0074B
:101CE00005D13868029A011D3960006802604046DB
:101CF000F0E6000002FCFFFF0000F07F0000F03F74
:101D00002DE9FF4F92461D4685B04FF00041DDE9B9
:101D1000124BDDE914727F1E01EA4B50414940F03D
:101D2000FF4940EA0108002122F0200049280491DF
:101D300002D04E2828D04CE03BA0012607C88DE8F1
:101D40000700A9690698641C88477F1E014606D4CF
:101D50001DF8060018B121F0200181420BD0E9697D
:101D600006988847032E34D0082E32D06FF0010039
:101D700009B0BDE8F08F761C032E01D0082EE0D10B
:101D8000601CCAF80000DCE7A9690698641C884753
:101D90007F1E2AD420F02000412826D1A969069868
:101DA000641C88477F1E20D420F020004E281CD1C0
:101DB000A9690698641C88477F1E48F4002849F4E6
:101DC0008009CAF8004001D4282806D0E96906989D
:101DD00088475FEACB7012D022E0A9690698641C9C
:101DE00088477F1E01D4002803DAE96906988847EE
:101DF000BCE72928F1D1641CCAF80040E9E71BF0D0
:101E0000240F07D028680499031D2B600068C0E9DF
:101E1000001805E02868021D2A600068C0F80090DC
:101E20002046A5E70000F07F494E46494E495459E7
:101E3000000000008249097851B1064AC0F3C6216A
:101E4000515CC0F3022021FA00F000F0010070475D
:101E5000002070478021002070B5794C264656F846
:101E6000185F00F0F1F856E8001F46E8000202B1E2
:101E7000F9E7A942F2D1A84208D204F1100151E8D1
:101E8000002F531C41E8003404B1F8E770BD00BFD7
:101E9000F8B514460D460646FFF7CCFF98B1374615
:101EA000C0F20807FFF7D8FF0146EFF305800028CE
:101EB00008BFB7B207F140702A46234601B0BDE81B
:101EC000F04000F041B80120F8BD00002DE9F047D6
:101ED000994692460F460646FFF7ACFF58B3DDF829
:101EE00020803446C0F20804FFF7B6FF0546EFF342
:101EF00005800028524808BFB4B20130D0E84F1F17
:101F00004A1CC0E8432F03B1F8E74FF4E02000EA91
:101F10000146A01900F1807029463A46534600F068
:101F200013F858B10748294630434A464346BDE8AE
:101F3000F04700F009B80120BDE8F0870020BDE8B7
:101F4000F08700BF010000022DE9F04F4FF08054F0
:101F500091464FF0005204EAD10402EA990220436C
:101F600010434FF0804202EA530240EA020834482C
:101F7000DFF8D0E09A468B466FF0070600F1040CBC
:101F8000013680F05180614651E8005F681C41E8ED
:101F9000000404B1F8E705F4F0506FF35F250EEB91
:101FA000051448EAC02004F10C0740F0406257E8ED
:101FB000000F810103D3BFF32F8F002006E000F054
:101FC0000040104347E8000303B1F0E74101D7D5D3
:101FD00080F004402BF0004100F0004211442B013E
:101FE0004EF803102AF0004129F0004311441A442E
:101FF000C4E9012157E8002F920103D2BFF32F8FCC
:10200000002104E047E8000303B1F3E7012159B1DF
:102010000B48083050E8001F4A1C40E8002303B179
:10202000F8E70120BDE8F08F05480C3050E8001FAC
:102030004A1C40E8002303B1F8E70020BDE8F08F18
:10204000002200208001002001480068704700BF86
:10205000041000E0014602480022FFF719BF00BF4C
:1020600001F30100014602480022FFF711BF00BF43
:1020700005F3020001464FF473400022FFF708BF4A
:10208000014602480022FFF703BF00BF03F302002E
:10209000014602480022FFF7FBBE00BF02F3010029
:1020A000014602480022FFF7F3BE00BF04F302001E
:1020B000014602480022FFF7EBBE00BF0DF502000B
:1020C00001464FF471400022FFF7E2BE014602488C
:1020D0000022FFF7DDBE00BF06F101000146024805
:1020E0000022FFF7D5BE00BF13F101000248002116
:1020F0000022FFF7CDBE00BF01F101000248002120
:102100000022FFF7C5BE00BF02F102000248002115
:102110000022FFF7BDBE00BF07F101000248002109
:102120000022FFF7B5BE00BF08F102001CB514463F
:102130000A460146024800932346FFF7C7FE1CBD2E
:1021400001F002000A4601460148FFF7A1BE00BFA8
:1021500004F00200E0B513460A4601460020009054
:102160000148FFF7B3FE8CBD05F002001CB5144614
:102170000A460146024800932346FFF7A7FE1CBD0E
:1021800003F00200E0B513460A4601460020009025
:102190000148FFF79BFE8CBD02F00200E0B513463C
:1021A0000A460146002000904FF43C30FFF78EFEB7
:1021B0008CBD0000014602480022FFF769BE00BF47
:1021C00008F902000A4601460148FFF761BE00BF58
:1021D00003FA0200014602480022FFF759BE00BF81
:1021E00017FA0100014602480022FFF751BE00BF66
:1021F00018FA02000A4601464FF47A40FFF748BE3B
:102200001CB514460A460146024800932346FFF7D0
:102210005DFE1CBD0CFA0100E0B513460A460146FE
:10222000002000900148FFF751FE8CBD0DFA02001E
:102230000A4601460148FFF72BBE00BF14FA010011
:10224000014602480022FFF723BE00BF0EFA02003B
:102250000A4601460148FFF71BBE00BF09FA02000B
:102260000A4601460148FFF713BE00BF0AFA020002
:10227000E0B513460A460146002000900148FFF7EA
:1022800025FE8CBD01FA01000A4601460148FFF710
:10229000FFBD00BF0BFA02000A4601460148FFF7E6
:1022A000F7BD00BF10FA02001CB514460A460146ED
:1022B000024800932346FFF709FE1CBD06FA010001
:1022C000E0B513460A460146002000900148FFF79A
:1022D000FDFD8CBD07FA0200014602480022FFF70F
:1022E000D7BD00BF08FA02000A4601460148FFF7C1
:1022F000CFBD00BF0FFA02000A4601460148FFF7B2
:10230000C7BD00BF06F701000A4601460148FFF7B6
:10231000BFBD00BF07F70200014602480022FFF7D9
:10232000B7BD00BF08F702000A4601460148FFF7A3
:10233000AFBD00BF09F702000A4601460148FFF79A
:10234000A7BD00BF03F70200014602480022FFF7C5
:102350009FBD00BF0EF70100014602480022FFF7B3
:1023600097BD00BF0FF702000A4601464FF47740C1
:10237000FFF78EBD014602480022FFF789BD00BF6E
:1023800001F70100014602480022FFF781BD00BFAE
:102390000AF70200014602480022FFF779BD00BF9C
:1023A0000BF701000A4601460148FFF771BD00BF67
:1023B0000CF70200014602480022FFF769BD00BF8A
:1023C00008F802000A4601460148FFF761BD00BF58
:1023D00016F203000B4601460348002A0CBF1A46BA
:1023E0002930FFF755BD00BF03F202000146024845
:1023F0000022FFF74DBD00BF1CF202000A46014655
:102400004FF47240FFF744BD024800210022FFF75D
:102410003FBD00BF1AF201001CB514460A46014632
:10242000024800932346FFF751FD1CBD09F402004A
:10243000014602480022FFF72BBD00BF08F402004E
:10244000014602480022FFF723BD00BF06F201004B
:10245000014602480022FFF71BBD00BF15F2020033
:10246000E0B513460A460146002000900148FFF7F8
:102470002DFD8CBD01F20100014602480022FFF74C
:1024800007BD00BF18F203000A4601460148FFF7E6
:10249000FFBC00BF2DF202000A4601460148FFF7CB
:1024A000F7BC00BF0AF20100014602480022FFF714
:1024B000EFBC00BF19F202000A4601460148FFF7CF
:1024C000E7BC00BF17F203000A4601460148FFF7C8
:1024D000DFBC00BF01F602000A4601460148FFF7D3
:1024E000D7BC00BF04F602000A4601464FF476400E
:1024F000FFF7CEBC1CB514460A46014602480093BD
:102500002346FFF7E3FC1CBD02F601000A46014624
:102510000148FFF7BDBC00BF07F6010001460248B5
:102520000022FFF7B5BC00BF08F6020010B500F1AD
:10253000280151E8002F12B9BFF32F8F04E0531E7A
:1025400041E8003404B1F4E772B12C300121006895
:1025500050B1821CD2E84F3FC2E8441F04B1F9E7F2
:102560001A0602D00830F2E7002010BD70B502460E
:1025700052F8305F4DB1CC7800235DB12E46ED7836
:10258000A5420DD275683346F7E70023C1E9013350
:10259000C1620DE00024C1E9014300F12C0403E015
:1025A000C1E9016306F108042160002B18BF1A1D60
:1025B0001160283050E8001F4A1C40E8002303B196
:1025C000F8E770BDD1E90123002A0EBFC362936012
:1025D0008B68191D002B08BF00F130010A6070479D
:1025E00019480068704700BF18480178012905D1D3
:1025F00005494FF080620A600021017012480168AD
:1026000041F001010160704704ED00E04FF0FF3040
:102610007047000040B127490968B1FBF0F0411E46
:102620000020B0EB116F02D04FF0FF307047054A29
:10263000FF231370044A0623136051600349087096
:102640009060704723ED00E010E000E040010020C2
:102650001548416801F00C021449082A03D0042AE5
:1026600017D1134915E0026802235202104A58BFDD
:102670000A46016801F03F01B2FBF1F10268C2F3C2
:10268000881251430268C2F3014203EB4202B1FBDC
:10269000F2F1084A084B11604068C0F30310185C5F
:1026A00021FA00F010607047043802400024F40062
:1026B00000127A00000000204CB1000810B50E484E
:1026C0000E4CD0F8801041F47001C0F880108D4994
:1026D0000A6842F001020A6000228A600B68234007
:1026E0000B60074B4B600B6823F480230B60CA60C0
:1026F0004FF00061016010BD08ED00E0FFFFF6FE45
:102700001030002410B5930712D400F12803D0072D
:102710001ED153E8000F084203D1BFF32F8F0020D2
:1027200005E020EA010243E8002404B1F1E710BD0E
:10273000806A00EA01038B42014618BF002112F0B3
:10274000010208BF014653EA020018BF084610BD47
:1027500053E8000F00EA01028A4203D0BFF32F8F33
:10276000002005E020EA010243E8002404B1EFE77D
:1027700010BD0000B0B5194A0023443215462C683C
:102780003CB12569A94209D3491B04F10C05234634
:10279000F5E70024C0E90234016106E0C0E9023433
:1027A0000161A0602569691A2161002B18BF03F13E
:1027B0000C021060B0BD00BFC16829B18268036916
:1027C0008A600A691A440A618068044A00F10C03AD
:1027D000002808BF02F14403196070470C00002074
:1027E0000248006801688968084700BF2C01002082
:1027F00010B5064800F11404204600F052FC0448CD
:10280000044A2146BDE81040FDF7D1BD200100205B
:10281000AD3000080000000810B5FFF74FFF394C3D
:10282000206840F48030206020688003FCD5206C54
:1028300040F0805020643448016841F44041016018
:10284000216821F08071216021688901FCD46168D0
:10285000042241F480016160616862F305016160F6
:102860006168B42262F38E116160616821F44031C5
:102870006160216841F08071216021688901FCD587
:10288000016841F4803101604168C903FCD50168E9
:1028900041F40031016041688903FCD540F20570C4
:1028A000C4F80004A068022161F30100A060A068E0
:1028B000A060A06840F40040A060A06840F4A05070
:1028C000A060A06800F00C000828FAD1FFF7C0FE55
:1028D000206B40F001002063206B40F00400206377
:1028E000206B40F008002063206B40F01000206354
:1028F000206B40F040002063606C40F0100060648A
:1029000010BD00BF003802400070004010B576498D
:1029100002220868072362F393400860486820F4A5
:1029200000704860886840F440208860486A63F31B
:1029300007104862086862F315500860486820F480
:1029400080604860886840F440108860486A63F39B
:102950000B204862D1F80028012060F39752C1F89B
:102960000028624A136823F400631360536843F439
:1029700040035360D1F8003860F31963C1F80038A0
:10298000136823F480531360536843F0407353601B
:10299000D1F8003860F39B63C1F800381168544BDC
:1029A00021F400511160516841F040615160D2F84A
:1029B000FC1360F30511C2F8FC13D2F8001421F0E7
:1029C0000401C2F800144B49CC5844F03004CC50F8
:1029D000D2F8FC4360F30924C2F8FC43D2F8004467
:1029E00024F01004C2F80044CC5844F44074CC5095
:1029F000D2F8FC4360F38B24C2F8FC43D2F80044C5
:102A000024F02004C2F80044CC5844F44064CC5074
:102A1000D2F8FC4360F38F34C2F8FC43D2F8004490
:102A200044F08004C2F80044CA5842F44042CA50FC
:102A30000A6860F305120A604A6822F004024A60DC
:102A40008A6842F030028A600A6860F387120A607E
:102A50004A6822F008024A608A6842F0C0028A602E
:102A60000A6860F309220A604A6822F010024A608C
:102A70008A6842F440728A600A6860F38B220A60B6
:102A80004A6822F020024A608A6842F440628A6002
:102A90000A6860F30D320A604A6822F040024A6018
:102AA0008A6842F440528A6013490A6860F39B6264
:102AB0000A604A6822F400524A608A6842F0406222
:102AC0008A600A6860F31D720A60486820F48040DA
:102AD0004860886840F0405088604FF40050488358
:102AE0004FF48040488310BD0000024004080240BB
:102AF00008FCFFFF001002400018024007484FF694
:102B0000FF0201681140064A114301600548102187
:102B10000170054820210160704700BF0CED00E006
:102B20000003FA0525E400E004E100E0194842F260
:102B30009042018821F480610180018821F4805154
:102B40000180818821F44051818001886FF3DF3159
:102B5000018030F8041C114320F8041C30F8041CD8
:102B600041F00F0120F8041C018841F008010180A8
:102B7000018821F080010180018841F00401018079
:102B8000018841F020010180018841F40051018059
:102B9000704700BF0C100140044D054C286880F4BC
:102BA00000502860204603F023FFF7E71418024086
:102BB000A086010070B504460848002100220025C7
:102BC00004F0D4FD064E2146306004F0F1FD30687B
:102BD000002808BF4FF0FF35284670BD992B00082C
:102BE00064A9002084B06C46314EDFF8C8A04FF0D5
:102BF000000804F1040903ADCDF80C8030684FF0F3
:102C0000FF3201688B682946984703990028F5D15F
:102C1000B1F1405FF2D130684FF0FF3201688B684C
:102C2000294698470028E9D1039801281CD002289A
:102C3000E4D130684FF0FF3201688B68294698472D
:102C40000028DBD13068CDF80880CDE90098016814
:102C5000039ACF6821464FF0FF33B847DAF80000F7
:102C6000214600F001FC19E030684FF0FF320168A6
:102C70008B68294698470028C0D13068CDF8088075
:102C8000CDE900980168039ACF6821464FF0FF33E1
:102C9000B847DAF80000214600F080FCDAF80000BE
:102CA000016809688847204603F0B2FAA6E700BF2A
:102CB000280100203001002070B50446084800219A
:102CC0000022002504F052FD064E2146306004F03B
:102CD0006FFD3068002808BF4FF0FF35284670BDF3
:102CE000E52B00085CA90020054A0123D2E9001267
:102CF000002803FA02F214BF0A834A83704700BF18
:102D000004000020024C20680168496A8847FAE7FD
:102D10002C01002070B58AB001AD0446284624215C
:102D2000FDF738FC4FF40060079406900948002135
:102D30002A46002604F01AFD074D2146286004F0BB
:102D400037FD2868002808BF4FF0FF3630460AB02C
:102D500070BD00BF052D000860A9002003F067BB0F
:102D600080B5AFF30080BDE8804003F067BB80B55D
:102D7000AFF30080BDE8804003F060BB10B514469F
:102D800000F05DF928B101684A6A2146BDE81040AB
:102D90001047002010BDBCB50D4604460DF10701DB
:102DA00028468DF8072003F020F8291D814203D022
:102DB000017C4069606001E0002161602170BCBD60
:102DC00080B500F03CF920B10168C969BDE88040D8
:102DD0000847002080BD80B500F031F920B10168BE
:102DE000C968BDE880400847002080BD2DE9FF414B
:102DF00005460C4600202946A86041F8040F2960CA
:102E000040CC0DF108086F46A64208BFBDE8FF811F
:102E100070690168C96888470190307C29468DF83F
:102E2000000040463A463B4603F0A6F9706831463A
:102E300020B1064600680028FBD1E5E78E683068BF
:102E400088423146FAD1DFE780B500F0F8F820B1CA
:102E500001688969BDE880400847002080BD000006
:102E60002DE9F0472DED066B89460546002000212F
:102E7000C5E90000A860032903D045F8210001310D
:102E8000F9E759F8046B9FED2A8B0DF1040A0FF254
:102E9000A8084E4547D0317C284602F0D6FB706921
:102EA0000168C968884707F0D4FB074670690C467B
:102EB0000168C969884707F0CCFBB0EE480A41ECCD
:102EC000110BF0EE680A06F0CFF853EC102B3846E1
:102ED000214607F0CDF9024650460B4603F002FAB0
:102EE0009DF8040010F00101039908BF0AF10101E7
:102EF000029A08BF4208284602F089FA504602F0BA
:102F00000CFC2846414602F075FA7068314620B143
:102F1000064600680028FBD1BBE78E68306888420F
:102F20003146FAD1B5E7BDEC066BBDE8F08700BFCE
:102F3000000000000000244020000000000000000D
:102F40002DE9F0472DED048B814659F8047B9FED68
:102F5000348B88464F455DD07E6997F810A0306865
:102F6000C1683046884707F074FB044678690D460F
:102F70000168C969884707F06CFBB0EE480A41EC6C
:102F8000110BF0EE680A06F06FF853EC102B204698
:102F9000294607F06DF941EC100B4046514601F00F
:102FA00003FE7869B0EE409A0168F0EE609AC96954
:102FB000884707F04EFBB0EE480A41EC110BF0EEEB
:102FC000680A06F051F851EC190B53EC102B07F07E
:102FD000A7FB07F0E1FA01463068426A30469047A5
:102FE0000446786901688969884794FBF0F1414398
:102FF00078690268926A90477868394620B1074636
:1030000000680028FBD1A5E78F68386888423946F8
:10301000FAD19FE7BDEC048BBDE8F08700BF00BF8D
:103020000000000000002440F8B50346CDE900127E
:103030006A4602A81946134602F0B8FE8FBD1CB5B9
:103040008DF807100DF10701044602F0CEFE211D98
:10305000814214BF406900201CBD002102468160EE
:1030600042F8041F0260704770B505680C460646BA
:103070007068A84207D028680168C9688847A042DC
:1030800001D00435F4E7284670BD704710B50446FA
:10309000FFF7EAFF6168814214BF0068002010BD9D
:1030A00070470021C0E900118160704702F051BBF8
:1030B000704740681346002203F04CBD2DE9F04FE5
:1030C00085B092468946064602AF6D464FF000082D
:1030D000D04525DA30683946836830464FF0FF32F4
:1030E0009847044630689DF808B0836830463946F2
:1030F0004FF0FF329847029900284FF0000018BFA8
:1031000001460191002C18BF834603A849462A4670
:103110002B468DF800B003F02FF808F10108D7E72F
:1031200005B0BDE8F08F1CB50191044680684FF0F2
:10313000FF3103F0D5FD30B9606801A900224FF0DE
:10314000FF3303F083FDA06803F022FE1CBDF8B539
:10315000044680680D464FF0FF3103F0C1FD00B119
:10316000F8BD606803F03EFDD5E90012531AB0EBDC
:10317000A30F14D90026501AB6EBA00F0FD2676820
:103180002846314603F0A2F80146384600224FF0A7
:10319000FF3303F05BFDD5E900120136EBE7A068D1
:1031A000BDE8F84003F0F4BD10B50446074804211B
:1031B000083020604020002203F026FD60600020DF
:1031C00003F0C8FDA060204610BD00BF9CB50008FC
:1031D00041680A88920606D40988090658BF7047D4
:1031E0000168C96908470168096A0847007C704797
:1031F00080B5143102F05BFA80BD017DC90702D1B0
:103200000021818203E0C16900220A7082610021ED
:10321000017470471CB50446C0680DF10701002217
:10322000002303F097FC48B161688A8922F080028C
:103230008A818A8942F004028A811CBD61689DF8F6
:1032400007208A801CBDBCB50446007C40B9A0683C
:103250000DF1070100224FF0FF3303F07BFC00B1BA
:10326000BCBD9DF8071004F11405284602F0EDF9E5
:103270009DF807000A2802D101202074BCBD2978DE
:1032800011F001000CBF4908A1694129E8D310B928
:1032900000202880BCBDE06900210170A161BCBD97
:1032A000F8B504460878D1E901670DF1030510F07F
:1032B000010204BF46084F1CB6B1387829468DF884
:1032C0000300E06800224FF0FF3303F0BFFC40B979
:1032D0006068818921F004018181818941F0800148
:1032E0008181013E0137E7E7F8BDE0B5D0E9011083
:1032F0000022898800238DF807100DF1070103F0E3
:10330000A5FC8CBD10B51C4A044600200832207470
:10331000C4E90500E061C4E900210521082903D0C2
:1033200044F821000131F9E780200121002203F057
:103330006BFCE06080200121002203F065FCA060AE
:10334000204610BD80B500F005F8BDE8804003F0D0
:1033500075B8000010B50446074808302060E068E2
:1033600003F0DCFBA06803F0D9FB04F1140002F0C9
:10337000D4F9204610BD00BFB4B500087FB505469E
:1033800000200390CDE9010008460C46FDF740F807
:1033900001AE02463046214602F006F82868314662
:1033A000C26828469047304602F0B7F9284604B074
:1033B00070BD10B504460068C2682046904720469C
:1033C00010BD00002DE9F04387B00D468046002077
:1033D00004A900220690CDE90400032A03D041F895
:1033E00022000132F9E710CD01AE04AF0FF27409EB
:1033F000A54229D0217C384602F027F96169304680
:1034000002F0B4FF9DF8040010F00101039908BF19
:10341000711C029A08BF4208384601F0F8FF304696
:1034200002F07BF93846494601F0E4FF606828B1B4
:10343000044600680028FBD1DAE70446A06801686A
:10344000A142FAD10446D3E7D8F8000004ACC26820
:10345000404621469047204602F05FF9404607B0BB
:10346000BDE8F083200000002DE9F04F8BB000F1A3
:1034700010079C4D044638468846A84704F11C0BAB
:103480005846A84704F134000390A84704F14000CF
:103490000290A847A16808AD2846FFF7A7FC384668
:1034A000294602F074FD284602F0B2FE584639461D
:1034B000049702F0B4FECDF8148008F10400D4F8AB
:1034C000108004F114070190474560D0C2461AF8F5
:1034D000101F6068FFF7C8FD05466068FFF7E0FD54
:1034E0004068A84243D00598514602F064FE8146E8
:1034F0000198484517D05E469AF80050D4F808B0B5
:103500003046514602F057FE4069D9F814100A18A7
:1035100058462946B346FFF731FC0546304651462A
:1035200002F049FE45615846514602F044FE4569A5
:103530000498514602F03FFE9AF8001006AE8DF84E
:10354000181040690399281A08AD0790284632469A
:10355000334602F011FE002007909AF8000002990D
:103560008DF8180028463246334602F005FED8F89A
:10357000040028B1804600680028FBD1A4E78046FB
:10358000D8F8080001684145F9D180469CE72068D9
:103590000168204688470BB0BDE8F08F2DE9F04F59
:1035A0008BB000F110064F4D044630468846A847C0
:1035B00004F11C0B5846A84704F134000290A847B8
:1035C00004F140000190A847A16808AD2846FFF724
:1035D0000DFC3046294602F0DAFC284602F018FEBF
:1035E00058463146039602F01AFECDF8108008F1D5
:1035F0000400D4F8108004F114060090464569D008
:10360000C2461AF8101F6068FFF72EFD0546606875
:10361000FFF746FD4068A8424CD00498514602F09E
:10362000CAFD81460098484520D09AF800005F46C0
:103630000590D4F808B03846514602F0BCFD406908
:10364000D9F8141035460E18E0689AF80010FFF704
:10365000C2FB0599321A58462E46BB46FFF78EFB31
:1036600005463846514602F0A6FD4561584651468A
:1036700002F0A1FD45690398514602F09CFD9AF8BD
:10368000001006AF8DF8181040690299281A08AD8D
:10369000079028463A463B4602F06EFD0020079010
:1036A0009AF8000001998DF8180028463A463B46E2
:1036B00002F062FDD8F8040028B1804600680028B6
:1036C000FBD19BE78046D8F8080001684145F9D155
:1036D000804693E720680168204688470BB0BDE824
:1036E000F08F00BFD761000870B5049C884288BF86
:1036F0000846510001FB04F203FB03F5B5FBF2F2AF
:10370000904208DD4FF47A70012BD8BF0123584353
:10371000B0FBF4F070BD0130484306F09AFF054657
:1037200020460E4606F0ACFF02460B4628463146C0
:1037300006F09EFD41EC100B06F0BEFA51EC100BAA
:103740009FED050B53EC102B06F0EAFF06F054FF3B
:1037500070BD00BF00BF00BF0000000000408F40F0
:103760001CB5059C0094FFF7BFFF0499B1FBF0F076
:103770001CBD000070B5104D00240835064684615C
:1037800044620463C463846446F8144FC0E9005182
:1037900000F108014CC1014641F8204FC1610146CA
:1037A00041F82C4F8162014641F8384F4163014690
:1037B00041F8444F016470BDF0B500082DE9F04FA9
:1037C00095B00446002012A900221490CDE9120001
:1037D000032A03D041F822000132F9E703F056F939
:1037E00006464FF0FF3004F12805E064284602F059
:1037F000F2FC04F11C012846069102F010FD6068FD
:10380000FFF743FC04F1440004F13409089004F18B
:10381000400004F114070790CDE90497E56C022DF0
:10382000C0F0B38003962669B74200F09880B04696
:1038300018F8101F6068FFF717FC05466068FFF76F
:103840002FFC4068A84274D00798414602F0B3FCB0
:103850000146089888426CD0486909910D90317CE6
:10386000A068FFF7B8FA0B907069317C0A90A068E5
:10387000494A174690470C900698414602F09BFC37
:103880004069317C0E90A068FFF7A5FA0546A06854
:10389000317CB84783466068317CFFF7F7FB0168ED
:1038A0000969884782466068317CFFF7EFFB016851
:1038B000496988478146A068317CB84742F2107157
:1038C000CDE900100E98401B48BF4042DDE90A7365
:1038D000DDE90C2590FBFBF1D81B48BF404290FB73
:1038E000F2F0059F52464B46FFF73AFF854203D25E
:1038F0000999486901301BE0DDF8109041464846BF
:1039000002F059FC4069012808DB98F80010606853
:10391000FFF7BCFB01680968884707E04846414655
:1039200002F049FC4069B0F1FF3F10DD0999012028
:103930004861706828B1064600680028FBD173E72B
:103940000646B0680168B142FAD106466CE798F8BD
:1039500000106068FFF79AFB01684968DCE7A1681E
:103960000FAE3046FFF742FA0698314601F0AAF84A
:103970000546304602F04CFC0DB10020E064039E89
:103980000A36304603F050F848E712A801F0C5FEA9
:10399000284615B0BDE8F08F492E000880B5FFF726
:1039A000E9FE02490831016080BD00BFFCB5000896
:1039B000406801688968084740680168896A084763
:1039C00080B549680A68D26A904780BD406801683E
:1039D000096B084740680168C96908474068026880
:1039E000D268104740680168096A08474068026861
:1039F00052691047406802681269104740680268BF
:103A0000926910470079704701717047C06801687A
:103A1000C968084780680168C968084740797047E5
:103A20004171704740680268526A104710B50446F9
:103A300080684FF0FF3103F053F918B960680168EE
:103A4000496B8847A068BDE8104003F0A1B910B5E4
:103A5000044680684FF0FF3103F042F918B96068FE
:103A60000168C96A8847A068BDE8104003F090B9B2
:103A70004068016889690847406801680969084722
:103A80004068016849690847B0B5044680680D463A
:103A90004FF0FF3103F024F908B1002505E060681C
:103AA0000168CA6B294690470546A06803F070F983
:103AB0002846B0BDB0B5044680684FF0FF3103F032
:103AC0000FF908B1002504E060680168896B884738
:103AD0000546A06803F05CF92846B0BDB0B50446C1
:103AE00080680D464FF0FF3103F0FAF808B1002569
:103AF00005E0606801684A6C294690470546A06861
:103B000003F046F92846B0BDB0B5044680684FF0D2
:103B1000FF3103F0E5F808B1002504E060680168B2
:103B2000096C88470546A06803F032F92846B0BD05
:103B300010B5044680684FF0FF3103F0D1F818B992
:103B400060680168096B8847A068BDE8104003F011
:103B50001FB940680168096A084780B549680A6862
:103B60009268904780BD40680168C969084740680D
:103B70000168C9680847B0B5044680680D464FF033
:103B8000FF3103F0ADF820B9606801688A6A294600
:103B90009047A068BDE8B04003F0FAB810B50446FD
:103BA0000D480830C4E90001002003F0D3F8A060FC
:103BB000204610BD80B500F005F8BDE8804002F059
:103BC0003DBC000010B50446034808302060A068E2
:103BD00003F0A4F8204610BD08B60008000000005D
:103BE0002DE9F84F2DED048B92B0834640680168B3
:103BF000496A8847DBF804000168896A8847002819
:103C000000F08F84DBF804100DAC0868C26A20460F
:103C100090470AAD2846214601F09AF8204601F067
:103C20007CFD00200990CDE9070007A80FF61011D0
:103C3000062201F0B9FB9DF82800DFF80C6910F0AE
:103C400001010B9908BF410805F1010A0C9D08BF4D
:103C500055466C18F71D2846214632463B4601F072
:103C6000DCFDA0421CBF401B10F101007AD19DF881
:103C70002800DFF8E06810F001010B9908BF410847
:103C80000C9D08BF55466C1806F1080728462146CA
:103C900032463B4601F0C1FDA0421CBF401B10F163
:103CA000010040F0A0809DF82800DFF8AC9810F0EB
:103CB00001010B9908BF41080C9D08BF55466C18BF
:103CC00009F10808284621464A46434601F0A5FD69
:103CD0009DF8281011F001020B9A08BF4A080C9EAB
:103CE00008BF5646B718A0421CBF401B10F1010088
:103CF00040F0BB80DFF87098304609F1070539467F
:103D00004A462B4601F089FDB8421CBF801B10F1CA
:103D1000010000F0F4839DF828004A4610F00101EC
:103D20000B9908BF41080C9C08BF544666182046F2
:103D300031462B4601F071FD041BB04208BF4FF025
:103D4000FF34E11D0AA801F0F4FA00783F2840F0A2
:103D5000558207AD0FF61401284601F0C8FBDBF8C9
:103D60000C109DE00DF11008002008F10402CDE9CF
:103D70000500CDE90200CDE900209DF8280004925D
:103D800010F001010B9908BF41080C9C08BF544674
:103D900065182046294632463B4601F03EFD011B90
:103DA0000AACCA1DA84220464FF0000108BF0622F7
:103DB00001F0CFFA0DAD2846214600F01EFF404627
:103DC000294602F042F8284602F0AFF8069800288B
:103DD00000F08F83DDE9021081427BD24FF0405228
:103DE00004C10291D2E00DF11008002008F1040294
:103DF000CDE90500CDE90200CDE900209DF82800BD
:103E0000049210F001010B9908BF41080C9C08BFF7
:103E1000544665182046294632463B4601F0FDFCD3
:103E2000011B0AAC01F10802A84220464FF0000134
:103E300008BF072201F08DFA0DAD2846214600F09B
:103E4000DCFE4046294602F000F8284602F06DF8F4
:103E50000698002800F04D83DDE90210814258D217
:103E60004FF0405204C10291FFE1304639464A46C4
:103E7000434601F0D2FC811B01F10805B84208BF9E
:103E800007250AA8294601F054FA00783F2837D1BF
:103E900007AD0FF2C861284601F029FBDBF81010CE
:103EA0000DAC2046FEF7DCFF9DF8340010F0010158
:103EB0000F9908BF611C0E9A08BF4208284601F0FE
:103EC000A6FA204601F029FCDFF89816284601F0F2
:103ED00091FA14E3019C0A1B012101EBA201B1F14B
:103EE000804F80F02483001BE34D01AB84109210BF
:103EF0000833AC4224D8B1EB600F98BF411021E0E9
:103F00000AAC204600212A4601F023FADBF8100013
:103F10007DE1019C0A1B012101EBA201B1F1804F5F
:103F200080F00583001BD44D01AB84109210083340
:103F3000AC4200F27481B1EB600F98BF411070E1A8
:103F40006FF040410DA801F03FFCDDE90E534FF04A
:103F5000405001C3DDE901140F93621AA81A002A28
:103F60000E9005DDFCF7C2FADDE90E03DDE9011470
:103F7000CDE90103CDE90E140398109A10900DA815
:103F800003920D9101F03AFCDDE90210814203D267
:103F9000022204C102913AE0019C0A1B012101EBBB
:103FA000A201B1F1804F80F0C282001BB24D01AB83
:103FB000841092100833AC4204D8B1EB600F98BF64
:103FC000411001E06FF040410DA801F0FDFBDDE97B
:103FD0000E53022001C3DDE901140F93621AA81ADF
:103FE000002A0E9005DDFCF781FADDE90E03DDE91C
:103FF0000114CDE90103CDE90E140398109A109035
:104000000DA803920D9101F0F9FBDDE90210069C69
:10401000814203D210C1D946029138E0019D4A1B6A
:10402000012101EBA201B1F1804F80F08082401BA1
:10403000914E01AB851092100833B54204D8B1EB14
:10404000600F98BF411001E06FF040410DA801F0F2
:10405000BBFBDDE90E0310C3DDE901140F93621A07
:10406000801A002A0E9005DDFCF740FADDE90E0308
:10407000DDE90114CDE90103CDE90E140398109A8E
:1040800010900DA8D94603920D9101F0B7FB01A83D
:1040900000F1080B7848049C9FED798B4FF00108E4
:1040A00082460DAE0098844200F0A480DDE9021043
:1040B000277C814202D280C1029136E0019BCA1A5C
:1040C00008EBA201B1F1804F80F03182C01A831059
:1040D00092105345554604D8B1EB600F98BF41107C
:1040E00001E06FF0404130465B4601F06DFBDDE9D9
:1040F0000E0380C3DDE901170F937A1A801A002A94
:104100000E9005DDFCF7F2F9DDE90E03DDE901179C
:10411000CDE90103CDE90E170398109A10903046AF
:1041200003920D9101F06AFB277CD9F80C0094ED05
:10413000069B3946FEF744FE06F08BFAB0EE480ABD
:1041400041EC110BF0EE680A04F08EFF53EC102BDB
:1041500051EC190B06F0E4FA06F01EFA0746DDE909
:104160000210814202D280C1029135E0019BCA1A3D
:1041700008EBA201B1F1804F80F0D981C01A831001
:1041800092105345554604D8B1EB600F98BF4110CB
:1041900001E06FF0404130465B4601F015FBDDE980
:1041A0000E0380C3DDE901170F937A1A801A002AE3
:1041B0000E9005DDFCF79AF9DDE90E03DDE9011744
:1041C000CDE90103CDE90E170398109A10903046FF
:1041D00003920D9101F012FB6068214620B1044664
:1041E00000680028FBD15DE78C6820688842214682
:1041F000FAD157E7D9F80800CB4672E104F108027A
:104200000AAC2046002101F0A4F8DBF80C0021469E
:10421000FEF796FECE4907A801F069F96FE16FF04D
:1042200040410DA801F0D0FADDE90E534FF04050A7
:1042300001C3DDE901140F93621AA81A002A0E9037
:1042400005DDFCF753F9DDE90E03DDE90114CDE9E5
:104250000103CDE90E140398109A10900DA8039253
:104260000D9101F0CBFADDE9021081420CD201225E
:1042700004C1029143E000BFFEFFFF1F00BF00BF6B
:104280000000000000002440019C0A1B012101EBFA
:10429000A201B1F1804F80F04A81001BAB4D01AB10
:1042A000841092100833AC4204D8B1EB600F98BF71
:1042B000411001E06FF040410DA801F085FADDE901
:1042C0000E53012001C3DDE901140F93621AA81AED
:1042D000002A0E9005DDFCF709F9DDE90E03DDE9A2
:1042E0000114CDE90103CDE90E140398109A109042
:1042F0000DA803920D9101F081FADDE90210069CF0
:10430000814202D210C1029137E0019D4A1B012176
:1043100001EBA201B1F1804F80F00981401B8B4E6F
:1043200001AB851092100833B54204D8B1EB600F91
:1043300098BF411001E06FF040410DA801F044FA30
:10434000DDE90E0310C3DDE901140F93621A801A30
:10435000002A0E9005DDFCF7C9F8DDE90E03DDE962
:104360000114CDE90103CDE90E140398109A1090C1
:104370000DA803920D9101F041FA01A800F108097E
:104380007248049C9FED6C8B4FF0010882460DAE85
:104390000098844200F0A380DDE90210277C81426E
:1043A00002D280C1029136E0019BCA1A08EBA20139
:1043B000B1F1804F80F0BB80C01A8310921053453A
:1043C000554604D8B1EB600F98BF411001E06FF083
:1043D000404130464B4601F0F7F9DDE90E0380C35A
:1043E000DDE901170F937A1A801A002A0E9005DD75
:1043F000FCF77CF8DDE90E03DDE90117CDE90103E7
:10440000CDE90E170398109A1090304603920D9143
:1044100001F0F4F9277CDBF80C0094ED069B39469B
:10442000FEF7CEFC06F015F9B0EE480A41EC110B90
:10443000F0EE680A04F018FE53EC102B51EC190B47
:1044400006F06EF906F0A8F80746DDE90210814291
:1044500002D280C1029134E0019BCA1A08EBA2018A
:10446000B1F1804F63D2C01A831092105345554664
:1044700004D8B1EB600F98BF411001E06FF04041EC
:1044800030464B4601F0A0F9DDE90E0380C3DDE9BB
:1044900001170F937A1A801A002A0E9005DDFCF797
:1044A00025F8DDE90E03DDE90117CDE90103CDE9CA
:1044B0000E170398109A1090304603920D9101F058
:1044C0009DF96068214620B1044600680028FBD1B0
:1044D0005EE78C68206888422146FAD158E7DBF80D
:1044E000080001684A6801A99047194907A800F027
:1044F000FEFF01A801F036F904A801F016FDDBF873
:10450000040007AC0168CA6821469047DBF8040044
:104510000168096B8847204601F0FFF80AA801F0FE
:10452000FCF812B0BDEC048B01B0BDE8F08F01A81F
:1045300000F085FE00BF00BF000000000000244026
:104540004641494C0D0A00008BB80008FEFFFF1FD2
:104550006CB8000882B8000871B8000842415345A1
:10456000432000006EB800087AB80008504859434C
:1045700020000000B0B5044D049C0835C0E900518E
:1045800000F108011CC1B0BD58B6000801F056BFCB
:10459000406900687047D0E90521043242614B68E8
:1045A0009A4200D07047096841617047016131B19A
:1045B000012907D0022909D100F1340104E000F1FA
:1045C0001C0101E000F12801816100E081690968B6
:1045D00041617047D0E905121368994208BF5168DC
:1045E00004394161704700002DE9FF41002704466E
:1045F000C0E90212477147612048214D0830206010
:104600000220C4E90877039702900320019001205B
:104610000090204640F81C7F04219846A847206A55
:104620009DE84E004EC020622046C4E90B7740F85A
:10463000287F0821A847E66A124930462022FBF766
:1046400010FF06F12000C4E90E77E062204640F832
:10465000347F4021A847A66B0B4930464FF4807247
:10466000FBF744FF06F58070A06320464146FFF744
:104670009DFF204604B0BDE8F08100BF94B600085D
:10468000A9620008E4B700084CB000080000000070
:10469000B0B52DED028B0446C068022825D12069F3
:1046A0000168C9688847054620690168C969884763
:1046B000033805F0CEFF9FED2C0B41EC110B04F0FD
:1046C000D3FCA068B0EE408AF0EE608A05F0C1FF2E
:1046D00002460B4651EC180B06F022F805F05CFF81
:1046E00095FBF0F101FB105060B360680168096848
:1046F0008847E068012825D120690168C968884792
:10470000054620690168C9698847033805F0A1FF9B
:104710009FED150B41EC110B04F0A6FCA068B0EE68
:10472000408AF0EE608A05F094FF02460B4651EC99
:10473000180B05F0F5FF05F02FFF95FBF0F101FBDD
:10474000105058B120690168096C88476069016898
:10475000096CBDEC028BBDE8B0400847BDEC028B94
:10476000B0BD00BF00BF00BF00000000000024403B
:10477000B0B52DED028B0446C068022825D1206912
:104780000168C9688847054620690168C969884782
:10479000033805F05EFF9FED2C0B41EC110B04F08C
:1047A00063FCA068B0EE408AF0EE608A05F051FF2D
:1047B00002460B4651EC180B05F0B2FF05F0ECFE7B
:1047C00095FBF0F101FB105060B360680168496827
:1047D0008847E068012825D120690168C9688847B1
:1047E000054620690168C9698847033805F031FF2B
:1047F0009FED150B41EC110B04F036FCA068B0EEF8
:10480000408AF0EE608A05F024FF02460B4651EC28
:10481000180B05F085FF05F0BFFE95FBF0F101FBDD
:10482000105058B120690168896B88476069016838
:10483000896BBDEC028BBDE8B0400847BDEC028B34
:10484000B0BD00BF00BF00BF00000000000024405A
:1048500070B504460E481D460830206004980B468B
:10486000606161600868D1B286681846B0470598F3
:104870002561002801DD012105E0C0F1000218BF1B
:10488000012041001046C4E90201204670BD00BF6E
:10489000C0B6000810B5044640680168096888473A
:1048A000A068616902F0C6FFD4E903120123D1E9CF
:1048B0000001002A03FA01F114BF4183018310BDF6
:1048C00010B504464068016849688847A068616976
:1048D00002F0B0FFD4E903120123D1E90001002A5C
:1048E00003FA01F114BF4183018310BD40680168E0
:1048F000C9680847406802689268104740680168C4
:104900008969084740680168496908474068016843
:104910000969084740680168096A084740680268F1
:10492000D269104710B50446406801680968884795
:104930002046BDE81040AFF300802DE9F041044669
:1049400000F10C080026A068D0E90012511AB6EB5D
:10495000E10F1BD2314601F07FFC0146404601F0D9
:10496000C6F907466068016889698847F04000F029
:104970000105A068314601F06FFC796940684A681A
:1049800005FA00F0104348600136DCE7E26804F104
:1049900010000021824208BFBDE8F081D2E9044541
:1049A0005368D5E900676960656925EA060545EA47
:1049B00007056561144623B11A461B68002BFBD11D
:1049C000E8E7A2681368A3421446FAD1E2E710B5FB
:1049D000044640680168496888472046BDE81040A1
:1049E000FFF7ABBFB0B5054640680C460168CA6921
:1049F00021469047D5E906120123D1E9000103FAC7
:104A000001F114B11AB10183B0BD002AFBD041837A
:104A1000B0BD00002DE9F04F87B016460022824657
:104A20004261C0E9011610985446CAE9063024488C
:104A300055460830CAF8000044F8102F50460021AF
:104A400045F80C4FFFF7CEFFD6E9007902AE4FF0E4
:104A50000108EB46B94525D0D7E90001CDE90201AF
:104A60002846314601F043F9844207D04069039952
:104A7000026808FA01F11143016011E0082001F019
:104A8000DFFCDDE90212002308FA02F2C0E900238C
:104A9000CDE9001005A829465A465B4601F008F901
:104AA0000837D7E75046FFF748FFDAF80000012142
:104AB000C26950469047504607B0BDE8F08F00BF2E
:104AC00018B70008F8B505460C468868A968814201
:104AD0001CD180CD261DBD4218D007F11001204603
:104AE00001F069FB864213D07969406988420FD191
:104AF000786828B1074600680028FBD1EBE7074635
:104B0000B8680168B942FAD10746E4E70120F8BD68
:104B10000020F8BD70B50C46054600200021C5E90F
:104B20000000A860032903D045F821000131F9E70E
:104B300020461146002200F066FB461C33D0207848
:104B4000C1070CBF4008606886422CD2204631461F
:104B500000F0EFFB0078302806D32046314600F005
:104B6000E8FB00783A2814D32046314600F0E1FBF8
:104B700000782D280DD02046314600F0DAFB007871
:104B80002B2806D02046314600F0D3FB00782E2893
:104B900009D12046314600F0CCFB0178284600F0D0
:104BA00054FD0136CBE770BD10B52DED066B01ACA1
:104BB000B0EE408A0A4601462046F0EE608AFFF7D2
:104BC000A9FF9DF80400029A10F0010108BF4208F5
:104BD0004AB10398002908BF601C04F0C1F9B0EE87
:104BE000408AF0EE608A01A800F097FDB0EE480A16
:104BF000F0EE680ABDEC066B10BD2DE9F0478AB0F7
:104C00000C468146002105A800220791CDE9051137
:104C1000032A03D040F822100132F9E70025494663
:104C2000C9F8085041F8045F00F1010A61276E4697
:104C30000DF12008C9F800107A2F3ED0FAB23046A4
:104C40002146FFF767FF9DF81400C00702D1ADF8B9
:104C500014500AE00798057006959DF81400C007E7
:104C600003D0079801F0EAFB05959DE8070005AB26
:104C700007C30020032803D046F820500130F9E78D
:104C8000304600F04AFD9DF81400069A10F001012C
:104C900008BF42087AB10798002908BF504604F0BF
:104CA0005FF940464946324633468DED020B8DF89A
:104CB000007001F00AF90137BEE7412500270DF128
:104CC00020085A2D3ED0EAB230462146FFF722FF97
:104CD0009DF81400C00702D1ADF814700AE00798DF
:104CE000077006979DF81400C00703D0079801F0DD
:104CF000A5FB05979DE8070005AB07C30020032827
:104D000003D046F820700130F9E7304600F005FD89
:104D10009DF81400069A10F0010108BF42087AB10C
:104D20000798002908BF504604F01AF94046494642
:104D3000324633468DED020B8DF8005001F0C5F878
:104D40000135BEE705A800F0E8FC0AB0BDE8F08731
:104D500000F0ADBCC2698A42DCBF10467047806972
:104D60008842B8BF084670470269C1698A4202DAC0
:104D700081698A4200DC01617047416901617047C5
:104D8000006A704780697047C0697047026983692B
:104D9000511A9942B2BF0020016101207047016998
:104DA000036A8269C91A9142B2BF002001610120E1
:104DB00070470269C36911449942CEBF0020016166
:104DC000012070470169D0E9072319449142CEBF01
:104DD000002001610120704710B504460068416B56
:104DE000204688472069216A90FBF1F04843206102
:104DF00010BD4069704780B5043100F058FC80BD9B
:104E0000406A704700697047016170472DE9F047BB
:104E1000164600220446C0E902221B480DF1200A72
:104E2000083020602046DDF82C809AE880061D4678
:104E300040F8042F0123042B03D044F8232001332E
:104E4000F9E700F074FCC4E90465C4E906A8C4E904
:104E500008792068016B204688472046BDE8F08726
:104E600080B500F005F8BDE8804001F0E7BA000029
:104E700010B50446044800F10801204602C000F0C5
:104E80004CFC204610BD00BF44B700087047704777
:104E900070B51546059A0E4689681C463AB1884297
:104EA0000AD040684968FBF7B7FD28B170BD40687B
:104EB0004968884218BF70BD31462A462346BDE87E
:104EC000704000F074B82DE9F0411646069A0C4681
:104ED00089689846074682B18F422FD07D6849681D
:104EE0002846FBF799FD48B3206887420DD04168FA
:104EF0002846FBF791FD20BB07E0786849688842A7
:104F00001CD02168496888421BD12069B04223D057
:104F10006069B04220D0C4F820806661D4E90910ED
:104F200001300129A06205D1A069022804BF012037
:104F300084F836000420E062BDE8F0816068B04289
:104F400001D0BDE8F081E06901281CBFC4F81C80D5
:104F5000BDE8F081BDE8F081B8F1010F18BFBDE8F0
:104F6000F08101202062BDE8F08180B5D1F808C051
:104F7000D0F804E0DCF80400864518BF80BD08695D
:104F800050B190420DD0486A0130486202208861D9
:104F9000012081F8360080BD01200A618B614862E2
:104FA00080BD8869022804BF8B6180BD80BD80B54B
:104FB00048684FF0010E984281F835E019D10B692D
:104FC000DDF808C081F834E02BB1934212D0486A72
:104FD000013048620AE00120BCF1010F0A61C1F80A
:104FE00018C0486205D1086B012802D1012081F860
:104FF000360080BD8A69022A04BFC1F818C0624623
:10500000086B012818BF80BD012AEFD0F1E72DE918
:10501000F0418EB0074640684B68984229D04BF269
:1050200028331546C0F600034BF23432C0F60002B6
:10503000084619460023002401F02AFAD0B106469A
:105040008DE891004FF0FF30E846039008F1100022
:105050002721FBF79FFA01200C9030682A68C76966
:10506000304641460123B8470698012802D10498EA
:105070002860012420460EB0BDE8F0812DE9F04300
:1050800083B0DDE90A940E468968984615460746BE
:1050900074B18F4204D078684968FBF7BDFC58B9F9
:1050A00031462A46434603B0BDE8F043FFF77FBFD1
:1050B000786849688842F3D0B8682A460168434650
:1050C0004F693146CDF800900194B84703B0BDE870
:1050D000F0832DE9F04383B0DDF828900C46896811
:1050E00098461546B9F1000F074630D08F4240D0A0
:1050F0007E6849683046FBF78FFCD0B32068874252
:1051000004D041683046FBF787FC40BB2069A842C9
:1051100038D06069A84235D0E06AC4F820800428FD
:1051200038D00020A086B8682A4601682B464F690F
:10513000012100912146CDF80490B84794F835003C
:1051400030B394F834000321E16280BB22E0786838
:10515000496888420DD0216849688842D6D0B8682D
:105160002A46016843468F692146CDF80090B8472A
:105170001DE06068A8421AD1E069012818BFC4F890
:105180001C8014E0B8F1010F04BF012020620EE082
:105190000420E0626561D4E9091001300129A062B0
:1051A00005D1A069022804BF012084F8360003B0AD
:1051B000BDE8F08380B5D1F808C0D0F804E0DCF891
:1051C00004C0E64507D08068D0F800C0DCF81CC0F9
:1051D000BDE880406047086950B190420DD0486AF0
:1051E0000130486202208861012081F8360080BDCC
:1051F00001200A618B61486280BD8869022804BF72
:105200008B6180BD80BD10B50378DC0706BF441CF0
:105210005B08D0E9013493429CBF4FF0FF3010BDD2
:105220009B1A05D0A0181A46FBF711F9014600E0B9
:105230000021081B002908BF4FF0FF3010BDFBF70D
:10524000ABF8FBF7A9F80146084609680029FBD12D
:1052500041680029F8D1704721B10B4611781A46F0
:10526000FBF7F5B800207047002A0CBF0020FBF7C1
:10527000A3B870472DE9F04F81B00D466FF01101D2
:10528000491B914253D304460078DDF828B0C0078B
:105290000CBF601CA06800904FF6E670C7F6FF7068
:1052A0001F4685420CD85019B0EB450F38BF680037
:1052B0000B2826BF103020F00F084FF00B0801E03C
:1052C0006FF01008DDF830A0404601F0B9F8BBF1EE
:1052D000000F064604D0009930465A46FBF7C1F845
:1052E000DDF82C90BAF1000F05D00D9906EB0B00FC
:1052F0005246FBF7B6F8A7EB0907B7EB0B0207D04E
:10530000009906EB0B00594450444944FBF7A9F8B7
:105310000A2D02D0009801F091F848F0010007EB47
:105320000A0143C40020705401B0BDE8F08FFBF7C0
:1053300033F8037813F001020CBF5B0843688B421B
:1053400005D9002A0CBF0130806808447047FBF77C
:1053500023F8F0B581B004460078154610F001023C
:105360000CBF460866688E421CD3C5B1002AA6EB66
:1053700001020CBF671CA768AA4238BF1546521B22
:1053800004D078184119FBF7FBFA2078C007A6EB88
:10539000050006BF4100217060600021395420469D
:1053A00001B0F0BDFAF7F8FFF0B581B012F1100FBF
:1053B0001ED214460E4605460B2A04D2600005F89C
:1053C000010B64B910E004F1100020F00F0738461B
:1053D00001F036F8791CC5E90014A8600546284696
:1053E00031462246FBF73DF80020285501B0F0BDBC
:1053F000FAF7D2FFB0B5054608460C46FBF708F8A9
:10540000024628462146BDE8B040AFF30080F0B523
:1054100085B003780446154613F001008C4602D18E
:105420005E080A2104E0D4E9001621F001010139E7
:105430008A1BAA420CD27019421A0020CDE90060E2
:10544000204633460295CDF80CC0FFF713FF13E05A
:1054500095B100280CBF671CA768B81961462A4699
:10546000FAF7FFFF2078C00706EB050006BF4100F2
:105470002170606000213954204605B0F0BD2DE94F
:10548000F04184B0044671B3207890460D46C107C0
:1054900002D147080A2105E0D4E9000720F0010104
:1054A0000139C0B2CA1BAA420AD27819421A002096
:1054B000CDE9010020463B46009700F074F82078C3
:1054C000C0070CBF661CA668F01929464246FBF7C8
:1054D00099FA2078C00707EB050006BF410021704C
:1054E000606000213154204604B0BDE8F081B0B5C1
:1054F000054608460C46FAF78BFF02462846214629
:10550000BDE8B040AFF3008070B584B004460078C9
:10551000154610F001028C4601D10A2103E02168F2
:1055200021F001010139A9420DD2002A0CBF430824
:10553000636800206A1A8DE829002046CDF80CC067
:10554000FFF798FE11E0002A0CBF661CA66825B183
:10555000304661462A46FBF713FA00207055207842
:10556000C00712BF656068002070204604B070BD9F
:1055700080B5037813F0010C0CBF5B0843688B42C5
:1055800003D2C91AFFF77BFF80BDBCF1000F05D124
:105590004218002349005370017080BD82680023C7
:1055A0005354416080BD2DE9F04F81B00D466FF03E
:1055B0001001491B914246D304460078DDF828A02B
:1055C000C0074FF6E670C7F6FF7098460CBF04F1AF
:1055D0000109D4F8089085420BD85019B0EB450F5B
:1055E00038BF68000B2826BF103020F00F070B27AC
:1055F00001E06FF01007DDF82CB0384600F020FF16
:10560000BAF1000F064604D0304649465246FAF732
:1056100028FFA8EB0B00B0EB0A0208D00C9806EBB1
:105620000A01084409EB0A015944FAF71AFF0A2D46
:1056300002D0484600F002FF47F00100A66020605B
:1056400001B0BDE8F08FFAF7A7FE70B584B002781C
:10565000044612F001000D4605D0D4E9001621F0F1
:105660000101013901E056080A218E4212D14FF0A2
:10567000000C204601220B46CDE9001CCDF808C0E5
:10568000FFF791FF2078C00706D0A068711C616009
:10569000044606E00028F8D1022000EB460004F89A
:1056A000010BA0190021A555417004B070BD2DE972
:1056B000F04104460020C4E90000A0600878C0075B
:1056C00006D1D1E900028968C4E90002A1601FE0A7
:1056D0004D6815F1100F1ED2D1F808800B2D05D2A0
:1056E0006800274607F8010B5DB90FE005F11000CF
:1056F00020F00F06304600F0A3FE0746701C84E839
:10570000A100384641462A46FAF7ABFE00207855FC
:105710002046BDE8F081FAF73FFE10B50446007858
:10572000C00702D0A06800F089FE204610BD10B569
:10573000044688420BD0087810F00102D1E9012319
:1057400004BF4B1C420820461946FFF7DDFE2046E9
:1057500010BD10B50446006810B1606000F06EFE28
:10576000204610BD10B50446006810B1606000F01E
:1057700065FE204610BD70B516460D460446002055
:10578000C4E9030329B1B5F1804F0CD2A80000F0A1
:1057900057FE00EB860100EB8502C4E900012046BC
:1057A000C4E9021270BDFAF7F7FD10B5044640686F
:1057B000A168884202D00439A160FAE7206808B1E4
:1057C00000F03CFE204610BD70B516460D4604465E
:1057D0000020C4E9030329B1B5F1804F0CD2A80021
:1057E00000F02EFE00EB860100EB8502C4E900010B
:1057F0002046C4E9021270BDFAF7CEFD10B504468A
:105800004068A168884202D00439A160FAE72068A4
:1058100008B100F013FE204610BD2DE9F843044600
:105820009F1A1ED0081B0D46B84219DB1078164689
:10583000C7F101090DF103088DF80300281BB842D8
:105840000EDB09EB000120464246FFF705FD38B1AB
:1058500031463A460446FFF707FD10B10134EDE743
:105860002C462046BDE8F88310B541680A684260BE
:1058700002B1906082688A608268134610CB8442CD
:1058800008BF134619608160086010BD10B501683B
:105890004A68026002B1906082688A60826813463A
:1058A00010CB844208BF134619608160486010BD68
:1058B00070B50246081AB0FA80F040090123087357
:1058C000914219D08C68207BB0B9A0680568A542C8
:1058D00004D095B115F80C6F2EB10EE04568E5B116
:1058E00015F80C6FCEB9811AB1FA81F14909237309
:1058F00001732B700146E3E770BD22688A4204D130
:105900002046FFF7C3FFA468A0680121217300218E
:105910000173BDE87040FFF7A7BF22688A4204D038
:105920002046FFF7A1FFA468A06801212173002190
:105930000173BDE87040FFF7A9BF2DE9F0434EF2B7
:105940000012C0F2F55286469042084611D242F249
:105950000F718E4526D8BEF1630F00F28B80BEF129
:10596000090F00F2CE800EF1300100F8011BBDE8F6
:10597000F08343F68931C5F2E651AEFB01135B0EAD
:105980004CF6FF1103FB12ECC3F69A314BF29C1953
:105990008E45C0F6000920D803F1300202704FF0A6
:1059A000010823E041F25971CDF2B711AEFB0112AB
:1059B00044F23F21C0F20F018E454FEA52317BD8AD
:1059C00048F29F62C0F20102964500F2A88001F100
:1059D000300202704FF0010CF3E009EB430219F8BA
:1059E000133052784FF002080370427041F259733D
:1059F000CDF2B713ACFB033548F21F5E6B0BC5F35A
:105A00004F34C5F2EB1E42F2107603FB16C3A4FB23
:105A10000E6464099EB219F81410A6FB0E6209EB1D
:105A2000440700EB08067F7800F80810642004FBA8
:105A300000F1C1EB5531777089B209EB410719F8D4
:105A400011107F78B1705109F77009EB410219F814
:105A50001170527801FB10303771727180B209EB0E
:105A6000400119F810004978B07106F10800F17191
:105A7000BDE8F08348F21F511FFA8EF3C5F2EB1117
:105A8000A3FB01124FEADE017C294FEA521154D8E0
:105A900001F130020270642201FB12314BF29C12C0
:105AA000C0F6000202EB410312F811105A7841705F
:105AB00082700330BDE8F08349F27F62C0F2980241
:105AC000964554D848F21F538AB2C5F2EB13A2FB95
:105AD000032330224FEA531C02EB531264230CFBC6
