:020000040800F2
:10000000889A002059030008610300086303000870
:10001000650300086703000869030008000000008A
:100020000000000000000000000000009502000831
:100030006D030008000000002D0300083D030008C8
:1000400073030008730300087303000873030008B8
:1000500073030008730300087303000873030008A8
:100060007303000873030008730300087303000898
:100070007303000873030008730300087303000888
:100080007303000873030008730300087303000878
:100090007303000873030008730300087303000868
:1000A0007303000873030008730300087303000858
:1000B0007303000873030008730300087303000848
:1000C0007303000873030008730300087303000838
:1000D00073030008C52700087303000873030008B2
:1000E0007303000873030008730300087303000818
:1000F0007303000873030008730300087303000808
:1001000073030008730300087303000873030008F7
:1001100073030008730300087303000873030008E7
:1001200073030008730300087303000873030008D7
:1001300073030008730300087303000873030008C7
:1001400073030008730300087303000873030008B7
:1001500073030008730300087303000873030008A7
:100160007303000873030008730300087303000897
:100170007303000873030008730300080000000005
:100180007303000873030008730300087303000877
:100190007303000873030008730300087303000867
:1001A00073030008730300087303000800F002F8EB
:1001B00000F05DF80AA090E8000C82448344AAF1A4
:1001C0000107DA4501D100F052F8AFF2090EBAE8A2
:1001D0000F0013F0010F18BFFB1A43F0010318477B
:1001E00038A7000058A70000103A24BF78C878C18B
:1001F000FAD8520724BF30C830C144BF04680C602D
:10020000704700000023002400250026103A28BF74
:1002100078C1FBD8520728BF30C148BF0B60704778
:10022000662909F03A87732900F04186002070475B
:100230001FB509F01DFF9DE8030000F0D7FB00F09B
:10024000FBFE04000020002109F0F6F8401C60606D
:100250000020002109F0DAF8E06000F0C5F91FBDC8
:1002600010B5002000F047FE01F0C6FA10BD00F006
:10027000BEFE114603B405F0C1FC03BCFFF7D8FF76
:1002800005F0C0FC01F088FA03B4FFF7E9FF03BCF6
:1002900000F0BCF91EF0040F0CBFEFF30880EFF381
:1002A0000980816911F8021C91BB01B590E80F101B
:1002B000E047BDE800508CE80300244B93E80600BB
:1002C000914208BF704741B91EF0100F10D120496C
:1002D000086820F0010008600AE02CE9F00F1EF029
:1002E000100F08BF2CED108AC1F838C081F822E049
:1002F0001A6092F82210906B61F0FF0E1EF0100F42
:1003000008BFB0EC108AB0E8F00F80F3098870479E
:10031000104A13689942FAD801B552F821C00FC8A3
:10032000E047BDE80050CCF80000704701B506F08A
:10033000E3F9BDE80140EFF3098CBEE701B506F033
:100340006DFCBDE80140EFF3098CB6E71800002012
:1003500034EF00E078A800080948804709480047C2
:10036000FEE7FEE7FEE7FEE7FEE7FEE7FEE7FEE765
:10037000FEE7FEE704480549054A064B70470000C2
:10038000C5260008AD01000888860020889A002054
:10039000889600208896002010B5002000F06FFAA3
:1003A000FFF75EFFBDE81040012000F02FB90B46BB
:1003B0000146184600F04CBA40EA010310B59B070D
:1003C0000FD1042A0DD310C808C9121F9C42F8D0BF
:1003D00020BA19BA884201D9012010BD4FF0FF3070
:1003E00010BD1AB1D30703D0521C07E0002010BD86
:1003F00010F8013B11F8014B1B1B07D110F8013B12
:1004000011F8014B1B1B01D1921EF1D1184610BDF2
:1004100010B5431C02E010F8011B71B18107FAD13D
:100420004FF0013202C88C1A8C4314EAC211F9D081
:10043000C01A0A0603D0C01E10BDC01A10BD0A049F
:1004400001D0801E10BD0902FCD0401E10BDCBB2F1
:100450002AB101788B4203D0401C521EF9D10020F2
:100460007047032A40F2308010F0030C00F0158032
:1004700011F8013BBCF1020F624498BF11F801CBA7
:1004800000F8013B38BF11F8013BA2F1040298BF0C
:1004900000F801CB38BF00F8013B11F0030300F076
:1004A0002580083AC0F0088051F8043B083A51F81A
:1004B00004CBA0E80810F5E7121D5CBF51F8043B1F
:1004C00040F8043BAFF30080D20724BF11F8013B92
:1004D00011F801CB48BF11F8012B24BF00F8013BF4
:1004E00000F801CB48BF00F8012B704710B5203A47
:1004F000C0F00B80B1E81850A0E81850B1E81850CF
:10050000A0E81850203ABFF4F5AF5FEA027C24BFA0
:10051000B1E81850A0E8185044BF18C918C0BDE889
:1005200010405FEA827C24BF51F8043B40F8043B52
:1005300008BF7047D20728BF31F8023B48BF11F807
:10054000012B28BF20F8023B48BF00F8012B704761
:100550004FF000020429C0F0128010F0030C00F0EC
:100560001B80CCF1040CBCF1020F18BF00F8012B6A
:10057000A8BF20F8022BA1EB0C0100F00DB85FEA38
:10058000C17C24BF00F8012B00F8012B48BF00F804
:10059000012B70474FF0000200B513469446964673
:1005A000203922BFA0E80C50A0E80C50B1F1200186
:1005B000BFF4F7AF090728BFA0E80C5048BF0CC034
:1005C0005DF804EB890028BF40F8042B08BF704792
:1005D00048BF20F8022B11F0804F18BF00F8012B04
:1005E000704770477047704770B5064C7C44064DA5
:1005F0007D4404E02046016808448047241DAC4245
:10060000F8D170BD84A4000084A400000149182022
:10061000ABBEFEE72600020005F0A0BA0844401E6B
:10062000491E884370470821001DF7E72DE9F04176
:1006300017460E460446FFF7F6FFA042054633D99B
:10064000002F1CBF06F10C0005F0AEFA30467468AE
:10065000F4B12168A94217D305F1080291423CBFC9
:100660006168416007D3626861194A602268521B61
:100670000A6041602560002F1CBF06F10C0005F0E8
:10068000B2FA201DBDE8F08120466468002CE0D15C
:100690002946304600F096F90028D7D1002F1CBF1C
:1006A00006F10C0005F09FFA0020BDE8F08110B5BE
:1006B000044600F079F901682046BDE810400122A7
:1006C000B4E770B516460D46041F002808BF70BD7C
:1006D000002E1CBF05F10C0005F066FA2B46586889
:1006E000002818BFA04238BF0346F8D31968CA18BB
:1006F000A24218BF5C6003D122681C4611441960F5
:1007000021680A19824218BF606004D142686260A1
:10071000006808442060002E1CBF05F10C0005F0A5
:1007200062FA70BD10B5044600F03EF9016820463B
:10073000BDE810400122C4E710B5FFF76DFF006867
:1007400010BD10B50446FFF767FF046010BD70B51B
:100750000C460546012A05D02878800600D5EA69AE
:10076000002302E0012305E05B1C934202D2E05C1F
:100770000028F9D1A869E618C01AA861286A1844A7
:1007800028622846AFF3008004E0D5E9012114F87F
:10079000010B9047B442F8D32846AFF3008070BDF8
:1007A0000FB40B0010B54FF000048AB00FA90091F0
:1007B0000E99CC60234C7C44234A7A44CDE906420E
:1007C00000D004236FF00042CDE901321F4A7A4481
:1007D0006B4608920246002009F0C1FC0AB010BC2A
:1007E0005DF814FBF0B507464FF0FF301E46154686
:1007F0000C463B4685B06A460091CDE90101314681
:100800000020049004A8FFF7CBFF0499034660186A
:1008100025B109B1024600E022462A6000290ED027
:10082000002B02DD0099814209D03B466A463146E1
:10083000001B0094CDE9010404A8FFF7B1FF05B047
:10084000F0BD0000FD060000170700008B0200004D
:100850002DE9F041074615460E461020FFF727FF09
:1008600004000AD06760C4E9026500F0A2F80168DC
:10087000216004600020BDE8F0810120FBE710B595
:1008800000F060FBBDE8104000F056BB431A28BFE3
:100890009A427FF6E6AD10441144032A40F22680C6
:1008A00010F0030F1EBF11F8013D521E00F8013D6C
:1008B00010F0030F7FF4F6AF11F0030300F06D8327
:1008C000083AC0F00B8051F8043D083A51F804CDC5
:1008D00040F8043D40F804CDFFF7F3BF121D5CBFA4
:1008E00051F8043D40F8043DAFF30080D20724BF27
:1008F00011F8013D11F801CD48BF11F8012C24BFBA
:1009000000F8013D00F801CD48BF00F8012C704708
:1009100030B44FF0013C50F8042B51F8043BCCFAB2
:1009200052F4D51A20D1FCB950F8042B51F8043BED
:10093000CCFA52F4D51A17D1B4B950F8042B51F8A7
:10094000043BCCFA52F4D51A0ED16CB950F8042BF2
:1009500051F8043BCCFA52F4D51A05D1002CDAD068
:1009600030BC4FF00000704729BAB1FA81F111F0A4
:100970001801D1F120008440F2D1CA40CB4012F0DE
:10098000FF0213F0FF0330BCD01A704700487047D5
:10099000A80000207047000010B500F04DFB001DBE
:1009A00010BD00BF958A000010B5FFF7EFFF0830BB
:1009B00010BD10B5FFF7EAFF383010BD7047704723
:1009C0007047704738B504460A4600206946AFF3C1
:1009D0000080002808BF38BD02460099204600F07C
:1009E00037FB012038BD012000F0F8BEF8B5AFF3A9
:1009F0000080054600200C46102000BF0646A819BE
:100A0000A0420DD9324669460020AFF300800700AE
:100A100008BF00F0E3FE0098A04218BF0546C419C5
:100A2000FFF7C2FF05600746F01D20F007004619DA
:100A3000284600F00AF8B44208BFF8BDA21B3146B0
:100A40003868BDE8F84000F003BB00210160C0E950
:100A500001100C3005F0B8B81020704710B50446EE
:100A6000FFF79AFF0068005D00F0010010BD2DE95E
:100A7000FF4F0C461E464FF0FF378BB0D2E9000106
:100A8000DDF860800A908A46C1F30A5505B93D46F3
:100A9000002108464FF00000BAF1000F00F44000BA
:100AA00005DA00EB80004FF4400101EA50004FEA04
:100AB0009059B9F1010F00DDB9460A9850EA4A0091
:100AC0000ED044F61050A5F2FF3545432F14B8F16F
:100AD000000F1ED07542291E1EDDC9F100021CE068
:100AE000B8F1010F4FF0000001D0302103E0F243D4
:100AF00005E02154401CB042FBDB304600220021BF
:100B000021540B99C1F80880C1E900200FB0BDE85D
:100B1000F08FBD1B6D1CDEE74A4600DA694206A86D
:100B200000F0C8FD06AB93E8070003AB83E80700BD
:100B300050460A9906F07DFF8DE80700A0F50050A9
:100B40001F3800900398002D0ADD42F21F014A462B
:100B50000844002303A90390684607F029FA09E036
:100B6000A0F500504A461F38002303A903906846A9
:100B700007F048FA8DE807000004000C03D04FF09E
:100B8000FF30410800E01046B8F1000F03D000220A
:100B9000009215461EE0751E05D400F07BFA303237
:100BA00062556D1EF9D5B3460122084302D00022DA
:100BB0007F1C04E02078302801D100227F1E002A0B
:100BC000099784D01DE0112D07DA00F063FA303266
:100BD00062556D1C50EA0102F5D1084302D000981D
:100BE000C8B10EE00021681E05E0235C625C63541E
:100BF0002254401E491C8142F7DBAB46A81B401E15
:100C00000990002004F80B000B98099AC0F808809E
:100C1000C0E9002B7AE711264FF0000857E72DE9CD
:100C2000F04F88460446D21D22F0070191B0D1E969
:100C30000001CDE90A0107F031FB02460B98C00F15
:100C400001D02D2007E02068810701D52B2002E08C
:100C5000202101EAC000032A099001D0072A05DB00
:100C600003464146204600F05BFA0BE120788006FF
:100C700001D5E06900E00620B8F1650F814606D095
:100C8000B8F1660F18D0B8F1670F70D131E00020CD
:100C9000B9F1110F009001DB112301E009F101030B
:100CA0000AAA01A90CA8FFF7E2FEDDE90C700026F4
:100CB00009F10105834647E001204B4600904FF0C3
:100CC00000470AAA01A90CA8FFF7D1FEDDE90DB083
:100CD0000C995D46002610B909F101000D18B9EB19
:100CE000050003D4C0F1FF3609F10105A5EB0900A9
:100CF0002BE0B9F1010F01DA4FF001090020B9F141
:100D0000110F0090484601DD112300E003460AAAB6
:100D100001A90CA8FFF7ABFEDDE90C704D460026DB
:100D20008346207800070AD4AB4500DA5D4601A867
:100D3000012D04DD411911F8011C302907D04F4560
:100D400002DA17F1040F04DA012082460FE06D1E6B
:100D5000EEE7002F02DCED1B3E4403E0781CA842C6
:100D600000DD7D1CB81B00F1010A4FF00047207820
:100D7000000703D4AA4501DB4FF0FF3A0021B7F189
:100D8000004F0DF143088DF8431024D002202B238F
:100D9000002F01DA7F422D230A21021EA0F101005B
:100DA00000DC5FB197FBF1FC97FBF1F201FB1C7CCF
:100DB00017460CF1300C08F801CDEEE7A8F1010060
:100DC00003702188090501D5452100E06521A0F1C6
:100DD000010800F8011C09980FA9A1EB0807FF1DE5
:100DE00000B10120411901EBEA70A1693844081AE9
:100DF000401EA0612078C00602D42046AFF30080D8
:100E0000099828B1D4E901219047206A401C20624A
:100E10002078C00622D52046AFF300801EE0002EC9
:100E200004DBB34502DD01A8805D00E03020D4E999
:100E300001219047206A401C2062761CAAF1010023
:100E40005FEA000A0AD100F0F7F8C0680168405C68
:100E5000D4E901219047206A401C2062281EA5F198
:100E60000105DCDC07E0D4E9012118F8010B90470B
:100E7000206A401C2062381EA7F10107F3DC2046DF
:100E8000AFF30080032011B041E610B5436913B100
:100E9000AFF3008001E0FFF75AFC012010BD12788B
:100EA00000F124010A7000224A700122EDE7116866
:100EB0004FF0FF32E9E7426842B1016811F8013BA7
:100EC00023B1521EC0E90012184670470121C160CB
:100ED000881E704742685AB1C368016843B9836885
:100EE0008B4205D0491E521CC0E9001200207047F9
:100EF0004FF0FF3070472DE9F0410646FFF759FDEE
:100F00008046454613E016B1E068B0420ED1206835
:100F10002860D4E90101D8F8007088472046FFF71F
:100F200001FCD8F80000B842EBD100E025462C685F
:100F3000002CE8D1BDE8F081002801D0FFF766BBA6
:100F40007047000010B5002102A000F02EFC012027
:100F500010BD0000534947414252543A2041626E4D
:100F60006F726D616C207465726D696E6174696F0A
:100F70006E000000431A28BF9A427FF6B7AA1044B9
:100F8000114410F0030F1EBF11F8013D521E00F86E
:100F9000013D10F0030F7FF4F6AF103AC0F00A8065
:100FA00010B531E9185020E91850103ABFF4F9AFE4
:100FB000BDE81040530724BF31E9081020E90810AC
:100FC00044BF51F8043D40F8043D12F0030F08BF40
:100FD0007047D20728BF31F8023D48BF11F8012CF5
:100FE00028BF20F8023D48BF00F8012C7047754625
:100FF000FFF7CCFCAE4605006946534620F00700DB
:10100000854618B020B5FFF7B5F9BDE820404FF090
:1010100000064FF000074FF000084FF0000BAC4601
:10102000ACE8C009ACE8C009ACE8C009ACE8C0094C
:1010300021F007018D46704710B5FFF7A7FC20305F
:1010400010BD801A0844401E491E88431044704752
:1010500070B5144605468C464368002B18BF63459F
:1010600038BF1846F8D302681044604508D0664679
:10107000604604220821FFF7E4FF811B8446641ABE
:101080002946CCF80040BDE8704000220CF1040075
:10109000FFF717BB30B5B0F10A0271F100034FEA58
:1010A000900E4EEA817EB0EB0E0061EB91014FEAAB
:1010B000101E4EEA017E10EB0E0041EB11114FEABB
:1010C000102E4EEA016E10EB0E0041EB11214FEA9B
:1010D000104E4EEA014E10EB0E0041EB114140184C
:1010E00041F100014FEAD00040EA41704FEAD101DE
:1010F0004FEA810444EA907410EB800544EB01044C
:101100006D1944EB0404521BA3414FF0000348BF88
:101110000A3200D530BD401C41F1000130BD000055
:101120002DE9F0411F46044603260168072A01F411
:10113000006004DB08B116A505E016A503E008B1C0
:1011400015A500E015A521F010002060A069C01EC3
:10115000A0610FB1401EA0612046AFF300804FB1E7
:10116000D4E9012138469047206A401C2062C01C07
:10117000206206E0206AFAE7D4E9012115F8010BA4
:101180009047761EF8D22046AFF30080BDE8F0818C
:101190004E414E006E616E00494E4600696E66001B
:1011A0003A2800D2303820F02002412A01D3A2F19F
:1011B0003700884201D34FF0FF3070472DE9FF4FD1
:1011C00006468BB00878FF2806D0491C2D2805D08C
:1011D00000244FF0000908E000200CE00124F8E7AB
:1011E00009EB8903491C00EB43090878FF28F7D174
:1011F00014B1C9F100008146107800252C46AA469A
:1012000029462D2801D02B2804D1521C2D2813D07B
:10121000002082468B461078FF280FD04FF0000C3C
:101220000A21521CA5FB017804FB018105FB0C116E
:10123000C5194BEB0104EEE70120EAE7002108465F
:101240004FF00000BAF1000F02D000EB8000400820
:10125000C0F38157012F01DD4FF0FF370E9955EA9A
:10126000040009EB01080BD04FF0020918F5FA7FD2
:1012700016DA4FEACA70002F706008DD012007E01F
:101280004FEACA70C6E900B00FB0BDE8F08F002089
:101290003060FFF7C1F9C0F800901821084616E049
:1012A000B8F5FA7F18DD002F02DAF748784401E03C
:1012B000F6487844D0E90010C6E9001040EACA7048
:1012C0007060FFF7A9F9C0F80090142108460FB02C
:1012D000BDE8F04F08F0DEBE002108464FF00000E8
:1012E000B8F10001099002DAC7F1000200E03A46C5
:1012F00001DAC8F1000106A800F0DCF906AB93E8BA
:10130000070003AB83E8070044F23E005BEA0401F8
:101310000090584604D144F21E012C465D460091CF
:10132000210C0904014306D10099240444EA154420
:101330002D041039009104F07F41014306D100993A
:10134000240244EA15642D020839009104F070412A
:10135000014306D10099240144EA15742D01091FA7
:10136000009104F04041014306D10099A40044EAF1
:101370009574AD00891E009104F00041084304D12A
:1013800000986D196441401E00904FF001033A46E9
:101390006846B8F1000FCDE9014503A902DD06F06A
:1013A00046FE01E006F019FEBAF1000F04460D46B4
:1013B00001D084F00044002108464FF00000099954
:1013C00040F2FF77484010F00C0F07D124F00040A6
:1013D000284303D0C4F30A50B84212D1FFF71CF9D6
:1013E000C0F80090C4F30A50B8420AD1A848784423
:1013F000D0E90010C6E9001004F000410843706015
:1014000042E7C6E900543FE72DE9FF4F1F464FF082
:10141000000A4FF0FF38454691B0D7E90146CDF8B4
:101420003CA0FFF709FEC0680168405C1090B969F4
:1014300012986D1C8847396A814688470028F6D182
:10144000B9F1FF3F0AD0002E24F4D06411DDB9F1C8
:101450002B0F08D0B9F12D0F0BD102E0404615B08B
:1014600013E744F48064B96912986D1C8847761EAE
:101470008146600504A901D52D2000E02B20002E17
:1014800001F1010B0DF130088DF810003FDDB9F1CD
:10149000690F08D0B9F1490F05D0B9F16E0F02D02C
:1014A000B9F14E0F1CD13B4601A8009580E85002CF
:1014B000DDE912126FF0020008F055FEC11CCED11A
:1014C0000EE0B96912986D1C884781461398761E04
:1014D00044F4007405600F98401C002E0F9016DD38
:1014E000B9F1300FEDD0B9F1780F02D0B9F1580F42
:1014F0000DD10F9801280AD13B46CDE90054DDE912
:101500001212001F029608F02CFEC11CA7D11099E0
:1015100089453ED144F0800406E01399681CAAF185
:10152000010A44F400740860B9696D1C1298761EB3
:10153000884730288146F0D02BE01099894505D1A5
:10154000200603D4761E44F0800418E0484607F0D5
:10155000CAFE08B3761E0DF123029345A9F13000AF
:1015600044F4007406D20BF8010B200607D5AAF14B
:10157000010003E0200602D40AF101008246A00522
:1015800002D51399681C0860B96912986D1C8847C8
:101590008146002ED1DC53E0002E51DDB9F1650FFC
:1015A00002D0B9F1450F4BD1A00549D5B9696D1CE1
:1015B0001298761E24F440748847002E81460CDD74
:1015C0002B2804D0B9F12D0F07D144F48074B969E8
:1015D00012986D1C8847761E8146E00501D52D21A5
:1015E00000E02B2108F8011BCDF8008021E0761ED9
:1015F0000DF13901884544F400740CD2A9F1300092
:1016000010F0FF0088F8000002D10099884509D940
:1016100008F1010806E0E00501D51E4801E042F2AC
:101620000F708246B96912986D1C884781461398DD
:101630000560002E04DD484607F055FE0028D6D18F
:10164000F96912988847FF2053468BF8000088F804
:10165000000000200A900B9004AA0CA90AA8FFF72A
:10166000ADFDA00502D46FF00100F8E614F0240FE0
:1016700012D0E0071CD13868DDE90A12031D3B6077
:101680000068C0E9001213E0909600008296000006
:1016900046950000F1D8FFFF0AA9684607F010FE42
:1016A000E00705D13868009A011D396000680260C2
:1016B0002846D4E62DE9F047814616468AB03548DB
:1016C00078440DC88DE80D0032487844801C03AC86
:1016D0000DC884E80D0041F69B300844372190FB8B
:1016E000F1F290FBF1F5A5F1800501FB12041B3C22
:1016F00002D56442012000E00020DFF898A0804677
:101700000027FA44AAF1BE0A0EE0E0070AD03246EA
:10171000684607EB470101230AEB810106F072FCE2
:101720008DE8070064107F1C002CEED1194F7F4418
:10173000AE3F19E0E80715D007EB04100DF1180AC9
:1017400090E80E008AE80E00C068F04201D19819B6
:1017500008903246012306A903A806F053FC03AB08
:1017600083E807006D10641C002DE3D14FF00103E6
:1017700032466946B8F1000F03A802D006F018FC03
:1017800001E006F03FFCC9E90001C9F808200AB0F1
:10179000BDE8F087E88B000010B50446AFF3008089
:1017A0002046BDE81040FEF76FBD70B505460C46FB
:1017B0000A2000E06D1C00F018F835B128780028E8
:1017C000F8D102E0641C00F010F814B12078002871
:1017D000F8D1BDE870400A2000F007B810B500F05D
:1017E00027F8BDE81040FFF7A7BB08B569468DF89C
:1017F00000000320ABBE08BD10B5FFF7D5F80068A8
:10180000BDE8104000F03CB8B2F120030AD5C2F1A7
:10181000200301FA02F120FA03F341EA030100FA7E
:1018200002F0704700FA03F14FF00000704700002B
:1018300010B5012805D0002103A0FFF7B6FF012055
:1018400010BD09A1F8E7000053494752544D454DDA
:101850003A204F7574206F662068656170206D6551
:101860006D6F7279000000003A2048656170206D4C
:10187000656D6F727920636F727275707465640044
:1018800010B50C3004F09DF910BD00002DE9FF4F9C
:101890001F464FF03C0987B04FF00042DDE91410BD
:1018A00001F10108DDF858A002EA40500390002041
:1018B00005908346054604460490B969461E08987B
:1018C0008847AAF1010A0290BAF1000F3BDD0298A5
:1018D0002E2815D01021FFF763FC00282EDB4FF0D7
:1018E000010B0599014317D0B9F1000F0BDB4A46F4
:1018F000C117FFF789FF05430C43A9F1040905E06F
:10190000012004900BE008B145F00105012005908D
:10191000049820B9361D02E0049800B1361FB96959
:10192000089808F101088847BBF1000FAAF1010AE5
:101930000290C9D00999C1F80080C5E702987028C3
:1019400008D0502806D0F96908988847BBF1000FE5
:1019500014D04FE0002002900120BBF1000F049052
:1019600009D0B969089808F101088847AAF1010966
:10197000B9F1000F07DCF969089888476FF001009A
:101980000BB0BDE8F08F2B2804D02D280CD14FF0E0
:10199000FF300490B969089808F101088847A9F157
:1019A0000109B9F1000FE6DD411CE4D00A21FFF77F
:1019B000F7FB0028DFDB029908F1010801EB810148
:1019C00000EB41000290B969089888470A21FFF7A7
:1019D000E7FB099AA9F10109B9F1000FC2F80080EB
:1019E00001DD0028E7DAF969089888470499029828
:1019F00000FB016655EA040004D004F040410900F0
:101A000002D006E0039898E0A40044EA9574AD0083
:101A1000B61E04F00041080002D16D196441761E23
:101A2000159810F0240F03D04FF00B095C4803E029
:101A30004FF028096FF07D008246564507DAAAEB81
:101A400006018944B9F1410F01DD4FF04109012040
:101A50000021A9F10102FFF7D7FE024628400B46FC
:101A60002140084301D0012100E00021501E0291D5
:101A700043F1FF3128402140084301D0012000E01C
:101A800000200299834651EA0B014FD000210846FD
:101A90004FF00000039900F4400039B100EB8000E2
:101AA0004FF4400100EBD07001EA6000801501287E
:101AB00002DD4FF0FF3000E013D0401C36D002981A
:101AC00060B3BBF1000F0CD14A4601200021FFF7A3
:101AD0009BFE28402140084301D0012000E0002067
:101AE000E0B101204A460021FFF78EFE034640196F
:101AF0000A4661412D1A8C4111D3B9F1400F09DD1D
:101B0000159810F0240F02D0AAF1340603E0AAF1D0
:101B1000170600E0761C00254FF0004406E05B1E2F
:101B200042F1FF3220EA030521EA0204CAF1010072
:101B3000B04206DA1B490398084301900020009048
:101B40000EE0039AC4F3D321E80A0A43164940EA97
:101B500044500A433146CDE90002684607F0B9FB1C
:101B6000159810F0240F0BD01598C00715D13868C0
:101B7000DDE90012031D3B600068C0E900120CE0C3
:101B800002A8694607F09CFB1598C00705D1386884
:101B9000029A011D3960006802604046F0E60000CC
:101BA00002FCFFFF0000F07F0000F03F2DE9FF4F37
:101BB00092461D4685B04FF00041DDE9124BDDE94C
:101BC00014727F1E01EA4B50414940F0FF4940EA40
:101BD0000108002122F020004928049102D04E285B
:101BE00028D04CE03BA0012607C88DE80700A96972
:101BF0000698641C88477F1E014606D41DF806001F
:101C000018B121F0200181420BD0E969069888477C
:101C1000032E34D0082E32D06FF0010009B0BDE899
:101C2000F08F761C032E01D0082EE0D1601CCAF87C
:101C30000000DCE7A9690698641C88477F1E2AD447
:101C400020F02000412826D1A9690698641C884705
:101C50007F1E20D420F020004E281CD1A9690698B0
:101C6000641C88477F1E48F4002849F48009CAF89C
:101C7000004001D4282806D0E969069888475FEA21
:101C8000CB7012D022E0A9690698641C88477F1E99
:101C900001D4002803DAE96906988847BCE72928B7
:101CA000F1D1641CCAF80040E9E71BF0240F07D00B
:101CB00028680499031D2B600068C0E9001805E03E
:101CC0002868021D2A600068C0F800902046A5E739
:101CD0000000F07F494E46494E495459000000002B
:101CE000EA49097851B1DB4AC0F3C621515CC0F31F
:101CF000022021FA00F000F0010070470020704738
:101D000070B5E24C264656F8185F00F0C3F956E865
:101D1000001F46E8000202B1F9E7A942F2D1A84249
:101D200008D204F1100151E8002F531C41E800349F
:101D300004B1F8E770BD00BFF8B514460D4606467D
:101D4000FFF7CEFF98B13746C0F20807FFF7D8FF7C
:101D50000146EFF30580002808BFB7B207F14070D5
:101D60002A46234601B0BDE8F04000F041B801200A
:101D7000F8BD00002DE9F047994692460F46064609
:101D8000FFF7AEFF58B3DDF820803446C0F20804F8
:101D9000FFF7B6FF0546EFF305800028BB4808BFF4
:101DA000B4B20130D0E84F1F4A1CC0E8432F03B142
:101DB000F8E74FF4E02000EA0146A01900F1807036
:101DC00029463A46534600F013F858B107482946C9
:101DD00030434A464346BDE8F04700F009B80120C9
:101DE000BDE8F0870020BDE8F08700BF01000002D9
:101DF0002DE9F04F4FF0805491464FF0005204EA25
:101E0000D10402EA9902204310434FF0804202EAD3
:101E1000530240EA02089D48DFF844E29A468B46A6
:101E20006FF0070600F1040C013680F05080614627
:101E300051E8004F601C41E8000505B1F8E7E5B244
:101E400004F470640EEB051048EA043400F10C074A
:101E500044F0406257E8004FA10103D3BFF32F8F36
:101E6000002406E004F00044144347E8004303B1B3
:101E7000F0E76101D8D584F004422BF0004102F074
:101E8000004319442C014EF804102AF0004129F0B7
:101E9000004419442344C0E9013157E8001F890177
:101EA00003D2BFF32F8F002004E047E8002303B1E3
:101EB000F3E7012058B17548083050E8001F4A1C6C
:101EC00040E8002303B1F8E70120BDE8F08F6F4838
:101ED0000C3050E8001F4A1C40E8002303B1F8E72B
:101EE0000020BDE8F08F00BF0023FE2998BFFE2A26
:101EF00026D82DE9F041DFF85C8100234FF0010E78
:101F00004FF0000CBCF1040F17D020FA0CF7FF07BC
:101F10000FD00F4697420CD803EBD70407F0070603
:101F200018F804500EFA06F6354308F80450013745
:101F3000F0E70CF1010C2033E4E70123BDE8F041A8
:101F4000184670472DE9F047DFF840A18146002090
:101F50008AF800003F4888468021FEF71BFB3E4A76
:101F600018214FF0FF3341F221064FF0FF3589B1C0
:101F7000147885EA04256FF0070444B186EA450029
:101F80002FB29F42C8BF680001340546F5E701390A
:101F90000132ECE7DAF820003049884218D1BAF86B
:101FA0000210A8B2814215D1DAF81C00411CCAF80F
:101FB0001C10A0B12A490020B0F5805F45D00A1856
:101FC000D36810305C0144BF23F04063D360F3E773
:101FD000CAF820100120CAF81C00AAF802502048B4
:101FE00000244FF48051CAE90144CAF80C408AF831
:101FF0000140FEF7CFFA00F053F80646002818BF5C
:102000004CF25030CAE90440CAF81840D6B1154C19
:1020100048460021FE22A0470F20EF21EF22A047D3
:102020000420FE21FE22A047FFF76AFE0146DAF8EF
:102030001C200D480023FFF7DBFEB8F1000F18BF8E
:1020400000F014F83046BDE8F08700F029F80646A5
:10205000DCE700BF00FE022074A300086B27A5E1A7
:1020600000EE0220E91E000800FF000380B50748CB
:10207000017849B901210170FFF742FE0146044889
:1020800000220023FFF7B4FE012080BD80FE022065
:1020900001FF000301480068704700BF041000E022
:1020A0000548016841F0807101600448016841F011
:1020B0000101016001207047FCED00E0001000E02C
:1020C000014602480022FFF737BE00BF01F30100BE
:1020D000014602480022FFF72FBE00BF05F30200B1
:1020E00001464FF473400022FFF726BE0146024826
:1020F0000022FFF721BE00BF03F3020001460248A1
:102100000022FFF719BE00BF02F30100014602489A
:102110000022FFF711BE00BF04F30200014602488F
:102120000022FFF709BE00BF0DF5020001464FF483
:1021300071400022FFF700BE014602480022FFF76F
:10214000FBBD00BF13F10100024800210022FFF790
:10215000F3BD00BF01F10100024800210022FFF79A
:10216000EBBD00BF02F10200024800210022FFF790
:10217000E3BD00BF07F10100024800210022FFF784
:10218000DBBD00BF08F102001CB514460A4601463B
:10219000024800932346FFF7EDFD1CBD01F002004D
:1021A0000A4601460148FFF7C7BD00BF04F0020020
:1021B000E0B513460A460146002000900148FFF7AB
:1021C000D9FD8CBD05F002001CB514460A46014637
:1021D000024800932346FFF7CDFD1CBD03F002002B
:1021E000E0B513460A460146002000900148FFF77B
:1021F000C1FD8CBD02F00200E0B513460A4601465F
:10220000002000904FF43C30FFF7B4FD8CBD00007F
:10221000014602480022FFF78FBD00BF08F9020007
:102220000A4601460148FFF787BD00BF03FA0200D6
:10223000014602480022FFF77FBD00BF17FA0100E8
:10224000014602480022FFF777BD00BF18FA0200DE
:102250000A4601464FF47A40FFF76EBD1CB514469E
:102260000A460146024800932346FFF783FD1CBD42
:102270000CFA0100E0B513460A4601460020009022
:102280000148FFF777FD8CBD0DFA02000A460146B2
:102290000148FFF751BD00BF14FA01000146024892
:1022A0000022FFF749BD00BF0EFA02000A460146B0
:1022B0000148FFF741BD00BF09FA02000A46014686
:1022C0000148FFF739BD00BF0AFA0200E0B5134626
:1022D0000A460146002000900148FFF74BFD8CBDE7
:1022E00001FA01000A4601460148FFF725BD00BF7B
:1022F0000BFA02000A4601460148FFF71DBD00BF68
:1023000010FA02001CB514460A4601460248009322
:102310002346FFF72FFD1CBD06FA0100E0B513466A
:102320000A460146002000900148FFF723FD8CBDBE
:1023300007FA0200014602480022FFF7FDBC00BF79
:1023400008FA02000A4601460148FFF7F5BC00BF43
:102350000FFA02000A4601460148FFF7EDBC00BF34
:1023600006F701000A4601460148FFF7E5BC00BF39
:1023700007F70200014602480022FFF7DDBC00BF5C
:1023800008F702000A4601460148FFF7D5BC00BF26
:1023900009F702000A4601460148FFF7CDBC00BF1D
:1023A00003F70200014602480022FFF7C5BC00BF48
:1023B0000EF70100014602480022FFF7BDBC00BF36
:1023C0000FF702000A4601464FF47740FFF7B4BC0E
:1023D000014602480022FFF7AFBC00BF01F7010031
:1023E000014602480022FFF7A7BC00BF0AF702001F
:1023F000014602480022FFF79FBC00BF0BF7010017
:102400000A4601460148FFF797BC00BF0CF70200DF
:10241000014602480022FFF78FBC00BF08F8020007
:102420000A4601460148FFF787BC00BF16F20300C9
:102430000B4601460348002A0CBF1A462930FFF715
:102440007BBC00BF03F20200014602480022FFF7F6
:1024500073BC00BF1CF202000A4601464FF47240F2
:10246000FFF76ABC024800210022FFF765BC00BFED
:102470001AF201001CB514460A46014602480093B0
:102480002346FFF777FC1CBD09F402000146024811
:102490000022FFF751BC00BF08F4020001460248C9
:1024A0000022FFF749BC00BF06F2010001460248C6
:1024B0000022FFF741BC00BF15F20200E0B5134651
:1024C0000A460146002000900148FFF753FC8CBDEE
:1024D00001F20100014602480022FFF72DBC00BFB7
:1024E00018F203000A4601460148FFF725BC00BF69
:1024F0002DF202000A4601460148FFF71DBC00BF4D
:102500000AF20100014602480022FFF715BC00BF95
:1025100019F202000A4601460148FFF70DBC00BF50
:1025200017F203000A4601460148FFF705BC00BF49
:1025300001F6020010B500F1280151E8002F12B990
:10254000BFF32F8F04E0531E41E8003404B1F4E7D9
:1025500072B12C300121006850B1821CD2E84F3F8B
:10256000C2E8441F04B1F9E71A0602D00830F2E7C6
:10257000002010BD70B5024652F8305F4DB1CC78E6
:1025800000235DB12E46ED78A5420DD27568334625
:10259000F7E70023C1E90133C1620DE00024C1E97E
:1025A000014300F12C0403E0C1E9016306F10804D2
:1025B0002160002B18BF1A1D1160283050E8001F41
:1025C0004A1C40E8002303B1F8E770BDD1E90123BC
:1025D000002A0EBFC36293608B68191D002B08BFD1
:1025E00000F130010A60704719480068704700BF69
:1025F00018480178012905D105494FF080620A6029
:10260000002101701248016841F00101016070472A
:1026100004ED00E04FF0FF307047000040B1274963
:102620000968B1FBF0F0411E0020B0EB116F02D041
:102630004FF0FF307047054AFF231370044A06230A
:1026400013605160034908709060704723ED00E00B
:1026500010E000E0280100201548416801F00C025C
:102660001449082A03D0042A17D1134915E0026837
:1026700002235202104A58BF0A46016801F03F0186
:10268000B2FBF1F10268C2F3881251430268C2F34F
:10269000014203EB4202B1FBF2F1084A084B116020
:1026A0004068C0F30310185C21FA00F01060704716
:1026B000043802400024F40000127A0000000020D8
:1026C00064A3000810B50E480E4CD0F8801041F4F9
:1026D0007001C0F8801082490A6842F001020A6065
:1026E00000228A600B6823400B60074B4B600B682D
:1026F00023F480230B60CA604FF00061016010BDBD
:1027000008ED00E0FFFFF6FE1030002410B593073F
:1027100012D400F12803D0071ED153E8000F08425D
:1027200003D1BFF32F8F002005E020EA010243E828
:10273000002404B1F1E710BD806A00EA01038B4276
:10274000014618BF002112F0010208BF014653EAFA
:10275000020018BF084610BD53E8000F00EA01024E
:102760008A4203D0BFF32F8F002005E020EA010248
:1027700043E8002404B1EFE710BD0000B0B5104AF3
:102780000023443215462C683CB12569A94209D37F
:10279000491B04F10C052346F5E70024C0E9023487
:1027A000016106E0C0E902340161A0602569691A8F
:1027B0002161002B18BF03F10C021060B0BD00BFF7
:1027C000040000200248006801688968084700BFCB
:1027D0001401002010B5064800F11404204600F052
:1027E0002BFC0448044A2146BDE81040FDF7DFBD3C
:1027F00008010020433000080000000810B5FFF772
:1028000061FF374C206840F48030206020688003EE
:10281000FCD5206C40F0805020643248016841F4BF
:1028200040410160216821F08071216021688901A7
:10283000FCD46168042241F480016160616862F344
:10284000050161606168B42262F38E1161606168A4
:1028500021F440316160216841F08071216021687C
:102860008901FCD5016841F4803101604168C903E8
:10287000FCD5016841F40031016041688903FCD551
:1028800040F20570C4F80004A068022161F3010061
:10289000A060A068A060A06840F40040A060A068AC
:1028A00040F4A050A060A06800F00C000828FAD105
:1028B000FFF7D2FE206B40F001002063206B40F058
:1028C00008002063206B40F010002063206B40F074
:1028D00040002063606C40F01000606410BD00BFD9
:1028E00000380240007000409C4A02211068072313
:1028F00061F393401060506820F40070506090685D
:1029000040F440209060506A63F3071050621068F2
:1029100061F315501060506820F48060506090683A
:1029200040F440109060506A63F30B205062D2F87C
:10293000001C012060F31141C2F8001C88490B689B
:1029400023F480730B604B6843F440334B60D2F840
:10295000003C60F39343C2F8003C0B6823F400731F
:102960000B604B6843F440234B60D2F8003C60F3AB
:102970001553C2F8003C0B6823F480630B604B686E
:1029800043F440134B60D2F8003C60F39753C2F815
:10299000003C0B6823F400630B604B6843F4400376
:1029A0004B60D2F8003C60F31963C2F8003C0B683E
:1029B00023F480530B604B6843F040734B60D2F8B4
:1029C000003C60F39B63C2F8003C0B6823F40053A7
:1029D0000B604B6843F040634B60D2F8003C60F3FF
:1029E0001D73C2F8003C0B6823F480430B604B68F6
:1029F00043F040534B60D2F8003C60F39F73C2F841
:102A0000003C0A6822F400420A604A6842F04042F0
:102A10004A60D1F8FC2360F31142C1F8FC23D1F8DD
:102A2000002422F48072C1F800244E4A136843F453
:102A300040331360D1F8FC3360F39343C1F8FC33A7
:102A4000D1F8003423F40073C1F80034136843F460
:102A500040231360D1F8FC3360F31553C1F8FC3305
:102A6000D1F8003423F48063C1F80034136843F4D0
:102A700040131360D1F8FC3360F39753C1F8FC3373
:102A8000D1F8003423F40063C1F80034136843F430
:102A900040031360D1F8FC3360F31963C1F8FC33D1
:102AA000D1F8003423F48053C1F80034136843F0A4
:102AB00040731360D1F8FC3360F39B63C1F8FC33BF
:102AC000D1F8003423F40053C1F80034136843F004
:102AD00040631360D1F8FC3360F31D73C1F8FC331D
:102AE000D1F8003423F48043C1F80034136843F074
:102AF00040531360D1F8FC3360F39F73C1F8FC338B
:102B0000D1F8003423F40043C1F80034116841F0D7
:102B100040411160D2F8F81760F39B61C2F8F817D2
:102B200011490B6823F400530B604B6843F040637A
:102B30004B60D2F8F83760F31D73C2F8F8370868B5
:102B400020F480400860486840F0405048604FF4EE
:102B50000050C8824FF48040C88270470000024095
:102B6000040C0240081002400418024007484FF6C7
:102B7000FF0201681140064A114301600548102117
:102B80000170054820210160704700BF0CED00E096
:102B90000003FA0525E400E004E100E0194842F2F0
:102BA0009042018821F480610180018821F48051E4
:102BB0000180818821F44051818001886FF3DF31E9
:102BC000018030F8041C114320F8041C30F8041C68
:102BD00041F00F0120F8041C018841F00801018038
:102BE000018821F080010180018841F00401018009
:102BF000018841F020010180018841F400510180E9
:102C0000704700BF0C1001401F4C206880F400503A
:102C1000206042F2107003F0A9F9F6E770B504469F
:102C2000084800210022002504F09CF8064E2146A9
:102C3000306004F0B9F83068002808BF4FF0FF3565
:102C4000284670BD092C00088086002084B0002032
:102C50000390CDE9010001A809A1052201F085FF3B
:102C600003F0D4F941F28835074E4419306880F4F6
:102C700080403060204603F095F92C44F6E700BF11
:102C80007374617274000000141802408CB000204C
:102C90000B9005A8051D08A80DF10809DFF85CB127
:102CA00000F1040809F104060BACDBF800004FF05A
:102CB000FF3201688B68214698470B990028F4D1B0
:102CC000B1F1405FF1D1DBF800004FF0FF32016855
:102CD0008B68214698470028E7D10B9801283DD002
:102CE0000228E2D1DBF800004FF0FF3201688B6868
:102CF000214698470028D8D14FF0000ADBF80000A1
:102D0000CDF828A0CDE9088A01680B9ACF6808A9F8
:102D10004FF0FF33B8473A48CDF81CA0CDE9055A2B
:102D20000068DDF820A005AF0190D04550D00AF131
:102D3000100238462946134602F0A1FDDAF80400D5
:102D400028B1824600680028FBD1EEE78246DAF817
:102D5000080001685145F9D18246E6E7DBF800003A
:102D60004FF0FF3201688B682146984700289CD1BC
:102D70004FF0000ADBF80000CDF828A0CDE9088A62
:102D800001680B9ACF6808A94FF0FF33B8471C4879
:102D9000CDF810A0CDE9026A0768DDF820A0D04583
:102DA0001CD00AF1100248463146134602F067FD76
:102DB000DAF8040028B1824600680028FBD1EEE76B
:102DC0008246DAF8080001685145F9D18246E6E703
:102DD0000198394600F09EFA384604E038464946E4
:102DE00000F0F8FA484602F086FD054800680168E0
:102DF0000968884708A802F07EFD56E71001002008
:102E00001801002070B50446084800210022002562
:102E100003F0A8FF064E2146306003F0C5FF30687E
:102E2000002808BF4FF0FF35284670BD4D2C000824
:102E30007486002070B50446084800210022002551
:102E400003F090FF064E2146306003F0ADFF30687E
:102E5000002808BF4FF0FF35284670BD8D2C0008B4
:102E600078860020024C2068016889698847FAE763
:102E70001401002070B504460848002100220025F6
:102E800003F070FF064E2146306003F08DFF30687E
:102E9000002808BF4FF0FF35284670BD652E00089A
:102EA0007C86002002F0D5BD80B5AFF30080BDE880
:102EB000804002F0D5BD80B5AFF30080BDE8804012
:102EC00002F0CEBDBCB50D4604460DF10701284603
:102ED0008DF8072002F099FA291D814203D0017C68
:102EE0004069606001E0002161602170BCBD2DE996
:102EF000FF4105460C4600202946A86041F8040F12
:102F0000296040CC0DF108086F46A64208BFBDE815
:102F1000FF81706901F06CFB0190307C29468DF8CF
:102F2000000040463A463B4602F08AFC7068314653
:102F300020B1064600680028FBD1E6E78E683068BD
:102F400088423146FAD1E0E72DE9F0412DED048BBE
:102F5000054610CD9FED268B8846AC4241D0666970
:102F6000277C304601F044FB06F039FD41EC100BA4
:102F70004046394601F030FA6069B0EE409AF0EE12
:102F8000609A01F033FB06F02AFDB0EE480A41ECEE
:102F9000110BF0EE680A05F09BFA51EC190B53EC9B
:102FA000102B06F06FFD06F0EBFC0146304601F0F9
:102FB000E9FA0646606901F0F8FA96FBF0F1414340
:102FC000606901F017FB6068214620B10446006883
:102FD0000028FBD1C1E78C68206888422146FAD1DD
:102FE000BBE7BDEC048BBDE8F08100BF00BF00BFB4
:102FF00000000000000024401CB58DF807100DF102
:103000000701044602F001FA211D814214BF406904
:1030100000201CBD704700210246816042F8041F59
:1030200002607047014600684968814208BF7047E6
:103030000430FAE7704770470021C0E90011816051
:10304000704701F014BF704740681346002203F038
:1030500041B82DE9F04F85B092468946064602AF49
:103060006D464FF00008D04525DA30683946836850
:1030700030464FF0FF329847044630689DF808B05C
:103080008368304639464FF0FF329847029900284E
:103090004FF0000018BF01460191002C18BF834675
:1030A00003A849462A462B468DF800B002F0C8FB1B
:1030B00008F10108D7E705B0BDE8F08F1CB5019114
:1030C000044680684FF0FF3103F0CAF830B96068F9
:1030D00001A900224FF0FF3303F078F8A06803F055
:1030E00017F91CBDF8B5044680680D464FF0FF3156
:1030F00003F0B6F800B1F8BD606803F033F8D5E925
:103100000012531AB0EBA30F14D90026501AB6EBD5
:10311000A00F0FD267682846314602F02CFC01460A
:10312000384600224FF0FF3303F050F8D5E9001283
:103130000136EBE7A068BDE8F84003F0E9B800000D
:1031400010B50446074804210830206040200022C2
:1031500003F01AF86060002003F0BCF8A06020467D
:1031600010BD00BF04A7000841680A88920606D473
:103170000988090658BF704701680969084701684E
:1031800049690847007C704780B5143101F01DFE85
:1031900080BD017DC90702D10021818203E0C169A0
:1031A00000220A7082610021017470471CB5044638
:1031B000C0680DF107010022002302F08BFF48B127
:1031C00061688A8922F080028A818A8942F0040239
:1031D0008A811CBD61689DF807208A801CBDBCB532
:1031E0000446007C40B9A0680DF1070100224FF0B1
:1031F000FF3302F06FFF00B1BCBD9DF8071004F172
:103200001405284601F0AFFD9DF807000A2802D1F9
:1032100001202074BCBD297811F001000CBF4908C1
:10322000A1694129E8D310B900202880BCBDE0691C
:1032300000210170A161BCBDF8B504460878D1E950
:1032400001670DF1030510F0010204BF46084F1C91
:10325000B6B1387829468DF80300E06800224FF0B7
:10326000FF3302F0B3FF40B96068818921F00401A7
:103270008181818941F080018181013E0137E7E749
:10328000F8BDE0B5D0E901100022898800238DF84F
:1032900007100DF1070102F099FF8CBD10B51C4A13
:1032A0000446002008322074C4E90500E061C4E946
:1032B00000210521082903D044F821000131F9E754
:1032C00040200121002202F05FFFE0604020012148
:1032D000002202F059FFA060204610BD80B500F02A
:1032E00005F8BDE8804002F0BBBB000010B5044605
:1032F000074808302060E06802F0D0FEA06802F0C5
:10330000CDFE04F1140001F096FD204610BD00BF73
:103310001CA700082DE9F04F87B00E46816804AF66
:1033200005463846FFF7E3FD05F11004204639460F
:1033300002F091F9384602F0DEFA05F11C07384632
:103340002146039402F0DEFA0296301D2E69DFF862
:1033500054B105F1340A05F114080190464536D000
:10336000B14619F8101F6868FFF75CFE04466868EC
:10337000FFF761FE4068A0420ED00298494602F075
:1033800099FA0199814207D044693846494602F0CA
:1033900091FA41692144416138464946D847446918
:1033A00003984946D84740694946241A5046D847A9
:1033B00044617068314620B1064600680028FBD1A0
:1033C000CCE78E68306888423146FAD1C6E707B04C
:1033D000BDE8F08F2DE9F04F87B00E46816804AF4D
:1033E00005463846FFF783FD05F1100420463946AF
:1033F00002F031F9384602F07EFA05F11C07384632
:103400002146039402F07EFA0296301D2E69DFF801
:1034100094B005F1340A05F11408019046453ED0F8
:10342000B14619F8101F6868FFF7FCFD044668688C
:10343000FFF701FE4068A04216D00298494602F00C
:1034400039FA019981420FD0446999F80010E8686F
:10345000FFF7D2FD01F0CCF8241A3846494602F0B5
:1034600029FA41692144416138464946D8474469AF
:1034700003984946D84740694946241A5046D847D8
:1034800044617068314620B1064600680028FBD1CF
:10349000C4E78E68306888423146FAD1BEE707B08B
:1034A000BDE8F08FB558000870B50E4D0024083502
:1034B0000646846144620463C46346F8144FC0E95D
:1034C000005100F108014CC1014641F8204FC16193
:1034D000014641F82C4F8162014641F8384F416363
:1034E00070BD00BF4CA7000870B5044602F08EFD09
:1034F00005464FF0FF30206404F1280004F11C0160
:1035000002F000FA6068FFF795FD04F11406206CE4
:10351000022838BF70BD2069B0420DD04168024614
:1035200021B1084609680029FBD1F5E790680168D8
:1035300091420246FAD1EFE70135284602F032FD0A
:10354000E5E7000080B5FFF7AFFF024908310160F1
:1035500080BD00BF58A70008406801688968084717
:1035600040680168C969084780B549680A68126AF5
:10357000904780BD40680168496A08474068016813
:103580000969084740680268D268104740680168C6
:10359000496908472DE9F04F93B006464068016835
:1035A0008969884770680168C9698847002800F000
:1035B000B88471680DF1380B0868026A5846904764
:1035C0000BAC2046594600F0DBFF584601F033FCB7
:1035D00000200A90CDE9080008A80FF65411062231
:1035E00001F0C3FA9DF82C00DFF84C9910F00101AE
:1035F0000C9908BF410804F101080D9C08BF44461E
:10360000651809F10707204629464A463B4601F05E
:1036100092FCA84200961CBF001B10F1010040F074
:10362000B4809DF82C00DFF81C6910F001010C99A2
:1036300008BF41080D9C08BF4446651806F10807FD
:103640002046294632463B4601F075FCA8421CBF85
:10365000001B10F1010040F0D8809DF82C00DFF82D
:10366000E89810F001010C9908BF41080D9C08BFB3
:103670004446651809F1080A204629464A46534639
:1036800001F059FC9DF82C1011F001020C9A08BFB2
:103690004A080D9E08BF4646B718A8421CBF001B2B
:1036A00010F1010040F0F380DFF8B498304609F1E2
:1036B000070439464A46234601F03DFCB842009FC4
:1036C0001CBF801B10F1010000F01B849DF82C0032
:1036D0004A4610F001010C9908BF41080D9D08BF32
:1036E00045466E1828463146234601F024FC441B0B
:1036F000B04208BF4FF0FF34E11D0BA801F0FAF90A
:1037000000783F2840F0978208AE0FF65801304607
:1037100001F096FAF868FFF77DFC0468DFF8385886
:10372000F868FFF777FC0430844200F004813046EB
:10373000294601F040FA217C304601F014FB606913
:1037400000F056FF0146584602F022F99DF8380075
:1037500010F00101109908BF0BF101010F9A08BF89
:103760004208304601F034FA584601F064FB6068C4
:10377000214620B1044600680028FBD1D0E78C68C0
:10378000206888422146FAD1CAE705AE0020321DE2
:10379000CDE90600CDE90300CDE901209DF82C001C
:1037A000059210F001010C9908BF41080D9C08BF5B
:1037B00044466518204629464A463B4601F0BBFB75
:1037C000011B0BACCA1DA84220464FF0000108BFE8
:1037D000062201F09FF90EAD2846214600F025FE95
:1037E0003046294601F041FE284601F0AEFE07981A
:1037F000002800F07F83DDE90310814280F0A18082
:103800004FF0405204C10391F8E00DF1140900207B
:1038100009F10402CDE90600CDE90300CDE901205C
:103820009DF82C00059210F001010C9908BF410889
:103830000D9C08BF444665182046294632463B4643
:1038400001F079FB011B0BAC01F10802A8422046F4
:103850004FF0000108BF072201F05CF90EAD2846C9
:10386000214600F0E2FD4846294601F0FEFD2846CB
:1038700001F06BFE0798002800F03C83DDE903109F
:1038800081427ED24FF0405204C1039109E230469A
:1038900039464A46534601F04EFB811B01F10804AC
:1038A000B84208BF07240BA8214601F023F900788D
:1038B0003F285CD108AE0FF29861304601F0C0F9A4
:1038C000009F3869FFF7A6FB0468DFF88C5638695B
:1038D000FFF7A0FB043084422DD03046294601F08A
:1038E0006AF9217C304601F03EFA606900F080FE02
:1038F0000146584602F04CF89DF8380010F00101DE
:10390000109908BF0BF101010F9A08BF4208304619
:1039100001F05EF9584601F08EFA6068214620B148
:10392000044600680028FBD1D1E78C6820688842F3
:103930002146FAD1CBE7DFF8241608A801F03BF9BD
:10394000DFE2029C0A1B012101EBA201B1F1804FD1
:1039500080F0EA82001BE14D02AB84109210083324
:10396000AC4225D8B1EB600F98BF411022E00BADFF
:1039700028460021224601F0CDF8009F29463869EB
:1039800062E1029C0A1B012101EBA201B1F1804F0F
:1039900080F0CA82001BD14D02AB84109210083314
:1039A000AC4200F25881B1EB600F98BF411054E176
:1039B0006FF040410EA801F095FADDE90F534FF08A
:1039C000405001C3DDE902141093621AA81A002ABC
:1039D0000F9005DDFCF78AFDDDE90F03DDE9021438
:1039E000CDE90203CDE90F140498119A11900EA8A5
:1039F00004920E9101F090FADDE90310814203D2A6
:103A0000022204C103913AE0029C0A1B012101EB4E
:103A1000A201B1F1804F80F08782001BAF4D02AB55
:103A2000841092100833AC4204D8B1EB600F98BFF9
:103A3000411001E06FF040410EA801F053FADDE9BA
:103A40000F53022001C3DDE902141093621AA81A71
:103A5000002A0F9005DDFCF749FDDDE90F03DDE9E4
:103A60000214CDE90203CDE90F140498119A1190C4
:103A70000EA804920E9101F04FFADDE90310079CA5
:103A8000814202D210C1039137E0029D4A1B0121FD
:103A900001EBA201B1F1804F80F04682401B8F4EB6
:103AA00002AB851092100833B54204D8B1EB600F19
:103AB00098BF411001E06FF040410EA801F012FAEA
:103AC000DDE90F0310C3DDE902141093621A801AB6
:103AD000002A0F9005DDFCF709FDDDE90F03DDE9A4
:103AE0000214CDE90203CDE90F140498119A119044
:103AF0000EA804920E9101F00FFA02A800F1080836
:103B00007648059C4FF0010982460DF1380B01986B
:103B1000844200F0E581DDE90365277CAE4202D2F4
:103B200080C6039637E00298321A09EBA201B1F180
:103B3000804F80F0F981281A831092105345554622
:103B400004D8B1EB600F98BF411001E06FF0404125
:103B50005846434601F0C6F9DDE90F0380C3DDE9AD
:103B6000021510936A1A801A002A0F9005DDFCF7DF
:103B7000BDFCDDE90F03DDE90215CDE90203CDE966
:103B80000F150498119A1190584604920E9101F065
:103B9000C3F9DDE9036594ED060B51EC100B05F05C
:103BA000EFFE0746AE4202D280C6039635E0029889
:103BB000321A09EBA201B1F1804F80F0B581281AC9
:103BC000831092105345554604D8B1EB600F98BF4F
:103BD000411001E06FF040415846434601F082F940
:103BE000DDE90F0380C3DDE9021510936A1A801A1C
:103BF000002A0F9005DDFCF779FCDDE90F03DDE914
:103C00000215CDE90203CDE90F150498119A119020
:103C1000584604920E9101F07FF96068214620B168
:103C2000044600680028FBD171E78C682068884250
:103C30002146FAD16BE704F108020BAC20460021C3
:103C400000F068FFF8682146FFF77EF9BF4908A831
:103C500000F0F6FF55E16FF040410EA801F042F987
:103C6000DDE90F534FF0405001C3DDE9021410931A
:103C7000621AA81A002A0F9005DDFCF737FCDDE96F
:103C80000F03DDE90214CDE90203CDE90F14049816
:103C9000119A11900EA804920E9101F03DF9DDE900
:103CA0000310814203D2012204C103913DE0029C32
:103CB0000A1B012101EBA201B1F1804F80F0348198
:103CC000001B9E4D02AB841092100833AC4207D803
:103CD000B1EB600F98BF411004E000BFFEFFFF1F73
:103CE0006FF040410EA801F0FDF8DDE90F5301200F
:103CF00001C3DDE902141093621AA81A002A0F907A
:103D000005DDFCF7F3FBDDE90F03DDE90214CDE986
:103D10000203CDE90F140498119A11900EA8049291
:103D20000E9101F0F9F8DDE90310079C814202D2FF
:103D300010C1039137E0029D4A1B012101EBA20152
:103D4000B1F1804F80F0F080401B7C4E02AB8510BB
:103D500092100833B54204D8B1EB600F98BF411000
:103D600001E06FF040410EA801F0BCF8DDE90F035F
:103D700010C3DDE902141093621A801A002A0F9012
:103D800005DDFCF7B3FBDDE90F03DDE90214CDE946
:103D90000203CDE90F140498119A11900EA8049211
:103DA0000E9101F0B9F802A800F108086348059CDB
:103DB0004FF0010982460DF1380B0198844200F062
:103DC0008F80DDE90365277CAE4202D280C6039670
:103DD00037E00298321A09EBA201B1F1804F80F06E
:103DE000A380281A831092105345554604D8B1EB8E
:103DF000600F98BF411001E06FF0404158464346C4
:103E000001F070F8DDE90F0380C3DDE902151093BE
:103E10006A1A801A002A0F9005DDFCF767FBDDE9BE
:103E20000F03DDE90215CDE90203CDE90F15049872
:103E3000119A1190584604920E9101F06DF8DDE947
:103E4000036594ED060B51EC100B05F099FD074648
:103E5000AE4202D280C6039634E00298321A09EBD1
:103E6000A201B1F1804F5FD2281A831092105345FE
:103E7000554604D8B1EB600F98BF411001E06FF0D8
:103E800040415846434601F02DF8DDE90F0380C359
:103E9000DDE9021510936A1A801A002A0F9005DDD9
:103EA000FCF724FBDDE90F03DDE90215CDE9020390
:103EB000CDE90F150498119A1190584604920E916D
:103EC00001F02AF86068214620B104460068002805
:103ED000FBD172E78C68206888422146FAD16CE7F2
:103EE0000098806801684A6802A99047144908A8A8
:103EF00000F0A6FE02A800F0C3FF05A801F025FB14
:103F0000009F386808ACC2683846214690477868F8
:103F10000168496A8847204600F08DFF0BA800F031
:103F20008AFF13B0BDE8F08F02A800F069FD00BF62
:103F30004641494C0D0A000004A90008FEFFFF1F7E
:103F4000F8A80008FBA80008E7A80008E0A80008F7
:103F50004241534543000000E5A80008E2A80008DC
:103F6000F0A800085048594300000000B0B5044DC7
:103F7000049C0835C0E9005100F108011CC1B0BD26
:103F800064A7000801F06CBD0079704701717047AB
:103F9000806900687047D0E906125368994214BFDF
:103FA0000431116881617047416131B1012907D045
:103FB000022909D100F1380104E000F1200101E0FB
:103FC00000F12C01C16100E0C1690968816170479D
:103FD000D0E906121368994214BF0439516881610F
:103FE000704700002DE9F04F85B0044622480026B6
:103FF0000830206002270320C4E90966049603976D
:104000000290012001902046DFF870B08A4640F807
:10401000206F042198469146D84701AD606A2ECDA5
:104020002EC060622046C4E90C6640F82C6F08215F
:10403000D847256B124928462022FCF712FA05F1D1
:10404000200020632046C4E90F66CDE90377CDE95F
:10405000017740F8386F0421D84701ADE06B2ECDD1
:104060002EC0E06320464146C4E903A9FFF79CFF48
:10407000204605B0BDE8F08F94A70008535900080A
:1040800058A8000800000000B0B52DED028B0446D2
:10409000C068022823D1206900F0AAFA05462069E9
:1040A00000F0A4FA033805F09AFC9FED290B41ECCF
:1040B000110B04F00DFAA068B0EE408AF0EE608AB1
:1040C00005F08DFC02460B4651EC180B05F0DAFCAE
:1040D00005F056FC95FBF0F101FB105050B3606801
:1040E000016849688847E068012823D1206900F009
:1040F0007FFA0546206900F079FA033805F06FFC75
:104100009FED130B41EC110B04F0E2F9A068B0EE47
:10411000408AF0EE608A05F062FC02460B4651ECE4
:10412000180B05F0AFFC05F02BFC95FBF0F101FB43
:10413000105048B1206900F044FA6069BDEC028B70
:10414000BDE8B04000F03DBABDEC028BB0BD00BF91
:104150000000000000002440B0B52DED028B0446A5
:10416000C068022823D1206900F042FA0546206980
:1041700000F03CFA033805F032FC9FED290B41ECCE
:10418000110B04F0A5F9A068B0EE408AF0EE608A49
:1041900005F025FC02460B4651EC180B05F072FCAD
:1041A00005F0EEFB95FBF0F101FB105050B3606899
:1041B000016809688847E068012823D1206900F078
:1041C00017FA0546206900F011FA033805F007FCDC
:1041D0009FED130B41EC110B04F07AF9A068B0EEDF
:1041E000408AF0EE608A05F0FAFB02460B4651EC7D
:1041F000180B05F047FC05F0C3FB95FBF0F101FB44
:10420000105048B1206900F0D2F96069BDEC028B12
:10421000BDE8B04000F0CBB9BDEC028BB0BD00BF33
:104220000000000000002440009AC0E90432094A5E
:104230000832C0E900210199002901DD012205E0D1
:10424000C1F1000318BF01214A001946C0E902125A
:10425000704700BFB0A7000840680168C9680847F8
:104260004068026892681047406801680969084719
:1042700010B5044640680168496888472046BDE893
:104280001040AFF300802DE9F843044600264FF0BC
:1042900001084FF000090027022F18D0206950F8BC
:1042A00027500F2D11D86068016809698847216976
:1042B00000F0030051F82710F84000F0010088409A
:1042C00049EA000908FA05F006430137E4E7A06867
:1042D0004FF0010841690027B14341EA0901002676
:1042E0004161082F0DD0606950F827500F2D06D876
:1042F000606801680969884708FA05F006430137D4
:10430000EFE7E0684169B14341EA09014161BDE875
:10431000F88310B50446406801680968884720465C
:10432000BDE81040FFF7AFBF10B5039CC0E90434EF
:10433000041D029B0EC402490831016010BD00BF7C
:10434000CCA7000870B50C46054600200021C5E941
:104350000000A860032903D045F821000131F9E7E6
:1043600020461146002200F02FFB461C33D0207857
:10437000C1070CBF4008606886422CD220463146F7
:1043800000F0B8FB0078302806D32046314600F014
:10439000B1FB00783A2814D32046314600F0AAFB3E
:1043A00000782D280DD02046314600F0A3FB007880
:1043B0002B2806D02046314600F09CFB00782E28A2
:1043C00009D12046314600F095FB0178284600F0DF
:1043D000CAFC0136CBE770BD10B52DED066B01AC04
:1043E000B0EE408A0A4601462046F0EE608AFFF7AA
:1043F000A9FF9DF80400029A10F0010108BF4208CD
:104400004AB10398002908BF601C03F0DDFFB0EE3D
:10441000408AF0EE608A01A800F00DFDB0EE480A77
:10442000F0EE680ABDEC066B10BD2DE9F0478AB0CE
:104430000C468146002105A800220791CDE905110F
:10444000032A03D040F822100132F9E7002549463B
:10445000C9F8085041F8045F00F1010A61276E466F
:104460000DF12008C9F800107A2F3ED0FAB230467C
:104470002146FFF767FF9DF81400C00702D1ADF891
:1044800014500AE00798057006959DF81400C007BF
:1044900003D0079801F0E4FA05959DE8070005AB05
:1044A00007C30020032803D046F820500130F9E765
:1044B000304600F0C0FC9DF81400069A10F001018F
:1044C00008BF42087AB10798002908BF504603F098
:1044D0007BFF40464946324633468DED020B8DF850
:1044E000007001F002F80137BEE7412500270DF109
:1044F00020085A2D3ED0EAB230462146FFF722FF6F
:104500009DF81400C00702D1ADF814700AE00798B6
:10451000077006979DF81400C00703D0079801F0B4
:104520009FFA05979DE8070005AB07C30020032805
:1045300003D046F820700130F9E7304600F07BFCEC
:104540009DF81400069A10F0010108BF42087AB1E4
:104550000798002908BF504603F036FF40464946F9
:10456000324633468DED020B8DF8005000F0BDFF52
:104570000135BEE705A800F05EFC0AB0BDE8F08793
:1045800000F023BC426A8A42DCBF10467047006AD2
:104590008842B8BF08467047C268416A8A4202DA58
:1045A000016A8A4200DCC1607047806A7047C16856
:1045B000836A026AC91A9142B2BF0020C160012019
:1045C0007047C168D0E9092319449142CEBF002049
:1045D000C1600120704710B50446FFF7DDFFE068B9
:1045E000A16A90FBF1F04843E06010BDC06A7047DB
:1045F000C0687047C16070472DE9F0470DF1200A8F
:10460000DDF82C809AE880061D46164604460020F8
:104610000022C4E90000A060032A03D044F822006D
:104620000132F9E7002004F11402C4E90522E06137
:10463000204600F00AFC2046C4E908A8C4E90A792B
:10464000C4E90365FFF7C7FF2046BDE8F087704760
:10465000704770B51546059A0E4689681C463AB1F2
:1046600088420AD040684968FCF752F928B170BD09
:1046700040684968884218BF70BD31462A462346C3
:10468000BDE8704000F074B82DE9F0411646069A76
:104690000C4689689846074682B18F422FD07D68C4
:1046A00049682846FCF734F948B3206887420DD0A2
:1046B00041682846FCF72CF920BB07E07868496878
:1046C00088421CD02168496888421BD12069B042C9
:1046D00023D06069B04220D0C4F820806661D4E95C
:1046E000091001300129A06205D1A069022804BF88
:1046F000012084F836000420E062BDE8F0816068A3
:10470000B04201D0BDE8F081E06901281CBFC4F8C7
:104710001C80BDE8F081BDE8F081B8F1010F18BF41
:10472000BDE8F08101202062BDE8F08180B5D1F8BC
:1047300008C0D0F804E0DCF80400864518BF80BD4E
:10474000086950B190420DD0486A01304862022099
:104750008861012081F8360080BD01200A618B61EB
:10476000486280BD8869022804BF8B6180BD80BD1E
:1047700080B548684FF0010E984281F835E019D1B4
:104780000B69DDF808C081F834E02BB1934212D0F8
:10479000486A013048620AE00120BCF1010F0A6159
:1047A000C1F818C0486205D1086B012802D1012068
:1047B00081F8360080BD8A69022A04BFC1F818C09A
:1047C0006246086B012818BF80BD012AEFD0F1E7CF
:1047D0002DE9F0418EB0074640684B68984229D0D9
:1047E0004AF208531546C0F600034AF21452C0F6C6
:1047F0000002084619460023002401F05BF9D0B1FD
:1048000006468DE891004FF0FF30E846039008F12E
:1048100010002721FBF7BEFE01200C9030682A68AB
:10482000C769304641460123B8470698012802D19E
:1048300004982860012420460EB0BDE8F0812DE9DF
:10484000F04383B0DDE90A940E4689689846154620
:10485000074674B18F4204D078684968FCF758F86D
:1048600058B931462A46434603B0BDE8F043FFF746
:104870007FBF786849688842F3D0B8682A460168E3
:1048800043464F693146CDF800900194B84703B0D4
:10489000BDE8F0832DE9F04383B0DDF828900C46A5
:1048A000896898461546B9F1000F074630D08F4207
:1048B00040D07E6849683046FCF72AF8D0B32068BB
:1048C000874204D041683046FCF722F840BB20699B
:1048D000A84238D06069A84235D0E06AC4F8208088
:1048E000042838D00020A086B8682A4601682B46E4
:1048F0004F69012100912146CDF80490B84794F802
:10490000350030B394F834000321E16280BB22E02B
:104910007868496888420DD0216849688842D6D0B5
:10492000B8682A46016843468F692146CDF8009051
:10493000B8471DE06068A8421AD1E069012818BF95
:10494000C4F81C8014E0B8F1010F04BF01202062FC
:104950000EE00420E0626561D4E90910013001290C
:10496000A06205D1A069022804BF012084F83600A6
:1049700003B0BDE8F08380B5D1F808C0D0F804E0FA
:10498000DCF804C0E64507D08068D0F800C0DCF849
:104990001CC0BDE880406047086950B190420DD00E
:1049A000486A0130486202208861012081F836009F
:1049B00080BD01200A618B61486280BD8869022840
:1049C00004BF8B6180BD80BD10B50378DC0706BFD6
:1049D000441C5B08D0E9013493429CBF4FF0FF3088
:1049E00010BD9B1A05D0A0181A46FBF730FD0146F2
:1049F00000E00021081B002908BF4FF0FF3010BD68
:104A0000FBF7CAFCFBF7C8FC014608460968002909
:104A1000FBD141680029F8D1704721B10B461178CC
:104A20001A46FBF714BD00207047002A0CBF002077
:104A3000FBF7C2BC70472DE9F04F81B00D466FF017
:104A40001101491B914253D304460078DDF828B088
:104A5000C0070CBF601CA06800904FF6E670C7F658
:104A6000FF701F4685420CD85019B0EB450F38BF78
:104A700068000B2826BF103020F00F084FF00B08FD
:104A800001E06FF01008DDF830A0404600F0EAFFCA
:104A9000BBF1000F064604D0009930465A46FBF79A
:104AA000E0FCDDF82C90BAF1000F05D00D9906EB73
:104AB0000B005246FBF7D5FCA7EB0907B7EB0B023F
:104AC00007D0009906EB0B00594450444944FBF7CA
:104AD000C8FC0A2D02D0009800F0C2FF48F0010087
:104AE00007EB0A0143C40020705401B0BDE8F08F09
:104AF000FBF752FC037813F001020CBF5B0843681C
:104B00008B4205D9002A0CBF0130806808447047E9
:104B1000FBF742FCF0B581B004460078154610F072
:104B200001020CBF460866688E421CD3C5B1002A3C
:104B3000A6EB01020CBF671CA768AA4238BF154646
:104B4000521B04D078184119FBF7A0FE2078C0074B
:104B5000A6EB050006BF41002170606000213954BA
:104B6000204601B0F0BDFBF717FCF0B581B012F1A3
:104B7000100F1ED214460E4605460B2A04D26000C2
:104B800005F8010B64B910E004F1100020F00F07E4
:104B9000384600F067FF791CC5E90014A860054697
:104BA000284631462246FBF75CFC0020285501B020
:104BB000F0BDFBF7F1FBB0B5054608460C46FBF728
:104BC00027FC024628462146BDE8B040AFF30080EE
:104BD000F0B585B003780446154613F001008C4605
:104BE00002D15E080A2104E0D4E9001621F0010197
:104BF00001398A1BAA420CD27019421A0020CDE951
:104C00000060204633460295CDF80CC0FFF713FF35
:104C100013E095B100280CBF671CA768B81961465E
:104C20002A46FBF71EFC2078C00706EB050006BFEE
:104C300041002170606000213954204605B0F0BD6C
:104C4000B0B5054608460C46FBF7E2FB024628468F
:104C50002146BDE8B040AFF3008070B584B0044693
:104C60000078154610F001028C4601D10A2103E0BC
:104C7000216821F001010139A9420DD2002A0CBF9F
:104C80004308636800206A1A8DE829002046CDF8A1
:104C90000CC0FFF7D0FE11E0002A0CBF661CA6680E
:104CA00025B1304661462A46FBF7F0FD00207055DD
:104CB0002078C00712BF656068002070204604B0ED
:104CC00070BD2DE9F04F81B00D466FF01001491B0A
:104CD000914246D304460078DDF828A0C0074FF67D
:104CE000E670C7F6FF7098460CBF04F10109D4F8CE
:104CF000089085420BD85019B0EB450F38BF6800BB
:104D00000B2826BF103020F00F070B2701E06FF0B3
:104D10001007DDF82CB0384600F0A4FEBAF1000F01
:104D2000064604D0304649465246FBF79AFBA8EBAC
:104D30000B00B0EB0A0208D00C9806EB0A010844FD
:104D400009EB0A015944FBF78CFB0A2D02D04846B7
:104D500000F086FE47F00100A660206001B0BDE8CB
:104D6000F08FFBF719FB70B584B00278044612F09F
:104D700001000D4605D0D4E9001621F001010139EA
:104D800001E056080A218E4212D14FF0000C204655
:104D900001220B46CDE9001CCDF808C0FFF791FFBA
:104DA0002078C00706D0A068711C6160044606E048
:104DB0000028F8D1022000EB460004F8010BA019EE
:104DC0000021A555417004B070BD2DE9F0410446A5
:104DD0000020C4E90000A0600878C00706D1D1E92E
:104DE00000028968C4E90002A1601FE04D6815F166
:104DF000100F1ED2D1F808800B2D05D2680027466F
:104E000007F8010B5DB90FE005F1100020F00F0667
:104E1000304600F027FE0746701C84E8A1003846A3
:104E200041462A46FBF71DFB002078552046BDE889
:104E3000F081FBF7B1FA10B504460078C00702D044
:104E4000A06800F00DFE204610BD10B50446884253
:104E50000BD0087810F00102D1E9012304BF4B1CEC
:104E6000420820461946FFF7F8FE204610BD10B54F
:104E70000446006810B1606000F0F2FD204610BDED
:104E800010B50446006810B1606000F0E9FD2046EE
:104E900010BD70B516460D4604460020C4E9030354
:104EA00029B1B5F1804F0CD2A80000F0DBFD00EB7A
:104EB000860100EB8502C4E900012046C4E9021224
:104EC00070BDFBF769FA10B504464068A1688842D6
:104ED00002D00439A160FAE7206808B100F0C0FDF3
:104EE000204610BD70B516460D4604460020C4E9A4
:104EF000030329B1B5F1804F0CD2A80000F0B2FD38
:104F000000EB860100EB8502C4E900012046C4E9FC
:104F1000021270BDFBF740FA10B504464068A16864
:104F2000884202D00439A160FAE7206808B100F095
:104F300097FD204610BD2DE9F84304469F1A1ED068
:104F4000081B0D46B84219DB10781646C7F1010957
:104F50000DF103088DF80300281BB8420EDB09EBA6
:104F6000000120464246FFF758FD38B131463A4627
:104F70000446FFF75AFD10B10134EDE72C462046F8
:104F8000BDE8F88310B541680A68426002B19060DC
:104F900082688A608268134610CB844208BF134639
:104FA00019608160086010BD10B501684A68026030
:104FB00002B1906082688A608268134610CB844296
:104FC00008BF134619608160486010BD70B5024685
:104FD000081AB0FA80F0400901230873914219D0F1
:104FE0008C68207BB0B9A0680568A54204D095B153
:104FF00015F80C6F2EB10EE04568E5B115F80C6F91
:10500000CEB9811AB1FA81F14909237301732B706A
:105010000146E3E770BD22688A4204D12046FFF7CB
:10502000C3FFA468A0680121217300210173BDE8BA
:105030007040FFF7A7BF22688A4204D02046FFF7DE
:10504000A1FFA468A0680121217300210173BDE8BC
:105050007040FFF7A9BF2DE9F0434EF20012C0F2F5
:10506000F55286469042084611D242F20F718E45A3
:1050700026D8BEF1630F00F28B80BEF1090F00F25B
:10508000CE800EF1300100F8011BBDE8F08343F63D
:105090008931C5F2E651AEFB01135B0E4CF6FF11F0
:1050A00003FB12ECC3F69A314AF2B4398E45C0F6CE
:1050B000000920D803F1300202704FF0010823E00C
:1050C00041F25971CDF2B711AEFB011244F23F210A
:1050D000C0F20F018E454FEA52317BD848F29F62F1
:1050E000C0F20102964500F2A88001F13002027080
:1050F0004FF0010CF3E009EB430219F8133052783A
:105100004FF002080370427041F25973CDF2B713A9
:10511000ACFB033548F21F5E6B0BC5F34F34C5F291
:10512000EB1E42F2107603FB16C3A4FB0E64640967
:105130009EB219F81410A6FB0E6209EB440700EBAF
:1051400008067F7800F80810642004FB00F1C1EB2A
:105150005531777089B209EB410719F811107F7842
:10516000B1705109F77009EB410219F811705278CA
:1051700001FB10303771727180B209EB400119F8F0
:1051800010004978B07106F10800F171BDE8F083B4
:1051900048F21F511FFA8EF3C5F2EB11A3FB011267
:1051A0004FEADE017C294FEA521154D801F1300256
:1051B0000270642201FB12314AF2B432C0F60002DE
:1051C00002EB410312F811105A78417082700330DB
:1051D000BDE8F08349F27F62C0F29802964554D848
:1051E00048F21F538AB2C5F2EB13A2FB032330220D
:1051F0004FEA531C02EB531264230CFB13134AF2C5
:10520000B43C02709AB2C0F6000C0CEB42031CF8DE
:1052100012205B78427083704FF0030C5FE04AF21B
:10522000B431C0F6000101EB4E0211F81E105278A5
:10523000017042700230BDE8F0834AF2B432C0F629
:10524000000202EB410312F811205B7802704370F8
:105250004FF0020C43E04AF2B43C8AB2C0F6000CB4
:105260000CEB42031CF812205B780270642201FBF5
:1052700012E1437089B20CEB41021CF81110527814
:105280008170C2700430BDE8F0834DF68362C4F2D1
:105290001B32AEFB022C48F21F538AB2C5F2EB134D
:1052A000A2FB03344FEA9C434FEA541C64240CFBDA
:1052B00014224AF2B434C0F6000404EB430C14F890
:1052C00013309CF801C0037080F801C004EB420366
:1052D00014F812205B784FF0040C8270C37042F215
:1052E000107201FB12E148F21F548AB2C5F2EB14AE
:1052F000A2FB04244AF2B43E6409C0F6000E1EF874
:1053000014500EEB440300EB0C025B7800F80C50D9
:10531000642004FB1010537080B20EEB40011EF8A5
:10532000100049789070101DD170BDE8F08310B561
:105330000446034654F8040FA0B112780433047CE9
:10534000A24202D204683CB90FE0944207D203465D
:1053500053F8044F1CB1184603462046EFE7086097
:10536000184610BD20460C6010BD086010BD0978BD
:10537000184632B1137C8B422CBF1046043212689F
:10538000F7E7704770B50546182014460E1D00F06B
:1053900069FB0121C5E90006297221780174616861
:1053A000416170BD10B504460020C3E9000099605A
:1053B00013602068006808B12060136860681946AF
:1053C000FFF704FEA0680130A06010BDF0B585B005
:1053D0000D46044604A928461E46FFF7A8FF0746C7
:1053E000006808B100210CE001A829463246FFF709
:1053F000C9FF019B049928463A46FFF7D3FF01985D
:1054000001212171206005B0F0BDB0B5044654F80B
:10541000042F0D462346FFF7AAFF844203D0017CE8
:105420002A788A4200D22046B0BD10B50446034611
:1054300054F8040FA0B112780433047CA24202D2C3
:1054400004683CB90FE0944207D2034653F8044F76
:105450001CB1184603462046EFE70860184610BD09
:1054600020460C6010BD086010BD70B506460C46A5
:1054700056F8041F054600F057F8206828602046BB
:1054800050F8041F31604268AA60002A0FBF2E60E6
:105490008E600021C4E9000118BFA16070BD70B525
:1054A0000546202014460E1D00F0DCFA0121C5E956
:1054B000000629722178017494ED020B80ED060B31
:1054C00070BD10B504460020C3E900009960136068
:1054D0002068006808B12060136860681946FFF70B
:1054E00075FDA0680130A06010BDF0B585B00D4617
:1054F000044604A928461E46FFF797FF07460068A2
:1055000008B100210CE001A829463246FFF7C7FF89
:10551000019B049928463A46FFF7D3FF01980121E1
:105520002171206005B0F0BD71B1B0B50C460968BD
:105530000546FFF7F9FF61682846FFF7F5FF2046AB
:10554000BDE8B04000F08CBA704710B54168044621
:10555000FFF7EAFF204610BDF0B5051DDDF814C0C9
:105560008D4204D00C7C9CF800E0A6450BD2046868
:105570000B688C420D4625D0CBB11C46254664688D
:10558000002CFBD119E0744522D201270C461FB331
:1055900063682BB11C461B68002BFBD105E01C4641
:1055A000A3681E68A642FAD11C46013FEFE70C46ED
:1055B000A5682E68A6422C46FAD09CF800402E7CA6
:1055C000A64213D2002B0EBF11601560291D15E0F5
:1055D00011601960194611E0A54202D0237C9E4556
:1055E00004D2486840B11460214607E01146624683
:1055F000BDE8F04000F004B8116004310846F0BD89
:1056000010B50446034654F8040FA0B112780433D1
:10561000047CA24202D204683CB90FE0944207D253
:10562000034653F8044F1CB1184603462046EFE7E3
:105630000860184610BD20460C6010BD086010BD03
:105640000978184632B1137C8B422CBF10460432C5
:105650001268F7E7704770B506460C4656F8041F07
:10566000054600F037F920682860204650F8041FEE
:1056700031604268AA60002A0FBF2E608E60002150
:10568000C4E9000118BFA16070BD2DE9FC470546C3
:10569000806891460E46002867D0294651F8042FAD
:1056A00028684FF0000A2960C5F808A0C1F800A0DA
:1056B000C2F808A04768002F08BF07463FB1BC6882
:1056C0002CB12068B84204D00021616004E00024BD
:1056D00006E000202060606810B1FFF795F90446ED
:1056E0000DF104089FB34E4531D0307C3A4602F8A4
:1056F000100F706941467861284600F076F80199EC
:10570000024628463B4600F087F83CB1A06828B125
:105710000168A14204D0C0F804A004E0002006E023
:10572000C0F800A0416811B10846FFF76DF9716833
:1057300029B10E4609680029FBD105E00E46B16883
:105740000A68B242FAD10E4627460446CAE72846FE
:10575000394600F0BFF80CB907E00446A0680028FD
:10576000FBD12846214600F0B5F8B14508BFBDE899
:10577000FC8706F11001284600F00EF8706828B189
:10578000064600680028FBD1EFE70646B0680168CE
:10579000B142FAD10646E8E77CB5054618200C462A
:1057A00000F060F90646D4E900013246716142F822
:1057B000100F01A9284600F018F801990246284662
:1057C000334600F029F830467CBD70B505461820F8
:1057D00014460E1D00F046F90121C5E900062972A4
:1057E000217801746168416170BD034653F8040F6C
:1057F00050B11278037C9A4202D2036813B906E0D2
:10580000436833B11846F5E718460B6070470860E7
:10581000704708600430704710B504460020C3E9A3
:105820000000996013602068006808B12060136868
:1058300060681946FFF7CAFBA0680130A06010BD80
:10584000F0B585B00D46044604A928461E46FFF76C
:10585000D7FE0746006808B100210CE001A82946E0
:105860003246FFF7B2FF019B049928463A46FFF7FC
:10587000D3FF019801212171206005B0F0BDFEB574
:105880001D46009202AA01AB0446FFF765FE0768B9
:1058900077B90646182000F0E5F80746D5E900017B
:1058A0003246C7E90401029920463B46FFF7B4FFA0
:1058B0003846FEBDB0B5044654F8042F0D462346C5
:1058C000FFF7BEFE844203D0017C2A788A4200D2D0
:1058D0002046B0BD71B1B0B50C4609680546FFF76A
:1058E000F9FF61682846FFF7F5FF2046BDE8B040A4
:1058F00000F0B6B8704710B541680446FFF7EAFFFC
:10590000204610BD10B50446884204D00A4602CA9B
:105910002046FFF7BAFE204610BDB0B505460C463E
:105920004868D5E90012521A801A002A606002DD28
:10593000FAF7DCFD60682968286061606868A16822
:105940006960A060A868E168A960E06060682060A4
:10595000B0BDB0B50446B1F1804F09D288000D4604
:1059600000F080F800EB8501C4E90000A160B0BD43
:105970002046FFF745F880B5D0E900239B1AB1EB2C
:10598000A30F3CBF02EB810080BDFFF73BF8000096
:105990002DE9F04184B00DF105080446B1F1FF3F57
:1059A00008F10B0501DD424605E008F101022D205A
:1059B00049428DF80500A81A092818DC41F00103B6
:1059C000B3FA83F3C3F1200340F2D1477B434AF299
:1059D0008C361F0BC0F6000656F827604FF0FF3CD0
:1059E0008E4288BF0CEB13377B1C834204DC0846D5
:1059F0001146FFF730FB0546A5EB0807002017F11D
:105A0000100FC4E90000A06021D20A2F03D878004B
:105A100004F8010B0BE007F1100020F00F063046F0
:105A200000F020F8711CC4E90017A0600446A845E6
:105A300008D00DF1050000BF10F8011B854204F8E5
:105A4000011BF9D10020207004B0BDE8F081FAF705
:105A5000A3FC704740F22C10C2F2000000687047AF
:105A6000FAF760BE10B50446002808BF012400BF45
:105A70002046FAF71CFE002818BF10BDFFF7EAFF0A
:105A800008B18047F4E7002010BD000001A000F03D
:105A9000B7F800BF50757265207669727475616CD5
:105AA0002066756E6374696F6E2063616C6C6564EB
:105AB00021000000F0B591B01446026852E9025688
:105AC000CDE90340054403A8CDE905131030272193
:105AD000FAF760FD7068616888421BD03068002466
