:020000040800F2
:10000000889A002059030008610300086303000870
:10001000650300086703000869030008000000008A
:100020000000000000000000000000009502000831
:100030006D030008000000002D0300083D030008C8
:1000400073030008730300087303000873030008B8
:1000500073030008730300087303000873030008A8
:100060007303000873030008730300087303000898
:100070007303000873030008730300087303000888
:100080007303000873030008730300087303000878
:100090007303000873030008730300087303000868
:1000A0007303000873030008730300087303000858
:1000B0007303000873030008730300087303000848
:1000C0007303000873030008730300087303000838
:1000D00073030008C52700087303000873030008B2
:1000E0007303000873030008730300087303000818
:1000F0007303000873030008730300087303000808
:1001000073030008730300087303000873030008F7
:1001100073030008730300087303000873030008E7
:1001200073030008730300087303000873030008D7
:1001300073030008730300087303000873030008C7
:1001400073030008730300087303000873030008B7
:1001500073030008730300087303000873030008A7
:100160007303000873030008730300087303000897
:100170007303000873030008730300080000000005
:100180007303000873030008730300087303000877
:100190007303000873030008730300087303000867
:1001A00073030008730300087303000800F002F8EB
:1001B00000F05DF80AA090E8000C82448344AAF1A4
:1001C0000107DA4501D100F052F8AFF2090EBAE8A2
:1001D0000F0013F0010F18BFFB1A43F0010318477B
:1001E000B8AB0000D8AB0000103A24BF78C878C183
:1001F000FAD8520724BF30C830C144BF04680C602D
:10020000704700000023002400250026103A28BF74
:1002100078C1FBD8520728BF30C148BF0B60704778
:1002200066290AF0F280732900F0418600207047A9
:100230001FB50AF0D5F89DE8030000F0D7FB00F0E9
:10024000FBFE04000020002109F0AEFA401C6060B3
:100250000020002109F092FAE06000F0C5F91FBD0E
:1002600010B5002000F047FE01F0C6FA10BD00F006
:10027000BEFE114603B405F077FE03BCFFF7D8FFBE
:1002800005F076FE01F088FA03B4FFF7E9FF03BC3E
:1002900000F0BCF91EF0040F0CBFEFF30880EFF381
:1002A0000980816911F8021C91BB01B590E80F101B
:1002B000E047BDE800508CE80300244B93E80600BB
:1002C000914208BF704741B91EF0100F10D120496C
:1002D000086820F0010008600AE02CE9F00F1EF029
:1002E000100F08BF2CED108AC1F838C081F822E049
:1002F0001A6092F82210906B61F0FF0E1EF0100F42
:1003000008BFB0EC108AB0E8F00F80F3098870479E
:10031000104A13689942FAD801B552F821C00FC8A3
:10032000E047BDE80050CCF80000704701B506F08A
:100330009BFBBDE80140EFF3098CBEE701B506F079
:1003400025FEBDE80140EFF3098CB6E71800002058
:1003500034EF00E0FCAC000809488047094800473A
:10036000FEE7FEE7FEE7FEE7FEE7FEE7FEE7FEE765
:10037000FEE7FEE704480549054A064B70470000C2
:10038000C5260008AD01000888860020889A002054
:10039000889600208896002010B5002000F06FFAA3
:1003A000FFF75EFFBDE81040012000F02FB90B46BB
:1003B0000146184600F04CBA40EA010310B59B070D
:1003C0000FD1042A0DD310C808C9121F9C42F8D0BF
:1003D00020BA19BA884201D9012010BD4FF0FF3070
:1003E00010BD1AB1D30703D0521C07E0002010BD86
:1003F00010F8013B11F8014B1B1B07D110F8013B12
:1004000011F8014B1B1B01D1921EF1D1184610BDF2
:1004100010B5431C02E010F8011B71B18107FAD13D
:100420004FF0013202C88C1A8C4314EAC211F9D081
:10043000C01A0A0603D0C01E10BDC01A10BD0A049F
:1004400001D0801E10BD0902FCD0401E10BDCBB2F1
:100450002AB101788B4203D0401C521EF9D10020F2
:100460007047032A40F2308010F0030C00F0158032
:1004700011F8013BBCF1020F624498BF11F801CBA7
:1004800000F8013B38BF11F8013BA2F1040298BF0C
:1004900000F801CB38BF00F8013B11F0030300F076
:1004A0002580083AC0F0088051F8043B083A51F81A
:1004B00004CBA0E80810F5E7121D5CBF51F8043B1F
:1004C00040F8043BAFF30080D20724BF11F8013B92
:1004D00011F801CB48BF11F8012B24BF00F8013BF4
:1004E00000F801CB48BF00F8012B704710B5203A47
:1004F000C0F00B80B1E81850A0E81850B1E81850CF
:10050000A0E81850203ABFF4F5AF5FEA027C24BFA0
:10051000B1E81850A0E8185044BF18C918C0BDE889
:1005200010405FEA827C24BF51F8043B40F8043B52
:1005300008BF7047D20728BF31F8023B48BF11F807
:10054000012B28BF20F8023B48BF00F8012B704761
:100550004FF000020429C0F0128010F0030C00F0EC
:100560001B80CCF1040CBCF1020F18BF00F8012B6A
:10057000A8BF20F8022BA1EB0C0100F00DB85FEA38
:10058000C17C24BF00F8012B00F8012B48BF00F804
:10059000012B70474FF0000200B513469446964673
:1005A000203922BFA0E80C50A0E80C50B1F1200186
:1005B000BFF4F7AF090728BFA0E80C5048BF0CC034
:1005C0005DF804EB890028BF40F8042B08BF704792
:1005D00048BF20F8022B11F0804F18BF00F8012B04
:1005E000704770477047704770B5064C7C44064DA5
:1005F0007D4404E02046016808448047241DAC4245
:10060000F8D170BD04A9000004A900000149182018
:10061000ABBEFEE72600020005F056BC0844401EB3
:10062000491E884370470821001DF7E72DE9F04176
:1006300017460E460446FFF7F6FFA042054633D99B
:10064000002F1CBF06F10C0005F064FC30467468F6
:10065000F4B12168A94217D305F1080291423CBFC9
:100660006168416007D3626861194A602268521B61
:100670000A6041602560002F1CBF06F10C0005F0E8
:1006800068FC201DBDE8F08120466468002CE0D1A4
:100690002946304600F096F90028D7D1002F1CBF1C
:1006A00006F10C0005F055FC0020BDE8F08110B506
:1006B000044600F079F901682046BDE810400122A7
:1006C000B4E770B516460D46041F002808BF70BD7C
:1006D000002E1CBF05F10C0005F01CFC2B465868D1
:1006E000002818BFA04238BF0346F8D31968CA18BB
:1006F000A24218BF5C6003D122681C4611441960F5
:1007000021680A19824218BF606004D142686260A1
:10071000006808442060002E1CBF05F10C0005F0A5
:1007200018FC70BD10B5044600F03EF90168204683
:10073000BDE810400122C4E710B5FFF76DFF006867
:1007400010BD10B50446FFF767FF046010BD70B51B
:100750000C460546012A05D02878800600D5EA69AE
:10076000002302E0012305E05B1C934202D2E05C1F
:100770000028F9D1A869E618C01AA861286A1844A7
:1007800028622846AFF3008004E0D5E9012114F87F
:10079000010B9047B442F8D32846AFF3008070BDF8
:1007A0000FB40B0010B54FF000048AB00FA90091F0
:1007B0000E99CC60234C7C44234A7A44CDE906420E
:1007C00000D004236FF00042CDE901321F4A7A4481
:1007D0006B4608920246002009F079FE0AB010BC70
:1007E0005DF814FBF0B507464FF0FF301E46154686
:1007F0000C463B4685B06A460091CDE90101314681
:100800000020049004A8FFF7CBFF0499034660186A
:1008100025B109B1024600E022462A6000290ED027
:10082000002B02DD0099814209D03B466A463146E1
:10083000001B0094CDE9010404A8FFF7B1FF05B047
:10084000F0BD0000FD060000170700008B0200004D
:100850002DE9F041074615460E461020FFF727FF09
:1008600004000AD06760C4E9026500F0A2F80168DC
:10087000216004600020BDE8F0810120FBE710B595
:1008800000F060FBBDE8104000F056BB431A28BFE3
:100890009A427FF6E6AD10441144032A40F22680C6
:1008A00010F0030F1EBF11F8013D521E00F8013D6C
:1008B00010F0030F7FF4F6AF11F0030300F06D8327
:1008C000083AC0F00B8051F8043D083A51F804CDC5
:1008D00040F8043D40F804CDFFF7F3BF121D5CBFA4
:1008E00051F8043D40F8043DAFF30080D20724BF27
:1008F00011F8013D11F801CD48BF11F8012C24BFBA
:1009000000F8013D00F801CD48BF00F8012C704708
:1009100030B44FF0013C50F8042B51F8043BCCFAB2
:1009200052F4D51A20D1FCB950F8042B51F8043BED
:10093000CCFA52F4D51A17D1B4B950F8042B51F8A7
:10094000043BCCFA52F4D51A0ED16CB950F8042BF2
:1009500051F8043BCCFA52F4D51A05D1002CDAD068
:1009600030BC4FF00000704729BAB1FA81F111F0A4
:100970001801D1F120008440F2D1CA40CB4012F0DE
:10098000FF0213F0FF0330BCD01A704700487047D5
:10099000A80000207047000010B500F04DFB001DBE
:1009A00010BD00BF058E000010B5FFF7EFFF083047
:1009B00010BD10B5FFF7EAFF383010BD7047704723
:1009C0007047704738B504460A4600206946AFF3C1
:1009D0000080002808BF38BD02460099204600F07C
:1009E00037FB012038BD012000F0F8BEF8B5AFF3A9
:1009F0000080054600200C46102000BF0646A819BE
:100A0000A0420DD9324669460020AFF300800700AE
:100A100008BF00F0E3FE0098A04218BF0546C419C5
:100A2000FFF7C2FF05600746F01D20F007004619DA
:100A3000284600F00AF8B44208BFF8BDA21B3146B0
:100A40003868BDE8F84000F003BB00210160C0E950
:100A500001100C3005F06EBA1020704710B5044636
:100A6000FFF79AFF0068005D00F0010010BD2DE95E
:100A7000FF4F0C461E464FF0FF378BB0D2E9000106
:100A8000DDF860800A908A46C1F30A5505B93D46F3
:100A9000002108464FF00000BAF1000F00F44000BA
:100AA00005DA00EB80004FF4400101EA50004FEA04
:100AB0009059B9F1010F00DDB9460A9850EA4A0091
:100AC0000ED044F61050A5F2FF3545432F14B8F16F
:100AD000000F1ED07542291E1EDDC9F100021CE068
:100AE000B8F1010F4FF0000001D0302103E0F243D4
:100AF00005E02154401CB042FBDB304600220021BF
:100B000021540B99C1F80880C1E900200FB0BDE85D
:100B1000F08FBD1B6D1CDEE74A4600DA694206A86D
:100B200000F0C8FD06AB93E8070003AB83E80700BD
:100B300050460A9907F035F98DE80700A0F50050F6
:100B40001F3800900398002D0ADD42F21F014A462B
:100B50000844002303A90390684607F0E1FB09E07D
:100B6000A0F500504A461F38002303A903906846A9
:100B700007F000FC8DE807000004000C03D04FF0E4
:100B8000FF30410800E01046B8F1000F03D000220A
:100B9000009215461EE0751E05D400F07BFA303237
:100BA00062556D1EF9D5B3460122084302D00022DA
:100BB0007F1C04E02078302801D100227F1E002A0B
:100BC000099784D01DE0112D07DA00F063FA303266
:100BD00062556D1C50EA0102F5D1084302D000981D
:100BE000C8B10EE00021681E05E0235C625C63541E
:100BF0002254401E491C8142F7DBAB46A81B401E15
:100C00000990002004F80B000B98099AC0F808809E
:100C1000C0E9002B7AE711264FF0000857E72DE9CD
:100C2000F04F88460446D21D22F0070191B0D1E969
:100C30000001CDE90A0107F0E9FC02460B98C00F5C
:100C400001D02D2007E02068810701D52B2002E08C
:100C5000202101EAC000032A099001D0072A05DB00
:100C600003464146204600F05BFA0BE120788006FF
:100C700001D5E06900E00620B8F1650F814606D095
:100C8000B8F1660F18D0B8F1670F70D131E00020CD
:100C9000B9F1110F009001DB112301E009F101030B
:100CA0000AAA01A90CA8FFF7E2FEDDE90C700026F4
:100CB00009F10105834647E001204B4600904FF0C3
:100CC00000470AAA01A90CA8FFF7D1FEDDE90DB083
:100CD0000C995D46002610B909F101000D18B9EB19
:100CE000050003D4C0F1FF3609F10105A5EB0900A9
:100CF0002BE0B9F1010F01DA4FF001090020B9F141
:100D0000110F0090484601DD112300E003460AAAB6
:100D100001A90CA8FFF7ABFEDDE90C704D460026DB
:100D20008346207800070AD4AB4500DA5D4601A867
:100D3000012D04DD411911F8011C302907D04F4560
:100D400002DA17F1040F04DA012082460FE06D1E6B
:100D5000EEE7002F02DCED1B3E4403E0781CA842C6
:100D600000DD7D1CB81B00F1010A4FF00047207820
:100D7000000703D4AA4501DB4FF0FF3A0021B7F189
:100D8000004F0DF143088DF8431024D002202B238F
:100D9000002F01DA7F422D230A21021EA0F101005B
:100DA00000DC5FB197FBF1FC97FBF1F201FB1C7CCF
:100DB00017460CF1300C08F801CDEEE7A8F1010060
:100DC00003702188090501D5452100E06521A0F1C6
:100DD000010800F8011C09980FA9A1EB0807FF1DE5
:100DE00000B10120411901EBEA70A1693844081AE9
:100DF000401EA0612078C00602D42046AFF30080D8
:100E0000099828B1D4E901219047206A401C20624A
:100E10002078C00622D52046AFF300801EE0002EC9
:100E200004DBB34502DD01A8805D00E03020D4E999
:100E300001219047206A401C2062761CAAF1010023
:100E40005FEA000A0AD100F0F7F8C0680168405C68
:100E5000D4E901219047206A401C2062281EA5F198
:100E60000105DCDC07E0D4E9012118F8010B90470B
:100E7000206A401C2062381EA7F10107F3DC2046DF
:100E8000AFF30080032011B041E610B5436913B100
:100E9000AFF3008001E0FFF75AFC012010BD12788B
:100EA00000F124010A7000224A700122EDE7116866
:100EB0004FF0FF32E9E7426842B1016811F8013BA7
:100EC00023B1521EC0E90012184670470121C160CB
:100ED000881E704742685AB1C368016843B9836885
:100EE0008B4205D0491E521CC0E9001200207047F9
:100EF0004FF0FF3070472DE9F0410646FFF759FDEE
:100F00008046454613E016B1E068B0420ED1206835
:100F10002860D4E90101D8F8007088472046FFF71F
:100F200001FCD8F80000B842EBD100E025462C685F
:100F3000002CE8D1BDE8F081002801D0FFF766BBA6
:100F40007047000010B5002102A000F02EFC012027
:100F500010BD0000534947414252543A2041626E4D
:100F60006F726D616C207465726D696E6174696F0A
:100F70006E000000431A28BF9A427FF6B7AA1044B9
:100F8000114410F0030F1EBF11F8013D521E00F86E
:100F9000013D10F0030F7FF4F6AF103AC0F00A8065
:100FA00010B531E9185020E91850103ABFF4F9AFE4
:100FB000BDE81040530724BF31E9081020E90810AC
:100FC00044BF51F8043D40F8043D12F0030F08BF40
:100FD0007047D20728BF31F8023D48BF11F8012CF5
:100FE00028BF20F8023D48BF00F8012C7047754625
:100FF000FFF7CCFCAE4605006946534620F00700DB
:10100000854618B020B5FFF7B5F9BDE820404FF090
:1010100000064FF000074FF000084FF0000BAC4601
:10102000ACE8C009ACE8C009ACE8C009ACE8C0094C
:1010300021F007018D46704710B5FFF7A7FC20305F
:1010400010BD801A0844401E491E88431044704752
:1010500070B5144605468C464368002B18BF63459F
:1010600038BF1846F8D302681044604508D0664679
:10107000604604220821FFF7E4FF811B8446641ABE
:101080002946CCF80040BDE8704000220CF1040075
:10109000FFF717BB30B5B0F10A0271F100034FEA58
:1010A000900E4EEA817EB0EB0E0061EB91014FEAAB
:1010B000101E4EEA017E10EB0E0041EB11114FEABB
:1010C000102E4EEA016E10EB0E0041EB11214FEA9B
:1010D000104E4EEA014E10EB0E0041EB114140184C
:1010E00041F100014FEAD00040EA41704FEAD101DE
:1010F0004FEA810444EA907410EB800544EB01044C
:101100006D1944EB0404521BA3414FF0000348BF88
:101110000A3200D530BD401C41F1000130BD000055
:101120002DE9F0411F46044603260168072A01F411
:10113000006004DB08B116A505E016A503E008B1C0
:1011400015A500E015A521F010002060A069C01EC3
:10115000A0610FB1401EA0612046AFF300804FB1E7
:10116000D4E9012138469047206A401C2062C01C07
:10117000206206E0206AFAE7D4E9012115F8010BA4
:101180009047761EF8D22046AFF30080BDE8F0818C
:101190004E414E006E616E00494E4600696E66001B
:1011A0003A2800D2303820F02002412A01D3A2F19F
:1011B0003700884201D34FF0FF3070472DE9FF4FD1
:1011C00006468BB00878FF2806D0491C2D2805D08C
:1011D00000244FF0000908E000200CE00124F8E7AB
:1011E00009EB8903491C00EB43090878FF28F7D174
:1011F00014B1C9F100008146107800252C46AA469A
:1012000029462D2801D02B2804D1521C2D2813D07B
:10121000002082468B461078FF280FD04FF0000C3C
:101220000A21521CA5FB017804FB018105FB0C116E
:10123000C5194BEB0104EEE70120EAE7002108465F
:101240004FF00000BAF1000F02D000EB8000400820
:10125000C0F38157012F01DD4FF0FF370E9955EA9A
:10126000040009EB01080BD04FF0020918F5FA7FD2
:1012700016DA4FEACA70002F706008DD012007E01F
:101280004FEACA70C6E900B00FB0BDE8F08F002089
:101290003060FFF7C1F9C0F800901821084616E049
:1012A000B8F5FA7F18DD002F02DAF748784401E03C
:1012B000F6487844D0E90010C6E9001040EACA7048
:1012C0007060FFF7A9F9C0F80090142108460FB02C
:1012D000BDE8F04F09F096B8002108464FF0000035
:1012E000B8F10001099002DAC7F1000200E03A46C5
:1012F00001DAC8F1000106A800F0DCF906AB93E8BA
:10130000070003AB83E8070044F23E005BEA0401F8
:101310000090584604D144F21E012C465D460091CF
:10132000210C0904014306D10099240444EA154420
:101330002D041039009104F07F41014306D100993A
:10134000240244EA15642D020839009104F070412A
:10135000014306D10099240144EA15742D01091FA7
:10136000009104F04041014306D10099A40044EAF1
:101370009574AD00891E009104F00041084304D12A
:1013800000986D196441401E00904FF001033A46E9
:101390006846B8F1000FCDE9014503A902DD06F06A
:1013A000FEFF01E006F0D1FFBAF1000F04460D4642
:1013B00001D084F00044002108464FF00000099954
:1013C00040F2FF77484010F00C0F07D124F00040A6
:1013D000284303D0C4F30A50B84212D1FFF71CF9D6
:1013E000C0F80090C4F30A50B8420AD1A848784423
:1013F000D0E90010C6E9001004F000410843706015
:1014000042E7C6E900543FE72DE9FF4F1F464FF082
:10141000000A4FF0FF38454691B0D7E90146CDF8B4
:101420003CA0FFF709FEC0680168405C1090B969F4
:1014300012986D1C8847396A814688470028F6D182
:10144000B9F1FF3F0AD0002E24F4D06411DDB9F1C8
:101450002B0F08D0B9F12D0F0BD102E0404615B08B
:1014600013E744F48064B96912986D1C8847761EAE
:101470008146600504A901D52D2000E02B20002E17
:1014800001F1010B0DF130088DF810003FDDB9F1CD
:10149000690F08D0B9F1490F05D0B9F16E0F02D02C
:1014A000B9F14E0F1CD13B4601A8009580E85002CF
:1014B000DDE912126FF0020009F00DF8C11CCED167
:1014C0000EE0B96912986D1C884781461398761E04
:1014D00044F4007405600F98401C002E0F9016DD38
:1014E000B9F1300FEDD0B9F1780F02D0B9F1580F42
:1014F0000DD10F9801280AD13B46CDE90054DDE912
:101500001212001F029608F0E4FFC11CA7D1109927
:1015100089453ED144F0800406E01399681CAAF185
:10152000010A44F400740860B9696D1C1298761EB3
:10153000884730288146F0D02BE01099894505D1A5
:10154000200603D4761E44F0800418E0484608F0D4
:1015500082F808B3761E0DF123029345A9F13000FD
:1015600044F4007406D20BF8010B200607D5AAF14B
:10157000010003E0200602D40AF101008246A00522
:1015800002D51399681C0860B96912986D1C8847C8
:101590008146002ED1DC53E0002E51DDB9F1650FFC
:1015A00002D0B9F1450F4BD1A00549D5B9696D1CE1
:1015B0001298761E24F440748847002E81460CDD74
:1015C0002B2804D0B9F12D0F07D144F48074B969E8
:1015D00012986D1C8847761E8146E00501D52D21A5
:1015E00000E02B2108F8011BCDF8008021E0761ED9
:1015F0000DF13901884544F400740CD2A9F1300092
:1016000010F0FF0088F8000002D10099884509D940
:1016100008F1010806E0E00501D51E4801E042F2AC
:101620000F708246B96912986D1C884781461398DD
:101630000560002E04DD484608F00DF80028D6D1DC
:10164000F96912988847FF2053468BF8000088F804
:10165000000000200A900B9004AA0CA90AA8FFF72A
:10166000ADFDA00502D46FF00100F8E614F0240FE0
:1016700012D0E0071CD13868DDE90A12031D3B6077
:101680000068C0E9001213E0109B0000029B0000FC
:10169000C6990000F1D8FFFF0AA9684607F0C8FF05
:1016A000E00705D13868009A011D396000680260C2
:1016B0002846D4E62DE9F047814616468AB03548DB
:1016C00078440DC88DE80D0032487844801C03AC86
:1016D0000DC884E80D0041F69B300844372190FB8B
:1016E000F1F290FBF1F5A5F1800501FB12041B3C22
:1016F00002D56442012000E00020DFF898A0804677
:101700000027FA44AAF1BE0A0EE0E0070AD03246EA
:10171000684607EB470101230AEB810106F02AFE28
:101720008DE8070064107F1C002CEED1194F7F4418
:10173000AE3F19E0E80715D007EB04100DF1180AC9
:1017400090E80E008AE80E00C068F04201D19819B6
:1017500008903246012306A903A806F00BFE03AB4E
:1017600083E807006D10641C002DE3D14FF00103E6
:1017700032466946B8F1000F03A802D006F0D0FD4A
:1017800001E006F0F7FDC9E90001C9F808200AB038
:10179000BDE8F087588F000010B50446AFF3008015
:1017A0002046BDE81040FEF76FBD70B505460C46FB
:1017B0000A2000E06D1C00F018F835B128780028E8
:1017C000F8D102E0641C00F010F814B12078002871
:1017D000F8D1BDE870400A2000F007B810B500F05D
:1017E00027F8BDE81040FFF7A7BB08B569468DF89C
:1017F00000000320ABBE08BD10B5FFF7D5F80068A8
:10180000BDE8104000F03CB8B2F120030AD5C2F1A7
:10181000200301FA02F120FA03F341EA030100FA7E
:1018200002F0704700FA03F14FF00000704700002B
:1018300010B5012805D0002103A0FFF7B6FF012055
:1018400010BD09A1F8E7000053494752544D454DDA
:101850003A204F7574206F662068656170206D6551
:101860006D6F7279000000003A2048656170206D4C
:10187000656D6F727920636F727275707465640044
:1018800010B50C3004F053FB10BD00002DE9FF4FE4
:101890001F464FF03C0987B04FF00042DDE91410BD
:1018A00001F10108DDF858A002EA40500390002041
:1018B00005908346054604460490B969461E08987B
:1018C0008847AAF1010A0290BAF1000F3BDD0298A5
:1018D0002E2815D01021FFF763FC00282EDB4FF0D7
:1018E000010B0599014317D0B9F1000F0BDB4A46F4
:1018F000C117FFF789FF05430C43A9F1040905E06F
:10190000012004900BE008B145F00105012005908D
:10191000049820B9361D02E0049800B1361FB96959
:10192000089808F101088847BBF1000FAAF1010AE5
:101930000290C9D00999C1F80080C5E702987028C3
:1019400008D0502806D0F96908988847BBF1000FE5
:1019500014D04FE0002002900120BBF1000F049052
:1019600009D0B969089808F101088847AAF1010966
:10197000B9F1000F07DCF969089888476FF001009A
:101980000BB0BDE8F08F2B2804D02D280CD14FF0E0
:10199000FF300490B969089808F101088847A9F157
:1019A0000109B9F1000FE6DD411CE4D00A21FFF77F
:1019B000F7FB0028DFDB029908F1010801EB810148
:1019C00000EB41000290B969089888470A21FFF7A7
:1019D000E7FB099AA9F10109B9F1000FC2F80080EB
:1019E00001DD0028E7DAF969089888470499029828
:1019F00000FB016655EA040004D004F040410900F0
:101A000002D006E0039898E0A40044EA9574AD0083
:101A1000B61E04F00041080002D16D196441761E23
:101A2000159810F0240F03D04FF00B095C4803E029
:101A30004FF028096FF07D008246564507DAAAEB81
:101A400006018944B9F1410F01DD4FF04109012040
:101A50000021A9F10102FFF7D7FE024628400B46FC
:101A60002140084301D0012100E00021501E0291D5
:101A700043F1FF3128402140084301D0012000E01C
:101A800000200299834651EA0B014FD000210846FD
:101A90004FF00000039900F4400039B100EB8000E2
:101AA0004FF4400100EBD07001EA6000801501287E
:101AB00002DD4FF0FF3000E013D0401C36D002981A
:101AC00060B3BBF1000F0CD14A4601200021FFF7A3
:101AD0009BFE28402140084301D0012000E0002067
:101AE000E0B101204A460021FFF78EFE034640196F
:101AF0000A4661412D1A8C4111D3B9F1400F09DD1D
:101B0000159810F0240F02D0AAF1340603E0AAF1D0
:101B1000170600E0761C00254FF0004406E05B1E2F
:101B200042F1FF3220EA030521EA0204CAF1010072
:101B3000B04206DA1B490398084301900020009048
:101B40000EE0039AC4F3D321E80A0A43164940EA97
:101B500044500A433146CDE90002684607F071FD62
:101B6000159810F0240F0BD01598C00715D13868C0
:101B7000DDE90012031D3B600068C0E900120CE0C3
:101B800002A8694607F054FD1598C00705D13868CA
:101B9000029A011D3960006802604046F0E60000CC
:101BA00002FCFFFF0000F07F0000F03F2DE9FF4F37
:101BB00092461D4685B04FF00041DDE9124BDDE94C
:101BC00014727F1E01EA4B50414940F0FF4940EA40
:101BD0000108002122F020004928049102D04E285B
:101BE00028D04CE03BA0012607C88DE80700A96972
:101BF0000698641C88477F1E014606D41DF806001F
:101C000018B121F0200181420BD0E969069888477C
:101C1000032E34D0082E32D06FF0010009B0BDE899
:101C2000F08F761C032E01D0082EE0D1601CCAF87C
:101C30000000DCE7A9690698641C88477F1E2AD447
:101C400020F02000412826D1A9690698641C884705
:101C50007F1E20D420F020004E281CD1A9690698B0
:101C6000641C88477F1E48F4002849F48009CAF89C
:101C7000004001D4282806D0E969069888475FEA21
:101C8000CB7012D022E0A9690698641C88477F1E99
:101C900001D4002803DAE96906988847BCE72928B7
:101CA000F1D1641CCAF80040E9E71BF0240F07D00B
:101CB00028680499031D2B600068C0E9001805E03E
:101CC0002868021D2A600068C0F800902046A5E739
:101CD0000000F07F494E46494E495459000000002B
:101CE000EA49097851B1DB4AC0F3C621515CC0F31F
:101CF000022021FA00F000F0010070470020704738
:101D000070B5E24C264656F8185F00F0C3F956E865
:101D1000001F46E8000202B1F9E7A942F2D1A84249
:101D200008D204F1100151E8002F531C41E800349F
:101D300004B1F8E770BD00BFF8B514460D4606467D
:101D4000FFF7CEFF98B13746C0F20807FFF7D8FF7C
:101D50000146EFF30580002808BFB7B207F14070D5
:101D60002A46234601B0BDE8F04000F041B801200A
:101D7000F8BD00002DE9F047994692460F46064609
:101D8000FFF7AEFF58B3DDF820803446C0F20804F8
:101D9000FFF7B6FF0546EFF305800028BB4808BFF4
:101DA000B4B20130D0E84F1F4A1CC0E8432F03B142
:101DB000F8E74FF4E02000EA0146A01900F1807036
:101DC00029463A46534600F013F858B107482946C9
:101DD00030434A464346BDE8F04700F009B80120C9
:101DE000BDE8F0870020BDE8F08700BF01000002D9
:101DF0002DE9F04F4FF0805491464FF0005204EA25
:101E0000D10402EA9902204310434FF0804202EAD3
:101E1000530240EA02089D48DFF844E29A468B46A6
:101E20006FF0070600F1040C013680F05080614627
:101E300051E8004F601C41E8000505B1F8E7E5B244
:101E400004F470640EEB051048EA043400F10C074A
:101E500044F0406257E8004FA10103D3BFF32F8F36
:101E6000002406E004F00044144347E8004303B1B3
:101E7000F0E76101D8D584F004422BF0004102F074
:101E8000004319442C014EF804102AF0004129F0B7
:101E9000004419442344C0E9013157E8001F890177
:101EA00003D2BFF32F8F002004E047E8002303B1E3
:101EB000F3E7012058B17548083050E8001F4A1C6C
:101EC00040E8002303B1F8E70120BDE8F08F6F4838
:101ED0000C3050E8001F4A1C40E8002303B1F8E72B
:101EE0000020BDE8F08F00BF0023FE2998BFFE2A26
:101EF00026D82DE9F041DFF85C8100234FF0010E78
:101F00004FF0000CBCF1040F17D020FA0CF7FF07BC
:101F10000FD00F4697420CD803EBD70407F0070603
:101F200018F804500EFA06F6354308F80450013745
:101F3000F0E70CF1010C2033E4E70123BDE8F041A8
:101F4000184670472DE9F047DFF840A18146002090
:101F50008AF800003F4888468021FEF71BFB3E4A76
:101F600018214FF0FF3341F221064FF0FF3589B1C0
:101F7000147885EA04256FF0070444B186EA450029
:101F80002FB29F42C8BF680001340546F5E701390A
:101F90000132ECE7DAF820003049884218D1BAF86B
:101FA0000210A8B2814215D1DAF81C00411CCAF80F
:101FB0001C10A0B12A490020B0F5805F45D00A1856
:101FC000D36810305C0144BF23F04063D360F3E773
:101FD000CAF820100120CAF81C00AAF802502048B4
:101FE00000244FF48051CAE90144CAF80C408AF831
:101FF0000140FEF7CFFA00F053F80646002818BF5C
:102000004CF25030CAE90440CAF81840D6B1154C19
:1020100048460021FE22A0470F20EF21EF22A047D3
:102020000420FE21FE22A047FFF76AFE0146DAF8EF
:102030001C200D480023FFF7DBFEB8F1000F18BF8E
:1020400000F014F83046BDE8F08700F029F80646A5
:10205000DCE700BF00FE0220E4A600086B27A5E134
:1020600000EE0220E91E000800FF000380B50748CB
:10207000017849B901210170FFF742FE0146044889
:1020800000220023FFF7B4FE012080BD80FE022065
:1020900001FF000301480068704700BF041000E022
:1020A0000548016841F0807101600448016841F011
:1020B0000101016001207047FCED00E0001000E02C
:1020C000014602480022FFF737BE00BF01F30100BE
:1020D000014602480022FFF72FBE00BF05F30200B1
:1020E00001464FF473400022FFF726BE0146024826
:1020F0000022FFF721BE00BF03F3020001460248A1
:102100000022FFF719BE00BF02F30100014602489A
:102110000022FFF711BE00BF04F30200014602488F
:102120000022FFF709BE00BF0DF5020001464FF483
:1021300071400022FFF700BE014602480022FFF76F
:10214000FBBD00BF13F10100024800210022FFF790
:10215000F3BD00BF01F10100024800210022FFF79A
:10216000EBBD00BF02F10200024800210022FFF790
:10217000E3BD00BF07F10100024800210022FFF784
:10218000DBBD00BF08F102001CB514460A4601463B
:10219000024800932346FFF7EDFD1CBD01F002004D
:1021A0000A4601460148FFF7C7BD00BF04F0020020
:1021B000E0B513460A460146002000900148FFF7AB
:1021C000D9FD8CBD05F002001CB514460A46014637
:1021D000024800932346FFF7CDFD1CBD03F002002B
:1021E000E0B513460A460146002000900148FFF77B
:1021F000C1FD8CBD02F00200E0B513460A4601465F
:10220000002000904FF43C30FFF7B4FD8CBD00007F
:10221000014602480022FFF78FBD00BF08F9020007
:102220000A4601460148FFF787BD00BF03FA0200D6
:10223000014602480022FFF77FBD00BF17FA0100E8
:10224000014602480022FFF777BD00BF18FA0200DE
:102250000A4601464FF47A40FFF76EBD1CB514469E
:102260000A460146024800932346FFF783FD1CBD42
:102270000CFA0100E0B513460A4601460020009022
:102280000148FFF777FD8CBD0DFA02000A460146B2
:102290000148FFF751BD00BF14FA01000146024892
:1022A0000022FFF749BD00BF0EFA02000A460146B0
:1022B0000148FFF741BD00BF09FA02000A46014686
:1022C0000148FFF739BD00BF0AFA0200E0B5134626
:1022D0000A460146002000900148FFF74BFD8CBDE7
:1022E00001FA01000A4601460148FFF725BD00BF7B
:1022F0000BFA02000A4601460148FFF71DBD00BF68
:1023000010FA02001CB514460A4601460248009322
:102310002346FFF72FFD1CBD06FA0100E0B513466A
:102320000A460146002000900148FFF723FD8CBDBE
:1023300007FA0200014602480022FFF7FDBC00BF79
:1023400008FA02000A4601460148FFF7F5BC00BF43
:102350000FFA02000A4601460148FFF7EDBC00BF34
:1023600006F701000A4601460148FFF7E5BC00BF39
:1023700007F70200014602480022FFF7DDBC00BF5C
:1023800008F702000A4601460148FFF7D5BC00BF26
:1023900009F702000A4601460148FFF7CDBC00BF1D
:1023A00003F70200014602480022FFF7C5BC00BF48
:1023B0000EF70100014602480022FFF7BDBC00BF36
:1023C0000FF702000A4601464FF47740FFF7B4BC0E
:1023D000014602480022FFF7AFBC00BF01F7010031
:1023E000014602480022FFF7A7BC00BF0AF702001F
:1023F000014602480022FFF79FBC00BF0BF7010017
:102400000A4601460148FFF797BC00BF0CF70200DF
:10241000014602480022FFF78FBC00BF08F8020007
:102420000A4601460148FFF787BC00BF16F20300C9
:102430000B4601460348002A0CBF1A462930FFF715
:102440007BBC00BF03F20200014602480022FFF7F6
:1024500073BC00BF1CF202000A4601464FF47240F2
:10246000FFF76ABC024800210022FFF765BC00BFED
:102470001AF201001CB514460A46014602480093B0
:102480002346FFF777FC1CBD09F402000146024811
:102490000022FFF751BC00BF08F4020001460248C9
:1024A0000022FFF749BC00BF06F2010001460248C6
:1024B0000022FFF741BC00BF15F20200E0B5134651
:1024C0000A460146002000900148FFF753FC8CBDEE
:1024D00001F20100014602480022FFF72DBC00BFB7
:1024E00018F203000A4601460148FFF725BC00BF69
:1024F0002DF202000A4601460148FFF71DBC00BF4D
:102500000AF20100014602480022FFF715BC00BF95
:1025100019F202000A4601460148FFF70DBC00BF50
:1025200017F203000A4601460148FFF705BC00BF49
:1025300001F6020010B500F1280151E8002F12B990
:10254000BFF32F8F04E0531E41E8003404B1F4E7D9
:1025500072B12C300121006850B1821CD2E84F3F8B
:10256000C2E8441F04B1F9E71A0602D00830F2E7C6
:10257000002010BD70B5024652F8305F4DB1CC78E6
:1025800000235DB12E46ED78A5420DD27568334625
:10259000F7E70023C1E90133C1620DE00024C1E97E
:1025A000014300F12C0403E0C1E9016306F10804D2
:1025B0002160002B18BF1A1D1160283050E8001F41
:1025C0004A1C40E8002303B1F8E770BDD1E90123BC
:1025D000002A0EBFC36293608B68191D002B08BFD1
:1025E00000F130010A60704719480068704700BF69
:1025F00018480178012905D105494FF080620A6029
:10260000002101701248016841F00101016070472A
:1026100004ED00E04FF0FF307047000040B1274963
:102620000968B1FBF0F0411E0020B0EB116F02D041
:102630004FF0FF307047054AFF231370044A06230A
:1026400013605160034908709060704723ED00E00B
:1026500010E000E0280100201548416801F00C025C
:102660001449082A03D0042A17D1134915E0026837
:1026700002235202104A58BF0A46016801F03F0186
:10268000B2FBF1F10268C2F3881251430268C2F34F
:10269000014203EB4202B1FBF2F1084A084B116020
:1026A0004068C0F30310185C21FA00F01060704716
:1026B000043802400024F40000127A0000000020D8
:1026C000D4A6000810B50E480E4CD0F8801041F486
:1026D0007001C0F8801082490A6842F001020A6065
:1026E00000228A600B6823400B60074B4B600B682D
:1026F00023F480230B60CA604FF00061016010BDBD
:1027000008ED00E0FFFFF6FE1030002410B593073F
:1027100012D400F12803D0071ED153E8000F08425D
:1027200003D1BFF32F8F002005E020EA010243E828
:10273000002404B1F1E710BD806A00EA01038B4276
:10274000014618BF002112F0010208BF014653EAFA
:10275000020018BF084610BD53E8000F00EA01024E
:102760008A4203D0BFF32F8F002005E020EA010248
:1027700043E8002404B1EFE710BD0000B0B5104AF3
:102780000023443215462C683CB12569A94209D37F
:10279000491B04F10C052346F5E70024C0E9023487
:1027A000016106E0C0E902340161A0602569691A8F
:1027B0002161002B18BF03F10C021060B0BD00BFF7
:1027C000040000200248006801688968084700BFCB
:1027D0001401002010B5064800F11404204600F052
:1027E0004EFC0448044A2146BDE81040FDF7DFBD19
:1027F00008010020893000080000000810B5FFF72C
:1028000061FF374C206840F48030206020688003EE
:10281000FCD5206C40F0805020643248016841F4BF
:1028200040410160216821F08071216021688901A7
:10283000FCD46168042241F480016160616862F344
:10284000050161606168B42262F38E1161606168A4
:1028500021F440316160216841F08071216021687C
:102860008901FCD5016841F4803101604168C903E8
:10287000FCD5016841F40031016041688903FCD551
:1028800040F20570C4F80004A068022161F3010061
:10289000A060A068A060A06840F40040A060A068AC
:1028A00040F4A050A060A06800F00C000828FAD105
:1028B000FFF7D2FE206B40F001002063206B40F058
:1028C00008002063206B40F010002063206B40F074
:1028D00040002063606C40F01000606410BD00BFD9
:1028E00000380240007000409C4A02211068072313
:1028F00061F393401060506820F40070506090685D
:1029000040F440209060506A63F3071050621068F2
:1029100061F315501060506820F48060506090683A
:1029200040F440109060506A63F30B205062D2F87C
:10293000001C012060F31141C2F8001C88490B689B
:1029400023F480730B604B6843F440334B60D2F840
:10295000003C60F39343C2F8003C0B6823F400731F
:102960000B604B6843F440234B60D2F8003C60F3AB
:102970001553C2F8003C0B6823F480630B604B686E
:1029800043F440134B60D2F8003C60F39753C2F815
:10299000003C0B6823F400630B604B6843F4400376
:1029A0004B60D2F8003C60F31963C2F8003C0B683E
:1029B00023F480530B604B6843F040734B60D2F8B4
:1029C000003C60F39B63C2F8003C0B6823F40053A7
:1029D0000B604B6843F040634B60D2F8003C60F3FF
:1029E0001D73C2F8003C0B6823F480430B604B68F6
:1029F00043F040534B60D2F8003C60F39F73C2F841
:102A0000003C0A6822F400420A604A6842F04042F0
:102A10004A60D1F8FC2360F31142C1F8FC23D1F8DD
:102A2000002422F48072C1F800244E4A136843F453
:102A300040331360D1F8FC3360F39343C1F8FC33A7
:102A4000D1F8003423F40073C1F80034136843F460
:102A500040231360D1F8FC3360F31553C1F8FC3305
:102A6000D1F8003423F48063C1F80034136843F4D0
:102A700040131360D1F8FC3360F39753C1F8FC3373
:102A8000D1F8003423F40063C1F80034136843F430
:102A900040031360D1F8FC3360F31963C1F8FC33D1
:102AA000D1F8003423F48053C1F80034136843F0A4
:102AB00040731360D1F8FC3360F39B63C1F8FC33BF
:102AC000D1F8003423F40053C1F80034136843F004
:102AD00040631360D1F8FC3360F31D73C1F8FC331D
:102AE000D1F8003423F48043C1F80034136843F074
:102AF00040531360D1F8FC3360F39F73C1F8FC338B
:102B0000D1F8003423F40043C1F80034116841F0D7
:102B100040411160D2F8F81760F39B61C2F8F817D2
:102B200011490B6823F400530B604B6843F040637A
:102B30004B60D2F8F83760F31D73C2F8F8370868B5
:102B400020F480400860486840F0405048604FF4EE
:102B50000050C8824FF48040C88270470000024095
:102B6000040C0240081002400418024007484FF6C7
:102B7000FF0201681140064A114301600548102117
:102B80000170054820210160704700BF0CED00E096
:102B90000003FA0525E400E004E100E0194842F2F0
:102BA0009042018821F480610180018821F48051E4
:102BB0000180818821F44051818001886FF3DF31E9
:102BC000018030F8041C114320F8041C30F8041C68
:102BD00041F00F0120F8041C018841F00801018038
:102BE000018821F080010180018841F00401018009
:102BF000018841F020010180018841F400510180E9
:102C0000704700BF0C100140184C206880F4005041
:102C1000206042F2107003F061FBF6E770B50446E5
:102C2000084800210022002504F054FA064E2146EF
:102C3000306004F071FA3068002808BF4FF0FF35AB
:102C4000284670BD092C00088086002003F096FB02
:102C500041F28835054E4419306880F48040306078
:102C6000204603F057FB2C44F6E700BF141802403F
:102C700084B06C46314EDFF8C8A04FF0000804F174
:102C8000040903ADCDF80C8030684FF0FF320168C5
:102C90008B682946984703990028F5D1B1F1405F28
:102CA000F2D130684FF0FF3201688B6829469847AF
:102CB0000028E9D1039801281CD00228E4D130680B
:102CC0004FF0FF3201688B68294698470028DBD116
:102CD0003068CDF80880CDE900980168039ACF6884
:102CE00021464FF0FF33B847DAF80000214600F0E4
:102CF000A9FB19E030684FF0FF3201688B68294664
:102D000098470028C0D13068CDF80880CDE90098F8
:102D10000168039ACF6821464FF0FF33B847DAF8CD
:102D20000000214600F012FCDAF800000168096892
:102D30008847204602F095FFA6E700BF100100205B
:102D40001801002070B50446084800210022002523
:102D500004F0C0F9064E2146306004F0DDF9306819
:102D6000002808BF4FF0FF35284670BD4D2C0008E5
:102D70007486002070B50446084800210022002512
:102D800004F0A8F9064E2146306004F0C5F9306819
:102D9000002808BF4FF0FF35284670BD712C000891
:102DA00078860020024C20680168496A8847FAE763
:102DB0001401002070B504460848002100220025B7
:102DC00004F088F9064E2146306004F0A5F9306819
:102DD000002808BF4FF0FF35284670BDA52D00081C
:102DE0007C86002002F0EBBF80B5AFF30080BDE829
:102DF000804002F0EBBF80B5AFF30080BDE88040BB
:102E000002F0E4BF10B5144600F011F928B10168D2
:102E10004A6A2146BDE810401047002010BDBCB5ED
:102E20000D4604460DF1070128468DF8072002F0F3
:102E300005FD291D814203D0017C4069606001E0ED
:102E4000002161602170BCBD80B500F0F0F820B1B8
:102E50000168C969BDE880400847002080BD80B591
:102E600000F0E5F820B10168C968BDE88040084776
:102E7000002080BD2DE9FF4105460C460020294673
:102E8000A86041F8040F296040CC0DF108086F4696
:102E9000A64208BFBDE8FF8170690168C96888471C
:102EA0000190307C29468DF8000040463A463B466A
:102EB00002F08BFE7068314620B10646006800289B
:102EC000FBD1E5E78E68306888423146FAD1DFE70A
:102ED0002DE9FF410C46054600200021C5E9000010
:102EE000A860032903D045F821000131F9E780CC1F
:102EF00001AE0FF26808A74208BFBDE8FF81397C28
:102F0000284602F049F978690168C968884701468E
:102F1000304602F0F3FE9DF8040010F00101039921
:102F200008BF711C029A08BF4208284602F069F8DF
:102F3000304602F099F92846414602F055F8786883
:102F4000394620B1074600680028FBD1D3E78F68D7
:102F5000386888423946FAD1CDE700BF200000002A
:102F60002DE9F0412DED048B054610CD9FED288B0A
:102F70008846AC4246D06669277C3068C1683046D6
:102F8000884706F0E4FE41EC100B4046394601F05C
:102F900005FC6069B0EE409A0168F0EE609AC9697C
:102FA000884706F0D4FEB0EE480A41EC110BF0EE73
:102FB000680A05F045FC51EC190B53EC102B06F098
:102FC00019FF06F095FE01463068426A3046904788
:102FD0000646606901688969884796FBF0F14143BC
:102FE00060690268926A90476068214620B1044691
:102FF00000680028FBD1BCE78C6820688842214625
:10300000FAD1B6E7BDEC048BBDE8F08100BF00BF8C
:103010000000000000002440F8B50346CDE900128E
:103020006A4602A81946134602F0E9FB8FBD1CB59B
:103030008DF807100DF10701044602F0FFFB211D7A
:10304000814214BF406900201CBD002102468160FE
:1030500042F8041F0260704770B505680C460646CA
:103060007068A84207D028680168C9688847A042EC
:1030700001D00435F4E7284670BD70477047002141
:10308000C0E900118160704702F00AB970474068DA
:103090001346002203F0D6B92DE9F04F85B09246D1
:1030A0008946064602AF6D464FF00008D04525DA46
:1030B00030683946836830464FF0FF3298470446FF
:1030C00030689DF808B08368304639464FF0FF32CB
:1030D0009847029900284FF0000018BF014601915F
:1030E000002C18BF834603A849462A462B468DF874
:1030F00000B002F06AFD08F10108D7E705B0BDE8AD
:10310000F08F1CB50191044680684FF0FF3103F049
:103110005FFA30B9606801A900224FF0FF3303F075
:103120000DFAA06803F0ACFA1CBDF8B5044680683F
:103130000D464FF0FF3103F04BFA00B1F8BD606867
:1031400003F0C8F9D5E90012531AB0EBA30F14D954
:103150000026501AB6EBA00F0FD2676828463146FA
:1031600002F0BFFD0146384600224FF0FF3303F066
:10317000E5F9D5E900120136EBE7A068BDE8F840B3
:1031800003F07EBA10B504460748042108302060D9
:103190004020002203F0B0F96060002003F052FAF2
:1031A000A060204610BD00BFD0AA000841680A8870
:1031B000920606D40988090658BF70470168C96994
:1031C00008470168096A0847007C704780B51431D8
:1031D00002F014F880BD017DC90702D1002181826F
:1031E00003E0C16900220A70826100210174704706
:1031F0001CB50446C0680DF107010022002303F04E
:1032000021F948B161688A8922F080028A818A891D
:1032100042F004028A811CBD61689DF807208A8003
:103220001CBDBCB50446007C40B9A0680DF1070187
:1032300000224FF0FF3303F005F900B1BCBD9DF84B
:10324000071004F11405284601F0A6FF9DF80700B9
:103250000A2802D101202074BCBD297811F0010098
:103260000CBF4908A1694129E8D310B90020288082
:10327000BCBDE06900210170A161BCBDF8B5044688
:103280000878D1E901670DF1030510F0010204BFD0
:1032900046084F1CB6B1387829468DF80300E0681F
:1032A00000224FF0FF3303F049F940B9606881898B
:1032B00021F004018181818941F080018181013EF9
:1032C0000137E7E7F8BDE0B5D0E9011000228988B1
:1032D00000238DF807100DF1070103F02FF98CBDC5
:1032E00010B51C4A0446002008322074C4E90500C9
:1032F000E061C4E900210521082903D044F8210038
:103300000131F9E780200121002203F0F5F8E060A7
:1033100080200121002203F0EFF8A060204610BDBC
:1033200080B500F005F8BDE8804002F04FBD000018
:1033300010B50446074808302060E06803F066F8DE
:10334000A06803F063F804F1140001F08DFF20463B
:1033500010BD00BFE8AA00087FB505460020039015
:10336000CDE9010008460C46FDF752F801AE0246D1
:103370003046214601F012FE28683146C2682846D0
:103380009047304601F070FF284604B070BD10B57C
:1033900004460068C26820469047204610BD0000E1
:1033A0002DE9F04387B00D468046002004A9002295
:1033B0000690CDE90400032A03D041F8220001322F
:1033C000F9E710CD01AE04AF0FF27409A54229D080
:1033D000217C384601F0E0FE6169304602F08EFC47
:1033E0009DF8040010F00101039908BF711C029AB6
:1033F00008BF4208384601F004FE304601F034FFB1
:103400003846494601F0F0FD606828B1044600687E
:103410000028FBD1DAE70446A0680168A142FAD18E
:103420000446D3E7D8F8000004ACC2684046214601
:103430009047204601F018FF404607B0BDE8F083F2
:10344000200000002DE9F04F89B000F11006944DE6
:10345000044630468846A84704F11C073846A8476A
:1034600004F134000190A847A16806AD2846FFF793
:1034700001FD3046294602F0B3FA284602F0F1FB7E
:1034800038463146029602F0F3FB266908F1040043
:1034900004F1140BCDF80C800090B3454ED0B0462B
:1034A00018F8101F6068FFF7D7FD05466068FFF742
:1034B000E5FD4068A84233D00398414602F0A4FBE2
:1034C00081460098484515D098F80050D4F808A0D7
:1034D0003846414602F098FB4069D9F814100A18A2
:1034E00050462946FFF78EFC05463846414602F015
:1034F0008BFB45613846414602F086FB45690298E0
:10350000414602F081FB98F8001004AA8DF81010D3
:1035100040690199281A059006A8134602F055FB48
:10352000706828B1064600680028FBD1B5E706465A
:10353000B0680168B142FAD10646AEE7206801687A
:103540002046884709B0BDE8F08F00BF2DE9F04F55
:103550008BB000F11006524D044630468846A8470D
:1035600004F11C073846A84704F134000390A8472B
:10357000A16808AD2846FFF77DFC3046294602F0D9
:103580002FFA284602F06DFB384631460597029621
:1035900002F06EFB08F104002769009004F11400AA
:1035A000CDF8048004900498B84255D0B84618F875
:1035B000101F6068FFF750FD05466068FFF75EFD6D
:1035C0004068A8423AD00198414602F01DFB81466E
:1035D000009848451CD0059D98F800B0D4F808A084
:1035E0002846414602F010FB4069D9F814100E1825
:1035F000E06898F80010FFF732FC321A504659463E
:10360000FFF700FC06462846414602F0FDFA4661F7
:103610000598414602F0F8FA45690298414602F0E1
:10362000F3FA98F8001006AA8DF81810406903996B
:10363000281A079008A8134602F0C7FA786828B13C
:10364000074600680028FBD1ADE70746B868016867
:10365000B942FAD10746A6E7124F386801688A696D
:10366000029990470168104D4A6929469047386889
:1036700001688A690599904701684A692946904717
:10368000386801688A690399904701684A69294640
:10369000904720680168204688470BB0BDE8F08F4E
:1036A000295C00081401002066AD000870B50E4DBD
:1036B000002408350646846144620463C46346F806
:1036C000144FC0E9005100F108014CC1014641F816
:1036D000204FC161014641F82C4F8162014641F8FB
:1036E000384F416370BD00BF24AB000870B504467D
:1036F00002F044FE05464FF0FF30206404F128003C
:1037000004F11C0102F0B4FA6068FFF7B6FC04F1A2
:103710001406206C022838BF70BD2069B0420DD05D
:103720004168024621B1084609680029FBD1F5E746
:103730009068016891420246FAD1EFE701352846C8
:1037400002F0E8FDE5E7000080B5FFF7AFFF0249B2
:103750000831016080BD00BF30AB000840680168DF
:103760008968084740680168896A084780B54968E0
:103770000A68D26A904780BD40680168096B0847B3
:1037800040680168C969084740680268D268104704
:1037900040680168096A0847406802685269104732
:1037A00040680268126910474068026892691047D1
:1037B00040680268526A104710B5044680684FF0AE
:1037C000FF3102F005FF18B960680168496B88474E
:1037D000A068BDE8104002F053BF10B504468068F1
:1037E0004FF0FF3102F0F4FE18B960680168C96A51
:1037F0008847A068BDE8104002F042BF40680168F9
:103800008969084740680168096908474068016894
:1038100049690847B0B5044680680D464FF0FF314E
:1038200002F0D6FE08B1002505E060680168CA6BA9
:10383000294690470546A06802F022FF2846B0BD01
:10384000B0B5044680684FF0FF3102F0C1FE08B108
:10385000002504E060680168896B88470546A06818
:1038600002F00EFF2846B0BDB0B5044680680D4694
:103870004FF0FF3102F0ACFE08B1002505E06068B2
:1038800001684A6C294690470546A06802F0F8FE98
:103890002846B0BDB0B5044680684FF0FF3102F055
:1038A00097FE08B1002504E060680168096C88474C
:1038B0000546A06802F0E4FE2846B0BD10B50446F7
:1038C00080684FF0FF3102F083FE18B9606801682C
:1038D000096B8847A068BDE8104002F0D1BE40687F
:1038E0000168096A084780B549680A689268904784
:1038F00080BD40680168C969084740680168C968B7
:103900000847B0B5044680680D464FF0FF3102F01D
:103910005FFE20B9606801688A6A29469047A068FE
:10392000BDE8B04002F0ACBE10B504460D4808300A
:10393000C4E90001002002F085FEA060204610BD11
:1039400080B500F005F8BDE8804002F03FBA000005
:1039500010B50446034808302060A06802F056FE07
:10396000204610BD3CAB00082DE9F84F2DED048B2F
:1039700092B0834640680168496A8847DBF80400D2
:103980000168896A8847002800F08F84DBF80410FA
:103990000DAC0868C26A204690470AAD2846214609
:1039A00000F0D0FF204601F05FFC00200990CDE937
:1039B000070007A80FF61011062201F0EFFA9DF894
:1039C0002800DFF80C6910F001010B9908BF4108CD
:1039D00005F1010A0C9D08BF55466C18F71D2846D5
:1039E000214632463B4601F0BFFCA0421CBF401BB3
:1039F00010F101007AD19DF82800DFF8E06810F09E
:103A000001010B9908BF41080C9D08BF55466C1871
:103A100006F108072846214632463B4601F0A4FC41
:103A2000A0421CBF401B10F1010040F0A0809DF897
:103A30002800DFF8AC9810F001010B9908BF41088D
:103A40000C9D08BF55466C1809F108082846214608
:103A50004A46434601F088FC9DF8281011F0010207
:103A60000B9A08BF4A080C9E08BF5646B718A042DA
:103A70001CBF401B10F1010040F0BB80DFF87098C4
:103A8000304609F1070539464A462B4601F06CFCE1
:103A9000B8421CBF801B10F1010000F0F4839DF8B8
:103AA00028004A4610F001010B9908BF41080C9C00
:103AB00008BF54466618204631462B4601F054FC98
:103AC000041BB04208BF4FF0FF34E11D0AA801F00B
:103AD0002AFA00783F2840F0558207AD0FF614010E
:103AE000284601F0C6FADBF80C109DE00DF1100835
:103AF000002008F10402CDE90500CDE90200CDE97E
:103B000000209DF82800049210F001010B9908BFD5
:103B100041080C9C08BF5446651820462946324689
:103B20003B4601F021FC011B0AACCA1DA8422046FD
:103B30004FF0000108BF062201F005FA0DAD28463E
:103B4000214600F054FE4046294601F0A7FE2846D3
:103B500001F014FF0698002800F08F83DDE90210C1
:103B600081427BD24FF0405204C10291D2E00DF16C
:103B70001008002008F10402CDE90500CDE902009B
:103B8000CDE900209DF82800049210F001010B9966
:103B900008BF41080C9C08BF5446651820462946BA
:103BA00032463B4601F0E0FB011B0AAC01F1080282
:103BB000A84220464FF0000108BF072201F0C3F9D8
:103BC0000DAD2846214600F012FE4046294601F080
:103BD00065FE284601F0D2FE0698002800F04D83CD
:103BE000DDE90210814258D24FF0405204C10291E7
:103BF000FFE1304639464A46434601F0B5FB811B9A
:103C000001F10805B84208BF07250AA8294601F0B6
:103C10008AF900783F2837D107AD0FF2C8612846EE
:103C200001F027FADBF810100DAC2046FFF750F931
:103C30009DF8340010F001010F9908BF611C0E9A25
:103C400008BF4208284601F0DCF9204601F00CFBD1
:103C5000DFF89816284601F0C7F914E3019C0A1B07
:103C6000012101EBA201B1F1804F80F02483001B00
:103C7000E34D01AB841092100833AC4224D8B1EB71
:103C8000600F98BF411021E00AAC204600212A466F
:103C900001F059F9DBF810007DE1019C0A1B0121BC
:103CA00001EBA201B1F1804F80F00583001BD44DE0
:103CB00001AB841092100833AC4200F27481B1EB76
:103CC000600F98BF411070E16FF040410DA801F006
:103CD00022FBDDE90E534FF0405001C3DDE9011432
:103CE0000F93621AA81A002A0E9005DDFCF7FEFB5E
:103CF000DDE90E03DDE90114CDE90103CDE90E1480
:103D00000398109A10900DA803920D9101F01DFBDD
:103D1000DDE90210814203D2022204C102913AE09D
:103D2000019C0A1B012101EBA201B1F1804F80F03F
:103D3000C282001BB24D01AB841092100833AC421A
:103D400004D8B1EB600F98BF411001E06FF0404123
:103D50000DA801F0E0FADDE90E53022001C3DDE910
:103D600001140F93621AA81A002A0E9005DDFCF7C1
:103D7000BDFBDDE90E03DDE90114CDE90103CDE969
:103D80000E140398109A10900DA803920D9101F053
:103D9000DCFADDE90210069C814203D210C1D9464B
:103DA000029138E0019D4A1B012101EBA201B1F112
:103DB000804F80F08082401B914E01AB85109210A5
:103DC0000833B54204D8B1EB600F98BF411001E051
:103DD0006FF040410DA801F09EFADDE90E0310C31B
:103DE000DDE901140F93621A801A002A0E9005DD96
:103DF000FCF77CFBDDE90E03DDE90114CDE90103ED
:103E0000CDE90E140398109A10900DA8D94603928C
:103E10000D9101F09AFA01A800F1080B7848049C72
:103E20009FED798B4FF0010882460DAE00988442D9
:103E300000F0A480DDE90210277C814202D280C11B
:103E4000029136E0019BCA1A08EBA201B1F1804F42
:103E500080F03182C01A831092105345554604D821
:103E6000B1EB600F98BF411001E06FF04041304668
:103E70005B4601F050FADDE90E0380C3DDE901176E
:103E80000F937A1A801A002A0E9005DDFCF72EFB9C
:103E9000DDE90E03DDE90117CDE90103CDE90E17D8
:103EA0000398109A1090304603920D9101F04DFA4C
:103EB000277CD9F80C0094ED069B3946FEF7C4FF29
:103EC00005F045FFB0EE480A41EC110BF0EE680A30
:103ED00004F0B6FC53EC102B51EC190B05F08AFFE3
:103EE00005F006FF0746DDE90210814202D280C1DB
:103EF000029135E0019BCA1A08EBA201B1F1804F93
:103F000080F0D981C01A831092105345554604D8C9
:103F1000B1EB600F98BF411001E06FF040413046B7
:103F20005B4601F0F8F9DDE90E0380C3DDE9011716
:103F30000F937A1A801A002A0E9005DDFCF7D6FA44
:103F4000DDE90E03DDE90117CDE90103CDE90E1727
:103F50000398109A1090304603920D9101F0F5F9F4
:103F60006068214620B1044600680028FBD15DE767
:103F70008C68206888422146FAD157E7D9F80800B2
:103F8000CB4672E104F108020AAC2046002100F0A1
:103F9000DAFFDBF80C002146FEF7E2FFCE4907A866
:103FA00001F067F86FE16FF040410DA801F0B3F93F
:103FB000DDE90E534FF0405001C3DDE901140F93CA
:103FC000621AA81A002A0E9005DDFCF78FFADDE9C7
:103FD0000E03DDE90114CDE90103CDE90E140398C8
:103FE000109A10900DA803920D9101F0AEF9DDE941
:103FF000021081420CD2012204C1029143E000BFB1
:10400000FEFFFF1F00BF00BF0000000000002440B3
:10401000019C0A1B012101EBA201B1F1804F80F04C
:104020004A81001BAB4D01AB841092100833AC42A7
:1040300004D8B1EB600F98BF411001E06FF0404130
:104040000DA801F068F9DDE90E53012001C3DDE997
:1040500001140F93621AA81A002A0E9005DDFCF7CE
:1040600045FADDE90E03DDE90114CDE90103CDE9EF
:104070000E140398109A10900DA803920D9101F060
:1040800064F9DDE90210069C814202D210C102915E
:1040900037E0019D4A1B012101EBA201B1F1804FE4
:1040A00080F00981401B8B4E01AB851092100833C4
:1040B000B54204D8B1EB600F98BF411001E06FF03A
:1040C00040410DA801F027F9DDE90E0310C3DDE939
:1040D00001140F93621A801A002A0E9005DDFCF776
:1040E00005FADDE90E03DDE90114CDE90103CDE9AF
:1040F0000E140398109A10900DA803920D9101F0E0
:1041000024F901A800F108097248049C9FED6C8B0A
:104110004FF0010882460DAE0098844200F0A38063
:10412000DDE90210277C814202D280C1029136E093
:10413000019BCA1A08EBA201B1F1804F80F0BB804D
:10414000C01A831092105345554604D8B1EB600F46
:1041500098BF411001E06FF0404130464B4601F0FE
:10416000DAF8DDE90E0380C3DDE901170F937A1A4F
:10417000801A002A0E9005DDFCF7B8F9DDE90E0380
:10418000DDE90117CDE90103CDE90E170398109A77
:104190001090304603920D9101F0D7F8277CDBF8A0
:1041A0000C0094ED069B3946FEF74EFE05F0CFFD60
:1041B000B0EE480A41EC110BF0EE680A04F040FB47
:1041C00053EC102B51EC190B05F014FE05F090FD8B
:1041D0000746DDE90210814202D280C1029134E03B
:1041E000019BCA1A08EBA201B1F1804F63D2C01A39
:1041F000831092105345554604D8B1EB600F98BF19
:10420000411001E06FF0404130464B4601F083F829
:10421000DDE90E0380C3DDE901170F937A1A801AD6
:10422000002A0E9005DDFCF761F9DDE90E03DDE9FA
:104230000117CDE90103CDE90E170398109A1090EC
:10424000304603920D9101F080F86068214620B15C
:10425000044600680028FBD15EE78C68206888422D
:104260002146FAD158E7DBF8080001684A6801A93D
:104270009047194907A800F0FCFE01A801F019F8C1
:1042800004A801F07BFBDBF8040007AC0168CA68F6
:1042900021469047DBF804000168096B88472046F7
:1042A00000F0E2FF0AA800F0DFFF12B0BDEC048BC3
:1042B00001B0BDE8F08F01A800F0BBFD00BF00BF5A
:1042C00000000000000024404641494C0D0A000057
:1042D00083AD0008FEFFFF1F64AD00087AAD000843
:1042E00069AD0008424153454320000066AD000817
:1042F00072AD00085048594320000000B0B5044D8D
:10430000049C0835C0E9005100F108011CC1B0BD92
:104310008CAB000801F05ABD0079704701717047FD
:10432000806900687047D0E906125368994214BF4B
:104330000431116881617047416131B1012907D0B1
:10434000022909D100F1380104E000F1200101E067
:1043500000F12C01C16100E0C16909688161704709
:10436000D0E906121368994214BF0439516881617B
:10437000704700002DE9F04F85B004462248002622
:104380000830206002270320C4E9096604960397D9
:104390000290012001902046DFF870B08A4640F874
:1043A000206F042198469146D84701AD606A2ECD12
:1043B0002EC060622046C4E90C6640F82C6F0821CC
:1043C000D847256B124928462022FCF74AF805F108
:1043D000200020632046C4E90F66CDE90377CDE9CC
:1043E000017740F8386F0421D84701ADE06B2ECD3E
:1043F0002EC0E06320464146C4E903A9FFF79CFFB5
:10440000204605B0BDE8F08FC8AB0008BF5C0008CF
:10441000DCAC000800000000B0B52DED028B0446B6
:10442000C068022825D120690168C9688847054607
:1044300020690168C9698847033805F088FC9FED49
:104440002C0B41EC110B04F0FBF9A068B0EE408A94
:10445000F0EE608A05F07BFC02460B4651EC180B2F
:1044600005F0C8FC05F044FC95FBF0F101FB105091
:1044700060B36068016849688847E068012825D111
:1044800020690168C9688847054620690168C969CB
:104490008847033805F05BFC9FED150B41EC110BD1
:1044A00004F0CEF9A068B0EE408AF0EE608A05F024
:1044B0004EFC02460B4651EC180B05F09BFC05F038
:1044C00017FC95FBF0F101FB105058B12069016811
:1044D000096C884760690168096CBDEC028BBDE816
:1044E000B0400847BDEC028BB0BD00BF00BF00BFAD
:1044F0000000000000002440B0B52DED028B044602
:10450000C068022825D120690168C9688847054626
:1045100020690168C9698847033805F018FC9FEDD8
:104520002C0B41EC110B04F08BF9A068B0EE408A23
:10453000F0EE608A05F00BFC02460B4651EC180BBE
:1045400005F058FC05F0D4FB95FBF0F101FB105091
:1045500060B36068016809688847E068012825D170
:1045600020690168C9688847054620690168C969EA
:104570008847033805F0EBFB9FED150B41EC110B61
:1045800004F05EF9A068B0EE408AF0EE608A05F0B3
:10459000DEFB02460B4651EC180B05F02BFC05F038
:1045A000A7FB95FBF0F101FB105058B120690168A1
:1045B000896B884760690168896BBDEC028BBDE837
:1045C000B0400847BDEC028BB0BD00BF00BF00BFCC
:1045D000000000000000244070B504460E481D464F
:1045E0000830206004980B46606161600868D1B2B1
:1045F00086681846B04705982561002801DD01212D
:1046000005E0C0F1000218BF012041001046C4E9D6
:104610000201204670BD00BFE4AB0008406801689D
:10462000C968084740680268926810474068016896
:104630000969084710B50446406801684968884719
:104640002046BDE81040AFF300802DE9F843044652
:1046500000264FF001084FF000090027022F18D064
:10466000206950F827500F2D11D86068016809693A
:104670008847216900F0030051F82710F84000F046
:104680000100884049EA000908FA05F006430137AD
:10469000E4E7A0684FF0010841690027B14341EA0F
:1046A000090100264161082F0DD0606950F827509C
:1046B0000F2D06D8606801680969884708FA05F077
:1046C00006430137EFE7E0684169B14341EA090178
:1046D0004161BDE8F88310B5044640680168096887
:1046E00088472046BDE81040FFF7AFBF10B5039CD8
:1046F000C0E90434041D029B0EC402490831016064
:1047000010BD00BF00AC000870B50C460546002087
:104710000021C5E90000A860032903D045F8210065
:104720000131F9E720461146002200F066FB461CE5
:1047300033D02078C1070CBF4008606886422CD275
:104740002046314600F0EFFB0078302806D32046A3
:10475000314600F0E8FB00783A2814D32046314671
:1047600000F0E1FB00782D280DD02046314600F006
:10477000DAFB00782B2806D02046314600F0D3FB28
:1047800000782E2809D12046314600F0CCFB017874
:10479000284600F001FD0136CBE770BD10B52DEDC8
:1047A000066B01ACB0EE408A0A4601462046F0EEA8
:1047B000608AFFF7A9FF9DF80400029A10F001013A
:1047C00008BF42084AB10398002908BF601C03F0E3
:1047D000B3FFB0EE408AF0EE608A01A800F044FD1D
:1047E000B0EE480AF0EE680ABDEC066B10BD2DE98C
:1047F000F0478AB00C468146002105A800220791A7
:10480000CDE90511032A03D040F822100132F9E75F
:1048100000254946C9F8085041F8045F00F1010A33
:1048200061276E460DF12008C9F800107A2F3ED09E
:10483000FAB230462146FFF767FF9DF81400C00723
:1048400002D1ADF814500AE00798057006959DF85E
:104850001400C00703D0079801F0B8FA05959DE849
:10486000070005AB07C30020032803D046F82050FB
:104870000130F9E7304600F0F7FC9DF81400069A85
:1048800010F0010108BF42087AB10798002908BF5B
:10489000504603F051FF40464946324633468DEDBF
:1048A000020B8DF8007001F039F80137BEE74125A1
:1048B00000270DF120085A2D3ED0EAB2304621469D
:1048C000FFF722FF9DF81400C00702D1ADF8147065
:1048D0000AE00798077006979DF81400C00703D0F8
:1048E000079801F073FA05979DE8070005AB07C329
:1048F0000020032803D046F820700130F9E7304645
:1049000000F0B2FC9DF81400069A10F0010108BFF7
:1049100042087AB10798002908BF504603F00CFFFF
:1049200040464946324633468DED020B8DF8005025
:1049300000F0F4FF0135BEE705A800F095FC0AB0D1
:10494000BDE8F08700F05ABCC2698A42DCBF10465D
:10495000704780698842B8BF084670470269C169DC
:104960008A4202DA81698A4200DC0161704741694A
:1049700001617047006A704780697047C06970477D
:1049800002698369511A9942B2BF00200161012076
:1049900070470169036A8269C91A9142B2BF002057
:1049A0000161012070470269C36911449942CEBF79
:1049B00000200161012070470169D0E907231944F3
:1049C0009142CEBF002001610120704710B504461E
:1049D0000068416B204688472069216A90FBF1F00E
:1049E0004843206110BD4069704780B5043100F034
:1049F00005FC80BD406A70470069704701617047DF
:104A00002DE9F047164600220446C0E902221B4861
:104A10000DF1200A083020602046DDF82C809AE84D
:104A200080061D4640F8042F0123042B03D044F8D0
:104A300023200133F9E700F021FCC4E90465C4E94F
:104A400006A8C4E908792068016B204688472046FB
:104A5000BDE8F08780B500F005F8BDE8804001F0C2
:104A6000B5B9000010B50446044800F1080120461D
:104A700002C000F0F9FB204610BD00BF1CAC0008CE
:104A80007047704770B51546059A0E4689681C46F2
:104A90003AB188420AD040684968FBF739FF28B12B
:104AA00070BD40684968884218BF70BD31462A46CB
:104AB0002346BDE8704000F074B82DE9F041164679
:104AC000069A0C4689689846074682B18F422FD0D5
:104AD0007D6849682846FBF71BFF48B3206887427A
:104AE0000DD041682846FBF713FF20BB07E078682C
:104AF000496888421CD02168496888421BD12069D6
:104B0000B04223D06069B04220D0C4F820806661F2
:104B1000D4E9091001300129A06205D1A069022859
:104B200004BF012084F836000420E062BDE8F08173
:104B30006068B04201D0BDE8F081E06901281CBF87
:104B4000C4F81C80BDE8F081BDE8F081B8F1010F28
:104B500018BFBDE8F08101202062BDE8F08180B57A
:104B6000D1F808C0D0F804E0DCF80400864518BF8E
:104B700080BD086950B190420DD0486A013048624A
:104B800002208861012081F8360080BD01200A6181
:104B90008B61486280BD8869022804BF8B6180BD3B
:104BA00080BD80B548684FF0010E984281F835E02D
:104BB00019D10B69DDF808C081F834E02BB19342BC
:104BC00012D0486A013048620AE00120BCF1010FAE
:104BD0000A61C1F818C0486205D1086B012802D1EA
:104BE000012081F8360080BD8A69022A04BFC1F81D
:104BF00018C06246086B012818BF80BD012AEFD09B
:104C0000F1E72DE9F0418EB0074640684B689842C5
:104C100029D04AF698031546C0F600034AF6A402C6
:104C2000C0F60002084619460023002401F0F8F8F7
:104C3000D0B106468DE891004FF0FF30E846039072
:104C400008F110002721FBF7A5FC01200C9030682B
:104C50002A68C769304641460123B84706980128AB
:104C600002D104982860012420460EB0BDE8F081EE
:104C70002DE9F04383B0DDE90A940E468968984631
:104C80001546074674B18F4204D078684968FBF72F
:104C90003FFE58B931462A46434603B0BDE8F043CB
:104CA000FFF77FBF786849688842F3D0B8682A4622
:104CB000016843464F693146CDF800900194B847EA
:104CC00003B0BDE8F0832DE9F04383B0DDF8289010
:104CD0000C46896898461546B9F1000F074630D052
:104CE0008F4240D07E6849683046FBF711FED0B352
:104CF0002068874204D041683046FBF709FE40BB7C
:104D00002069A84238D06069A84235D0E06AC4F86A
:104D10002080042838D00020A086B8682A46016880
:104D20002B464F69012100912146CDF80490B847E8
:104D300094F8350030B394F834000321E16280BB6D
:104D400022E07868496888420DD021684968884225
:104D5000D6D0B8682A46016843468F692146CDF807
:104D60000090B8471DE06068A8421AD1E0690128A8
:104D700018BFC4F81C8014E0B8F1010F04BF012073
:104D800020620EE00420E0626561D4E90910013080
:104D90000129A06205D1A069022804BF012084F87E
:104DA000360003B0BDE8F08380B5D1F808C0D0F874
:104DB00004E0DCF804C0E64507D08068D0F800C005
:104DC000DCF81CC0BDE880406047086950B19042E3
:104DD0000DD0486A0130486202208861012081F8C4
:104DE000360080BD01200A618B61486280BD886900
:104DF000022804BF8B6180BD80BD10B50378DC073D
:104E000006BF441C5B08D0E9013493429CBF4FF0BD
:104E1000FF3010BD9B1A05D0A0181A46FBF717FBF0
:104E2000014600E00021081B002908BF4FF0FF30B9
:104E300010BDFBF7B1FAFBF7AFFA01460846096867
:104E40000029FBD141680029F8D1704721B10B46F8
:104E500011781A46FBF7FBBA00207047002A0CBFF6
:104E60000020FBF7A9BA70472DE9F04F81B00D463D
:104E70006FF01101491B914253D304460078DDF8CD
:104E800028B0C0070CBF601CA06800904FF6E67009
:104E9000C7F6FF701F4685420CD85019B0EB450F7E
:104EA00038BF68000B2826BF103020F00F084FF0E5
:104EB0000B0801E06FF01008DDF830A0404600F06C
:104EC00087FFBBF1000F064604D0009930465A46D2
:104ED000FBF7C7FADDF82C90BAF1000F05D00D9959
:104EE00006EB0B005246FBF7BCFAA7EB0907B7EB42
:104EF0000B0207D0009906EB0B005944504449447B
:104F0000FBF7AFFA0A2D02D0009800F05FFF48F0DF
:104F1000010007EB0A0143C40020705401B0BDE852
:104F2000F08FFBF739FA037813F001020CBF5B082E
:104F300043688B4205D9002A0CBF013080680844C1
:104F40007047FBF729FAF0B581B0044600781546A2
:104F500010F001020CBF460866688E421CD3C5B132
:104F6000002AA6EB01020CBF671CA768AA4238BF43
:104F70001546521B04D078184119FBF787FC20789E
:104F8000C007A6EB050006BF41002170606000214C
:104F90003954204601B0F0BDFBF7FEF9F0B581B001
:104FA00012F1100F1ED214460E4605460B2A04D2EB
:104FB000600005F8010B64B910E004F1100020F066
:104FC0000F07384600F004FF791CC5E90014A860FB
:104FD0000546284631462246FBF743FA002028556D
:104FE00001B0F0BDFBF7D8F9B0B5054608460C4650
:104FF000FBF70EFA024628462146BDE8B040AFF363
:105000000080F0B585B003780446154613F0010022
:105010008C4602D15E080A2104E0D4E9001621F092
:10502000010101398A1BAA420CD27019421A0020D0
:10503000CDE90060204633460295CDF80CC0FFF75D
:1050400013FF13E095B100280CBF671CA768B819BF
:1050500061462A46FBF705FA2078C00706EB0500F3
:1050600006BF41002170606000213954204605B020
:10507000F0BDB0B5054608460C46FBF7C9F9024637
:1050800028462146BDE8B040AFF3008070B584B03B
:1050900004460078154610F001028C4601D10A2121
:1050A00003E0216821F001010139A9420DD2002A53
:1050B0000CBF4308636800206A1A8DE82900204667
:1050C000CDF80CC0FFF7D0FE11E0002A0CBF661C23
:1050D000A66825B1304661462A46FBF7D7FB00207B
:1050E00070552078C00712BF6560680020702046A8
:1050F00004B070BD2DE9F04F81B00D466FF0100186
:10510000491B914246D304460078DDF828A0C00729
:105110004FF6E670C7F6FF7098460CBF04F1010920
:10512000D4F8089085420BD85019B0EB450F38BF22
:1051300068000B2826BF103020F00F070B2701E076
:105140006FF01007DDF82CB0384600F041FEBAF1E0
:10515000000F064604D0304649465246FBF781F917
:10516000A8EB0B00B0EB0A0208D00C9806EB0A0182
:10517000084409EB0A015944FBF773F90A2D02D0E0
:10518000484600F023FE47F00100A660206001B011
:10519000BDE8F08FFBF700F970B584B002780446E3
:1051A00012F001000D4605D0D4E9001621F00101EE
:1051B000013901E056080A218E4212D14FF0000C4D
:1051C000204601220B46CDE9001CCDF808C0FFF7B0
:1051D00091FF2078C00706D0A068711C616004466A
:1051E00006E00028F8D1022000EB460004F8010B8D
:1051F000A0190021A555417004B070BD2DE9F04102
:1052000004460020C4E90000A0600878C00706D169
:10521000D1E900028968C4E90002A1601FE04D687D
:1052200015F1100F1ED2D1F808800B2D05D26800A1
:10523000274607F8010B5DB90FE005F1100020F0DB
:105240000F06304600F0C4FD0746701C84E8A1003C
:10525000384641462A46FBF704F900207855204697
:10526000BDE8F081FBF798F810B504460078C00758
:1052700002D0A06800F0AAFD204610BD10B504467B
:1052800088420BD0087810F00102D1E9012304BF55
:105290004B1C420820461946FFF7F8FE204610BD79
:1052A00010B50446006810B1606000F08FFD204624
:1052B00010BD10B50446006810B1606000F086FDB6
:1052C000204610BD70B516460D4604460020C4E9C0
:1052D000030329B1B5F1804F0CD2A80000F078FD8E
:1052E00000EB860100EB8502C4E900012046C4E919
:1052F000021270BDFBF750F810B504464068A16873
:10530000884202D00439A160FAE7206808B100F0B1
:105310005DFD204610BD70B516460D4604460020C2
:10532000C4E9030329B1B5F1804F0CD2A80000F005
:105330004FFD00EB860100EB8502C4E90001204629
:10534000C4E9021270BDFBF727F810B504464068A7
:10535000A168884202D00439A160FAE7206808B148
:1053600000F034FD204610BD2DE9F84304469F1A95
:105370001ED0081B0D46B84219DB10781646C7F13F
:1053800001090DF103088DF80300281BB8420EDB5C
:1053900009EB000120464246FFF758FD38B131467F
:1053A0003A460446FFF75AFD10B10134EDE72C46AA
:1053B0002046BDE8F88310B541680A68426002B132
:1053C000906082688A608268134610CB844208BF6E
:1053D000134619608160086010BD10B501684A6805
:1053E000026002B1906082688A608268134610CBC6
:1053F000844208BF134619608160486010BD70B5D3
:105400000246081AB0FA80F040090123087391425D
:1054100019D08C68207BB0B9A0680568A54204D07B
:1054200095B115F80C6F2EB10EE04568E5B115F891
:105430000C6FCEB9811AB1FA81F149092373017356
:105440002B700146E3E770BD22688A4204D12046F2
:10545000FFF7C3FFA468A068012121730021017335
:10546000BDE87040FFF7A7BF22688A4204D02046FB
:10547000FFF7A1FFA468A068012121730021017337
:10548000BDE87040FFF7A9BF2DE9F0434EF20012CE
:10549000C0F2F55286469042084611D242F20F7190
:1054A0008E4526D8BEF1630F00F28B80BEF1090F46
:1054B00000F2CE800EF1300100F8011BBDE8F08350
:1054C00043F68931C5F2E651AEFB01135B0E4CF693
:1054D000FF1103FB12ECC3F69A314AF224798E4590
:1054E000C0F6000920D803F1300202704FF0010825
:1054F00023E041F25971CDF2B711AEFB011244F233
:105500003F21C0F20F018E454FEA52317BD848F25D
:105510009F62C0F20102964500F2A88001F13002BC
:1055200002704FF0010CF3E009EB430219F813305D
:1055300052784FF002080370427041F25973CDF275
:10554000B713ACFB033548F21F5E6B0BC5F34F344A
:10555000C5F2EB1E42F2107603FB16C3A4FB0E64E9
:1055600064099EB219F81410A6FB0E6209EB4407F9
:1055700000EB08067F7800F80810642004FB00F1B7
:10558000C1EB5531777089B209EB410719F8111059
:105590007F78B1705109F77009EB410219F8117069
:1055A000527801FB10303771727180B209EB400103
:1055B00019F810004978B07106F10800F171BDE8E2
:1055C000F08348F21F511FFA8EF3C5F2EB11A3FBD3
:1055D00001124FEADE017C294FEA521154D801F141
:1055E00030020270642201FB12314AF22472C0F6CA
:1055F000000202EB410312F811105A7841708270D8
:105600000330BDE8F08349F27F62C0F2980296450C
:1056100054D848F21F538AB2C5F2EB13A2FB0323FE
:1056200030224FEA531C02EB531264230CFB13137A
:105630004AF2247C02709AB2C0F6000C0CEB4203D2
:105640001CF812205B78427083704FF0030C5FE00F
:105650004AF22471C0F6000101EB4E0211F81E104F
:105660005278017042700230BDE8F0834AF2247231
:10567000C0F6000202EB410312F811205B780270C1
:1056800043704FF0020C43E04AF2247C8AB2C0F629
:10569000000C0CEB42031CF812205B7802706422B1
:1056A00001FB12E1437089B20CEB41021CF81110AE
:1056B00052788170C2700430BDE8F0834DF6836289
:1056C000C4F21B32AEFB022C48F21F538AB2C5F261
:1056D000EB13A2FB03344FEA9C434FEA541C6424AF
:1056E0000CFB14224AF22474C0F6000404EB430CB1
:1056F00014F813309CF801C0037080F801C004EB6B
:10570000420314F812205B784FF0040C8270C370CF
:1057100042F2107201FB12E148F21F548AB2C5F244
:10572000EB14A2FB04244AF2247E6409C0F6000EA6
:105730001EF814500EEB440300EB0C025B7800F8EB
:105740000C50642004FB1010537080B20EEB40012B
:105750001EF8100049789070101DD170BDE8F083DC
:1057600010B50446034654F8040FA0B11278043370
:10577000047CA24202D204683CB90FE0944207D2F2
:10578000034653F8044F1CB1184603462046EFE782
:105790000860184610BD20460C6010BD086010BDA2
:1057A0000978184632B1137C8B422CBF1046043264
:1057B0001268F7E7704770B50546182014460E1DAD
:1057C00000F006FB0121C5E9000629722178017469
:1057D0006168416170BD10B504460020C3E9000056
:1057E000996013602068006808B1206013686068E1
:1057F0001946FFF704FEA0680130A06010BDF0B5A7
:1058000085B00D46044604A928461E46FFF7A8FFAA
:105810000746006808B100210CE001A8294632467D
:10582000FFF7C9FF019B049928463A46FFF7D3FFCB
:10583000019801212171206005B0F0BDB0B504468A
:1058400054F8042F0D462346FFF7AAFF844203D0E5
:10585000017C2A788A4200D22046B0BD10B50446A9
:10586000034654F8040FA0B112780433047CA2421A
:1058700002D204683CB90FE0944207D2034653F8C1
:10588000044F1CB1184603462046EFE7086018464F
:1058900010BD20460C6010BD086010BD70B50646F6
:1058A0000C4656F8041F054600F057F8206828609B
:1058B000204650F8041F31604268AA60002A0FBFDA
:1058C0002E608E600021C4E9000118BFA16070BD88
:1058D00070B50546202014460E1D00F079FA01210E
:1058E000C5E9000629722178017494ED020B80ED60
:1058F000060B70BD10B504460020C3E90000996096
:1059000013602068006808B1206013686068194659
:10591000FFF775FDA0680130A06010BDF0B585B03F
:105920000D46044604A928461E46FFF797FF074682
:10593000006808B100210CE001A829463246FFF7B3
:10594000C7FF019B049928463A46FFF7D3FF019809
:1059500001212171206005B0F0BD71B1B0B50C46D8
:1059600009680546FFF7F9FF61682846FFF7F5FF6C
:105970002046BDE8B04000F029BA704710B5416834
:105980000446FFF7EAFF204610BD10B50446034663
:1059900054F8040FA0B112780433047CA24202D25E
:1059A00004683CB90FE0944207D2034653F8044F11
:1059B0001CB1184603462046EFE70860184610BDA4
:1059C00020460C6010BD086010BD0978184632B141
:1059D000137C8B422CBF104604321268F7E77047E5
:1059E00070B506460C4656F8041F054600F028F927
:1059F00020682860204650F8041F31604268AA6081
:105A0000002A0FBF2E608E600021C4E9000118BF7C
:105A1000A16070BD2DE9FC470546806891460E46A1
:105A2000002867D0294651F8042F28684FF0000A53
:105A30002960C5F808A0C1F800A0C2F808A047680E
:105A4000002F08BF07463FB1BC682CB12068B842A0
:105A500004D00021616004E0002406E00020206002
:105A6000606810B1FFF7E9F904460DF104089FB32F
:105A70004E4531D0307C3A4602F8100F70694146ED
:105A80007861284600F076F80199024628463B46A0
:105A900000F087F83CB1A06828B10168A14204D0A9
:105AA000C0F804A004E0002006E0C0F800A04168AF
:105AB00011B10846FFF7C1F9716829B10E460968AE
:105AC0000029FBD105E00E46B1680A68B242FAD15E
:105AD0000E4627460446CAE72846394600F0B0F885
